{
  "address": "0x636f72c136D96e50D82dbAfA0E309701E806D6d0",
  "abi": [
    {
      "inputs": [
        {
          "internalType": "address",
          "name": "_user",
          "type": "address"
        },
        {
          "internalType": "bool",
          "name": "_isBlock",
          "type": "bool"
        }
      ],
      "name": "admin_P2_blockUser",
      "outputs": [],
      "stateMutability": "nonpayable",
      "type": "function"
    },
    {
      "inputs": [
        {
          "internalType": "uint256",
          "name": "_layerNumber",
          "type": "uint256"
        },
        {
          "internalType": "uint256",
          "name": "_baseBalance",
          "type": "uint256"
        },
        {
          "internalType": "uint256",
          "name": "_plusBalance",
          "type": "uint256"
        },
        {
          "internalType": "uint256",
          "name": "_savedBaseBalance",
          "type": "uint256"
        },
        {
          "internalType": "uint256",
          "name": "_savedPlusBalance",
          "type": "uint256"
        }
      ],
      "name": "admin_P2_layer_balances_setting",
      "outputs": [
        {
          "internalType": "bool",
          "name": "",
          "type": "bool"
        }
      ],
      "stateMutability": "nonpayable",
      "type": "function"
    },
    {
      "inputs": [
        {
          "internalType": "uint256",
          "name": "_layerNumber",
          "type": "uint256"
        },
        {
          "internalType": "uint256",
          "name": "_rewardBasePercent",
          "type": "uint256"
        },
        {
          "internalType": "uint256",
          "name": "_rewardPlusPercent",
          "type": "uint256"
        }
      ],
      "name": "admin_P2_layer_setRewardPercent",
      "outputs": [],
      "stateMutability": "nonpayable",
      "type": "function"
    },
    {
      "inputs": [
        {
          "internalType": "uint256",
          "name": "_layerNumber",
          "type": "uint256"
        },
        {
          "internalType": "uint256",
          "name": "_fromP2BasePercent",
          "type": "uint256"
        },
        {
          "internalType": "uint256",
          "name": "_fromP2PlusPercent",
          "type": "uint256"
        },
        {
          "internalType": "uint256",
          "name": "_add_dailyReward_Percent",
          "type": "uint256"
        },
        {
          "internalType": "bool",
          "name": "_isOpen",
          "type": "bool"
        }
      ],
      "name": "admin_P2_layer_setting",
      "outputs": [],
      "stateMutability": "nonpayable",
      "type": "function"
    },
    {
      "inputs": [
        {
          "internalType": "uint256",
          "name": "_dailyRewardPercent",
          "type": "uint256"
        }
      ],
      "name": "admin_P2_setDailyRewardPercent",
      "outputs": [],
      "stateMutability": "nonpayable",
      "type": "function"
    },
    {
      "inputs": [
        {
          "internalType": "uint256",
          "name": "_maxLimit",
          "type": "uint256"
        }
      ],
      "name": "admin_P2_setMaxLimit",
      "outputs": [],
      "stateMutability": "nonpayable",
      "type": "function"
    },
    {
      "inputs": [
        {
          "internalType": "uint256",
          "name": "_baseBalance",
          "type": "uint256"
        },
        {
          "internalType": "uint256",
          "name": "_plusBalance",
          "type": "uint256"
        },
        {
          "internalType": "uint256",
          "name": "_dailyRewardPercent",
          "type": "uint256"
        },
        {
          "internalType": "uint256",
          "name": "_maxStakingLimit",
          "type": "uint256"
        },
        {
          "internalType": "uint256",
          "name": "_dayToSec",
          "type": "uint256"
        }
      ],
      "name": "admin_P2_start",
      "outputs": [
        {
          "internalType": "bool",
          "name": "",
          "type": "bool"
        }
      ],
      "stateMutability": "nonpayable",
      "type": "function"
    },
    {
      "inputs": [],
      "name": "admin_distribute_estimate",
      "outputs": [
        {
          "internalType": "bool",
          "name": "",
          "type": "bool"
        },
        {
          "internalType": "uint256",
          "name": "",
          "type": "uint256"
        },
        {
          "internalType": "uint256",
          "name": "",
          "type": "uint256"
        }
      ],
      "stateMutability": "view",
      "type": "function"
    },
    {
      "inputs": [],
      "name": "admin_distribute_getBeforAmounts",
      "outputs": [
        {
          "internalType": "uint256",
          "name": "",
          "type": "uint256"
        },
        {
          "internalType": "uint256",
          "name": "",
          "type": "uint256"
        },
        {
          "internalType": "uint256",
          "name": "",
          "type": "uint256"
        }
      ],
      "stateMutability": "view",
      "type": "function"
    },
    {
      "inputs": [],
      "name": "admin_distribute_getStates",
      "outputs": [
        {
          "internalType": "uint24",
          "name": "",
          "type": "uint24"
        },
        {
          "internalType": "uint24",
          "name": "",
          "type": "uint24"
        },
        {
          "internalType": "uint24",
          "name": "",
          "type": "uint24"
        },
        {
          "internalType": "uint24",
          "name": "",
          "type": "uint24"
        },
        {
          "internalType": "uint24",
          "name": "",
          "type": "uint24"
        },
        {
          "internalType": "uint256",
          "name": "",
          "type": "uint256"
        },
        {
          "internalType": "uint256",
          "name": "",
          "type": "uint256"
        }
      ],
      "stateMutability": "view",
      "type": "function"
    },
    {
      "inputs": [
        {
          "internalType": "uint256",
          "name": "_limit",
          "type": "uint256"
        }
      ],
      "name": "admin_distribute_ksSwapLimit",
      "outputs": [],
      "stateMutability": "nonpayable",
      "type": "function"
    },
    {
      "inputs": [
        {
          "internalType": "bool",
          "name": "_isAuto",
          "type": "bool"
        }
      ],
      "name": "admin_distribute_setAuto",
      "outputs": [],
      "stateMutability": "nonpayable",
      "type": "function"
    },
    {
      "inputs": [
        {
          "internalType": "uint24",
          "name": "_p1Ratio",
          "type": "uint24"
        },
        {
          "internalType": "uint24",
          "name": "_p2BaseRatio",
          "type": "uint24"
        },
        {
          "internalType": "uint24",
          "name": "_p2PlusRatio",
          "type": "uint24"
        },
        {
          "internalType": "uint24",
          "name": "_burnRatio",
          "type": "uint24"
        },
        {
          "internalType": "uint24",
          "name": "_teamFeeRatio",
          "type": "uint24"
        }
      ],
      "name": "admin_distribute_setStates",
      "outputs": [],
      "stateMutability": "nonpayable",
      "type": "function"
    },
    {
      "inputs": [
        {
          "internalType": "uint256",
          "name": "_agencyIncomePercent",
          "type": "uint256"
        },
        {
          "internalType": "uint256",
          "name": "_influencerIncomePercent",
          "type": "uint256"
        }
      ],
      "name": "admin_distribute_userStates",
      "outputs": [],
      "stateMutability": "nonpayable",
      "type": "function"
    },
    {
      "inputs": [
        {
          "internalType": "uint8",
          "name": "_gradeIndex",
          "type": "uint8"
        }
      ],
      "name": "admin_p0_getGradeInfos",
      "outputs": [
        {
          "internalType": "bool",
          "name": "",
          "type": "bool"
        },
        {
          "internalType": "uint256",
          "name": "",
          "type": "uint256"
        },
        {
          "internalType": "uint24",
          "name": "",
          "type": "uint24"
        },
        {
          "internalType": "uint16",
          "name": "",
          "type": "uint16"
        },
        {
          "internalType": "uint24",
          "name": "",
          "type": "uint24"
        },
        {
          "internalType": "uint24",
          "name": "",
          "type": "uint24"
        }
      ],
      "stateMutability": "view",
      "type": "function"
    },
    {
      "inputs": [
        {
          "internalType": "uint8",
          "name": "_grade",
          "type": "uint8"
        }
      ],
      "name": "admin_p0_getMetadataMargin",
      "outputs": [
        {
          "internalType": "uint256",
          "name": "",
          "type": "uint256"
        },
        {
          "internalType": "uint256",
          "name": "",
          "type": "uint256"
        },
        {
          "internalType": "uint256",
          "name": "",
          "type": "uint256"
        }
      ],
      "stateMutability": "view",
      "type": "function"
    },
    {
      "inputs": [
        {
          "internalType": "uint256",
          "name": "_grade",
          "type": "uint256"
        }
      ],
      "name": "admin_p0_getPerFriendsProb",
      "outputs": [
        {
          "internalType": "string",
          "name": "",
          "type": "string"
        },
        {
          "internalType": "uint24",
          "name": "",
          "type": "uint24"
        }
      ],
      "stateMutability": "view",
      "type": "function"
    },
    {
      "inputs": [],
      "name": "admin_p0_getStates",
      "outputs": [
        {
          "internalType": "uint24",
          "name": "",
          "type": "uint24"
        },
        {
          "internalType": "uint256",
          "name": "",
          "type": "uint256"
        },
        {
          "internalType": "uint16",
          "name": "",
          "type": "uint16"
        },
        {
          "internalType": "bool",
          "name": "",
          "type": "bool"
        }
      ],
      "stateMutability": "view",
      "type": "function"
    },
    {
      "inputs": [
        {
          "internalType": "uint8",
          "name": "_gradeIndex",
          "type": "uint8"
        },
        {
          "internalType": "bool",
          "name": "_isOpen",
          "type": "bool"
        },
        {
          "internalType": "uint256",
          "name": "_mixFee",
          "type": "uint256"
        },
        {
          "internalType": "uint24",
          "name": "_initBaseProb",
          "type": "uint24"
        },
        {
          "internalType": "uint16",
          "name": "_mixExp",
          "type": "uint16"
        },
        {
          "internalType": "uint24",
          "name": "_failedAddProbMin",
          "type": "uint24"
        },
        {
          "internalType": "uint24",
          "name": "_failedAddProbMax",
          "type": "uint24"
        }
      ],
      "name": "admin_p0_setGradeInfos",
      "outputs": [],
      "stateMutability": "nonpayable",
      "type": "function"
    },
    {
      "inputs": [
        {
          "internalType": "uint8",
          "name": "_grade",
          "type": "uint8"
        },
        {
          "internalType": "string",
          "name": "_gradeName",
          "type": "string"
        },
        {
          "internalType": "uint256",
          "name": "_mergeFee",
          "type": "uint256"
        },
        {
          "internalType": "uint256",
          "name": "_mergeUseItemAmount",
          "type": "uint256"
        },
        {
          "internalType": "uint256",
          "name": "_latestId",
          "type": "uint256"
        },
        {
          "internalType": "bool",
          "name": "_isOpen",
          "type": "bool"
        }
      ],
      "name": "admin_p0_setMergeGradesInfo",
      "outputs": [],
      "stateMutability": "nonpayable",
      "type": "function"
    },
    {
      "inputs": [
        {
          "internalType": "uint256",
          "name": "_pfId",
          "type": "uint256"
        },
        {
          "internalType": "uint8",
          "name": "_grade",
          "type": "uint8"
        },
        {
          "internalType": "string",
          "name": "_seedHash",
          "type": "string"
        }
      ],
      "name": "admin_p0_setMetaData",
      "outputs": [],
      "stateMutability": "nonpayable",
      "type": "function"
    },
    {
      "inputs": [
        {
          "internalType": "uint256",
          "name": "_grade",
          "type": "uint256"
        },
        {
          "internalType": "string",
          "name": "_pfGrade",
          "type": "string"
        },
        {
          "internalType": "uint24",
          "name": "_gradeProb",
          "type": "uint24"
        }
      ],
      "name": "admin_p0_setPerFriendsProb",
      "outputs": [],
      "stateMutability": "nonpayable",
      "type": "function"
    },
    {
      "inputs": [
        {
          "internalType": "uint24",
          "name": "_maxProb",
          "type": "uint24"
        },
        {
          "internalType": "uint256",
          "name": "_addProbFee",
          "type": "uint256"
        },
        {
          "internalType": "uint16",
          "name": "_addProbExp",
          "type": "uint16"
        },
        {
          "internalType": "bool",
          "name": "_isVRF",
          "type": "bool"
        }
      ],
      "name": "admin_p0_setStates",
      "outputs": [],
      "stateMutability": "nonpayable",
      "type": "function"
    },
    {
      "inputs": [
        {
          "internalType": "uint256",
          "name": "_mintFee",
          "type": "uint256"
        }
      ],
      "name": "admin_setAienMintFee",
      "outputs": [],
      "stateMutability": "nonpayable",
      "type": "function"
    }
  ],
  "args": [],
  "numDeployments": 41,
  "solcInputHash": "537abb3b4c0b8dbeeeaa5c3787bd8935",
  "bytecode": "0x608060405234801561001057600080fd5b5061156c806100206000396000f3fe608060405234801561001057600080fd5b50600436106101585760003560e01c80639b0988f1116100c3578063c7809e2f1161007c578063c7809e2f146103c3578063cc6d37d6146103d6578063ced1c987146103e9578063cf6c4678146103fc578063d1a71d311461040f578063ef404fa21461042257600080fd5b80639b0988f1146102f0578063a451755314610342578063b545c43f14610355578063b5643cdb14610368578063b75670e01461037b578063c093fb0d146103a057600080fd5b806345d08ac61161011557806345d08ac6146102755780635c53ddae1461028857806368f2571e1461029b5780636e8e2fa6146102ae57806374e35d19146102c15780637fe5cca1146102cf57600080fd5b8063025aa16c1461015d5780631ad1d5dc146101725780631b907b2c1461018557806323143abd146101b857806324eb911e146101cb5780633a8e18de14610233575b600080fd5b61017061016b366004610ea6565b610435565b005b610170610180366004610f10565b6104f4565b610198610193366004610f67565b610541565b604080519384526020840192909252908201526060015b60405180910390f35b6101706101c6366004610f89565b61057d565b602954602f546030546040805162ffffff8086168252630100000086048116602083015266010000000000008604811692820192909252600160481b850482166060820152600160601b90940416608084015260a083019190915260c082015260e0016101af565b6001546002546003546040805162ffffff9094168452602084019290925261ffff81169183019190915262010000900460ff16151560608201526080016101af565b610170610283366004610fb5565b6105a2565b610170610296366004610fb5565b6105af565b6101706102a9366004610fb5565b6105bc565b6101706102bc366004610fde565b6105c9565b602654602854602754610198565b6102e26102dd366004610fb5565b610612565b6040516101af92919061106d565b6103036102fe366004610f67565b6106cc565b604080519615158752602087019590955262ffffff9384169486019490945261ffff9091166060850152811660808401521660a082015260c0016101af565b610170610350366004611094565b6107db565b6101706103633660046110ed565b610860565b610170610376366004610fb5565b61087b565b610383610888565b6040805193151584526020840192909252908201526060016101af565b6103b36103ae366004611108565b6108a0565b60405190151581526020016101af565b6101706103d1366004611155565b6108d7565b6101706103e43660046111d4565b610a27565b6101706103f73660046111f6565b610a3a565b61017061040a366004611270565b610ab1565b6103b361041d366004611108565b610ae4565b6101706104303660046112b1565b610b42565b61043d610b84565b6000838152602e602052604081206104558382611389565b5060ff83166000908152602d82016020526040908190206005018590555161323160f11b8152819060020190815260405190819003602001812054636ff7d6c560e01b82526001600160a01b031690636ff7d6c5906104bc90879087908790600401611449565b600060405180830381600087803b1580156104d657600080fd5b505af11580156104ea573d6000803e3d6000fd5b5050505050505050565b6104fc610b84565b60008381526025602052604081206105148482611389565b5060009384526025016020526040909220600101805462ffffff191662ffffff9093169290921790915550565b60ff81166000908152602d6020526040812060048101546005909101548291829182919061056f8282611474565b935093509350509193909250565b610585610b84565b600092835260436020526040909220600c810191909155600d0155565b6105aa610b84565b603755565b6105b7610b84565b602b55565b6105c4610b84565b603455565b6105d1610b84565b600094855260436020526040909420600a810193909355600b830191909155620186a0600c830155600d820155601301805460ff1916911515919091179055565b600081815260256020526040812060018101548154606093928392909162ffffff909116908290610642906112fe565b80601f016020809104026020016040519081016040528092919081815260200182805461066e906112fe565b80156106bb5780601f10610690576101008083540402835291602001916106bb565b820191906000526020600020905b81548152906001019060200180831161069e57829003601f168201915b505050505091509250925050915091565b6000808080808080600460ff8916600b81106106ea576106ea61149b565b600302015460ff9081169060048301908a16600b811061070c5761070c61149b565b6003020160010154826004018a60ff16600b811061072c5761072c61149b565b600302016002015462ffffff166004840160ff8c16600b81106107515761075161149b565b6003020160020160039054906101000a900461ffff16846004018c60ff16600b811061077f5761077f61149b565b6003020160020160059054906101000a900462ffffff16856004018d60ff16600b81106107ae576107ae61149b565b6003020160020160089054906101000a900462ffffff169650965096509650965096505091939550919395565b6107e3610b84565b6029805462ffffff928316600160601b0262ffffff60601b19948416600160481b026bffffff00000000000000000019968516660100000000000002969096166bffffffffffff0000000000001997851663010000000265ffffffffffff1990931698909416979097171794909416179190911716919091179055565b610868610b84565b602c805460ff1916911515919091179055565b610883610b84565b602a55565b6000806000610895610c11565b925092509250909192565b60006108aa610b84565b50600094855260436020526040909420928355600180840192909255600283015560039091019190915590565b6108df610b84565b600086600460ff8a16600b81106108f8576108f861149b565b60030201805460ff1916911515919091179055856004820160ff8a16600b81106109245761092461149b565b600302016001018190555084816004018960ff16600b81106109485761094861149b565b6003020160020160006101000a81548162ffffff021916908362ffffff16021790555083816004018960ff16600b81106109845761098461149b565b6003020160020160036101000a81548161ffff021916908361ffff16021790555082816004018960ff16600b81106109be576109be61149b565b6003020160020160056101000a81548162ffffff021916908362ffffff16021790555081816004018960ff16600b81106109fa576109fa61149b565b6003020160020160086101000a81548162ffffff021916908362ffffff1602179055505050505050505050565b610a2f610b84565b602f91909155603055565b610a42610b84565b60ff86166000818152602d60205260408120805460ff1916909217825590600101610a6d8782611389565b5060ff969096166000908152602d9096016020526040909520600281019390935560038301919091556004820155600601805460ff19169215159290921790915550565b610ab9610b84565b6001600160a01b03919091166000908152604060208190529020805460ff1916911515919091179055565b6000610aee610b84565b6031805460ff19166001179055620186a060395564e8d4a51000603a5560388290556032869055603385905560348490556000610b2b8343611474565b603582015560370183905550600195945050505050565b610b4a610b84565b6001805462ffffff9590951662ffffff199586161790556002929092556003805492151562010000029290931661ffff9190911617179055565b7fc8fcad8db84d3cc18b4c41d551ea0ee66dd599cde068d998e57d5e09332c131c600401546001600160a01b03163314610c0f5760405162461bcd60e51b815260206004820152602260248201527f4c69624469616d6f6e643a204d75737420626520636f6e7472616374206f776e60448201526132b960f11b606482015260840160405180910390fd5b565b60008080806060600082600001604051610c3490623832b960e91b815260030190565b908152604051908190036020018120546370a0823160e01b82523060048301526001600160a01b0316906370a0823190602401602060405180830381865afa158015610c84573d6000803e3d6000fd5b505050506040513d601f19601f82011682018060405250810190610ca891906114b1565b6040516b1adb185e5cddd85c1d5d1a5b60a21b81529091506000908490600c01908152604051908190036020018120546001600160a01b03169063692ca7a0908690610cfd90623832b960e91b815260030190565b908152604051908190036020018120546001600160a01b0316908790610d2c90623832b960e91b815260030190565b908152604051908190036020018120546001600160e01b031960e085901b168252610d6a92916001600160a01b0390911690879089906004016114ca565b602060405180830381865afa158015610d87573d6000803e3d6000fd5b505050506040513d601f19601f82011682018060405250810190610dab91906114b1565b905083602b015481118015610dc95750602c84015460ff1615156001145b15610ddc57600197919650945092505050565b506000968796508695509350505050565b803560ff81168114610dfe57600080fd5b919050565b634e487b7160e01b600052604160045260246000fd5b600082601f830112610e2a57600080fd5b813567ffffffffffffffff80821115610e4557610e45610e03565b604051601f8301601f19908116603f01168101908282118183101715610e6d57610e6d610e03565b81604052838152866020858801011115610e8657600080fd5b836020870160208301376000602085830101528094505050505092915050565b600080600060608486031215610ebb57600080fd5b83359250610ecb60208501610ded565b9150604084013567ffffffffffffffff811115610ee757600080fd5b610ef386828701610e19565b9150509250925092565b803562ffffff81168114610dfe57600080fd5b600080600060608486031215610f2557600080fd5b83359250602084013567ffffffffffffffff811115610f4357600080fd5b610f4f86828701610e19565b925050610f5e60408501610efd565b90509250925092565b600060208284031215610f7957600080fd5b610f8282610ded565b9392505050565b600080600060608486031215610f9e57600080fd5b505081359360208301359350604090920135919050565b600060208284031215610fc757600080fd5b5035919050565b80358015158114610dfe57600080fd5b600080600080600060a08688031215610ff657600080fd5b8535945060208601359350604086013592506060860135915061101b60808701610fce565b90509295509295909350565b6000815180845260005b8181101561104d57602081850181015186830182015201611031565b506000602082860101526020601f19601f83011685010191505092915050565b6040815260006110806040830185611027565b905062ffffff831660208301529392505050565b600080600080600060a086880312156110ac57600080fd5b6110b586610efd565b94506110c360208701610efd565b93506110d160408701610efd565b92506110df60608701610efd565b915061101b60808701610efd565b6000602082840312156110ff57600080fd5b610f8282610fce565b600080600080600060a0868803121561112057600080fd5b505083359560208501359550604085013594606081013594506080013592509050565b803561ffff81168114610dfe57600080fd5b600080600080600080600060e0888a03121561117057600080fd5b61117988610ded565b965061118760208901610fce565b95506040880135945061119c60608901610efd565b93506111aa60808901611143565b92506111b860a08901610efd565b91506111c660c08901610efd565b905092959891949750929550565b600080604083850312156111e757600080fd5b50508035926020909101359150565b60008060008060008060c0878903121561120f57600080fd5b61121887610ded565b9550602087013567ffffffffffffffff81111561123457600080fd5b61124089828a01610e19565b95505060408701359350606087013592506080870135915061126460a08801610fce565b90509295509295509295565b6000806040838503121561128357600080fd5b82356001600160a01b038116811461129a57600080fd5b91506112a860208401610fce565b90509250929050565b600080600080608085870312156112c757600080fd5b6112d085610efd565b9350602085013592506112e560408601611143565b91506112f360608601610fce565b905092959194509250565b600181811c9082168061131257607f821691505b60208210810361133257634e487b7160e01b600052602260045260246000fd5b50919050565b601f821115611384576000816000526020600020601f850160051c810160208610156113615750805b601f850160051c820191505b818110156113805782815560010161136d565b5050505b505050565b815167ffffffffffffffff8111156113a3576113a3610e03565b6113b7816113b184546112fe565b84611338565b602080601f8311600181146113ec57600084156113d45750858301515b600019600386901b1c1916600185901b178555611380565b600085815260208120601f198616915b8281101561141b578886015182559484019460019091019084016113fc565b50858210156114395787850151600019600388901b60f8161c191681555b5050505050600190811b01905550565b83815260ff8316602082015260606040820152600061146b6060830184611027565b95945050505050565b8181038181111561149557634e487b7160e01b600052601160045260246000fd5b92915050565b634e487b7160e01b600052603260045260246000fd5b6000602082840312156114c357600080fd5b5051919050565b60006080820160018060a01b038088168452602081881660208601528660408601526080606086015282865180855260a08701915060208801945060005b81811015611526578551851683529483019491830191600101611508565b50909a995050505050505050505056fea2646970667358221220fa1f29d40fe43f532791f8eeda20599afbecac7822a44f03d174b2335cf395b064736f6c63430008160033",
  "devdoc": {
    "kind": "dev",
    "methods": {
      "admin_P2_start(uint256,uint256,uint256,uint256,uint256)": {
        "details": "P2 Admin functions"
      },
      "admin_distribute_setStates(uint24,uint24,uint24,uint24,uint24)": {
        "details": "DistriBute Admin functions"
      },
      "admin_p0_setStates(uint24,uint256,uint16,bool)": {
        "details": "P0 Admin functions"
      },
      "admin_setAienMintFee(uint256)": {
        "details": "aien mint variables"
      }
    },
    "version": 1
  },
  "userdoc": {
    "kind": "user",
    "methods": {},
    "version": 1
  },
  "storageLayout": {
    "storage": [],
    "types": null
  }
}