{
  "address": "0xdf838Cf42c1Cd294B1b8a43E09C1ffdDfB1AF78e",
  "abi": [
    {
      "inputs": [
        {
          "internalType": "address",
          "name": "_user",
          "type": "address"
        },
        {
          "internalType": "bool",
          "name": "_isBlock",
          "type": "bool"
        }
      ],
      "name": "admin_P2_blockUser",
      "outputs": [],
      "stateMutability": "nonpayable",
      "type": "function"
    },
    {
      "inputs": [
        {
          "internalType": "uint256",
          "name": "_layerNumber",
          "type": "uint256"
        },
        {
          "internalType": "uint256",
          "name": "_baseBalance",
          "type": "uint256"
        },
        {
          "internalType": "uint256",
          "name": "_plusBalance",
          "type": "uint256"
        },
        {
          "internalType": "uint256",
          "name": "_savedBaseBalance",
          "type": "uint256"
        },
        {
          "internalType": "uint256",
          "name": "_savedPlusBalance",
          "type": "uint256"
        }
      ],
      "name": "admin_P2_layer_balances_setting",
      "outputs": [
        {
          "internalType": "bool",
          "name": "",
          "type": "bool"
        }
      ],
      "stateMutability": "nonpayable",
      "type": "function"
    },
    {
      "inputs": [
        {
          "internalType": "uint256",
          "name": "_layerNumber",
          "type": "uint256"
        },
        {
          "internalType": "uint256",
          "name": "_rewardBasePercent",
          "type": "uint256"
        },
        {
          "internalType": "uint256",
          "name": "_rewardPlusPercent",
          "type": "uint256"
        }
      ],
      "name": "admin_P2_layer_setRewardPercent",
      "outputs": [],
      "stateMutability": "nonpayable",
      "type": "function"
    },
    {
      "inputs": [
        {
          "internalType": "uint256",
          "name": "_layerNumber",
          "type": "uint256"
        },
        {
          "internalType": "uint256",
          "name": "_fromP2BasePercent",
          "type": "uint256"
        },
        {
          "internalType": "uint256",
          "name": "_fromP2PlusPercent",
          "type": "uint256"
        },
        {
          "internalType": "uint256",
          "name": "_add_dailyReward_Percent",
          "type": "uint256"
        },
        {
          "internalType": "bool",
          "name": "_isOpen",
          "type": "bool"
        }
      ],
      "name": "admin_P2_layer_setting",
      "outputs": [],
      "stateMutability": "nonpayable",
      "type": "function"
    },
    {
      "inputs": [
        {
          "internalType": "uint256",
          "name": "_dailyRewardPercent",
          "type": "uint256"
        }
      ],
      "name": "admin_P2_setDailyRewardPercent",
      "outputs": [],
      "stateMutability": "nonpayable",
      "type": "function"
    },
    {
      "inputs": [
        {
          "internalType": "uint256",
          "name": "_maxLimit",
          "type": "uint256"
        }
      ],
      "name": "admin_P2_setMaxLimit",
      "outputs": [],
      "stateMutability": "nonpayable",
      "type": "function"
    },
    {
      "inputs": [
        {
          "internalType": "uint256",
          "name": "_baseBalance",
          "type": "uint256"
        },
        {
          "internalType": "uint256",
          "name": "_plusBalance",
          "type": "uint256"
        },
        {
          "internalType": "uint256",
          "name": "_dailyRewardPercent",
          "type": "uint256"
        },
        {
          "internalType": "uint256",
          "name": "_maxStakingLimit",
          "type": "uint256"
        }
      ],
      "name": "admin_P2_start",
      "outputs": [
        {
          "internalType": "bool",
          "name": "",
          "type": "bool"
        }
      ],
      "stateMutability": "nonpayable",
      "type": "function"
    },
    {
      "inputs": [],
      "name": "admin_distribute_estimate",
      "outputs": [
        {
          "internalType": "bool",
          "name": "",
          "type": "bool"
        },
        {
          "internalType": "uint256",
          "name": "",
          "type": "uint256"
        },
        {
          "internalType": "uint256",
          "name": "",
          "type": "uint256"
        }
      ],
      "stateMutability": "view",
      "type": "function"
    },
    {
      "inputs": [],
      "name": "admin_distribute_getBeforAmounts",
      "outputs": [
        {
          "internalType": "uint256",
          "name": "",
          "type": "uint256"
        },
        {
          "internalType": "uint256",
          "name": "",
          "type": "uint256"
        },
        {
          "internalType": "uint256",
          "name": "",
          "type": "uint256"
        }
      ],
      "stateMutability": "view",
      "type": "function"
    },
    {
      "inputs": [],
      "name": "admin_distribute_getStates",
      "outputs": [
        {
          "internalType": "uint24",
          "name": "",
          "type": "uint24"
        },
        {
          "internalType": "uint24",
          "name": "",
          "type": "uint24"
        },
        {
          "internalType": "uint24",
          "name": "",
          "type": "uint24"
        },
        {
          "internalType": "uint24",
          "name": "",
          "type": "uint24"
        },
        {
          "internalType": "uint24",
          "name": "",
          "type": "uint24"
        },
        {
          "internalType": "uint256",
          "name": "",
          "type": "uint256"
        },
        {
          "internalType": "uint256",
          "name": "",
          "type": "uint256"
        }
      ],
      "stateMutability": "view",
      "type": "function"
    },
    {
      "inputs": [
        {
          "internalType": "uint256",
          "name": "_limit",
          "type": "uint256"
        }
      ],
      "name": "admin_distribute_ksSwapLimit",
      "outputs": [],
      "stateMutability": "nonpayable",
      "type": "function"
    },
    {
      "inputs": [
        {
          "internalType": "bool",
          "name": "_isAuto",
          "type": "bool"
        }
      ],
      "name": "admin_distribute_setAuto",
      "outputs": [],
      "stateMutability": "nonpayable",
      "type": "function"
    },
    {
      "inputs": [
        {
          "internalType": "uint24",
          "name": "_p1Ratio",
          "type": "uint24"
        },
        {
          "internalType": "uint24",
          "name": "_p2PerRatio",
          "type": "uint24"
        },
        {
          "internalType": "uint24",
          "name": "_p2UsdtRatio",
          "type": "uint24"
        },
        {
          "internalType": "uint24",
          "name": "_burnRatio",
          "type": "uint24"
        },
        {
          "internalType": "uint24",
          "name": "_teamUsdtRatio",
          "type": "uint24"
        }
      ],
      "name": "admin_distribute_setStates",
      "outputs": [],
      "stateMutability": "nonpayable",
      "type": "function"
    },
    {
      "inputs": [],
      "name": "admin_distribute_swap",
      "outputs": [],
      "stateMutability": "nonpayable",
      "type": "function"
    },
    {
      "inputs": [
        {
          "internalType": "uint256",
          "name": "_agencyIncomePercent",
          "type": "uint256"
        },
        {
          "internalType": "uint256",
          "name": "_influencerIncomePercent",
          "type": "uint256"
        }
      ],
      "name": "admin_distribute_userStates",
      "outputs": [],
      "stateMutability": "nonpayable",
      "type": "function"
    },
    {
      "inputs": [
        {
          "internalType": "uint8",
          "name": "_gradeIndex",
          "type": "uint8"
        }
      ],
      "name": "admin_p0_getGradeInfos",
      "outputs": [
        {
          "internalType": "bool",
          "name": "",
          "type": "bool"
        },
        {
          "internalType": "uint256",
          "name": "",
          "type": "uint256"
        },
        {
          "internalType": "uint24",
          "name": "",
          "type": "uint24"
        },
        {
          "internalType": "uint16",
          "name": "",
          "type": "uint16"
        },
        {
          "internalType": "uint24",
          "name": "",
          "type": "uint24"
        },
        {
          "internalType": "uint24",
          "name": "",
          "type": "uint24"
        }
      ],
      "stateMutability": "view",
      "type": "function"
    },
    {
      "inputs": [
        {
          "internalType": "uint8",
          "name": "_grade",
          "type": "uint8"
        }
      ],
      "name": "admin_p0_getMetadataMargin",
      "outputs": [
        {
          "internalType": "uint256",
          "name": "",
          "type": "uint256"
        },
        {
          "internalType": "uint256",
          "name": "",
          "type": "uint256"
        },
        {
          "internalType": "uint256",
          "name": "",
          "type": "uint256"
        }
      ],
      "stateMutability": "view",
      "type": "function"
    },
    {
      "inputs": [
        {
          "internalType": "uint256",
          "name": "_grade",
          "type": "uint256"
        }
      ],
      "name": "admin_p0_getPerFriendsProb",
      "outputs": [
        {
          "internalType": "string",
          "name": "",
          "type": "string"
        },
        {
          "internalType": "uint24",
          "name": "",
          "type": "uint24"
        }
      ],
      "stateMutability": "view",
      "type": "function"
    },
    {
      "inputs": [],
      "name": "admin_p0_getStates",
      "outputs": [
        {
          "internalType": "uint24",
          "name": "",
          "type": "uint24"
        },
        {
          "internalType": "uint256",
          "name": "",
          "type": "uint256"
        },
        {
          "internalType": "uint16",
          "name": "",
          "type": "uint16"
        },
        {
          "internalType": "bool",
          "name": "",
          "type": "bool"
        }
      ],
      "stateMutability": "view",
      "type": "function"
    },
    {
      "inputs": [
        {
          "internalType": "uint8",
          "name": "_gradeIndex",
          "type": "uint8"
        },
        {
          "internalType": "bool",
          "name": "_isOpen",
          "type": "bool"
        },
        {
          "internalType": "uint256",
          "name": "_mixFee",
          "type": "uint256"
        },
        {
          "internalType": "uint24",
          "name": "_initBaseProb",
          "type": "uint24"
        },
        {
          "internalType": "uint16",
          "name": "_mixExp",
          "type": "uint16"
        },
        {
          "internalType": "uint24",
          "name": "_failedAddProbMin",
          "type": "uint24"
        },
        {
          "internalType": "uint24",
          "name": "_failedAddProbMax",
          "type": "uint24"
        }
      ],
      "name": "admin_p0_setGradeInfos",
      "outputs": [],
      "stateMutability": "nonpayable",
      "type": "function"
    },
    {
      "inputs": [
        {
          "internalType": "uint8",
          "name": "_grade",
          "type": "uint8"
        },
        {
          "internalType": "string",
          "name": "_gradeName",
          "type": "string"
        },
        {
          "internalType": "uint256",
          "name": "_mergeFee",
          "type": "uint256"
        },
        {
          "internalType": "uint256",
          "name": "_mergeUseItemAmount",
          "type": "uint256"
        },
        {
          "internalType": "uint256",
          "name": "_latestId",
          "type": "uint256"
        },
        {
          "internalType": "bool",
          "name": "_isOpen",
          "type": "bool"
        }
      ],
      "name": "admin_p0_setMergeGradesInfo",
      "outputs": [],
      "stateMutability": "nonpayable",
      "type": "function"
    },
    {
      "inputs": [
        {
          "internalType": "uint256",
          "name": "_pfId",
          "type": "uint256"
        },
        {
          "internalType": "uint8",
          "name": "_grade",
          "type": "uint8"
        },
        {
          "internalType": "string",
          "name": "_seedHash",
          "type": "string"
        }
      ],
      "name": "admin_p0_setMetaData",
      "outputs": [],
      "stateMutability": "nonpayable",
      "type": "function"
    },
    {
      "inputs": [
        {
          "internalType": "uint256",
          "name": "_grade",
          "type": "uint256"
        },
        {
          "internalType": "string",
          "name": "_pfGrade",
          "type": "string"
        },
        {
          "internalType": "uint24",
          "name": "_gradeProb",
          "type": "uint24"
        }
      ],
      "name": "admin_p0_setPerFriendsProb",
      "outputs": [],
      "stateMutability": "nonpayable",
      "type": "function"
    },
    {
      "inputs": [
        {
          "internalType": "uint24",
          "name": "_maxProb",
          "type": "uint24"
        },
        {
          "internalType": "uint256",
          "name": "_addProbFee",
          "type": "uint256"
        },
        {
          "internalType": "uint16",
          "name": "_addProbExp",
          "type": "uint16"
        },
        {
          "internalType": "bool",
          "name": "_isVRF",
          "type": "bool"
        }
      ],
      "name": "admin_p0_setStates",
      "outputs": [],
      "stateMutability": "nonpayable",
      "type": "function"
    },
    {
      "inputs": [
        {
          "internalType": "uint256",
          "name": "_mintFee",
          "type": "uint256"
        }
      ],
      "name": "admin_setAienMintFee",
      "outputs": [],
      "stateMutability": "nonpayable",
      "type": "function"
    }
  ],
  "transactionHash": "0x8bdc8267b8d37e19980fab270e0ce9fbc993476f2937a067fc3228dbbb09e766",
  "args": [],
  "numDeployments": 29,
  "solcInputHash": "67b540335cef7089369425fb292648f9",
  "bytecode": "0x608060405234801561001057600080fd5b50611c2c806100206000396000f3fe608060405234801561001057600080fd5b50600436106101735760003560e01c80637fe5cca1116100de578063be5de2fb11610097578063cc6d37d611610071578063cc6d37d614610409578063ced1c9871461041c578063cf6c46781461042f578063ef404fa21461044257600080fd5b8063be5de2fb146103db578063c093fb0d146103e3578063c7809e2f146103f657600080fd5b80637fe5cca11461030a5780639b0988f11461032b578063a45175531461037d578063b545c43f14610390578063b5643cdb146103a3578063b75670e0146103b657600080fd5b80633a8e18de116101305780633a8e18de1461026e57806345d08ac6146102b05780635c53ddae146102c357806368f2571e146102d65780636e8e2fa6146102e957806374e35d19146102fc57600080fd5b8063012b225314610178578063025aa16c146101a05780631ad1d5dc146101b55780631b907b2c146101c857806323143abd146101f657806324eb911e14610209575b600080fd5b61018b610186366004611371565b610455565b60405190151581526020015b60405180910390f35b6101b36101ae36600461145c565b6104b7565b005b6101b36101c33660046114c6565b610576565b6101db6101d636600461151d565b6105c3565b60408051938452602084019290925290820152606001610197565b6101b361020436600461153f565b6105ff565b602954602f546030546040805162ffffff80861682526301000000860481166020830152600160301b8604811692820192909252600160481b850482166060820152600160601b90940416608084015260a083019190915260c082015260e001610197565b6001546002546003546040805162ffffff9094168452602084019290925261ffff81169183019190915262010000900460ff1615156060820152608001610197565b6101b36102be36600461156b565b610624565b6101b36102d136600461156b565b610631565b6101b36102e436600461156b565b61063e565b6101b36102f7366004611595565b61064b565b6026546028546027546101db565b61031d61031836600461156b565b610694565b604051610197929190611628565b61033e61033936600461151d565b61074e565b604080519615158752602087019590955262ffffff9384169486019490945261ffff9091166060850152811660808401521660a082015260c001610197565b6101b361038b36600461164f565b61085d565b6101b361039e3660046116b4565b6108df565b6101b36103b136600461156b565b6108fa565b6103be610907565b604080519315158452602084019290925290820152606001610197565b6101b361091f565b61018b6103f13660046116d1565b610931565b6101b361040436600461171e565b610966565b6101b361041736600461179f565b610ab6565b6101b361042a3660046117c1565b610ac9565b6101b361043d36600461183f565b610b40565b6101b3610450366004611884565b610b73565b600061045f610bb5565b6031805460ff19166001179055620186a060395564e8d4a51000603a556201518060388190556032869055603385905560348490556000906104a190436118e9565b6035820155603701829055506001949350505050565b6104bf610bb5565b6000838152602e602052604081206104d7838261198d565b5060ff83166000908152602d82016020526040908190206005018590555161323160f11b8152819060020190815260405190819003602001812054636ff7d6c560e01b82526001600160a01b031690636ff7d6c59061053e90879087908790600401611a4d565b600060405180830381600087803b15801561055857600080fd5b505af115801561056c573d6000803e3d6000fd5b5050505050505050565b61057e610bb5565b6000838152602560205260408120610596848261198d565b5060009384526025016020526040909220600101805462ffffff191662ffffff9093169290921790915550565b60ff81166000908152602d602052604081206004810154600590910154829182918291906105f182826118e9565b935093509350509193909250565b610607610bb5565b600092835260436020526040909220600c810191909155600f0155565b61062c610bb5565b603755565b610639610bb5565b602b55565b610646610bb5565b603455565b610653610bb5565b600094855260436020526040909420600a810193909355600b830191909155620186a0600c830155600f820155601301805460ff1916911515919091179055565b600081815260256020526040812060018101548154606093928392909162ffffff9091169082906106c490611902565b80601f01602080910402602001604051908101604052809291908181526020018280546106f090611902565b801561073d5780601f106107125761010080835404028352916020019161073d565b820191906000526020600020905b81548152906001019060200180831161072057829003601f168201915b505050505091509250925050915091565b6000808080808080600460ff8916600b811061076c5761076c611a78565b600302015460ff9081169060048301908a16600b811061078e5761078e611a78565b6003020160010154826004018a60ff16600b81106107ae576107ae611a78565b600302016002015462ffffff166004840160ff8c16600b81106107d3576107d3611a78565b6003020160020160039054906101000a900461ffff16846004018c60ff16600b811061080157610801611a78565b6003020160020160059054906101000a900462ffffff16856004018d60ff16600b811061083057610830611a78565b6003020160020160089054906101000a900462ffffff169650965096509650965096505091939550919395565b610865610bb5565b6029805462ffffff928316600160601b0262ffffff60601b19948416600160481b026bffffff00000000000000000019968516600160301b02969096166bffffffffffff0000000000001997851663010000000265ffffffffffff1990931698909416979097171794909416179190911716919091179055565b6108e7610bb5565b602c805460ff1916911515919091179055565b610902610bb5565b602a55565b6000806000610914610c41565b925092509250909192565b610927610bb5565b61092f610dff565b565b600061093b610bb5565b5060009485526043602052604090942060018082019490945591825560038201556002019190915590565b61096e610bb5565b600086600460ff8a16600b811061098757610987611a78565b60030201805460ff1916911515919091179055856004820160ff8a16600b81106109b3576109b3611a78565b600302016001018190555084816004018960ff16600b81106109d7576109d7611a78565b6003020160020160006101000a81548162ffffff021916908362ffffff16021790555083816004018960ff16600b8110610a1357610a13611a78565b6003020160020160036101000a81548161ffff021916908361ffff16021790555082816004018960ff16600b8110610a4d57610a4d611a78565b6003020160020160056101000a81548162ffffff021916908362ffffff16021790555081816004018960ff16600b8110610a8957610a89611a78565b6003020160020160086101000a81548162ffffff021916908362ffffff1602179055505050505050505050565b610abe610bb5565b602f91909155603055565b610ad1610bb5565b60ff86166000818152602d60205260408120805460ff1916909217825590600101610afc878261198d565b5060ff969096166000908152602d9096016020526040909520600281019390935560038301919091556004820155600601805460ff19169215159290921790915550565b610b48610bb5565b6001600160a01b03919091166000908152604060208190529020805460ff1916911515919091179055565b610b7b610bb5565b6001805462ffffff9590951662ffffff199586161790556002929092556003805492151562010000029290931661ffff9190911617179055565b7fc8fcad8db84d3cc18b4c41d551ea0ee66dd599cde068d998e57d5e09332c131c600401546001600160a01b0316331461092f5760405162461bcd60e51b815260206004820152602260248201527f4c69624469616d6f6e643a204d75737420626520636f6e7472616374206f776e60448201526132b960f11b60648201526084015b60405180910390fd5b60008080806060600082600001604051610c5a90611a8e565b908152604051908190036020018120546370a0823160e01b82523060048301526001600160a01b0316906370a0823190602401602060405180830381865afa158015610caa573d6000803e3d6000fd5b505050506040513d601f19601f82011682018060405250810190610cce9190611a9d565b6040516b1adb185e5cddd85c1d5d1a5b60a21b81529091506000908490600c01908152604051908190036020018120546001600160a01b03169063692ca7a0908690610d1990611a8e565b908152604051908190036020018120546001600160a01b0316908790610d3e90611a8e565b908152604051908190036020018120546001600160e01b031960e085901b168252610d7c92916001600160a01b039091169087908990600401611afb565b602060405180830381865afa158015610d99573d6000803e3d6000fd5b505050506040513d601f19601f82011682018060405250810190610dbd9190611a9d565b905083602b015481118015610ddb5750602c84015460ff1615156001145b15610dee57600197919650945092505050565b506000968796508695509350505050565b6000806000610e0c610c41565b91945092509050600183151514610e715760405162461bcd60e51b8152602060048201526024808201527f73776170546f446973747269627574653a2073776170206973206e6f74206e656044820152631959195960e21b6064820152608401610c38565b6000606081600001604051610e8590611a8e565b908152604051908190036020018120546001600160a01b03169063095ea7b3908490610ebf906706b6c6179737761760c41b815260080190565b908152604051908190036020018120546001600160e01b031960e084901b1682526001600160a01b03166004820152602481018790526044016020604051808303816000875af1158015610f17573d6000803e3d6000fd5b505050506040513d601f19601f82011682018060405250810190610f3b9190611b38565b506040516706b6c6179737761760c41b81528290600801908152604051908190036020018120546001600160a01b0316906352f28c17908490610f7d90611a8e565b908152604051908190036020018120546001600160a01b03169087908690610faf90631d5cd91d60e21b815260040190565b908152604051908190036020018120546001600160e01b031960e086901b168252610fee9392916001600160a01b039091169089908890600401611b55565b600060405180830381600087803b15801561100857600080fd5b505af115801561101c573d6000803e3d6000fd5b5050505061056c600080808080604051631d5cd91d60e21b81529091506000908290600401908152604051908190036020018120546370a0823160e01b82523060048301526001600160a01b0316906370a0823190602401602060405180830381865afa158015611091573d6000803e3d6000fd5b505050506040513d601f19601f820116820180604052508101906110b59190611a9d565b60298301549091506000906110df9062ffffff600160601b8204811691600160301b900416611b9a565b602984015462ffffff9182169250600091839161110591600160301b9091041685611bbd565b61110f9190611bd4565b6029850154909150600090839061113290600160601b900462ffffff1686611bbd565b61113c9190611bd4565b90508460000160405161114e90611a8e565b908152604051908190036020018120546001600160a01b03169063a9059cbb9087906111899068703262616c616e636560b81b815260090190565b908152604051908190036020018120546001600160e01b031960e084901b1682526001600160a01b03166004820152602481018590526044016020604051808303816000875af11580156111e1573d6000803e3d6000fd5b505050506040513d601f19601f820116820180604052508101906112059190611b38565b50604051859061121490611a8e565b908152604051908190036020018120546001600160a01b03169063a9059cbb90879061124a90637465616d60e01b815260040190565b908152604051908190036020018120546001600160e01b031960e084901b1682526001600160a01b03166004820152602481018490526044016020604051808303816000875af11580156112a2573d6000803e3d6000fd5b505050506040513d601f19601f820116820180604052508101906112c69190611b38565b5060405168703262616c616e636560b81b8152859060090190815260405190819003602001812054632e07668d60e21b825260048201849052600060248301526001600160a01b03169063b81d9a3490604401600060405180830381600087803b15801561133357600080fd5b505af1158015611347573d6000803e3d6000fd5b50506000602788018190556026880181905560289097019690965550969795965093949350505050565b6000806000806080858703121561138757600080fd5b5050823594602084013594506040840135936060013592509050565b803560ff811681146113b457600080fd5b919050565b634e487b7160e01b600052604160045260246000fd5b600082601f8301126113e057600080fd5b813567ffffffffffffffff808211156113fb576113fb6113b9565b604051601f8301601f19908116603f01168101908282118183101715611423576114236113b9565b8160405283815286602085880101111561143c57600080fd5b836020870160208301376000602085830101528094505050505092915050565b60008060006060848603121561147157600080fd5b83359250611481602085016113a3565b9150604084013567ffffffffffffffff81111561149d57600080fd5b6114a9868287016113cf565b9150509250925092565b803562ffffff811681146113b457600080fd5b6000806000606084860312156114db57600080fd5b83359250602084013567ffffffffffffffff8111156114f957600080fd5b611505868287016113cf565b925050611514604085016114b3565b90509250925092565b60006020828403121561152f57600080fd5b611538826113a3565b9392505050565b60008060006060848603121561155457600080fd5b505081359360208301359350604090920135919050565b60006020828403121561157d57600080fd5b5035919050565b801515811461159257600080fd5b50565b600080600080600060a086880312156115ad57600080fd5b8535945060208601359350604086013592506060860135915060808601356115d481611584565b809150509295509295909350565b6000815180845260005b81811015611608576020818501810151868301820152016115ec565b506000602082860101526020601f19601f83011685010191505092915050565b60408152600061163b60408301856115e2565b905062ffffff831660208301529392505050565b600080600080600060a0868803121561166757600080fd5b611670866114b3565b945061167e602087016114b3565b935061168c604087016114b3565b925061169a606087016114b3565b91506116a8608087016114b3565b90509295509295909350565b6000602082840312156116c657600080fd5b813561153881611584565b600080600080600060a086880312156116e957600080fd5b505083359560208501359550604085013594606081013594506080013592509050565b803561ffff811681146113b457600080fd5b600080600080600080600060e0888a03121561173957600080fd5b611742886113a3565b9650602088013561175281611584565b955060408801359450611767606089016114b3565b93506117756080890161170c565b925061178360a089016114b3565b915061179160c089016114b3565b905092959891949750929550565b600080604083850312156117b257600080fd5b50508035926020909101359150565b60008060008060008060c087890312156117da57600080fd5b6117e3876113a3565b9550602087013567ffffffffffffffff8111156117ff57600080fd5b61180b89828a016113cf565b95505060408701359350606087013592506080870135915060a087013561183181611584565b809150509295509295509295565b6000806040838503121561185257600080fd5b82356001600160a01b038116811461186957600080fd5b9150602083013561187981611584565b809150509250929050565b6000806000806080858703121561189a57600080fd5b6118a3856114b3565b9350602085013592506118b86040860161170c565b915060608501356118c881611584565b939692955090935050565b634e487b7160e01b600052601160045260246000fd5b818103818111156118fc576118fc6118d3565b92915050565b600181811c9082168061191657607f821691505b60208210810361193657634e487b7160e01b600052602260045260246000fd5b50919050565b601f821115611988576000816000526020600020601f850160051c810160208610156119655750805b601f850160051c820191505b8181101561198457828155600101611971565b5050505b505050565b815167ffffffffffffffff8111156119a7576119a76113b9565b6119bb816119b58454611902565b8461193c565b602080601f8311600181146119f057600084156119d85750858301515b600019600386901b1c1916600185901b178555611984565b600085815260208120601f198616915b82811015611a1f57888601518255948401946001909101908401611a00565b5085821015611a3d5787850151600019600388901b60f8161c191681555b5050505050600190811b01905550565b83815260ff83166020820152606060408201526000611a6f60608301846115e2565b95945050505050565b634e487b7160e01b600052603260045260246000fd5b623832b960e91b815260030190565b600060208284031215611aaf57600080fd5b5051919050565b60008151808452602080850194506020840160005b83811015611af05781516001600160a01b031687529582019590820190600101611acb565b509495945050505050565b6001600160a01b0385811682528416602082015260408101839052608060608201819052600090611b2e90830184611ab6565b9695505050505050565b600060208284031215611b4a57600080fd5b815161153881611584565b6001600160a01b03868116825260208201869052841660408201526060810183905260a060808201819052600090611b8f90830184611ab6565b979650505050505050565b62ffffff818116838216019080821115611bb657611bb66118d3565b5092915050565b80820281158282048414176118fc576118fc6118d3565b600082611bf157634e487b7160e01b600052601260045260246000fd5b50049056fea2646970667358221220acec55e277d93654dbdfc68873937dba63304190ce8d575552e04a0a42065dda64736f6c63430008160033",
  "devdoc": {
    "kind": "dev",
    "methods": {
      "admin_P2_start(uint256,uint256,uint256,uint256)": {
        "details": "P2 Admin functions"
      },
      "admin_distribute_setStates(uint24,uint24,uint24,uint24,uint24)": {
        "details": "DistriBute Admin functions"
      },
      "admin_p0_setStates(uint24,uint256,uint16,bool)": {
        "details": "P0 Admin functions"
      },
      "admin_setAienMintFee(uint256)": {
        "details": "aien mint variables"
      }
    },
    "version": 1
  },
  "userdoc": {
    "kind": "user",
    "methods": {},
    "version": 1
  },
  "storageLayout": {
    "storage": [],
    "types": null
  }
}