{
  "address": "0xfc554Baa0773e4502b27342F385EbA23680d9BBE",
  "abi": [
    {
      "inputs": [
        {
          "internalType": "address",
          "name": "_user",
          "type": "address"
        },
        {
          "internalType": "bool",
          "name": "_isBlock",
          "type": "bool"
        },
        {
          "internalType": "string",
          "name": "_why",
          "type": "string"
        }
      ],
      "name": "admin_P2_blockUser",
      "outputs": [],
      "stateMutability": "nonpayable",
      "type": "function"
    },
    {
      "inputs": [
        {
          "internalType": "uint256",
          "name": "_layerNumber",
          "type": "uint256"
        },
        {
          "internalType": "uint256",
          "name": "_fromP2PerPercent",
          "type": "uint256"
        },
        {
          "internalType": "uint256",
          "name": "_fromP2UsdtPercent",
          "type": "uint256"
        },
        {
          "internalType": "uint256",
          "name": "_dailyReward_percent",
          "type": "uint256"
        },
        {
          "internalType": "uint256",
          "name": "_add_dailyReward_Percent",
          "type": "uint256"
        },
        {
          "internalType": "bool",
          "name": "_isOpen",
          "type": "bool"
        }
      ],
      "name": "admin_P2_layer_setting",
      "outputs": [],
      "stateMutability": "nonpayable",
      "type": "function"
    },
    {
      "inputs": [
        {
          "internalType": "uint256",
          "name": "_maxLimit",
          "type": "uint256"
        }
      ],
      "name": "admin_P2_setMaxLimit",
      "outputs": [],
      "stateMutability": "nonpayable",
      "type": "function"
    },
    {
      "inputs": [],
      "name": "admin_distribute_getStates",
      "outputs": [
        {
          "internalType": "uint24",
          "name": "",
          "type": "uint24"
        },
        {
          "internalType": "uint24",
          "name": "",
          "type": "uint24"
        },
        {
          "internalType": "uint24",
          "name": "",
          "type": "uint24"
        },
        {
          "internalType": "uint24",
          "name": "",
          "type": "uint24"
        },
        {
          "internalType": "uint24",
          "name": "",
          "type": "uint24"
        }
      ],
      "stateMutability": "view",
      "type": "function"
    },
    {
      "inputs": [
        {
          "internalType": "uint256",
          "name": "_limit",
          "type": "uint256"
        }
      ],
      "name": "admin_distribute_ksSwapLimit",
      "outputs": [],
      "stateMutability": "nonpayable",
      "type": "function"
    },
    {
      "inputs": [
        {
          "internalType": "bool",
          "name": "_isAuto",
          "type": "bool"
        }
      ],
      "name": "admin_distribute_setAuto",
      "outputs": [],
      "stateMutability": "nonpayable",
      "type": "function"
    },
    {
      "inputs": [
        {
          "internalType": "uint24",
          "name": "_p1Ratio",
          "type": "uint24"
        },
        {
          "internalType": "uint24",
          "name": "_p2PerRatio",
          "type": "uint24"
        },
        {
          "internalType": "uint24",
          "name": "_p2UsdtRatio",
          "type": "uint24"
        },
        {
          "internalType": "uint24",
          "name": "_burnRatio",
          "type": "uint24"
        },
        {
          "internalType": "uint24",
          "name": "_teamUsdtRatio",
          "type": "uint24"
        }
      ],
      "name": "admin_distribute_setStates",
      "outputs": [],
      "stateMutability": "nonpayable",
      "type": "function"
    },
    {
      "inputs": [],
      "name": "admin_getAienMintFee",
      "outputs": [
        {
          "internalType": "uint256",
          "name": "",
          "type": "uint256"
        }
      ],
      "stateMutability": "view",
      "type": "function"
    },
    {
      "inputs": [
        {
          "internalType": "uint8",
          "name": "_gradeIndex",
          "type": "uint8"
        }
      ],
      "name": "admin_p0_getGradeInfos",
      "outputs": [
        {
          "internalType": "bool",
          "name": "",
          "type": "bool"
        },
        {
          "internalType": "uint256",
          "name": "",
          "type": "uint256"
        },
        {
          "internalType": "uint24",
          "name": "",
          "type": "uint24"
        },
        {
          "internalType": "uint16",
          "name": "",
          "type": "uint16"
        },
        {
          "internalType": "uint24",
          "name": "",
          "type": "uint24"
        },
        {
          "internalType": "uint24",
          "name": "",
          "type": "uint24"
        }
      ],
      "stateMutability": "view",
      "type": "function"
    },
    {
      "inputs": [
        {
          "internalType": "uint256",
          "name": "_grade",
          "type": "uint256"
        }
      ],
      "name": "admin_p0_getPerFriendsProb",
      "outputs": [
        {
          "internalType": "string",
          "name": "",
          "type": "string"
        },
        {
          "internalType": "uint24",
          "name": "",
          "type": "uint24"
        }
      ],
      "stateMutability": "view",
      "type": "function"
    },
    {
      "inputs": [],
      "name": "admin_p0_getStates",
      "outputs": [
        {
          "internalType": "uint24",
          "name": "",
          "type": "uint24"
        },
        {
          "internalType": "uint256",
          "name": "",
          "type": "uint256"
        },
        {
          "internalType": "uint16",
          "name": "",
          "type": "uint16"
        },
        {
          "internalType": "bool",
          "name": "",
          "type": "bool"
        }
      ],
      "stateMutability": "view",
      "type": "function"
    },
    {
      "inputs": [
        {
          "internalType": "uint8",
          "name": "_gradeIndex",
          "type": "uint8"
        },
        {
          "internalType": "bool",
          "name": "_isOpen",
          "type": "bool"
        },
        {
          "internalType": "uint256",
          "name": "_mixFee",
          "type": "uint256"
        },
        {
          "internalType": "uint24",
          "name": "_initBaseProb",
          "type": "uint24"
        },
        {
          "internalType": "uint16",
          "name": "_mixExp",
          "type": "uint16"
        },
        {
          "internalType": "uint24",
          "name": "_failedAddProbMin",
          "type": "uint24"
        },
        {
          "internalType": "uint24",
          "name": "_failedAddProbMax",
          "type": "uint24"
        }
      ],
      "name": "admin_p0_setGradeInfos",
      "outputs": [],
      "stateMutability": "nonpayable",
      "type": "function"
    },
    {
      "inputs": [
        {
          "internalType": "uint256",
          "name": "_grade",
          "type": "uint256"
        },
        {
          "internalType": "string",
          "name": "_pfGrade",
          "type": "string"
        },
        {
          "internalType": "uint24",
          "name": "_gradeProb",
          "type": "uint24"
        }
      ],
      "name": "admin_p0_setPerFriendsProb",
      "outputs": [],
      "stateMutability": "nonpayable",
      "type": "function"
    },
    {
      "inputs": [
        {
          "internalType": "uint24",
          "name": "_maxProb",
          "type": "uint24"
        },
        {
          "internalType": "uint256",
          "name": "_addProbFee",
          "type": "uint256"
        },
        {
          "internalType": "uint16",
          "name": "_addProbExp",
          "type": "uint16"
        },
        {
          "internalType": "bool",
          "name": "_isVRF",
          "type": "bool"
        }
      ],
      "name": "admin_p0_setStates",
      "outputs": [],
      "stateMutability": "nonpayable",
      "type": "function"
    },
    {
      "inputs": [
        {
          "internalType": "uint256",
          "name": "_mintFee",
          "type": "uint256"
        }
      ],
      "name": "admin_setAienMintFee",
      "outputs": [],
      "stateMutability": "nonpayable",
      "type": "function"
    }
  ],
  "transactionHash": "0x20f8c5c93fff93bb7fdd9591cdb77488bddf93ab84d91a8c01396d2e517a7ae4",
  "args": [],
  "numDeployments": 11,
  "solcInputHash": "29ec7294a3499ca8ec17037bd1295adb",
  "bytecode": "0x608060405234801561001057600080fd5b50611a23806100206000396000f3fe608060405234801561001057600080fd5b50600436106100f55760003560e01c80639a6d988711610097578063b5643cdb11610066578063b5643cdb14610269578063c7809e2f14610285578063ef404fa2146102a1578063f6f00563146102bd576100f5565b80639a6d9887146101e05780639b0988f1146101fc578063a451755314610231578063b545c43f1461024d576100f5565b806345d08ac6116100d357806345d08ac6146101595780635c53ddae146101755780637fe5cca1146101915780638a1833ed146101c2576100f5565b80631ad1d5dc146100fa57806324eb911e146101165780633a8e18de14610138575b600080fd5b610114600480360381019061010f9190610eb6565b6102d9565b005b61011e61034e565b60405161012f959493929190610f34565b60405180910390f35b6101406103e6565b6040516101509493929190610fce565b60405180910390f35b610173600480360381019061016e9190611013565b610451565b005b61018f600480360381019061018a9190611013565b610512565b005b6101ab60048036038101906101a69190611013565b610533565b6040516101b99291906110bf565b60405180910390f35b6101ca610618565b6040516101d791906110ef565b60405180910390f35b6101fa60048036038101906101f59190611136565b610630565b005b610216600480360381019061021191906111fc565b610700565b60405161022896959493929190611229565b60405180910390f35b61024b6004803603810190610246919061128a565b610839565b005b61026760048036038101906102629190611305565b610909565b005b610283600480360381019061027e9190611013565b61093d565b005b61029f600480360381019061029a919061135e565b61095e565b005b6102bb60048036038101906102b69190611400565b610acb565b005b6102d760048036038101906102d291906114c5565b610b57565b005b6102e1610c1e565b60006102eb610cb9565b90508281602501600086815260200190815260200160002060000190816103129190611740565b508181602501600086815260200190815260200160002060010160006101000a81548162ffffff021916908362ffffff16021790555050505050565b60008060008060008061035f610cb9565b90508060260160030160009054906101000a900462ffffff168160260160030160039054906101000a900462ffffff168260260160030160069054906101000a900462ffffff168360260160030160099054906101000a900462ffffff1684602601600301600c9054906101000a900462ffffff1695509550955095509550509091929394565b60008060008060006103f6610cb9565b90508060010160000160009054906101000a900462ffffff1681600101600101548260010160020160009054906101000a900461ffff168360010160020160029054906101000a900460ff1694509450945094505090919293565b610459610c1e565b6000610463610cb9565b90508060000160405161047590611869565b908152602001604051809103902060009054906101000a900473ffffffffffffffffffffffffffffffffffffffff1673ffffffffffffffffffffffffffffffffffffffff166328e52aae836040518263ffffffff1660e01b81526004016104dc91906110ef565b600060405180830381600087803b1580156104f657600080fd5b505af115801561050a573d6000803e3d6000fd5b505050505050565b61051a610c1e565b6000610524610cb9565b90508181602b01819055505050565b6060600080610540610cb9565b905080602501600085815260200190815260200160002060000181602501600086815260200190815260200160002060010160009054906101000a900462ffffff1681805461058e90611563565b80601f01602080910402602001604051908101604052809291908181526020018280546105ba90611563565b80156106075780601f106105dc57610100808354040283529160200191610607565b820191906000526020600020905b8154815290600101906020018083116105ea57829003601f168201915b505050505091509250925050915091565b600080610623610cb9565b905080602a015491505090565b610638610c1e565b6000610642610cb9565b90508060000160405161065490611869565b908152602001604051809103902060009054906101000a900473ffffffffffffffffffffffffffffffffffffffff1673ffffffffffffffffffffffffffffffffffffffff1663d78d3ce88888888888886040518763ffffffff1660e01b81526004016106c59695949392919061187e565b600060405180830381600087803b1580156106df57600080fd5b505af11580156106f3573d6000803e3d6000fd5b5050505050505050505050565b6000806000806000806000610713610cb9565b9050806004018860ff16600b811061072e5761072d6118df565b5b6003020160000160009054906101000a900460ff16816004018960ff16600b811061075c5761075b6118df565b5b6003020160010154826004018a60ff16600b811061077d5761077c6118df565b5b6003020160020160009054906101000a900462ffffff16836004018b60ff16600b81106107ad576107ac6118df565b5b6003020160020160039054906101000a900461ffff16846004018c60ff16600b81106107dc576107db6118df565b5b6003020160020160059054906101000a900462ffffff16856004018d60ff16600b811061080c5761080b6118df565b5b6003020160020160089054906101000a900462ffffff169650965096509650965096505091939550919395565b610841610c1e565b600061084b610cb9565b9050858160260160030160006101000a81548162ffffff021916908362ffffff160217905550848160260160030160036101000a81548162ffffff021916908362ffffff160217905550838160260160030160066101000a81548162ffffff021916908362ffffff160217905550828160260160030160096101000a81548162ffffff021916908362ffffff1602179055508181602601600301600c6101000a81548162ffffff021916908362ffffff160217905550505050505050565b610911610c1e565b600061091b610cb9565b90508181602c0160006101000a81548160ff0219169083151502179055505050565b610945610c1e565b600061094f610cb9565b90508181602a01819055505050565b610966610c1e565b6000610970610cb9565b905086816004018960ff16600b811061098c5761098b6118df565b5b6003020160000160006101000a81548160ff02191690831515021790555085816004018960ff16600b81106109c4576109c36118df565b5b600302016001018190555084816004018960ff16600b81106109e9576109e86118df565b5b6003020160020160006101000a81548162ffffff021916908362ffffff16021790555083816004018960ff16600b8110610a2657610a256118df565b5b6003020160020160036101000a81548161ffff021916908361ffff16021790555082816004018960ff16600b8110610a6157610a606118df565b5b6003020160020160056101000a81548162ffffff021916908362ffffff16021790555081816004018960ff16600b8110610a9e57610a9d6118df565b5b6003020160020160086101000a81548162ffffff021916908362ffffff1602179055505050505050505050565b610ad3610c1e565b6000610add610cb9565b9050848160010160000160006101000a81548162ffffff021916908362ffffff160217905550838160010160010181905550828160010160020160006101000a81548161ffff021916908361ffff160217905550818160010160020160026101000a81548160ff0219169083151502179055505050505050565b610b5f610c1e565b6000610b69610cb9565b905080600001604051610b7b90611869565b908152602001604051809103902060009054906101000a900473ffffffffffffffffffffffffffffffffffffffff1673ffffffffffffffffffffffffffffffffffffffff166319eff0ab8585856040518463ffffffff1660e01b8152600401610be69392919061191d565b600060405180830381600087803b158015610c0057600080fd5b505af1158015610c14573d6000803e3d6000fd5b5050505050505050565b610c26610cbe565b60040160009054906101000a900473ffffffffffffffffffffffffffffffffffffffff1673ffffffffffffffffffffffffffffffffffffffff163373ffffffffffffffffffffffffffffffffffffffff1614610cb7576040517f08c379a0000000000000000000000000000000000000000000000000000000008152600401610cae906119cd565b60405180910390fd5b565b600090565b6000807fc8fcad8db84d3cc18b4c41d551ea0ee66dd599cde068d998e57d5e09332c131c90508091505090565b6000604051905090565b600080fd5b600080fd5b6000819050919050565b610d1281610cff565b8114610d1d57600080fd5b50565b600081359050610d2f81610d09565b92915050565b600080fd5b600080fd5b6000601f19601f8301169050919050565b7f4e487b7100000000000000000000000000000000000000000000000000000000600052604160045260246000fd5b610d8882610d3f565b810181811067ffffffffffffffff82111715610da757610da6610d50565b5b80604052505050565b6000610dba610ceb565b9050610dc68282610d7f565b919050565b600067ffffffffffffffff821115610de657610de5610d50565b5b610def82610d3f565b9050602081019050919050565b82818337600083830152505050565b6000610e1e610e1984610dcb565b610db0565b905082815260208101848484011115610e3a57610e39610d3a565b5b610e45848285610dfc565b509392505050565b600082601f830112610e6257610e61610d35565b5b8135610e72848260208601610e0b565b91505092915050565b600062ffffff82169050919050565b610e9381610e7b565b8114610e9e57600080fd5b50565b600081359050610eb081610e8a565b92915050565b600080600060608486031215610ecf57610ece610cf5565b5b6000610edd86828701610d20565b935050602084013567ffffffffffffffff811115610efe57610efd610cfa565b5b610f0a86828701610e4d565b9250506040610f1b86828701610ea1565b9150509250925092565b610f2e81610e7b565b82525050565b600060a082019050610f496000830188610f25565b610f566020830187610f25565b610f636040830186610f25565b610f706060830185610f25565b610f7d6080830184610f25565b9695505050505050565b610f9081610cff565b82525050565b600061ffff82169050919050565b610fad81610f96565b82525050565b60008115159050919050565b610fc881610fb3565b82525050565b6000608082019050610fe36000830187610f25565b610ff06020830186610f87565b610ffd6040830185610fa4565b61100a6060830184610fbf565b95945050505050565b60006020828403121561102957611028610cf5565b5b600061103784828501610d20565b91505092915050565b600081519050919050565b600082825260208201905092915050565b60005b8381101561107a57808201518184015260208101905061105f565b60008484015250505050565b600061109182611040565b61109b818561104b565b93506110ab81856020860161105c565b6110b481610d3f565b840191505092915050565b600060408201905081810360008301526110d98185611086565b90506110e86020830184610f25565b9392505050565b60006020820190506111046000830184610f87565b92915050565b61111381610fb3565b811461111e57600080fd5b50565b6000813590506111308161110a565b92915050565b60008060008060008060c0878903121561115357611152610cf5565b5b600061116189828a01610d20565b965050602061117289828a01610d20565b955050604061118389828a01610d20565b945050606061119489828a01610d20565b93505060806111a589828a01610d20565b92505060a06111b689828a01611121565b9150509295509295509295565b600060ff82169050919050565b6111d9816111c3565b81146111e457600080fd5b50565b6000813590506111f6816111d0565b92915050565b60006020828403121561121257611211610cf5565b5b6000611220848285016111e7565b91505092915050565b600060c08201905061123e6000830189610fbf565b61124b6020830188610f87565b6112586040830187610f25565b6112656060830186610fa4565b6112726080830185610f25565b61127f60a0830184610f25565b979650505050505050565b600080600080600060a086880312156112a6576112a5610cf5565b5b60006112b488828901610ea1565b95505060206112c588828901610ea1565b94505060406112d688828901610ea1565b93505060606112e788828901610ea1565b92505060806112f888828901610ea1565b9150509295509295909350565b60006020828403121561131b5761131a610cf5565b5b600061132984828501611121565b91505092915050565b61133b81610f96565b811461134657600080fd5b50565b60008135905061135881611332565b92915050565b600080600080600080600060e0888a03121561137d5761137c610cf5565b5b600061138b8a828b016111e7565b975050602061139c8a828b01611121565b96505060406113ad8a828b01610d20565b95505060606113be8a828b01610ea1565b94505060806113cf8a828b01611349565b93505060a06113e08a828b01610ea1565b92505060c06113f18a828b01610ea1565b91505092959891949750929550565b6000806000806080858703121561141a57611419610cf5565b5b600061142887828801610ea1565b945050602061143987828801610d20565b935050604061144a87828801611349565b925050606061145b87828801611121565b91505092959194509250565b600073ffffffffffffffffffffffffffffffffffffffff82169050919050565b600061149282611467565b9050919050565b6114a281611487565b81146114ad57600080fd5b50565b6000813590506114bf81611499565b92915050565b6000806000606084860312156114de576114dd610cf5565b5b60006114ec868287016114b0565b93505060206114fd86828701611121565b925050604084013567ffffffffffffffff81111561151e5761151d610cfa565b5b61152a86828701610e4d565b9150509250925092565b7f4e487b7100000000000000000000000000000000000000000000000000000000600052602260045260246000fd5b6000600282049050600182168061157b57607f821691505b60208210810361158e5761158d611534565b5b50919050565b60008190508160005260206000209050919050565b60006020601f8301049050919050565b600082821b905092915050565b6000600883026115f67fffffffffffffffffffffffffffffffffffffffffffffffffffffffffffffffff826115b9565b61160086836115b9565b95508019841693508086168417925050509392505050565b6000819050919050565b600061163d61163861163384610cff565b611618565b610cff565b9050919050565b6000819050919050565b61165783611622565b61166b61166382611644565b8484546115c6565b825550505050565b600090565b611680611673565b61168b81848461164e565b505050565b5b818110156116af576116a4600082611678565b600181019050611691565b5050565b601f8211156116f4576116c581611594565b6116ce846115a9565b810160208510156116dd578190505b6116f16116e9856115a9565b830182611690565b50505b505050565b600082821c905092915050565b6000611717600019846008026116f9565b1980831691505092915050565b60006117308383611706565b9150826002028217905092915050565b61174982611040565b67ffffffffffffffff81111561176257611761610d50565b5b61176c8254611563565b6117778282856116b3565b600060209050601f8311600181146117aa5760008415611798578287015190505b6117a28582611724565b86555061180a565b601f1984166117b886611594565b60005b828110156117e0578489015182556001820191506020850194506020810190506117bb565b868310156117fd57848901516117f9601f891682611706565b8355505b6001600288020188555050505b505050505050565b600081905092915050565b7f7032000000000000000000000000000000000000000000000000000000000000600082015250565b6000611853600283611812565b915061185e8261181d565b600282019050919050565b600061187482611846565b9150819050919050565b600060c0820190506118936000830189610f87565b6118a06020830188610f87565b6118ad6040830187610f87565b6118ba6060830186610f87565b6118c76080830185610f87565b6118d460a0830184610fbf565b979650505050505050565b7f4e487b7100000000000000000000000000000000000000000000000000000000600052603260045260246000fd5b61191781611487565b82525050565b6000606082019050611932600083018661190e565b61193f6020830185610fbf565b81810360408301526119518184611086565b9050949350505050565b7f4c69624469616d6f6e643a204d75737420626520636f6e7472616374206f776e60008201527f6572000000000000000000000000000000000000000000000000000000000000602082015250565b60006119b760228361104b565b91506119c28261195b565b604082019050919050565b600060208201905081810360008301526119e6816119aa565b905091905056fea2646970667358221220fb8b846e009ae9b0f89891508ebe8f453230e28da3f9f83ccd7cad2b62be265c64736f6c63430008160033",
  "devdoc": {
    "kind": "dev",
    "methods": {
      "admin_P2_layer_setting(uint256,uint256,uint256,uint256,uint256,bool)": {
        "details": "P2 Admin functions"
      },
      "admin_distribute_setStates(uint24,uint24,uint24,uint24,uint24)": {
        "details": "DistriBute Admin functions"
      },
      "admin_p0_setStates(uint24,uint256,uint16,bool)": {
        "details": "P0 Admin functions"
      },
      "admin_setAienMintFee(uint256)": {
        "details": "aien mint variables"
      }
    },
    "version": 1
  },
  "userdoc": {
    "kind": "user",
    "methods": {},
    "version": 1
  },
  "storageLayout": {
    "storage": [],
    "types": null
  }
}