{
  "address": "0xdc8f6D677fEa77AF893046857A21F94277028396",
  "abi": [
    {
      "inputs": [
        {
          "internalType": "address",
          "name": "_user",
          "type": "address"
        },
        {
          "internalType": "bool",
          "name": "_isBlock",
          "type": "bool"
        },
        {
          "internalType": "string",
          "name": "_why",
          "type": "string"
        }
      ],
      "name": "admin_P2_blockUser",
      "outputs": [],
      "stateMutability": "nonpayable",
      "type": "function"
    },
    {
      "inputs": [
        {
          "internalType": "uint256",
          "name": "_layerNumber",
          "type": "uint256"
        },
        {
          "internalType": "uint256",
          "name": "_fromP2PerPercent",
          "type": "uint256"
        },
        {
          "internalType": "uint256",
          "name": "_fromP2UsdtPercent",
          "type": "uint256"
        },
        {
          "internalType": "uint256",
          "name": "_dailyReward_percent",
          "type": "uint256"
        },
        {
          "internalType": "uint256",
          "name": "_add_dailyReward_Percent",
          "type": "uint256"
        },
        {
          "internalType": "bool",
          "name": "_isOpen",
          "type": "bool"
        }
      ],
      "name": "admin_P2_layer_setting",
      "outputs": [],
      "stateMutability": "nonpayable",
      "type": "function"
    },
    {
      "inputs": [
        {
          "internalType": "uint256",
          "name": "_maxLimit",
          "type": "uint256"
        }
      ],
      "name": "admin_P2_setMaxLimit",
      "outputs": [],
      "stateMutability": "nonpayable",
      "type": "function"
    },
    {
      "inputs": [],
      "name": "admin_distribute_getBeforAmounts",
      "outputs": [
        {
          "internalType": "uint256",
          "name": "",
          "type": "uint256"
        },
        {
          "internalType": "uint256",
          "name": "",
          "type": "uint256"
        },
        {
          "internalType": "uint256",
          "name": "",
          "type": "uint256"
        }
      ],
      "stateMutability": "view",
      "type": "function"
    },
    {
      "inputs": [],
      "name": "admin_distribute_getStates",
      "outputs": [
        {
          "internalType": "uint24",
          "name": "",
          "type": "uint24"
        },
        {
          "internalType": "uint24",
          "name": "",
          "type": "uint24"
        },
        {
          "internalType": "uint24",
          "name": "",
          "type": "uint24"
        },
        {
          "internalType": "uint24",
          "name": "",
          "type": "uint24"
        },
        {
          "internalType": "uint24",
          "name": "",
          "type": "uint24"
        },
        {
          "internalType": "uint256",
          "name": "",
          "type": "uint256"
        },
        {
          "internalType": "uint256",
          "name": "",
          "type": "uint256"
        }
      ],
      "stateMutability": "view",
      "type": "function"
    },
    {
      "inputs": [
        {
          "internalType": "uint256",
          "name": "_limit",
          "type": "uint256"
        }
      ],
      "name": "admin_distribute_ksSwapLimit",
      "outputs": [],
      "stateMutability": "nonpayable",
      "type": "function"
    },
    {
      "inputs": [
        {
          "internalType": "bool",
          "name": "_isAuto",
          "type": "bool"
        }
      ],
      "name": "admin_distribute_setAuto",
      "outputs": [],
      "stateMutability": "nonpayable",
      "type": "function"
    },
    {
      "inputs": [
        {
          "internalType": "uint24",
          "name": "_p1Ratio",
          "type": "uint24"
        },
        {
          "internalType": "uint24",
          "name": "_p2PerRatio",
          "type": "uint24"
        },
        {
          "internalType": "uint24",
          "name": "_p2UsdtRatio",
          "type": "uint24"
        },
        {
          "internalType": "uint24",
          "name": "_burnRatio",
          "type": "uint24"
        },
        {
          "internalType": "uint24",
          "name": "_teamUsdtRatio",
          "type": "uint24"
        }
      ],
      "name": "admin_distribute_setStates",
      "outputs": [],
      "stateMutability": "nonpayable",
      "type": "function"
    },
    {
      "inputs": [
        {
          "internalType": "uint256",
          "name": "_agencyIncomePercent",
          "type": "uint256"
        },
        {
          "internalType": "uint256",
          "name": "_influencerIncomePercent",
          "type": "uint256"
        }
      ],
      "name": "admin_distribute_userStates",
      "outputs": [],
      "stateMutability": "nonpayable",
      "type": "function"
    },
    {
      "inputs": [
        {
          "internalType": "uint8",
          "name": "_gradeIndex",
          "type": "uint8"
        }
      ],
      "name": "admin_p0_getGradeInfos",
      "outputs": [
        {
          "internalType": "bool",
          "name": "",
          "type": "bool"
        },
        {
          "internalType": "uint256",
          "name": "",
          "type": "uint256"
        },
        {
          "internalType": "uint24",
          "name": "",
          "type": "uint24"
        },
        {
          "internalType": "uint16",
          "name": "",
          "type": "uint16"
        },
        {
          "internalType": "uint24",
          "name": "",
          "type": "uint24"
        },
        {
          "internalType": "uint24",
          "name": "",
          "type": "uint24"
        }
      ],
      "stateMutability": "view",
      "type": "function"
    },
    {
      "inputs": [
        {
          "internalType": "uint8",
          "name": "_grade",
          "type": "uint8"
        }
      ],
      "name": "admin_p0_getMetadataMargin",
      "outputs": [
        {
          "internalType": "uint256",
          "name": "",
          "type": "uint256"
        },
        {
          "internalType": "uint256",
          "name": "",
          "type": "uint256"
        },
        {
          "internalType": "uint256",
          "name": "",
          "type": "uint256"
        }
      ],
      "stateMutability": "view",
      "type": "function"
    },
    {
      "inputs": [
        {
          "internalType": "uint256",
          "name": "_grade",
          "type": "uint256"
        }
      ],
      "name": "admin_p0_getPerFriendsProb",
      "outputs": [
        {
          "internalType": "string",
          "name": "",
          "type": "string"
        },
        {
          "internalType": "uint24",
          "name": "",
          "type": "uint24"
        }
      ],
      "stateMutability": "view",
      "type": "function"
    },
    {
      "inputs": [],
      "name": "admin_p0_getStates",
      "outputs": [
        {
          "internalType": "uint24",
          "name": "",
          "type": "uint24"
        },
        {
          "internalType": "uint256",
          "name": "",
          "type": "uint256"
        },
        {
          "internalType": "uint16",
          "name": "",
          "type": "uint16"
        },
        {
          "internalType": "bool",
          "name": "",
          "type": "bool"
        }
      ],
      "stateMutability": "view",
      "type": "function"
    },
    {
      "inputs": [
        {
          "internalType": "uint8",
          "name": "_gradeIndex",
          "type": "uint8"
        },
        {
          "internalType": "bool",
          "name": "_isOpen",
          "type": "bool"
        },
        {
          "internalType": "uint256",
          "name": "_mixFee",
          "type": "uint256"
        },
        {
          "internalType": "uint24",
          "name": "_initBaseProb",
          "type": "uint24"
        },
        {
          "internalType": "uint16",
          "name": "_mixExp",
          "type": "uint16"
        },
        {
          "internalType": "uint24",
          "name": "_failedAddProbMin",
          "type": "uint24"
        },
        {
          "internalType": "uint24",
          "name": "_failedAddProbMax",
          "type": "uint24"
        }
      ],
      "name": "admin_p0_setGradeInfos",
      "outputs": [],
      "stateMutability": "nonpayable",
      "type": "function"
    },
    {
      "inputs": [
        {
          "internalType": "uint8",
          "name": "_grade",
          "type": "uint8"
        },
        {
          "internalType": "string",
          "name": "_gradeName",
          "type": "string"
        },
        {
          "internalType": "uint256",
          "name": "_mergeFee",
          "type": "uint256"
        },
        {
          "internalType": "uint256",
          "name": "_mergeUseItemAmount",
          "type": "uint256"
        },
        {
          "internalType": "uint256",
          "name": "_latestId",
          "type": "uint256"
        },
        {
          "internalType": "bool",
          "name": "_isOpen",
          "type": "bool"
        }
      ],
      "name": "admin_p0_setMergeGradesInfo",
      "outputs": [],
      "stateMutability": "nonpayable",
      "type": "function"
    },
    {
      "inputs": [
        {
          "internalType": "uint256",
          "name": "_pfId",
          "type": "uint256"
        },
        {
          "internalType": "uint8",
          "name": "_grade",
          "type": "uint8"
        },
        {
          "internalType": "string",
          "name": "_seedHash",
          "type": "string"
        }
      ],
      "name": "admin_p0_setMetaData",
      "outputs": [],
      "stateMutability": "nonpayable",
      "type": "function"
    },
    {
      "inputs": [
        {
          "internalType": "uint256",
          "name": "_grade",
          "type": "uint256"
        },
        {
          "internalType": "string",
          "name": "_pfGrade",
          "type": "string"
        },
        {
          "internalType": "uint24",
          "name": "_gradeProb",
          "type": "uint24"
        }
      ],
      "name": "admin_p0_setPerFriendsProb",
      "outputs": [],
      "stateMutability": "nonpayable",
      "type": "function"
    },
    {
      "inputs": [
        {
          "internalType": "uint24",
          "name": "_maxProb",
          "type": "uint24"
        },
        {
          "internalType": "uint256",
          "name": "_addProbFee",
          "type": "uint256"
        },
        {
          "internalType": "uint16",
          "name": "_addProbExp",
          "type": "uint16"
        },
        {
          "internalType": "bool",
          "name": "_isVRF",
          "type": "bool"
        }
      ],
      "name": "admin_p0_setStates",
      "outputs": [],
      "stateMutability": "nonpayable",
      "type": "function"
    },
    {
      "inputs": [
        {
          "internalType": "uint256",
          "name": "_mintFee",
          "type": "uint256"
        }
      ],
      "name": "admin_setAienMintFee",
      "outputs": [],
      "stateMutability": "nonpayable",
      "type": "function"
    }
  ],
  "transactionHash": "0x5d669204a7513bec5eb3d20022c546e228677a3745706d6e72e3871e200bb230",
  "args": [],
  "numDeployments": 18,
  "solcInputHash": "6ffeb98d18cba6885a9b9037ac606e55",
  "bytecode": "0x608060405234801561001057600080fd5b506120cb806100206000396000f3fe608060405234801561001057600080fd5b50600436106101215760003560e01c80639a6d9887116100ad578063c7809e2f11610071578063c7809e2f14610303578063cc6d37d61461031f578063ced1c9871461033b578063ef404fa214610357578063f6f005631461037357610121565b80639a6d98871461025e5780639b0988f11461027a578063a4517553146102af578063b545c43f146102cb578063b5643cdb146102e757610121565b80633a8e18de116100f45780633a8e18de146101b457806345d08ac6146101d55780635c53ddae146101f157806374e35d191461020d5780637fe5cca11461022d57610121565b8063025aa16c146101265780631ad1d5dc146101425780631b907b2c1461015e57806324eb911e14610190575b600080fd5b610140600480360381019061013b91906112a0565b61038f565b005b61015c6004803603810190610157919061134a565b61049c565b005b610178600480360381019061017391906113b9565b610511565b604051610187939291906113f5565b60405180910390f35b6101986105b5565b6040516101ab979695949392919061143b565b60405180910390f35b6101bc610666565b6040516101cc94939291906114e2565b60405180910390f35b6101ef60048036038101906101ea9190611527565b6106d1565b005b61020b60048036038101906102069190611527565b610792565b005b6102156107b3565b604051610224939291906113f5565b60405180910390f35b61024760048036038101906102429190611527565b6107e7565b6040516102559291906115d3565b60405180910390f35b6102786004803603810190610273919061162f565b6108cc565b005b610294600480360381019061028f91906113b9565b61099c565b6040516102a6969594939291906116bc565b60405180910390f35b6102c960048036038101906102c4919061171d565b610ad5565b005b6102e560048036038101906102e09190611798565b610ba5565b005b61030160048036038101906102fc9190611527565b610bd9565b005b61031d600480360381019061031891906117f1565b610bfa565b005b61033960048036038101906103349190611893565b610d67565b005b610355600480360381019061035091906118d3565b610d98565b005b610371600480360381019061036c919061197c565b610eb7565b005b61038d60048036038101906103889190611a41565b610f43565b005b61039761100a565b60006103a16110a5565b90508181602e01600086815260200190815260200160002090816103c59190611cbc565b508381602d0160008560ff1660ff16815260200190815260200160002060050181905550806000016040516103f990611de5565b908152602001604051809103902060009054906101000a900473ffffffffffffffffffffffffffffffffffffffff1673ffffffffffffffffffffffffffffffffffffffff16636ff7d6c58585856040518463ffffffff1660e01b815260040161046493929190611e09565b600060405180830381600087803b15801561047e57600080fd5b505af1158015610492573d6000803e3d6000fd5b5050505050505050565b6104a461100a565b60006104ae6110a5565b90508281602501600086815260200190815260200160002060000190816104d59190611cbc565b508181602501600086815260200190815260200160002060010160006101000a81548162ffffff021916908362ffffff16021790555050505050565b60008060008061051f6110a5565b905080602d0160008660ff1660ff1681526020019081526020016000206004015481602d0160008760ff1660ff1681526020019081526020016000206005015482602d0160008860ff1660ff1681526020019081526020016000206004015483602d0160008960ff1660ff168152602001908152602001600020600501546105a79190611e76565b935093509350509193909250565b6000806000806000806000806105c96110a5565b90508060260160030160009054906101000a900462ffffff168160260160030160039054906101000a900462ffffff168260260160030160069054906101000a900462ffffff168360260160030160099054906101000a900462ffffff1684602601600301600c9054906101000a900462ffffff1685602f016000015486602f016001015497509750975097509750975097505090919293949596565b60008060008060006106766110a5565b90508060010160000160009054906101000a900462ffffff1681600101600101548260010160020160009054906101000a900461ffff168360010160020160029054906101000a900460ff1694509450945094505090919293565b6106d961100a565b60006106e36110a5565b9050806000016040516106f590611ef6565b908152602001604051809103902060009054906101000a900473ffffffffffffffffffffffffffffffffffffffff1673ffffffffffffffffffffffffffffffffffffffff166328e52aae836040518263ffffffff1660e01b815260040161075c9190611f0b565b600060405180830381600087803b15801561077657600080fd5b505af115801561078a573d6000803e3d6000fd5b505050505050565b61079a61100a565b60006107a46110a5565b90508181602b01819055505050565b6000806000806107c16110a5565b905080602601600001548160260160010154826026016002015493509350935050909192565b60606000806107f46110a5565b905080602501600085815260200190815260200160002060000181602501600086815260200190815260200160002060010160009054906101000a900462ffffff1681805461084290611adf565b80601f016020809104026020016040519081016040528092919081815260200182805461086e90611adf565b80156108bb5780601f10610890576101008083540402835291602001916108bb565b820191906000526020600020905b81548152906001019060200180831161089e57829003601f168201915b505050505091509250925050915091565b6108d461100a565b60006108de6110a5565b9050806000016040516108f090611ef6565b908152602001604051809103902060009054906101000a900473ffffffffffffffffffffffffffffffffffffffff1673ffffffffffffffffffffffffffffffffffffffff1663d78d3ce88888888888886040518763ffffffff1660e01b815260040161096196959493929190611f26565b600060405180830381600087803b15801561097b57600080fd5b505af115801561098f573d6000803e3d6000fd5b5050505050505050505050565b60008060008060008060006109af6110a5565b9050806004018860ff16600b81106109ca576109c9611f87565b5b6003020160000160009054906101000a900460ff16816004018960ff16600b81106109f8576109f7611f87565b5b6003020160010154826004018a60ff16600b8110610a1957610a18611f87565b5b6003020160020160009054906101000a900462ffffff16836004018b60ff16600b8110610a4957610a48611f87565b5b6003020160020160039054906101000a900461ffff16846004018c60ff16600b8110610a7857610a77611f87565b5b6003020160020160059054906101000a900462ffffff16856004018d60ff16600b8110610aa857610aa7611f87565b5b6003020160020160089054906101000a900462ffffff169650965096509650965096505091939550919395565b610add61100a565b6000610ae76110a5565b9050858160260160030160006101000a81548162ffffff021916908362ffffff160217905550848160260160030160036101000a81548162ffffff021916908362ffffff160217905550838160260160030160066101000a81548162ffffff021916908362ffffff160217905550828160260160030160096101000a81548162ffffff021916908362ffffff1602179055508181602601600301600c6101000a81548162ffffff021916908362ffffff160217905550505050505050565b610bad61100a565b6000610bb76110a5565b90508181602c0160006101000a81548160ff0219169083151502179055505050565b610be161100a565b6000610beb6110a5565b90508181602a01819055505050565b610c0261100a565b6000610c0c6110a5565b905086816004018960ff16600b8110610c2857610c27611f87565b5b6003020160000160006101000a81548160ff02191690831515021790555085816004018960ff16600b8110610c6057610c5f611f87565b5b600302016001018190555084816004018960ff16600b8110610c8557610c84611f87565b5b6003020160020160006101000a81548162ffffff021916908362ffffff16021790555083816004018960ff16600b8110610cc257610cc1611f87565b5b6003020160020160036101000a81548161ffff021916908361ffff16021790555082816004018960ff16600b8110610cfd57610cfc611f87565b5b6003020160020160056101000a81548162ffffff021916908362ffffff16021790555081816004018960ff16600b8110610d3a57610d39611f87565b5b6003020160020160086101000a81548162ffffff021916908362ffffff1602179055505050505050505050565b610d6f61100a565b6000610d796110a5565b90508281602f01600001819055508181602f0160010181905550505050565b610da061100a565b6000610daa6110a5565b90508681602d0160008960ff1660ff16815260200190815260200160002060000160006101000a81548160ff021916908360ff1602179055508581602d0160008960ff1660ff1681526020019081526020016000206001019081610e0e9190611cbc565b508481602d0160008960ff1660ff168152602001908152602001600020600201819055508381602d0160008960ff1660ff168152602001908152602001600020600301819055508281602d0160008960ff1660ff168152602001908152602001600020600401819055508181602d0160008960ff1660ff16815260200190815260200160002060060160006101000a81548160ff02191690831515021790555050505050505050565b610ebf61100a565b6000610ec96110a5565b9050848160010160000160006101000a81548162ffffff021916908362ffffff160217905550838160010160010181905550828160010160020160006101000a81548161ffff021916908361ffff160217905550818160010160020160026101000a81548160ff0219169083151502179055505050505050565b610f4b61100a565b6000610f556110a5565b905080600001604051610f6790611ef6565b908152602001604051809103902060009054906101000a900473ffffffffffffffffffffffffffffffffffffffff1673ffffffffffffffffffffffffffffffffffffffff166319eff0ab8585856040518463ffffffff1660e01b8152600401610fd293929190611fc5565b600060405180830381600087803b158015610fec57600080fd5b505af1158015611000573d6000803e3d6000fd5b5050505050505050565b6110126110aa565b60040160009054906101000a900473ffffffffffffffffffffffffffffffffffffffff1673ffffffffffffffffffffffffffffffffffffffff163373ffffffffffffffffffffffffffffffffffffffff16146110a3576040517f08c379a000000000000000000000000000000000000000000000000000000000815260040161109a90612075565b60405180910390fd5b565b600090565b6000807fc8fcad8db84d3cc18b4c41d551ea0ee66dd599cde068d998e57d5e09332c131c90508091505090565b6000604051905090565b600080fd5b600080fd5b6000819050919050565b6110fe816110eb565b811461110957600080fd5b50565b60008135905061111b816110f5565b92915050565b600060ff82169050919050565b61113781611121565b811461114257600080fd5b50565b6000813590506111548161112e565b92915050565b600080fd5b600080fd5b6000601f19601f8301169050919050565b7f4e487b7100000000000000000000000000000000000000000000000000000000600052604160045260246000fd5b6111ad82611164565b810181811067ffffffffffffffff821117156111cc576111cb611175565b5b80604052505050565b60006111df6110d7565b90506111eb82826111a4565b919050565b600067ffffffffffffffff82111561120b5761120a611175565b5b61121482611164565b9050602081019050919050565b82818337600083830152505050565b600061124361123e846111f0565b6111d5565b90508281526020810184848401111561125f5761125e61115f565b5b61126a848285611221565b509392505050565b600082601f8301126112875761128661115a565b5b8135611297848260208601611230565b91505092915050565b6000806000606084860312156112b9576112b86110e1565b5b60006112c78682870161110c565b93505060206112d886828701611145565b925050604084013567ffffffffffffffff8111156112f9576112f86110e6565b5b61130586828701611272565b9150509250925092565b600062ffffff82169050919050565b6113278161130f565b811461133257600080fd5b50565b6000813590506113448161131e565b92915050565b600080600060608486031215611363576113626110e1565b5b60006113718682870161110c565b935050602084013567ffffffffffffffff811115611392576113916110e6565b5b61139e86828701611272565b92505060406113af86828701611335565b9150509250925092565b6000602082840312156113cf576113ce6110e1565b5b60006113dd84828501611145565b91505092915050565b6113ef816110eb565b82525050565b600060608201905061140a60008301866113e6565b61141760208301856113e6565b61142460408301846113e6565b949350505050565b6114358161130f565b82525050565b600060e082019050611450600083018a61142c565b61145d602083018961142c565b61146a604083018861142c565b611477606083018761142c565b611484608083018661142c565b61149160a08301856113e6565b61149e60c08301846113e6565b98975050505050505050565b600061ffff82169050919050565b6114c1816114aa565b82525050565b60008115159050919050565b6114dc816114c7565b82525050565b60006080820190506114f7600083018761142c565b61150460208301866113e6565b61151160408301856114b8565b61151e60608301846114d3565b95945050505050565b60006020828403121561153d5761153c6110e1565b5b600061154b8482850161110c565b91505092915050565b600081519050919050565b600082825260208201905092915050565b60005b8381101561158e578082015181840152602081019050611573565b60008484015250505050565b60006115a582611554565b6115af818561155f565b93506115bf818560208601611570565b6115c881611164565b840191505092915050565b600060408201905081810360008301526115ed818561159a565b90506115fc602083018461142c565b9392505050565b61160c816114c7565b811461161757600080fd5b50565b60008135905061162981611603565b92915050565b60008060008060008060c0878903121561164c5761164b6110e1565b5b600061165a89828a0161110c565b965050602061166b89828a0161110c565b955050604061167c89828a0161110c565b945050606061168d89828a0161110c565b935050608061169e89828a0161110c565b92505060a06116af89828a0161161a565b9150509295509295509295565b600060c0820190506116d160008301896114d3565b6116de60208301886113e6565b6116eb604083018761142c565b6116f860608301866114b8565b611705608083018561142c565b61171260a083018461142c565b979650505050505050565b600080600080600060a08688031215611739576117386110e1565b5b600061174788828901611335565b955050602061175888828901611335565b945050604061176988828901611335565b935050606061177a88828901611335565b925050608061178b88828901611335565b9150509295509295909350565b6000602082840312156117ae576117ad6110e1565b5b60006117bc8482850161161a565b91505092915050565b6117ce816114aa565b81146117d957600080fd5b50565b6000813590506117eb816117c5565b92915050565b600080600080600080600060e0888a0312156118105761180f6110e1565b5b600061181e8a828b01611145565b975050602061182f8a828b0161161a565b96505060406118408a828b0161110c565b95505060606118518a828b01611335565b94505060806118628a828b016117dc565b93505060a06118738a828b01611335565b92505060c06118848a828b01611335565b91505092959891949750929550565b600080604083850312156118aa576118a96110e1565b5b60006118b88582860161110c565b92505060206118c98582860161110c565b9150509250929050565b60008060008060008060c087890312156118f0576118ef6110e1565b5b60006118fe89828a01611145565b965050602087013567ffffffffffffffff81111561191f5761191e6110e6565b5b61192b89828a01611272565b955050604061193c89828a0161110c565b945050606061194d89828a0161110c565b935050608061195e89828a0161110c565b92505060a061196f89828a0161161a565b9150509295509295509295565b60008060008060808587031215611996576119956110e1565b5b60006119a487828801611335565b94505060206119b58782880161110c565b93505060406119c6878288016117dc565b92505060606119d78782880161161a565b91505092959194509250565b600073ffffffffffffffffffffffffffffffffffffffff82169050919050565b6000611a0e826119e3565b9050919050565b611a1e81611a03565b8114611a2957600080fd5b50565b600081359050611a3b81611a15565b92915050565b600080600060608486031215611a5a57611a596110e1565b5b6000611a6886828701611a2c565b9350506020611a798682870161161a565b925050604084013567ffffffffffffffff811115611a9a57611a996110e6565b5b611aa686828701611272565b9150509250925092565b7f4e487b7100000000000000000000000000000000000000000000000000000000600052602260045260246000fd5b60006002820490506001821680611af757607f821691505b602082108103611b0a57611b09611ab0565b5b50919050565b60008190508160005260206000209050919050565b60006020601f8301049050919050565b600082821b905092915050565b600060088302611b727fffffffffffffffffffffffffffffffffffffffffffffffffffffffffffffffff82611b35565b611b7c8683611b35565b95508019841693508086168417925050509392505050565b6000819050919050565b6000611bb9611bb4611baf846110eb565b611b94565b6110eb565b9050919050565b6000819050919050565b611bd383611b9e565b611be7611bdf82611bc0565b848454611b42565b825550505050565b600090565b611bfc611bef565b611c07818484611bca565b505050565b5b81811015611c2b57611c20600082611bf4565b600181019050611c0d565b5050565b601f821115611c7057611c4181611b10565b611c4a84611b25565b81016020851015611c59578190505b611c6d611c6585611b25565b830182611c0c565b50505b505050565b600082821c905092915050565b6000611c9360001984600802611c75565b1980831691505092915050565b6000611cac8383611c82565b9150826002028217905092915050565b611cc582611554565b67ffffffffffffffff811115611cde57611cdd611175565b5b611ce88254611adf565b611cf3828285611c2f565b600060209050601f831160018114611d265760008415611d14578287015190505b611d1e8582611ca0565b865550611d86565b601f198416611d3486611b10565b60005b82811015611d5c57848901518255600182019150602085019450602081019050611d37565b86831015611d795784890151611d75601f891682611c82565b8355505b6001600288020188555050505b505050505050565b600081905092915050565b7f6462000000000000000000000000000000000000000000000000000000000000600082015250565b6000611dcf600283611d8e565b9150611dda82611d99565b600282019050919050565b6000611df082611dc2565b9150819050919050565b611e0381611121565b82525050565b6000606082019050611e1e60008301866113e6565b611e2b6020830185611dfa565b8181036040830152611e3d818461159a565b9050949350505050565b7f4e487b7100000000000000000000000000000000000000000000000000000000600052601160045260246000fd5b6000611e81826110eb565b9150611e8c836110eb565b9250828203905081811115611ea457611ea3611e47565b5b92915050565b7f7032000000000000000000000000000000000000000000000000000000000000600082015250565b6000611ee0600283611d8e565b9150611eeb82611eaa565b600282019050919050565b6000611f0182611ed3565b9150819050919050565b6000602082019050611f2060008301846113e6565b92915050565b600060c082019050611f3b60008301896113e6565b611f4860208301886113e6565b611f5560408301876113e6565b611f6260608301866113e6565b611f6f60808301856113e6565b611f7c60a08301846114d3565b979650505050505050565b7f4e487b7100000000000000000000000000000000000000000000000000000000600052603260045260246000fd5b611fbf81611a03565b82525050565b6000606082019050611fda6000830186611fb6565b611fe760208301856114d3565b8181036040830152611ff9818461159a565b9050949350505050565b7f4c69624469616d6f6e643a204d75737420626520636f6e7472616374206f776e60008201527f6572000000000000000000000000000000000000000000000000000000000000602082015250565b600061205f60228361155f565b915061206a82612003565b604082019050919050565b6000602082019050818103600083015261208e81612052565b905091905056fea26469706673582212208c9b4555dd6391fe50631c514b30ab245e497726806ce048d7e88302cc8a25fc64736f6c63430008160033",
  "devdoc": {
    "kind": "dev",
    "methods": {
      "admin_P2_layer_setting(uint256,uint256,uint256,uint256,uint256,bool)": {
        "details": "P2 Admin functions"
      },
      "admin_distribute_setStates(uint24,uint24,uint24,uint24,uint24)": {
        "details": "DistriBute Admin functions"
      },
      "admin_p0_setStates(uint24,uint256,uint16,bool)": {
        "details": "P0 Admin functions"
      },
      "admin_setAienMintFee(uint256)": {
        "details": "aien mint variables"
      }
    },
    "version": 1
  },
  "userdoc": {
    "kind": "user",
    "methods": {},
    "version": 1
  },
  "storageLayout": {
    "storage": [],
    "types": null
  }
}