{
  "address": "0x71Fae92D586DA20F83EDbF44eA2812B97c36682b",
  "abi": [
    {
      "anonymous": false,
      "inputs": [
        {
          "indexed": true,
          "internalType": "address",
          "name": "to",
          "type": "address"
        },
        {
          "indexed": true,
          "internalType": "uint256",
          "name": "aienId",
          "type": "uint256"
        },
        {
          "indexed": true,
          "internalType": "uint256",
          "name": "payment",
          "type": "uint256"
        }
      ],
      "name": "Aien_AiMint_Event",
      "type": "event"
    },
    {
      "anonymous": false,
      "inputs": [
        {
          "indexed": true,
          "internalType": "address",
          "name": "to",
          "type": "address"
        },
        {
          "indexed": true,
          "internalType": "uint256",
          "name": "aienId",
          "type": "uint256"
        },
        {
          "indexed": true,
          "internalType": "uint256",
          "name": "payment",
          "type": "uint256"
        }
      ],
      "name": "Aien_AiSetImage_Event",
      "type": "event"
    },
    {
      "anonymous": false,
      "inputs": [
        {
          "indexed": true,
          "internalType": "address",
          "name": "to",
          "type": "address"
        },
        {
          "indexed": true,
          "internalType": "uint256",
          "name": "aienId",
          "type": "uint256"
        }
      ],
      "name": "Aien_DefaultMint_Event",
      "type": "event"
    },
    {
      "anonymous": false,
      "inputs": [
        {
          "indexed": true,
          "internalType": "address",
          "name": "to",
          "type": "address"
        },
        {
          "indexed": true,
          "internalType": "uint256",
          "name": "aienId",
          "type": "uint256"
        }
      ],
      "name": "Aien_DefaultSetImage_Event",
      "type": "event"
    },
    {
      "anonymous": false,
      "inputs": [
        {
          "indexed": true,
          "internalType": "address",
          "name": "to",
          "type": "address"
        },
        {
          "indexed": true,
          "internalType": "uint256",
          "name": "aienId",
          "type": "uint256"
        },
        {
          "indexed": true,
          "internalType": "uint256",
          "name": "perfId",
          "type": "uint256"
        }
      ],
      "name": "Aien_PfMint_Event",
      "type": "event"
    },
    {
      "anonymous": false,
      "inputs": [
        {
          "indexed": true,
          "internalType": "address",
          "name": "to",
          "type": "address"
        },
        {
          "indexed": true,
          "internalType": "uint256",
          "name": "aienId",
          "type": "uint256"
        },
        {
          "indexed": true,
          "internalType": "uint256",
          "name": "perfId",
          "type": "uint256"
        }
      ],
      "name": "Aien_PfSetImage_Event",
      "type": "event"
    },
    {
      "inputs": [],
      "name": "aiMint",
      "outputs": [],
      "stateMutability": "nonpayable",
      "type": "function"
    },
    {
      "inputs": [
        {
          "internalType": "uint256",
          "name": "_aienId",
          "type": "uint256"
        }
      ],
      "name": "aiSetImage",
      "outputs": [],
      "stateMutability": "nonpayable",
      "type": "function"
    },
    {
      "inputs": [],
      "name": "defaultMint",
      "outputs": [],
      "stateMutability": "nonpayable",
      "type": "function"
    },
    {
      "inputs": [
        {
          "internalType": "uint256",
          "name": "_aienId",
          "type": "uint256"
        }
      ],
      "name": "defaultSetImage",
      "outputs": [],
      "stateMutability": "nonpayable",
      "type": "function"
    },
    {
      "inputs": [
        {
          "internalType": "uint256",
          "name": "_pfId",
          "type": "uint256"
        }
      ],
      "name": "pfMint",
      "outputs": [],
      "stateMutability": "nonpayable",
      "type": "function"
    },
    {
      "inputs": [
        {
          "internalType": "uint256",
          "name": "_aienId",
          "type": "uint256"
        },
        {
          "internalType": "uint256",
          "name": "_pfId",
          "type": "uint256"
        }
      ],
      "name": "pfSetImage",
      "outputs": [],
      "stateMutability": "nonpayable",
      "type": "function"
    }
  ],
  "transactionHash": "0x450677578d2cf6e81172e5cbdfa8c0e46d61a81822c14d2b8e6f7093743b38a8",
  "args": [],
  "numDeployments": 21,
  "solcInputHash": "391e8c756ef757a3ea17c003b6236433",
  "bytecode": "0x608060405234801561001057600080fd5b50611e9c806100206000396000f3fe608060405234801561001057600080fd5b50600436106100625760003560e01c806343744fd714610067578063635e0d10146100715780636e3e74c81461008d578063783e74d614610097578063b8107ac2146100b3578063dde343dd146100cf575b600080fd5b61006f6100eb565b005b61008b600480360381019061008691906118ce565b610104565b005b61009561011f565b005b6100b160048036038101906100ac91906118ce565b610138565b005b6100cd60048036038101906100c891906118fb565b610152565b005b6100e960048036038101906100e491906118ce565b61016e565b005b60006100f5610188565b905061010081610238565b5050565b600061010e610188565b905061011a81836105a4565b505050565b6000610129610188565b905061013481610bdc565b5050565b6000610142610188565b905061014e818361104e565b5050565b600061015c610188565b90506101698184846111c8565b505050565b6000610178610188565b9050610184818361160e565b5050565b60003073ffffffffffffffffffffffffffffffffffffffff163373ffffffffffffffffffffffffffffffffffffffff160361023157600080368080601f016020809104026020016040519081016040528093929190818152602001838380828437600081840152601f19601f820116905080830192505050505050509050600080369050905073ffffffffffffffffffffffffffffffffffffffff818301511692505050610235565b3390505b90565b60008061024361188e565b905060008160000160405161025790611992565b908152602001604051809103902060009054906101000a900473ffffffffffffffffffffffffffffffffffffffff1673ffffffffffffffffffffffffffffffffffffffff166370a082316102a9610188565b6040518263ffffffff1660e01b81526004016102c591906119e8565b602060405180830381865afa1580156102e2573d6000803e3d6000fd5b505050506040513d601f19601f820116820180604052508101906103069190611a18565b14610346576040517f08c379a000000000000000000000000000000000000000000000000000000000815260040161033d90611aa2565b60405180910390fd5b600061035061188e565b905060008160000160405161036490611992565b908152602001604051809103902060009054906101000a900473ffffffffffffffffffffffffffffffffffffffff1673ffffffffffffffffffffffffffffffffffffffff166375794a3c6040518163ffffffff1660e01b8152600401602060405180830381865afa1580156103dd573d6000803e3d6000fd5b505050506040513d601f19601f820116820180604052508101906104019190611a18565b90508160000160405161041390611992565b908152602001604051809103902060009054906101000a900473ffffffffffffffffffffffffffffffffffffffff1673ffffffffffffffffffffffffffffffffffffffff16630c0e55d5866040518263ffffffff1660e01b815260040161047a91906119e8565b600060405180830381600087803b15801561049457600080fd5b505af11580156104a8573d6000803e3d6000fd5b50505050816000016040516104bc90611b0e565b908152602001604051809103902060009054906101000a900473ffffffffffffffffffffffffffffffffffffffff1673ffffffffffffffffffffffffffffffffffffffff16632afcbc46826040518263ffffffff1660e01b81526004016105239190611b32565b600060405180830381600087803b15801561053d57600080fd5b505af1158015610551573d6000803e3d6000fd5b50505050808573ffffffffffffffffffffffffffffffffffffffff167f88423ffc50fb24ab17d27b09d236ad2a0e05182e9286e93859ff68cc586f03c860405160405180910390a3809350505050919050565b6000806105af61188e565b90506000816000016040516105c390611992565b908152602001604051809103902060009054906101000a900473ffffffffffffffffffffffffffffffffffffffff1673ffffffffffffffffffffffffffffffffffffffff166370a08231610615610188565b6040518263ffffffff1660e01b815260040161063191906119e8565b602060405180830381865afa15801561064e573d6000803e3d6000fd5b505050506040513d601f19601f820116820180604052508101906106729190611a18565b146106b2576040517f08c379a00000000000000000000000000000000000000000000000000000000081526004016106a990611aa2565b60405180910390fd5b60006106bc61188e565b90508473ffffffffffffffffffffffffffffffffffffffff16816000016040516106e590611b99565b908152602001604051809103902060009054906101000a900473ffffffffffffffffffffffffffffffffffffffff1673ffffffffffffffffffffffffffffffffffffffff16636352211e866040518263ffffffff1660e01b815260040161074c9190611b32565b602060405180830381865afa158015610769573d6000803e3d6000fd5b505050506040513d601f19601f8201168201806040525081019061078d9190611bda565b73ffffffffffffffffffffffffffffffffffffffff16146107e3576040517f08c379a00000000000000000000000000000000000000000000000000000000081526004016107da90611c53565b60405180910390fd5b6004816000016040516107f590611b0e565b908152602001604051809103902060009054906101000a900473ffffffffffffffffffffffffffffffffffffffff1673ffffffffffffffffffffffffffffffffffffffff166324d26761866040518263ffffffff1660e01b815260040161085c9190611b32565b602060405180830381865afa158015610879573d6000803e3d6000fd5b505050506040513d601f19601f8201168201806040525081019061089d9190611a18565b116108dd576040517f08c379a00000000000000000000000000000000000000000000000000000000081526004016108d490611cbf565b60405180910390fd5b6000816000016040516108ef90611992565b908152602001604051809103902060009054906101000a900473ffffffffffffffffffffffffffffffffffffffff1673ffffffffffffffffffffffffffffffffffffffff166375794a3c6040518163ffffffff1660e01b8152600401602060405180830381865afa158015610968573d6000803e3d6000fd5b505050506040513d601f19601f8201168201806040525081019061098c9190611a18565b90508160000160405161099e90611b0e565b908152602001604051809103902060009054906101000a900473ffffffffffffffffffffffffffffffffffffffff1673ffffffffffffffffffffffffffffffffffffffff16632afcbc46826040518263ffffffff1660e01b8152600401610a059190611b32565b600060405180830381600087803b158015610a1f57600080fd5b505af1158015610a33573d6000803e3d6000fd5b5050505081600001604051610a4790611b0e565b908152602001604051809103902060009054906101000a900473ffffffffffffffffffffffffffffffffffffffff1673ffffffffffffffffffffffffffffffffffffffff16637bf3519582876040518363ffffffff1660e01b8152600401610ab0929190611cdf565b600060405180830381600087803b158015610aca57600080fd5b505af1158015610ade573d6000803e3d6000fd5b5050505081600001604051610af290611992565b908152602001604051809103902060009054906101000a900473ffffffffffffffffffffffffffffffffffffffff1673ffffffffffffffffffffffffffffffffffffffff16630c0e55d5876040518263ffffffff1660e01b8152600401610b5991906119e8565b600060405180830381600087803b158015610b7357600080fd5b505af1158015610b87573d6000803e3d6000fd5b5050505084818773ffffffffffffffffffffffffffffffffffffffff167f1b92595453af778c64ceef0740027129d2b54d9c00790188e3c7328e6fbe10ad60405160405180910390a480935050505092915050565b600080610be761188e565b9050600081600001604051610bfb90611992565b908152602001604051809103902060009054906101000a900473ffffffffffffffffffffffffffffffffffffffff1673ffffffffffffffffffffffffffffffffffffffff166370a08231610c4d610188565b6040518263ffffffff1660e01b8152600401610c6991906119e8565b602060405180830381865afa158015610c86573d6000803e3d6000fd5b505050506040513d601f19601f82011682018060405250810190610caa9190611a18565b14610cea576040517f08c379a0000000000000000000000000000000000000000000000000000000008152600401610ce190611aa2565b60405180910390fd5b6000610cf461188e565b9050600081600001604051610d0890611992565b908152602001604051809103902060009054906101000a900473ffffffffffffffffffffffffffffffffffffffff1673ffffffffffffffffffffffffffffffffffffffff166375794a3c6040518163ffffffff1660e01b8152600401602060405180830381865afa158015610d81573d6000803e3d6000fd5b505050506040513d601f19601f82011682018060405250810190610da59190611a18565b905081600001604051610db790611d54565b908152602001604051809103902060009054906101000a900473ffffffffffffffffffffffffffffffffffffffff1673ffffffffffffffffffffffffffffffffffffffff166323b872dd8684600001604051610e1290611db5565b908152602001604051809103902060009054906101000a900473ffffffffffffffffffffffffffffffffffffffff1685602a01546040518463ffffffff1660e01b8152600401610e6493929190611dca565b6020604051808303816000875af1158015610e83573d6000803e3d6000fd5b505050506040513d601f19601f82011682018060405250810190610ea79190611e39565b5081600001604051610eb890611992565b908152602001604051809103902060009054906101000a900473ffffffffffffffffffffffffffffffffffffffff1673ffffffffffffffffffffffffffffffffffffffff16630c0e55d5866040518263ffffffff1660e01b8152600401610f1f91906119e8565b600060405180830381600087803b158015610f3957600080fd5b505af1158015610f4d573d6000803e3d6000fd5b5050505081600001604051610f6190611b0e565b908152602001604051809103902060009054906101000a900473ffffffffffffffffffffffffffffffffffffffff1673ffffffffffffffffffffffffffffffffffffffff16632afcbc46826040518263ffffffff1660e01b8152600401610fc89190611b32565b600060405180830381600087803b158015610fe257600080fd5b505af1158015610ff6573d6000803e3d6000fd5b5050505081602a0154818673ffffffffffffffffffffffffffffffffffffffff167f08adfa11554b38781c149cae1012954447a95f3ec20d04b215cfa9adef15bfbe60405160405180910390a4809350505050919050565b600061105861188e565b90508273ffffffffffffffffffffffffffffffffffffffff168160000160405161108190611992565b908152602001604051809103902060009054906101000a900473ffffffffffffffffffffffffffffffffffffffff1673ffffffffffffffffffffffffffffffffffffffff16636352211e846040518263ffffffff1660e01b81526004016110e89190611b32565b602060405180830381865afa158015611105573d6000803e3d6000fd5b505050506040513d601f19601f820116820180604052508101906111299190611bda565b73ffffffffffffffffffffffffffffffffffffffff161461117f576040517f08c379a000000000000000000000000000000000000000000000000000000000815260040161117690611c53565b60405180910390fd5b818373ffffffffffffffffffffffffffffffffffffffff167f700335a7325302599dc612a8583c24b1d56fd8822dd0622f4301069250cded2e60405160405180910390a3505050565b60006111d261188e565b90508373ffffffffffffffffffffffffffffffffffffffff16816000016040516111fb90611992565b908152602001604051809103902060009054906101000a900473ffffffffffffffffffffffffffffffffffffffff1673ffffffffffffffffffffffffffffffffffffffff16636352211e856040518263ffffffff1660e01b81526004016112629190611b32565b602060405180830381865afa15801561127f573d6000803e3d6000fd5b505050506040513d601f19601f820116820180604052508101906112a39190611bda565b73ffffffffffffffffffffffffffffffffffffffff16146112f9576040517f08c379a00000000000000000000000000000000000000000000000000000000081526004016112f090611c53565b60405180910390fd5b8373ffffffffffffffffffffffffffffffffffffffff168160000160405161132090611b99565b908152602001604051809103902060009054906101000a900473ffffffffffffffffffffffffffffffffffffffff1673ffffffffffffffffffffffffffffffffffffffff16636352211e846040518263ffffffff1660e01b81526004016113879190611b32565b602060405180830381865afa1580156113a4573d6000803e3d6000fd5b505050506040513d601f19601f820116820180604052508101906113c89190611bda565b73ffffffffffffffffffffffffffffffffffffffff161461141e576040517f08c379a000000000000000000000000000000000000000000000000000000000815260040161141590611c53565b60405180910390fd5b60048160000160405161143090611b0e565b908152602001604051809103902060009054906101000a900473ffffffffffffffffffffffffffffffffffffffff1673ffffffffffffffffffffffffffffffffffffffff166324d26761846040518263ffffffff1660e01b81526004016114979190611b32565b602060405180830381865afa1580156114b4573d6000803e3d6000fd5b505050506040513d601f19601f820116820180604052508101906114d89190611a18565b11611518576040517f08c379a000000000000000000000000000000000000000000000000000000000815260040161150f90611cbf565b60405180910390fd5b8060000160405161152890611b0e565b908152602001604051809103902060009054906101000a900473ffffffffffffffffffffffffffffffffffffffff1673ffffffffffffffffffffffffffffffffffffffff16637bf3519584846040518363ffffffff1660e01b8152600401611591929190611cdf565b600060405180830381600087803b1580156115ab57600080fd5b505af11580156115bf573d6000803e3d6000fd5b5050505081838573ffffffffffffffffffffffffffffffffffffffff167f46bc0332351dc9f346de239a5b580849ab69fcefe8b9168129aee3dc7f2651ac60405160405180910390a450505050565b600061161861188e565b90508273ffffffffffffffffffffffffffffffffffffffff168160000160405161164190611992565b908152602001604051809103902060009054906101000a900473ffffffffffffffffffffffffffffffffffffffff1673ffffffffffffffffffffffffffffffffffffffff16636352211e846040518263ffffffff1660e01b81526004016116a89190611b32565b602060405180830381865afa1580156116c5573d6000803e3d6000fd5b505050506040513d601f19601f820116820180604052508101906116e99190611bda565b73ffffffffffffffffffffffffffffffffffffffff161461173f576040517f08c379a000000000000000000000000000000000000000000000000000000000815260040161173690611c53565b60405180910390fd5b8060000160405161174f90611d54565b908152602001604051809103902060009054906101000a900473ffffffffffffffffffffffffffffffffffffffff1673ffffffffffffffffffffffffffffffffffffffff166323b872dd84836000016040516117aa90611db5565b908152602001604051809103902060009054906101000a900473ffffffffffffffffffffffffffffffffffffffff1684602a01546040518463ffffffff1660e01b81526004016117fc93929190611dca565b6020604051808303816000875af115801561181b573d6000803e3d6000fd5b505050506040513d601f19601f8201168201806040525081019061183f9190611e39565b5080602a0154828473ffffffffffffffffffffffffffffffffffffffff167fa7beba20503d0bbc00bdc905cb33ca60cb3eddeeaba4358eb51a9db12aaa643160405160405180910390a4505050565b600090565b600080fd5b6000819050919050565b6118ab81611898565b81146118b657600080fd5b50565b6000813590506118c8816118a2565b92915050565b6000602082840312156118e4576118e3611893565b5b60006118f2848285016118b9565b91505092915050565b6000806040838503121561191257611911611893565b5b6000611920858286016118b9565b9250506020611931858286016118b9565b9150509250929050565b600081905092915050565b7f6169656e00000000000000000000000000000000000000000000000000000000600082015250565b600061197c60048361193b565b915061198782611946565b600482019050919050565b600061199d8261196f565b9150819050919050565b600073ffffffffffffffffffffffffffffffffffffffff82169050919050565b60006119d2826119a7565b9050919050565b6119e2816119c7565b82525050565b60006020820190506119fd60008301846119d9565b92915050565b600081519050611a12816118a2565b92915050565b600060208284031215611a2e57611a2d611893565b5b6000611a3c84828501611a03565b91505092915050565b600082825260208201905092915050565b7f616c7265616479206d696e746564000000000000000000000000000000000000600082015250565b6000611a8c600e83611a45565b9150611a9782611a56565b602082019050919050565b60006020820190508181036000830152611abb81611a7f565b9050919050565b7f6462000000000000000000000000000000000000000000000000000000000000600082015250565b6000611af860028361193b565b9150611b0382611ac2565b600282019050919050565b6000611b1982611aeb565b9150819050919050565b611b2c81611898565b82525050565b6000602082019050611b476000830184611b23565b92915050565b7f706572667269656e647300000000000000000000000000000000000000000000600082015250565b6000611b83600a8361193b565b9150611b8e82611b4d565b600a82019050919050565b6000611ba482611b76565b9150819050919050565b611bb7816119c7565b8114611bc257600080fd5b50565b600081519050611bd481611bae565b92915050565b600060208284031215611bf057611bef611893565b5b6000611bfe84828501611bc5565b91505092915050565b7f6e6f74206f776e65720000000000000000000000000000000000000000000000600082015250565b6000611c3d600983611a45565b9150611c4882611c07565b602082019050919050565b60006020820190508181036000830152611c6c81611c30565b9050919050565b7f6174206c65617374205046206772616465203500000000000000000000000000600082015250565b6000611ca9601383611a45565b9150611cb482611c73565b602082019050919050565b60006020820190508181036000830152611cd881611c9c565b9050919050565b6000604082019050611cf46000830185611b23565b611d016020830184611b23565b9392505050565b7f7065720000000000000000000000000000000000000000000000000000000000600082015250565b6000611d3e60038361193b565b9150611d4982611d08565b600382019050919050565b6000611d5f82611d31565b9150819050919050565b7f7465616d00000000000000000000000000000000000000000000000000000000600082015250565b6000611d9f60048361193b565b9150611daa82611d69565b600482019050919050565b6000611dc082611d92565b9150819050919050565b6000606082019050611ddf60008301866119d9565b611dec60208301856119d9565b611df96040830184611b23565b949350505050565b60008115159050919050565b611e1681611e01565b8114611e2157600080fd5b50565b600081519050611e3381611e0d565b92915050565b600060208284031215611e4f57611e4e611893565b5b6000611e5d84828501611e24565b9150509291505056fea264697066735822122034f85c6b721272dc873c8328a2cd523d1938d978a1abee6b35bf0306b8af157f64736f6c63430008160033",
  "devdoc": {
    "details": "Aien Mint Facet Contract",
    "kind": "dev",
    "methods": {},
    "version": 1
  },
  "userdoc": {
    "kind": "user",
    "methods": {},
    "version": 1
  },
  "storageLayout": {
    "storage": [],
    "types": null
  }
}