{
  "address": "0x2EB1C6ba3996E99b2ef68Dd4F58A3F3f0663133c",
  "abi": [
    {
      "inputs": [
        {
          "internalType": "string",
          "name": "_name",
          "type": "string"
        }
      ],
      "name": "getContract",
      "outputs": [
        {
          "internalType": "address",
          "name": "",
          "type": "address"
        }
      ],
      "stateMutability": "view",
      "type": "function"
    },
    {
      "inputs": [
        {
          "internalType": "string",
          "name": "_name",
          "type": "string"
        },
        {
          "internalType": "address",
          "name": "_addr",
          "type": "address"
        }
      ],
      "name": "setContract",
      "outputs": [],
      "stateMutability": "nonpayable",
      "type": "function"
    }
  ],
  "transactionHash": "0x0a639c582c044a528050d2706a87bc1915953c6e485b741813cc961430273337",
  "args": [],
  "numDeployments": 13,
  "solcInputHash": "e3ff154353d48c19ec08462ad1172843",
  "bytecode": "0x608060405234801561001057600080fd5b50610335806100206000396000f3fe608060405234801561001057600080fd5b50600436106100365760003560e01c8063358177731461003b5780633f0ed0df1461006a575b600080fd5b61004e610049366004610235565b61007f565b6040516001600160a01b03909116815260200160405180910390f35b61007d610078366004610272565b6100b4565b005b600080806000018360405161009491906102d0565b908152604051908190036020019020546001600160a01b03169392505050565b6100bc610105565b60008181600001846040516100d191906102d0565b90815260405190819003602001902080546001600160a01b03929092166001600160a01b0319909216919091179055505050565b7fc8fcad8db84d3cc18b4c41d551ea0ee66dd599cde068d998e57d5e09332c131c600401546001600160a01b031633146101905760405162461bcd60e51b815260206004820152602260248201527f4c69624469616d6f6e643a204d75737420626520636f6e7472616374206f776e60448201526132b960f11b606482015260840160405180910390fd5b565b634e487b7160e01b600052604160045260246000fd5b600082601f8301126101b957600080fd5b813567ffffffffffffffff808211156101d4576101d4610192565b604051601f8301601f19908116603f011681019082821181831017156101fc576101fc610192565b8160405283815286602085880101111561021557600080fd5b836020870160208301376000602085830101528094505050505092915050565b60006020828403121561024757600080fd5b813567ffffffffffffffff81111561025e57600080fd5b61026a848285016101a8565b949350505050565b6000806040838503121561028557600080fd5b823567ffffffffffffffff81111561029c57600080fd5b6102a8858286016101a8565b92505060208301356001600160a01b03811681146102c557600080fd5b809150509250929050565b6000825160005b818110156102f157602081860181015185830152016102d7565b50600092019182525091905056fea2646970667358221220f97e45b29e5805ce47987918c4880052149e5a21d6b6f3ba8e7818c3688f35e164736f6c63430008160033",
  "devdoc": {
    "kind": "dev",
    "methods": {},
    "version": 1
  },
  "userdoc": {
    "kind": "user",
    "methods": {},
    "version": 1
  },
  "storageLayout": {
    "storage": [],
    "types": null
  }
}