{
  "address": "0x31E1A80208b744FC11470c24924CA1C5731CDb55",
  "abi": [
    {
      "inputs": [
        {
          "internalType": "address",
          "name": "_facet",
          "type": "address"
        },
        {
          "internalType": "address",
          "name": "_tokenAddr",
          "type": "address"
        },
        {
          "internalType": "uint256",
          "name": "_amount",
          "type": "uint256"
        }
      ],
      "name": "Distribute_Transfer_Balance",
      "outputs": [],
      "stateMutability": "nonpayable",
      "type": "function"
    },
    {
      "inputs": [
        {
          "internalType": "address",
          "name": "_agency",
          "type": "address"
        },
        {
          "internalType": "uint256",
          "name": "_agencyAmount",
          "type": "uint256"
        },
        {
          "internalType": "address",
          "name": "_influencer",
          "type": "address"
        },
        {
          "internalType": "uint256",
          "name": "_influencerAmount",
          "type": "uint256"
        },
        {
          "internalType": "uint256",
          "name": "_totalAmount",
          "type": "uint256"
        }
      ],
      "name": "Distribute_p0LvUpDistribute",
      "outputs": [],
      "stateMutability": "nonpayable",
      "type": "function"
    },
    {
      "inputs": [],
      "name": "Distribute_swapToDistribute",
      "outputs": [],
      "stateMutability": "nonpayable",
      "type": "function"
    }
  ],
  "transactionHash": "0xc0071252046400246a05ec9f5a9a18377e40293bfc7959973b707926105fadaa",
  "args": [],
  "numDeployments": 8,
  "solcInputHash": "29ec7294a3499ca8ec17037bd1295adb",
  "bytecode": "0x608060405234801561001057600080fd5b50611bf3806100206000396000f3fe608060405234801561001057600080fd5b50600436106100415760003560e01c806361dd1e581461004657806372dc907a14610062578063c98c73d71461007e575b600080fd5b610060600480360381019061005b91906112ab565b610088565b005b61007c600480360381019061007791906112fe565b61012e565b005b610086610142565b005b61009061014c565b600061009a6101e7565b905060006100a66101ec565b90508373ffffffffffffffffffffffffffffffffffffffff1663a9059cbb82856040518363ffffffff1660e01b81526004016100e3929190611397565b6020604051808303816000875af1158015610102573d6000803e3d6000fd5b505050506040513d601f19601f8201168201806040525081019061012691906113f8565b505050505050565b61013b858585858561029c565b5050505050565b61014a61074c565b565b6101546109ee565b60040160009054906101000a900473ffffffffffffffffffffffffffffffffffffffff1673ffffffffffffffffffffffffffffffffffffffff163373ffffffffffffffffffffffffffffffffffffffff16146101e5576040517f08c379a00000000000000000000000000000000000000000000000000000000081526004016101dc906114a8565b60405180910390fd5b565b600090565b60003073ffffffffffffffffffffffffffffffffffffffff163373ffffffffffffffffffffffffffffffffffffffff160361029557600080368080601f016020809104026020016040519081016040528093929190818152602001838380828437600081840152601f19601f820116905080830192505050505050509050600080369050905073ffffffffffffffffffffffffffffffffffffffff818301511692505050610299565b3390505b90565b60006102a66101e7565b905060008060008060006102b987610a1b565b945094509450945094506000866000016040516102d59061151f565b908152602001604051809103902060009054906101000a900473ffffffffffffffffffffffffffffffffffffffff1690508073ffffffffffffffffffffffffffffffffffffffff1663a9059cbb8d8d6040518363ffffffff1660e01b8152600401610341929190611397565b6020604051808303816000875af1158015610360573d6000803e3d6000fd5b505050506040513d601f19601f8201168201806040525081019061038491906113f8565b508073ffffffffffffffffffffffffffffffffffffffff1663a9059cbb8b8b6040518363ffffffff1660e01b81526004016103c0929190611397565b6020604051808303816000875af11580156103df573d6000803e3d6000fd5b505050506040513d601f19601f8201168201806040525081019061040391906113f8565b508073ffffffffffffffffffffffffffffffffffffffff1663a9059cbb8860000160405161043090611580565b908152602001604051809103902060009054906101000a900473ffffffffffffffffffffffffffffffffffffffff16866040518363ffffffff1660e01b815260040161047d929190611397565b6020604051808303816000875af115801561049c573d6000803e3d6000fd5b505050506040513d601f19601f820116820180604052508101906104c091906113f8565b508073ffffffffffffffffffffffffffffffffffffffff1663a9059cbb886000016040516104ed906115e1565b908152602001604051809103902060009054906101000a900473ffffffffffffffffffffffffffffffffffffffff16876040518363ffffffff1660e01b815260040161053a929190611397565b6020604051808303816000875af1158015610559573d6000803e3d6000fd5b505050506040513d601f19601f8201168201806040525081019061057d91906113f8565b508073ffffffffffffffffffffffffffffffffffffffff1663a9059cbb886000016040516105aa90611642565b908152602001604051809103902060009054906101000a900473ffffffffffffffffffffffffffffffffffffffff16886040518363ffffffff1660e01b81526004016105f7929190611397565b6020604051808303816000875af1158015610616573d6000803e3d6000fd5b505050506040513d601f19601f8201168201806040525081019061063a91906113f8565b508660000160405161064b90611642565b908152602001604051809103902060009054906101000a900473ffffffffffffffffffffffffffffffffffffffff1673ffffffffffffffffffffffffffffffffffffffff16638bc2fa3a876040518263ffffffff1660e01b81526004016106b29190611657565b600060405180830381600087803b1580156106cc57600080fd5b505af11580156106e0573d6000803e3d6000fd5b50505050848760260160010160008282546106fb91906116a1565b925050819055508187602601600001600082825461071991906116a1565b925050819055508287602601600201600082825461073791906116a1565b92505081905550505050505050505050505050565b6000806000610759610b5f565b92509250925060011515831515146107a6576040517f08c379a000000000000000000000000000000000000000000000000000000000815260040161079d90611747565b60405180910390fd5b60006107b06101e7565b90506060816000016040516107c49061151f565b908152602001604051809103902060009054906101000a900473ffffffffffffffffffffffffffffffffffffffff1673ffffffffffffffffffffffffffffffffffffffff1663095ea7b38360000160405161081e906117b3565b908152602001604051809103902060009054906101000a900473ffffffffffffffffffffffffffffffffffffffff16866040518363ffffffff1660e01b815260040161086b929190611397565b6020604051808303816000875af115801561088a573d6000803e3d6000fd5b505050506040513d601f19601f820116820180604052508101906108ae91906113f8565b50816000016040516108bf906117b3565b908152602001604051809103902060009054906101000a900473ffffffffffffffffffffffffffffffffffffffff1673ffffffffffffffffffffffffffffffffffffffff166352f28c17836000016040516109199061151f565b908152602001604051809103902060009054906101000a900473ffffffffffffffffffffffffffffffffffffffff16868560000160405161095990611814565b908152602001604051809103902060009054906101000a900473ffffffffffffffffffffffffffffffffffffffff1687866040518663ffffffff1660e01b81526004016109aa9594939291906118e7565b600060405180830381600087803b1580156109c457600080fd5b505af11580156109d8573d6000803e3d6000fd5b505050506109e4610dc0565b5050505050505050565b6000807fc8fcad8db84d3cc18b4c41d551ea0ee66dd599cde068d998e57d5e09332c131c90508091505090565b600080600080600080610a2c6101e7565b9050600060648260260160030160009054906101000a900462ffffff1662ffffff1689610a599190611941565b610a6391906119b2565b9050600060648360260160030160039054906101000a900462ffffff1662ffffff168a610a909190611941565b610a9a91906119b2565b9050600060648460260160030160099054906101000a900462ffffff1662ffffff168b610ac79190611941565b610ad191906119b2565b90506000606485602601600301600c9054906101000a900462ffffff1662ffffff168c610afe9190611941565b610b0891906119b2565b9050600060648660260160030160069054906101000a900462ffffff1662ffffff168d610b359190611941565b610b3f91906119b2565b905084848484849a509a509a509a509a5050505050505091939590929450565b600080600080610b6d6101e7565b90506060600082600001604051610b839061151f565b908152602001604051809103902060009054906101000a900473ffffffffffffffffffffffffffffffffffffffff1673ffffffffffffffffffffffffffffffffffffffff166370a08231306040518263ffffffff1660e01b8152600401610bea91906119e3565b602060405180830381865afa158015610c07573d6000803e3d6000fd5b505050506040513d601f19601f82011682018060405250810190610c2b9190611a13565b9050600083600001604051610c3f90611a8c565b908152602001604051809103902060009054906101000a900473ffffffffffffffffffffffffffffffffffffffff1673ffffffffffffffffffffffffffffffffffffffff1663692ca7a085600001604051610c999061151f565b908152602001604051809103902060009054906101000a900473ffffffffffffffffffffffffffffffffffffffff1686600001604051610cd890611814565b908152602001604051809103902060009054906101000a900473ffffffffffffffffffffffffffffffffffffffff1685876040518563ffffffff1660e01b8152600401610d289493929190611aa1565b602060405180830381865afa158015610d45573d6000803e3d6000fd5b505050506040513d601f19601f82011682018060405250810190610d699190611a13565b905083602b015481118015610d9357506001151584602c0160009054906101000a900460ff161515145b15610dab576001828296509650965050505050610dbb565b6000806000965096509650505050505b909192565b600080600080610dce6101e7565b9050600081600001604051610de290611814565b908152602001604051809103902060009054906101000a900473ffffffffffffffffffffffffffffffffffffffff1673ffffffffffffffffffffffffffffffffffffffff166370a08231306040518263ffffffff1660e01b8152600401610e4991906119e3565b602060405180830381865afa158015610e66573d6000803e3d6000fd5b505050506040513d601f19601f82011682018060405250810190610e8a9190611a13565b9050600082602601600301600c9054906101000a900462ffffff168360260160030160069054906101000a900462ffffff16610ec69190611afc565b62ffffff1690506000818460260160030160069054906101000a900462ffffff1662ffffff1684610ef79190611941565b610f0191906119b2565b905060008285602601600301600c9054906101000a900462ffffff1662ffffff1685610f2d9190611941565b610f3791906119b2565b905084600001604051610f4990611814565b908152602001604051809103902060009054906101000a900473ffffffffffffffffffffffffffffffffffffffff1673ffffffffffffffffffffffffffffffffffffffff1663a9059cbb86600001604051610fa3906115e1565b908152602001604051809103902060009054906101000a900473ffffffffffffffffffffffffffffffffffffffff16846040518363ffffffff1660e01b8152600401610ff0929190611397565b6020604051808303816000875af115801561100f573d6000803e3d6000fd5b505050506040513d601f19601f8201168201806040525081019061103391906113f8565b508460000160405161104490611814565b908152602001604051809103902060009054906101000a900473ffffffffffffffffffffffffffffffffffffffff1673ffffffffffffffffffffffffffffffffffffffff1663a9059cbb8660000160405161109e90611b7f565b908152602001604051809103902060009054906101000a900473ffffffffffffffffffffffffffffffffffffffff16836040518363ffffffff1660e01b81526004016110eb929190611397565b6020604051808303816000875af115801561110a573d6000803e3d6000fd5b505050506040513d601f19601f8201168201806040525081019061112e91906113f8565b508460000160405161113f906115e1565b908152602001604051809103902060009054906101000a900473ffffffffffffffffffffffffffffffffffffffff1673ffffffffffffffffffffffffffffffffffffffff1663b81d9a348387602601600101546040518363ffffffff1660e01b81526004016111af929190611b94565b600060405180830381600087803b1580156111c957600080fd5b505af11580156111dd573d6000803e3d6000fd5b505050506000856026016001018190555060008560260160000181905550600085602601600201819055505050505050909192565b600080fd5b600073ffffffffffffffffffffffffffffffffffffffff82169050919050565b600061124282611217565b9050919050565b61125281611237565b811461125d57600080fd5b50565b60008135905061126f81611249565b92915050565b6000819050919050565b61128881611275565b811461129357600080fd5b50565b6000813590506112a58161127f565b92915050565b6000806000606084860312156112c4576112c3611212565b5b60006112d286828701611260565b93505060206112e386828701611260565b92505060406112f486828701611296565b9150509250925092565b600080600080600060a0868803121561131a57611319611212565b5b600061132888828901611260565b955050602061133988828901611296565b945050604061134a88828901611260565b935050606061135b88828901611296565b925050608061136c88828901611296565b9150509295509295909350565b61138281611237565b82525050565b61139181611275565b82525050565b60006040820190506113ac6000830185611379565b6113b96020830184611388565b9392505050565b60008115159050919050565b6113d5816113c0565b81146113e057600080fd5b50565b6000815190506113f2816113cc565b92915050565b60006020828403121561140e5761140d611212565b5b600061141c848285016113e3565b91505092915050565b600082825260208201905092915050565b7f4c69624469616d6f6e643a204d75737420626520636f6e7472616374206f776e60008201527f6572000000000000000000000000000000000000000000000000000000000000602082015250565b6000611492602283611425565b915061149d82611436565b604082019050919050565b600060208201905081810360008301526114c181611485565b9050919050565b600081905092915050565b7f7065720000000000000000000000000000000000000000000000000000000000600082015250565b60006115096003836114c8565b9150611514826114d3565b600382019050919050565b600061152a826114fc565b9150819050919050565b7f6275726e00000000000000000000000000000000000000000000000000000000600082015250565b600061156a6004836114c8565b915061157582611534565b600482019050919050565b600061158b8261155d565b9150819050919050565b7f7032000000000000000000000000000000000000000000000000000000000000600082015250565b60006115cb6002836114c8565b91506115d682611595565b600282019050919050565b60006115ec826115be565b9150819050919050565b7f7031000000000000000000000000000000000000000000000000000000000000600082015250565b600061162c6002836114c8565b9150611637826115f6565b600282019050919050565b600061164d8261161f565b9150819050919050565b600060208201905061166c6000830184611388565b92915050565b7f4e487b7100000000000000000000000000000000000000000000000000000000600052601160045260246000fd5b60006116ac82611275565b91506116b783611275565b92508282019050808211156116cf576116ce611672565b5b92915050565b7f73776170546f446973747269627574653a2073776170206973206e6f74206e6560008201527f6564656400000000000000000000000000000000000000000000000000000000602082015250565b6000611731602483611425565b915061173c826116d5565b604082019050919050565b6000602082019050818103600083015261176081611724565b9050919050565b7f6b6c617973776170000000000000000000000000000000000000000000000000600082015250565b600061179d6008836114c8565b91506117a882611767565b600882019050919050565b60006117be82611790565b9150819050919050565b7f7573647400000000000000000000000000000000000000000000000000000000600082015250565b60006117fe6004836114c8565b9150611809826117c8565b600482019050919050565b600061181f826117f1565b9150819050919050565b600081519050919050565b600082825260208201905092915050565b6000819050602082019050919050565b61185e81611237565b82525050565b60006118708383611855565b60208301905092915050565b6000602082019050919050565b600061189482611829565b61189e8185611834565b93506118a983611845565b8060005b838110156118da5781516118c18882611864565b97506118cc8361187c565b9250506001810190506118ad565b5085935050505092915050565b600060a0820190506118fc6000830188611379565b6119096020830187611388565b6119166040830186611379565b6119236060830185611388565b81810360808301526119358184611889565b90509695505050505050565b600061194c82611275565b915061195783611275565b925082820261196581611275565b9150828204841483151761197c5761197b611672565b5b5092915050565b7f4e487b7100000000000000000000000000000000000000000000000000000000600052601260045260246000fd5b60006119bd82611275565b91506119c883611275565b9250826119d8576119d7611983565b5b828204905092915050565b60006020820190506119f86000830184611379565b92915050565b600081519050611a0d8161127f565b92915050565b600060208284031215611a2957611a28611212565b5b6000611a37848285016119fe565b91505092915050565b7f6b6c6179737761707574696c0000000000000000000000000000000000000000600082015250565b6000611a76600c836114c8565b9150611a8182611a40565b600c82019050919050565b6000611a9782611a69565b9150819050919050565b6000608082019050611ab66000830187611379565b611ac36020830186611379565b611ad06040830185611388565b8181036060830152611ae28184611889565b905095945050505050565b600062ffffff82169050919050565b6000611b0782611aed565b9150611b1283611aed565b9250828201905062ffffff811115611b2d57611b2c611672565b5b92915050565b7f7465616d00000000000000000000000000000000000000000000000000000000600082015250565b6000611b696004836114c8565b9150611b7482611b33565b600482019050919050565b6000611b8a82611b5c565b9150819050919050565b6000604082019050611ba96000830185611388565b611bb66020830184611388565b939250505056fea26469706673582212201c54047ee1e895a7960390a66119daf9023d18257554cf093aba3d0c3e70733764736f6c63430008160033",
  "devdoc": {
    "kind": "dev",
    "methods": {},
    "version": 1
  },
  "userdoc": {
    "kind": "user",
    "methods": {},
    "version": 1
  },
  "storageLayout": {
    "storage": [],
    "types": null
  }
}