{
  "address": "0x927b81bF09483E778A6443461373807607F72c61",
  "abi": [
    {
      "inputs": [
        {
          "internalType": "address",
          "name": "_facet",
          "type": "address"
        },
        {
          "internalType": "address",
          "name": "_tokenAddr",
          "type": "address"
        },
        {
          "internalType": "uint256",
          "name": "_amount",
          "type": "uint256"
        }
      ],
      "name": "Distribute_Transfer_Balance",
      "outputs": [],
      "stateMutability": "nonpayable",
      "type": "function"
    },
    {
      "inputs": [
        {
          "internalType": "address",
          "name": "_agency",
          "type": "address"
        },
        {
          "internalType": "uint256",
          "name": "_agencyAmount",
          "type": "uint256"
        },
        {
          "internalType": "address",
          "name": "_influencer",
          "type": "address"
        },
        {
          "internalType": "uint256",
          "name": "_influencerAmount",
          "type": "uint256"
        },
        {
          "internalType": "uint256",
          "name": "_totalAmount",
          "type": "uint256"
        }
      ],
      "name": "Distribute_p0LvUpDistribute",
      "outputs": [],
      "stateMutability": "nonpayable",
      "type": "function"
    },
    {
      "inputs": [],
      "name": "Distribute_swapToDistribute",
      "outputs": [],
      "stateMutability": "nonpayable",
      "type": "function"
    }
  ],
  "transactionHash": "0xa56f97f621988fdd28bb66933fed2df12ff93fb05f16809e5a7e847184cf64c9",
  "args": [],
  "numDeployments": 22,
  "solcInputHash": "c6b213aab82f9627dd5b1d7ea47f2847",
  "bytecode": "0x608060405234801561001057600080fd5b50611130806100206000396000f3fe608060405234801561001057600080fd5b50600436106100415760003560e01c806361dd1e581461004657806372dc907a1461005b578063c98c73d71461006e575b600080fd5b610059610054366004610ecd565b610076565b005b610059610069366004610f09565b610108565b61005961011c565b61007e610126565b6000806100896101b2565b60405163a9059cbb60e01b81526001600160a01b038083166004830152602482018690529192509085169063a9059cbb906044016020604051808303816000875af11580156100dc573d6000803e3d6000fd5b505050506040513d601f19601f820116820180604052508101906101009190610f57565b505050505050565b610115858585858561020e565b5050505050565b610124610671565b565b7fc8fcad8db84d3cc18b4c41d551ea0ee66dd599cde068d998e57d5e09332c131c600401546001600160a01b031633146101245760405162461bcd60e51b815260206004820152602260248201527f4c69624469616d6f6e643a204d75737420626520636f6e7472616374206f776e60448201526132b960f11b60648201526084015b60405180910390fd5b600030330361020857600080368080601f0160208091040260200160405190810160405280939291908181526020018383808284376000920191909152505050503601516001600160a01b0316915061020b9050565b50335b90565b600080806000806000610220876108a4565b9450945094509450945060008660000160405161023c90610f80565b9081526040519081900360200181205463a9059cbb60e01b82526001600160a01b038e81166004840152602483018e9052169150819063a9059cbb906044016020604051808303816000875af115801561029a573d6000803e3d6000fd5b505050506040513d601f19601f820116820180604052508101906102be9190610f57565b5060405163a9059cbb60e01b81526001600160a01b038b81166004830152602482018b905282169063a9059cbb906044016020604051808303816000875af115801561030e573d6000803e3d6000fd5b505050506040513d601f19601f820116820180604052508101906103329190610f57565b5060405163313ab93760e11b81526001600160a01b0382169063a9059cbb908990600401908152604051908190036020018120546001600160e01b031960e084901b1682526001600160a01b03166004820152602481018790526044016020604051808303816000875af11580156103ae573d6000803e3d6000fd5b505050506040513d601f19601f820116820180604052508101906103d29190610f57565b5060405168703262616c616e636560b81b81526001600160a01b0382169063a9059cbb908990600901908152604051908190036020018120546001600160e01b031960e084901b1682526001600160a01b03166004820152602481018890526044016020604051808303816000875af1158015610453573d6000803e3d6000fd5b505050506040513d601f19601f820116820180604052508101906104779190610f57565b5060405161703160f01b81526001600160a01b0382169063a9059cbb908990600201908152604051908190036020018120546001600160e01b031960e084901b1682526001600160a01b03166004820152602481018990526044016020604051808303816000875af11580156104f1573d6000803e3d6000fd5b505050506040513d601f19601f820116820180604052508101906105159190610f57565b5060405168703262616c616e636560b81b8152879060090190815260405190819003602001812054632e07668d60e21b825260006004830152602482018790526001600160a01b03169063b81d9a3490604401600060405180830381600087803b15801561058257600080fd5b505af1158015610596573d6000803e3d6000fd5b50506040805161703160f01b8152600281018b90529051908190036022018120546345e17d1d60e11b8252600482018a90526001600160a01b03169250638bc2fa3a9150602401600060405180830381600087803b1580156105f757600080fd5b505af115801561060b573d6000803e3d6000fd5b50505050848760260160010160008282546106269190610fa5565b9091555050602687018054839190600090610642908490610fa5565b909155505060288701805484919060009061065e908490610fa5565b9091555050505050505050505050505050565b600080600061067e6109a5565b919450925090506001831515146106e35760405162461bcd60e51b8152602060048201526024808201527f73776170546f446973747269627574653a2073776170206973206e6f74206e656044820152631959195960e21b60648201526084016101a9565b60006060816000016040516106f790610f80565b908152604051908190036020018120546001600160a01b03169063095ea7b3908490610731906706b6c6179737761760c41b815260080190565b908152604051908190036020018120546001600160e01b031960e084901b1682526001600160a01b03166004820152602481018790526044016020604051808303816000875af1158015610789573d6000803e3d6000fd5b505050506040513d601f19601f820116820180604052508101906107ad9190610f57565b506040516706b6c6179737761760c41b81528290600801908152604051908190036020018120546001600160a01b0316906352f28c179084906107ef90610f80565b908152604051908190036020018120546001600160a01b0316908790869061082190631d5cd91d60e21b815260040190565b908152604051908190036020018120546001600160e01b031960e086901b1682526108609392916001600160a01b039091169089908890600401611003565b600060405180830381600087803b15801561087a57600080fd5b505af115801561088e573d6000803e3d6000fd5b5050505061089a610b63565b5050505050505050565b600080808080808060298101549091506000906064906108c99062ffffff168a611048565b6108d3919061105f565b60298301549091506000906064906108f7906301000000900462ffffff168b611048565b610901919061105f565b602984015490915060009060649061092b906901000000000000000000900462ffffff168c611048565b610935919061105f565b602985015490915060009060649061095990600160601b900462ffffff168d611048565b610963919061105f565b602986015490915060009060649061098790600160301b900462ffffff168e611048565b610991919061105f565b949c939b5091995097509195509350505050565b600080808060606000826000016040516109be90610f80565b908152604051908190036020018120546370a0823160e01b82523060048301526001600160a01b0316906370a0823190602401602060405180830381865afa158015610a0e573d6000803e3d6000fd5b505050506040513d601f19601f82011682018060405250810190610a329190611081565b6040516b1adb185e5cddd85c1d5d1a5b60a21b81529091506000908490600c01908152604051908190036020018120546001600160a01b03169063692ca7a0908690610a7d90610f80565b908152604051908190036020018120546001600160a01b0316908790610aa290610f80565b908152604051908190036020018120546001600160e01b031960e085901b168252610ae092916001600160a01b03909116908790899060040161109a565b602060405180830381865afa158015610afd573d6000803e3d6000fd5b505050506040513d601f19601f82011682018060405250810190610b219190611081565b905083602b015481118015610b3f5750602c84015460ff1615156001145b15610b5257600197919650945092505050565b506000968796508695509350505050565b600080808080604051631d5cd91d60e21b81529091506000908290600401908152604051908190036020018120546370a0823160e01b82523060048301526001600160a01b0316906370a0823190602401602060405180830381865afa158015610bd1573d6000803e3d6000fd5b505050506040513d601f19601f82011682018060405250810190610bf59190611081565b6029830154909150600090610c1f9062ffffff600160601b8204811691600160301b9004166110d7565b602984015462ffffff91821692506000918391610c4591600160301b9091041685611048565b610c4f919061105f565b60298501549091506000908390610c7290600160601b900462ffffff1686611048565b610c7c919061105f565b905084600001604051610c8e90610f80565b908152604051908190036020018120546001600160a01b03169063a9059cbb908790610cc99068703262616c616e636560b81b815260090190565b908152604051908190036020018120546001600160e01b031960e084901b1682526001600160a01b03166004820152602481018590526044016020604051808303816000875af1158015610d21573d6000803e3d6000fd5b505050506040513d601f19601f82011682018060405250810190610d459190610f57565b506040518590610d5490610f80565b908152604051908190036020018120546001600160a01b03169063a9059cbb908790610d8a90637465616d60e01b815260040190565b908152604051908190036020018120546001600160e01b031960e084901b1682526001600160a01b03166004820152602481018490526044016020604051808303816000875af1158015610de2573d6000803e3d6000fd5b505050506040513d601f19601f82011682018060405250810190610e069190610f57565b5060405168703262616c616e636560b81b8152859060090190815260405190819003602001812054632e07668d60e21b825260048201849052600060248301526001600160a01b03169063b81d9a3490604401600060405180830381600087803b158015610e7357600080fd5b505af1158015610e87573d6000803e3d6000fd5b50506000602788018190556026880181905560289097019690965550969795965093949350505050565b80356001600160a01b0381168114610ec857600080fd5b919050565b600080600060608486031215610ee257600080fd5b610eeb84610eb1565b9250610ef960208501610eb1565b9150604084013590509250925092565b600080600080600060a08688031215610f2157600080fd5b610f2a86610eb1565b945060208601359350610f3f60408701610eb1565b94979396509394606081013594506080013592915050565b600060208284031215610f6957600080fd5b81518015158114610f7957600080fd5b9392505050565b623832b960e91b815260030190565b634e487b7160e01b600052601160045260246000fd5b80820180821115610fb857610fb8610f8f565b92915050565b60008151808452602080850194506020840160005b83811015610ff85781516001600160a01b031687529582019590820190600101610fd3565b509495945050505050565b6001600160a01b03868116825260208201869052841660408201526060810183905260a06080820181905260009061103d90830184610fbe565b979650505050505050565b8082028115828204841417610fb857610fb8610f8f565b60008261107c57634e487b7160e01b600052601260045260246000fd5b500490565b60006020828403121561109357600080fd5b5051919050565b6001600160a01b03858116825284166020820152604081018390526080606082018190526000906110cd90830184610fbe565b9695505050505050565b62ffffff8181168382160190808211156110f3576110f3610f8f565b509291505056fea26469706673582212205504d544b1476d1f82aad5f78891ad3baa7698405378316ed7199332b6b6432464736f6c63430008160033",
  "devdoc": {
    "kind": "dev",
    "methods": {},
    "version": 1
  },
  "userdoc": {
    "kind": "user",
    "methods": {},
    "version": 1
  },
  "storageLayout": {
    "storage": [],
    "types": null
  }
}