{
  "address": "0x8F0358242F64A6A258F34d6a98966feF8bBCB11C",
  "abi": [
    {
      "inputs": [],
      "name": "Front_PfGrades",
      "outputs": [
        {
          "components": [
            {
              "internalType": "uint256",
              "name": "normal",
              "type": "uint256"
            },
            {
              "internalType": "uint256",
              "name": "uncommon",
              "type": "uint256"
            },
            {
              "internalType": "uint256",
              "name": "rare",
              "type": "uint256"
            },
            {
              "internalType": "uint256",
              "name": "unique",
              "type": "uint256"
            },
            {
              "internalType": "uint256",
              "name": "legendary",
              "type": "uint256"
            },
            {
              "internalType": "uint256",
              "name": "myth",
              "type": "uint256"
            },
            {
              "internalType": "uint256",
              "name": "ancient",
              "type": "uint256"
            }
          ],
          "internalType": "struct IDB.pfGrade",
          "name": "",
          "type": "tuple"
        }
      ],
      "stateMutability": "view",
      "type": "function"
    },
    {
      "inputs": [],
      "name": "Front_getAienGradeInfo",
      "outputs": [
        {
          "internalType": "uint256[]",
          "name": "",
          "type": "uint256[]"
        }
      ],
      "stateMutability": "view",
      "type": "function"
    },
    {
      "inputs": [
        {
          "internalType": "address",
          "name": "_user",
          "type": "address"
        }
      ],
      "name": "Front_isApprovedAsset",
      "outputs": [
        {
          "internalType": "bool",
          "name": "",
          "type": "bool"
        },
        {
          "internalType": "bool",
          "name": "",
          "type": "bool"
        },
        {
          "internalType": "bool",
          "name": "",
          "type": "bool"
        },
        {
          "internalType": "bool",
          "name": "",
          "type": "bool"
        }
      ],
      "stateMutability": "view",
      "type": "function"
    }
  ],
  "transactionHash": "0xfbb58a2c6cd874d2dc2872a99d76d0eb727276849e8c11a798a85d3860be090f",
  "args": [],
  "numDeployments": 18,
  "solcInputHash": "b2abfe018e4e65f9a2cd24d6bb39faca",
  "bytecode": "0x608060405234801561001057600080fd5b50610f14806100206000396000f3fe608060405234801561001057600080fd5b50600436106100415760003560e01c8063551a629b146100465780638b44dbba1461006457806397de4b2414610097575b600080fd5b61004e6100b5565b60405161005b9190610751565b60405180910390f35b61007e600480360381019061007991906107e5565b61017b565b60405161008e949392919061082d565b60405180910390f35b61009f610580565b6040516100ac9190610900565b60405180910390f35b606060006100c1610647565b9050806000016040516100d390610972565b908152602001604051809103902060009054906101000a900473ffffffffffffffffffffffffffffffffffffffff1673ffffffffffffffffffffffffffffffffffffffff16632146b7bc6040518163ffffffff1660e01b8152600401600060405180830381865afa15801561014c573d6000803e3d6000fd5b505050506040513d6000823e3d601f19601f820116820180604052508101906101759190610b0c565b91505090565b600080600080600061018b610647565b905060008160000160405161019f90610ba1565b908152602001604051809103902060009054906101000a900473ffffffffffffffffffffffffffffffffffffffff1673ffffffffffffffffffffffffffffffffffffffff1663dd62ed3e88846000016040516101fa90610c02565b908152602001604051809103902060009054906101000a900473ffffffffffffffffffffffffffffffffffffffff166040518363ffffffff1660e01b8152600401610246929190610c26565b602060405180830381865afa158015610263573d6000803e3d6000fd5b505050506040513d601f19601f820116820180604052508101906102879190610c4f565b118160000160405161029890610cc8565b908152602001604051809103902060009054906101000a900473ffffffffffffffffffffffffffffffffffffffff1673ffffffffffffffffffffffffffffffffffffffff1663e985e9c588846000016040516102f390610c02565b908152602001604051809103902060009054906101000a900473ffffffffffffffffffffffffffffffffffffffff166040518363ffffffff1660e01b815260040161033f929190610c26565b602060405180830381865afa15801561035c573d6000803e3d6000fd5b505050506040513d601f19601f820116820180604052508101906103809190610d09565b8260000160405161039090610d82565b908152602001604051809103902060009054906101000a900473ffffffffffffffffffffffffffffffffffffffff1673ffffffffffffffffffffffffffffffffffffffff1663e985e9c589856000016040516103eb90610c02565b908152602001604051809103902060009054906101000a900473ffffffffffffffffffffffffffffffffffffffff166040518363ffffffff1660e01b8152600401610437929190610c26565b602060405180830381865afa158015610454573d6000803e3d6000fd5b505050506040513d601f19601f820116820180604052508101906104789190610d09565b8360000160405161048890610de3565b908152602001604051809103902060009054906101000a900473ffffffffffffffffffffffffffffffffffffffff1673ffffffffffffffffffffffffffffffffffffffff1663e985e9c58a866000016040516104e390610c02565b908152602001604051809103902060009054906101000a900473ffffffffffffffffffffffffffffffffffffffff166040518363ffffffff1660e01b815260040161052f929190610c26565b602060405180830381865afa15801561054c573d6000803e3d6000fd5b505050506040513d601f19601f820116820180604052508101906105709190610d09565b9450945094509450509193509193565b61058861064c565b6000610592610647565b9050806000016040516105a490610972565b908152602001604051809103902060009054906101000a900473ffffffffffffffffffffffffffffffffffffffff1673ffffffffffffffffffffffffffffffffffffffff1663bf32e2f36040518163ffffffff1660e01b815260040160e060405180830381865afa15801561061d573d6000803e3d6000fd5b505050506040513d601f19601f820116820180604052508101906106419190610eb1565b91505090565b600090565b6040518060e00160405280600081526020016000815260200160008152602001600081526020016000815260200160008152602001600081525090565b600081519050919050565b600082825260208201905092915050565b6000819050602082019050919050565b6000819050919050565b6106c8816106b5565b82525050565b60006106da83836106bf565b60208301905092915050565b6000602082019050919050565b60006106fe82610689565b6107088185610694565b9350610713836106a5565b8060005b8381101561074457815161072b88826106ce565b9750610736836106e6565b925050600181019050610717565b5085935050505092915050565b6000602082019050818103600083015261076b81846106f3565b905092915050565b6000604051905090565b600080fd5b600080fd5b600073ffffffffffffffffffffffffffffffffffffffff82169050919050565b60006107b282610787565b9050919050565b6107c2816107a7565b81146107cd57600080fd5b50565b6000813590506107df816107b9565b92915050565b6000602082840312156107fb576107fa61077d565b5b6000610809848285016107d0565b91505092915050565b60008115159050919050565b61082781610812565b82525050565b6000608082019050610842600083018761081e565b61084f602083018661081e565b61085c604083018561081e565b610869606083018461081e565b95945050505050565b60e08201600082015161088860008501826106bf565b50602082015161089b60208501826106bf565b5060408201516108ae60408501826106bf565b5060608201516108c160608501826106bf565b5060808201516108d460808501826106bf565b5060a08201516108e760a08501826106bf565b5060c08201516108fa60c08501826106bf565b50505050565b600060e0820190506109156000830184610872565b92915050565b600081905092915050565b7f6462000000000000000000000000000000000000000000000000000000000000600082015250565b600061095c60028361091b565b915061096782610926565b600282019050919050565b600061097d8261094f565b9150819050919050565b600080fd5b6000601f19601f8301169050919050565b7f4e487b7100000000000000000000000000000000000000000000000000000000600052604160045260246000fd5b6109d58261098c565b810181811067ffffffffffffffff821117156109f4576109f361099d565b5b80604052505050565b6000610a07610773565b9050610a1382826109cc565b919050565b600067ffffffffffffffff821115610a3357610a3261099d565b5b602082029050602081019050919050565b600080fd5b610a52816106b5565b8114610a5d57600080fd5b50565b600081519050610a6f81610a49565b92915050565b6000610a88610a8384610a18565b6109fd565b90508083825260208201905060208402830185811115610aab57610aaa610a44565b5b835b81811015610ad45780610ac08882610a60565b845260208401935050602081019050610aad565b5050509392505050565b600082601f830112610af357610af2610987565b5b8151610b03848260208601610a75565b91505092915050565b600060208284031215610b2257610b2161077d565b5b600082015167ffffffffffffffff811115610b4057610b3f610782565b5b610b4c84828501610ade565b91505092915050565b7f7065720000000000000000000000000000000000000000000000000000000000600082015250565b6000610b8b60038361091b565b9150610b9682610b55565b600382019050919050565b6000610bac82610b7e565b9150819050919050565b7f6469616d6f6e6400000000000000000000000000000000000000000000000000600082015250565b6000610bec60078361091b565b9150610bf782610bb6565b600782019050919050565b6000610c0d82610bdf565b9150819050919050565b610c20816107a7565b82525050565b6000604082019050610c3b6000830185610c17565b610c486020830184610c17565b9392505050565b600060208284031215610c6557610c6461077d565b5b6000610c7384828501610a60565b91505092915050565b7f6169656e00000000000000000000000000000000000000000000000000000000600082015250565b6000610cb260048361091b565b9150610cbd82610c7c565b600482019050919050565b6000610cd382610ca5565b9150819050919050565b610ce681610812565b8114610cf157600080fd5b50565b600081519050610d0381610cdd565b92915050565b600060208284031215610d1f57610d1e61077d565b5b6000610d2d84828501610cf4565b91505092915050565b7f706572667269656e647300000000000000000000000000000000000000000000600082015250565b6000610d6c600a8361091b565b9150610d7782610d36565b600a82019050919050565b6000610d8d82610d5f565b9150819050919050565b7f6974656d00000000000000000000000000000000000000000000000000000000600082015250565b6000610dcd60048361091b565b9150610dd882610d97565b600482019050919050565b6000610dee82610dc0565b9150819050919050565b600080fd5b600060e08284031215610e1357610e12610df8565b5b610e1d60e06109fd565b90506000610e2d84828501610a60565b6000830152506020610e4184828501610a60565b6020830152506040610e5584828501610a60565b6040830152506060610e6984828501610a60565b6060830152506080610e7d84828501610a60565b60808301525060a0610e9184828501610a60565b60a08301525060c0610ea584828501610a60565b60c08301525092915050565b600060e08284031215610ec757610ec661077d565b5b6000610ed584828501610dfd565b9150509291505056fea2646970667358221220ca1baae35495e0f4532da351700749d7c31072b102bf37a7fc0ec7e1ece64da264736f6c63430008160033",
  "devdoc": {
    "details": "get load BlockChain datas before front component mount",
    "kind": "dev",
    "methods": {},
    "version": 1
  },
  "userdoc": {
    "kind": "user",
    "methods": {},
    "version": 1
  },
  "storageLayout": {
    "storage": [],
    "types": null
  }
}