{
  "address": "0x7Fe22E76a5A288E7C4F66F9F03d3e20E31c63Eaf",
  "abi": [
    {
      "anonymous": false,
      "inputs": [
        {
          "indexed": true,
          "internalType": "address",
          "name": "to",
          "type": "address"
        },
        {
          "indexed": true,
          "internalType": "uint256",
          "name": "aienId",
          "type": "uint256"
        },
        {
          "indexed": true,
          "internalType": "uint256",
          "name": "payment",
          "type": "uint256"
        },
        {
          "indexed": false,
          "internalType": "uint256",
          "name": "addProb",
          "type": "uint256"
        },
        {
          "indexed": false,
          "internalType": "uint256[]",
          "name": "perfs",
          "type": "uint256[]"
        }
      ],
      "name": "P0_AddProb_Event",
      "type": "event"
    },
    {
      "anonymous": false,
      "inputs": [
        {
          "indexed": true,
          "internalType": "address",
          "name": "to",
          "type": "address"
        },
        {
          "indexed": true,
          "internalType": "uint256",
          "name": "aienId",
          "type": "uint256"
        },
        {
          "indexed": true,
          "internalType": "uint256",
          "name": "itemId",
          "type": "uint256"
        },
        {
          "indexed": false,
          "internalType": "uint256",
          "name": "itemAmount",
          "type": "uint256"
        },
        {
          "indexed": false,
          "internalType": "bool",
          "name": "isLevelUp",
          "type": "bool"
        },
        {
          "indexed": false,
          "internalType": "uint256",
          "name": "payment",
          "type": "uint256"
        }
      ],
      "name": "P0_BaseMix_Event",
      "type": "event"
    },
    {
      "anonymous": false,
      "inputs": [
        {
          "indexed": true,
          "internalType": "address",
          "name": "to",
          "type": "address"
        },
        {
          "indexed": true,
          "internalType": "uint256",
          "name": "perfId",
          "type": "uint256"
        },
        {
          "indexed": true,
          "internalType": "uint256",
          "name": "itemId",
          "type": "uint256"
        },
        {
          "indexed": false,
          "internalType": "uint256",
          "name": "itemAmount",
          "type": "uint256"
        },
        {
          "indexed": false,
          "internalType": "uint256",
          "name": "payment",
          "type": "uint256"
        },
        {
          "indexed": false,
          "internalType": "uint256",
          "name": "perfGrade",
          "type": "uint256"
        },
        {
          "indexed": false,
          "internalType": "bytes",
          "name": "perfURI",
          "type": "bytes"
        }
      ],
      "name": "P0_ItemMerge_Event",
      "type": "event"
    },
    {
      "anonymous": false,
      "inputs": [
        {
          "indexed": true,
          "internalType": "address",
          "name": "to",
          "type": "address"
        },
        {
          "indexed": true,
          "internalType": "uint256",
          "name": "aienId",
          "type": "uint256"
        },
        {
          "indexed": true,
          "internalType": "uint256",
          "name": "itemId",
          "type": "uint256"
        },
        {
          "indexed": false,
          "internalType": "uint256",
          "name": "itemAmount",
          "type": "uint256"
        },
        {
          "indexed": false,
          "internalType": "bool",
          "name": "isLevelUp",
          "type": "bool"
        },
        {
          "indexed": false,
          "internalType": "uint256",
          "name": "payment",
          "type": "uint256"
        },
        {
          "indexed": false,
          "internalType": "uint256",
          "name": "usePower",
          "type": "uint256"
        }
      ],
      "name": "P0_PremiumMix_Event",
      "type": "event"
    },
    {
      "inputs": [
        {
          "internalType": "uint256",
          "name": "_aienId",
          "type": "uint256"
        },
        {
          "internalType": "uint256[]",
          "name": "_pf_Ids",
          "type": "uint256[]"
        }
      ],
      "name": "P0_addProbCall",
      "outputs": [
        {
          "internalType": "bool",
          "name": "",
          "type": "bool"
        }
      ],
      "stateMutability": "nonpayable",
      "type": "function"
    },
    {
      "inputs": [
        {
          "internalType": "uint256",
          "name": "_id",
          "type": "uint256"
        },
        {
          "internalType": "uint256",
          "name": "_useItemId",
          "type": "uint256"
        }
      ],
      "name": "P0_baseMixCall",
      "outputs": [
        {
          "internalType": "bool",
          "name": "",
          "type": "bool"
        }
      ],
      "stateMutability": "nonpayable",
      "type": "function"
    },
    {
      "inputs": [],
      "name": "P0_basicMergeAmount",
      "outputs": [
        {
          "internalType": "uint256",
          "name": "",
          "type": "uint256"
        }
      ],
      "stateMutability": "view",
      "type": "function"
    },
    {
      "inputs": [],
      "name": "P0_getAddProbFee",
      "outputs": [
        {
          "internalType": "uint256",
          "name": "",
          "type": "uint256"
        }
      ],
      "stateMutability": "view",
      "type": "function"
    },
    {
      "inputs": [],
      "name": "P0_getCurrentMergeStates",
      "outputs": [
        {
          "components": [
            {
              "internalType": "uint8",
              "name": "grade",
              "type": "uint8"
            },
            {
              "internalType": "string",
              "name": "gradeName",
              "type": "string"
            },
            {
              "internalType": "uint256",
              "name": "mergeFee",
              "type": "uint256"
            },
            {
              "internalType": "uint256",
              "name": "mergeUseItemAmount",
              "type": "uint256"
            },
            {
              "internalType": "uint256",
              "name": "latestId",
              "type": "uint256"
            },
            {
              "internalType": "uint256",
              "name": "setMatadataId",
              "type": "uint256"
            },
            {
              "internalType": "bool",
              "name": "isOpen",
              "type": "bool"
            }
          ],
          "internalType": "struct P0_MergePfGrade[]",
          "name": "",
          "type": "tuple[]"
        }
      ],
      "stateMutability": "view",
      "type": "function"
    },
    {
      "inputs": [],
      "name": "P0_getMaxProb",
      "outputs": [
        {
          "internalType": "uint256",
          "name": "",
          "type": "uint256"
        }
      ],
      "stateMutability": "view",
      "type": "function"
    },
    {
      "inputs": [
        {
          "internalType": "uint256",
          "name": "_itemId",
          "type": "uint256"
        }
      ],
      "name": "P0_getMergeState",
      "outputs": [
        {
          "internalType": "uint256",
          "name": "",
          "type": "uint256"
        },
        {
          "internalType": "uint256",
          "name": "",
          "type": "uint256"
        }
      ],
      "stateMutability": "view",
      "type": "function"
    },
    {
      "inputs": [
        {
          "internalType": "uint8",
          "name": "_grade",
          "type": "uint8"
        }
      ],
      "name": "P0_getMergeStates",
      "outputs": [
        {
          "components": [
            {
              "internalType": "uint8",
              "name": "grade",
              "type": "uint8"
            },
            {
              "internalType": "string",
              "name": "gradeName",
              "type": "string"
            },
            {
              "internalType": "uint256",
              "name": "mergeFee",
              "type": "uint256"
            },
            {
              "internalType": "uint256",
              "name": "mergeUseItemAmount",
              "type": "uint256"
            },
            {
              "internalType": "uint256",
              "name": "latestId",
              "type": "uint256"
            },
            {
              "internalType": "uint256",
              "name": "setMatadataId",
              "type": "uint256"
            },
            {
              "internalType": "bool",
              "name": "isOpen",
              "type": "bool"
            }
          ],
          "internalType": "struct P0_MergePfGrade",
          "name": "",
          "type": "tuple"
        }
      ],
      "stateMutability": "view",
      "type": "function"
    },
    {
      "inputs": [],
      "name": "P0_getMetadataMargin",
      "outputs": [
        {
          "internalType": "uint256",
          "name": "",
          "type": "uint256"
        },
        {
          "internalType": "uint256",
          "name": "",
          "type": "uint256"
        },
        {
          "internalType": "uint256",
          "name": "",
          "type": "uint256"
        }
      ],
      "stateMutability": "view",
      "type": "function"
    },
    {
      "inputs": [],
      "name": "P0_influencerMergeAmount",
      "outputs": [
        {
          "internalType": "uint256",
          "name": "",
          "type": "uint256"
        }
      ],
      "stateMutability": "view",
      "type": "function"
    },
    {
      "inputs": [
        {
          "internalType": "uint256",
          "name": "_itemId",
          "type": "uint256"
        },
        {
          "internalType": "uint256",
          "name": "_itemAmount",
          "type": "uint256"
        },
        {
          "internalType": "uint8",
          "name": "_grade",
          "type": "uint8"
        }
      ],
      "name": "P0_itemGradeMerge",
      "outputs": [],
      "stateMutability": "nonpayable",
      "type": "function"
    },
    {
      "inputs": [
        {
          "internalType": "uint256",
          "name": "_itemId",
          "type": "uint256"
        },
        {
          "internalType": "uint256",
          "name": "_itemAmount",
          "type": "uint256"
        }
      ],
      "name": "P0_itemMerge",
      "outputs": [],
      "stateMutability": "nonpayable",
      "type": "function"
    },
    {
      "inputs": [
        {
          "internalType": "uint256",
          "name": "_level",
          "type": "uint256"
        }
      ],
      "name": "P0_mixPFInfos",
      "outputs": [
        {
          "internalType": "string",
          "name": "",
          "type": "string"
        },
        {
          "internalType": "uint256",
          "name": "",
          "type": "uint256"
        }
      ],
      "stateMutability": "view",
      "type": "function"
    },
    {
      "inputs": [
        {
          "internalType": "uint256",
          "name": "_id",
          "type": "uint256"
        },
        {
          "internalType": "uint256",
          "name": "_useItemId",
          "type": "uint256"
        }
      ],
      "name": "P0_premiumMixCall",
      "outputs": [
        {
          "internalType": "bool",
          "name": "",
          "type": "bool"
        }
      ],
      "stateMutability": "nonpayable",
      "type": "function"
    }
  ],
  "transactionHash": "0x5ba64c87521e3012e3876bb9c6bf23fe998943e921cd87ca9f02cd186c8a0140",
  "args": [],
  "numDeployments": 57,
  "solcInputHash": "cfe471a7d7ac78c1727c995d02baefdf",
  "bytecode": "0x608060405234801561001057600080fd5b50613d21806100206000396000f3fe608060405234801561001057600080fd5b50600436106100ea5760003560e01c8063ce47adfa1161008c578063ddb2bedf11610066578063ddb2bedf146101de578063e488a83a146101f1578063f3ebac5714610204578063f6afa8471461021157600080fd5b8063ce47adfa146101ad578063d2236a54146101ce578063d229a392146101d657600080fd5b806355f939d9116100c857806355f939d91461014d5780636a60affb146101625780636d1d105e146101775780637174e2581461019a57600080fd5b80630b0e517a146100ef5780632b2dc69e146101175780633576742f14610137575b600080fd5b6100f7610239565b604080519384526020840192909252908201526060015b60405180910390f35b61012a610125366004613374565b6102d1565b60405161010e9190613441565b61013f610415565b60405190815260200161010e565b6101556104a1565b60405161010e9190613454565b6101756101703660046134b8565b6106cd565b005b61018a610185366004613582565b6106eb565b604051901515815260200161010e565b61018a6101a8366004613634565b61070d565b6101c06101bb366004613656565b610730565b60405161010e92919061366f565b61013f6107ca565b61013f6107d9565b6101756101ec366004613634565b61083a565b61018a6101ff366004613634565b610852565b60015462ffffff1661013f565b61022461021f366004613656565b610877565b6040805192835260208301919091520161010e565b60008080808060000160405161024e90613691565b9081526040805191829003602001822054637cedcc4b60e11b835290516001600160a01b039091169163f9db98969160048083019260609291908290030181865afa1580156102a1573d6000803e3d6000fd5b505050506040513d601f19601f820116820180604052508101906102c5919061369f565b93509350935050909192565b6103166040518060e00160405280600060ff16815260200160608152602001600081526020016000815260200160008152602001600081526020016000151581525090565b60ff8281166000908152602d60209081526040808320815160e0810190925280549094168152600184018054939491939192840191610354906136cd565b80601f0160208091040260200160405190810160405280929190818152602001828054610380906136cd565b80156103cd5780601f106103a2576101008083540402835291602001916103cd565b820191906000526020600020905b8154815290600101906020018083116103b057829003601f168201915b50505091835250506002820154602082015260038201546040820152600482015460608201526005820154608082015260069091015460ff16151560a0909101529392505050565b6000808060000160405161042890613691565b90815260408051602092819003830181205463340c2acd60e01b825291516001600160a01b039092169263340c2acd926004808401938290030181865afa158015610477573d6000803e3d6000fd5b505050506040513d601f19601f8201168201806040525081019061049b9190613707565b91505090565b606060008060015b600b8160ff1610156104e75760ff8082166000908152602d85016020526040902060060154166104d957816104de565b809150815b506001016104a9565b5060008160ff1667ffffffffffffffff811115610506576105066134ed565b60405190808252806020026020018201604052801561057c57816020015b6105696040518060e00160405280600060ff16815260200160608152602001600081526020016000815260200160008152602001600081526020016000151581525090565b8152602001906001900390816105245790505b50905060015b8260ff168160ff16116106c55760ff8082166000908152602d86016020908152604091829020825160e0810190935280549093168252600183018054929392918401916105ce906136cd565b80601f01602080910402602001604051908101604052809291908181526020018280546105fa906136cd565b80156106475780601f1061061c57610100808354040283529160200191610647565b820191906000526020600020905b81548152906001019060200180831161062a57829003601f168201915b50505091835250506002820154602082015260038201546040820152600482015460608201526005820154608082015260069091015460ff16151560a09091015282610694600184613736565b60ff16815181106106a7576106a761374f565b602002602001018190525080806106bd90613765565b915050610582565b509392505050565b60006106d761088c565b90506106e5818585856108e8565b50505050565b60008060006106f861088c565b9050610705818686610d1b565b505092915050565b600080600061071a61088c565b905061072781868661135d565b50505092915050565b6040805161070360f41b81526000600282018190529151908190036022018120546316dba26f60e01b8252600482018490526060929182916001600160a01b0316906316dba26f90602401600060405180830381865afa158015610798573d6000803e3d6000fd5b505050506040513d6000823e601f3d908101601f191682016040526107c091908101906137e8565b9250925050915091565b60006107d4611bf6565b905090565b600080806000016040516107ec90613691565b90815260408051602092819003830181205462f6e5f560e81b825291516001600160a01b039092169263f6e5f500926004808401938290030181865afa158015610477573d6000803e3d6000fd5b60008061084561088c565b90506106e5818585611c5c565b600080600061085f61088c565b905061086c81868661208c565b925050505b92915050565b600080610883836127d5565b91509150915091565b60003033036108e257600080368080601f0160208091040260200160405190810160405280939291908181526020018383808284376000920191909152505050503601516001600160a01b031691506108e59050565b50335b90565b60ff81166000908152602d6020908152604080832060048101548452602e90925282208054839190610919906136cd565b80601f0160208091040260200160405190810160405280929190818152602001828054610945906136cd565b80156109925780601f1061096757610100808354040283529160200191610992565b820191906000526020600020905b81548152906001019060200180831161097557829003601f168201915b5050505060068401549192505060ff166109f35760405162461bcd60e51b815260206004820181905260248201527f5046204772616465204d657267652066756e6374696f6e206e6f74206f70656e60448201526064015b60405180910390fd5b600080600080600080610a068c8b61287b565b95509550955095509550955088600001604051610a2290613691565b90815260405190819003602001812054634625a5a160e11b82526001600160a01b038581166004840152602483018590528781166044840152606483018790521690638c4b4b4290608401600060405180830381600087803b158015610a8757600080fd5b505af1158015610a9b573d6000803e3d6000fd5b5050604051636974656d60e01b81528b92506004019050908152602001604051809103902060009054906101000a90046001600160a01b03166001600160a01b031663f5298aca8e8e846040518463ffffffff1660e01b8152600401610b039392919061382f565b600060405180830381600087803b158015610b1d57600080fd5b505af1158015610b31573d6000803e3d6000fd5b50506040518b9250610b439150613850565b908152604051908190036020018120546001600160a01b0316906323b872dd908f908c90610b8190696469737472696275746560b01b8152600a0190565b908152604051908190036020018120546001600160e01b031960e085901b168252610bbd92916001600160a01b03909116908b9060040161385f565b6020604051808303816000875af1158015610bdc573d6000803e3d6000fd5b505050506040513d601f19601f82011682018060405250810190610c009190613893565b50610c0e838387878a612a5c565b6040518990610c1c90613691565b908152602001604051809103902060009054906101000a90046001600160a01b03166001600160a01b031663562034cc8e8a600401548a8e6040518563ffffffff1660e01b8152600401610c7394939291906138ae565b600060405180830381600087803b158015610c8d57600080fd5b505af1158015610ca1573d6000803e3d6000fd5b505050508b88600401548e6001600160a01b03167f2b5c6da75471a32fa816831df06c6a172203625ece9bf5c72a71f67c6aabff81848a8f8d604051610cea94939291906138e9565b60405180910390a46001886004016000828254610d07919061391b565b909155505050505050505050505050505050565b604080516330b4b2b760e11b815260006004808301829052925160249281900383018120546331a9108f60e11b825293810186905290926001600160a01b0387811693911691636352211e9101602060405180830381865afa158015610d85573d6000803e3d6000fd5b505050506040513d601f19601f82011682018060405250810190610da99190613945565b6001600160a01b031614610deb5760405162461bcd60e51b81526020600482015260096024820152683737ba1037bbb732b960b91b60448201526064016109ea565b610df482612eb1565b15610e335760405162461bcd60e51b815260206004820152600f60248201526e191d5c1b1a58d85d19481c19881a59608a1b60448201526064016109ea565b610e3d8483612f40565b1515600114610e8e5760405162461bcd60e51b815260206004820152601760248201527f6e6f74206f776e6572206f6620706572667269656e647300000000000000000060448201526064016109ea565b6000610e998361303b565b905081600001604051610eab90613850565b908152604051908190036020018120546001600160a01b0316906323b872dd9087908590610ee990696469737472696275746560b01b8152600a0190565b90815260405190819003602001902054865160028701546001600160a01b0390921691610f169190613960565b6040518463ffffffff1660e01b8152600401610f349392919061385f565b6020604051808303816000875af1158015610f53573d6000803e3d6000fd5b505050506040513d601f19601f82011682018060405250810190610f779190613893565b5060005b83518110156110d25760405169706572667269656e647360b01b81528390600a019081526040519081900360200190205484516001600160a01b03909116906342966c6890869084908110610fd257610fd261374f565b60200260200101516040518263ffffffff1660e01b8152600401610ff891815260200190565b600060405180830381600087803b15801561101257600080fd5b505af1158015611026573d6000803e3d6000fd5b50506040518592506110389150613691565b9081526040519081900360200190205484516001600160a01b039091169063c2a6a0629086908490811061106e5761106e61374f565b60200260200101516040518263ffffffff1660e01b815260040161109491815260200190565b600060405180830381600087803b1580156110ae57600080fd5b505af11580156110c2573d6000803e3d6000fd5b505060019092019150610f7b9050565b506000826000016040516110e590613691565b90815260405190819003602001812054631c4de8d760e01b82526001600160a01b031690631c4de8d79061112190889060040190815260200190565b61012060405180830381865afa15801561113f573d6000803e3d6000fd5b505050506040513d601f19601f820116820180604052508101906111639190613977565b90508260000160405161117590613691565b9081526040805160209281900383019020549183015190830151865160038701546001600160a01b039094169363a02db9a0938a93909290916111bc919061ffff16613960565b86606001516111cb919061391b565b86608001518760a0015160008960e001518b8b61010001516111ed919061391b565b6040516001600160e01b031960e08c901b1681526004810199909952602489019790975260448801959095526064870193909352608486019190915260a485015260c484015260e483015261010482015261012401600060405180830381600087803b15801561125c57600080fd5b505af1158015611270573d6000803e3d6000fd5b5050604051637465616d60e01b8152611309925085915060040190815260405190819003602001902054855160028601546001600160a01b0390921691600a916112b991613960565b6112c39190613a08565b604051637465616d60e01b8152869060040190815260405190819003602001902054875160028801546001600160a01b039092169160009161130491613960565b612a5c565b826001016001015485876001600160a01b03167f99cb040f26b9f8ab0196325428931da1473bc4b7e3f5477d08e93c1713bc0513858860405161134d929190613a1c565b60405180910390a4505050505050565b60008060008160000160405161137290613691565b90815260405190819003602001812054631c4de8d760e01b82526001600160a01b031690631c4de8d7906113ae90889060040190815260200190565b61012060405180830381865afa1580156113cc573d6000803e3d6000fd5b505050506040513d601f19601f820116820180604052508101906113f09190613977565b9050806040015160000361143a5760405162461bcd60e51b81526020600482015260116024820152701b9bdd081c1c995b5a5d5b481b195d995b607a1b60448201526064016109ea565b816004018160400151600b81106114535761145361374f565b600302015460ff1615156001146114975760405162461bcd60e51b81526020600482015260086024820152673737ba1037b832b760c11b60448201526064016109ea565b600080600080856000016040516114ad90613691565b908152602001604051809103902060009054906101000a90046001600160a01b03166001600160a01b0316637bcb71a689886004018860400151600b81106114f7576114f761374f565b60030201600101546040518363ffffffff1660e01b8152600401611525929190918252602082015260400190565b6080604051808303816000875af1158015611544573d6000803e3d6000fd5b505050506040513d601f19601f820116820180604052508101906115689190613a6c565b604051636974656d60e01b815293975091955093509150869060040190815260405190819003602001812054637a94c56560e11b82526001600160a01b03169063f5298aca906115c1908d908c9060019060040161382f565b600060405180830381600087803b1580156115db57600080fd5b505af11580156115ef573d6000803e3d6000fd5b50506040518892506116019150613850565b908152604051908190036020018120546001600160a01b0316906323b872dd908c90899061163f90696469737472696275746560b01b8152600a0190565b908152602001604051809103902060009054906101000a90046001600160a01b0316896004018960400151600b811061167a5761167a61374f565b60030201600101546040518463ffffffff1660e01b81526004016116a09392919061385f565b6020604051808303816000875af11580156116bf573d6000803e3d6000fd5b505050506040513d601f19601f820116820180604052508101906116e39190613893565b50611711838286858a6004018a60400151600b81106117045761170461374f565b6003020160010154612a5c565b600061171c8b61312f565b600188015461010088015160a089015192935060009262ffffff90921691611744919061391b565b1061177857600188015461010088015160a089015162ffffff9092169161176b919061391b565b6117759190613aaf565b90505b818761010001518860a0015161178e919061391b565b1061199057898b8d6001600160a01b03167f2204f6ff22d33db4677f6c4e555d9994ed7df4af0ae306770814a6e91d920c896001808d6004018d60400151600b81106117dc576117dc61374f565b60030201600101548760001461180257878e61010001516117fd9190613aaf565b611809565b8d61010001515b60408051948552921515602085015291830152606082015260800160405180910390a4604051889061183a90613691565b908152604080519182900360200190912054908801516001600160a01b039091169063eab96581908d9061186f90600161391b565b8b6004018b60400151600b81106118885761188861374f565b6003020160020160039054906101000a900461ffff1661ffff168b606001516118b1919061391b565b8c6004018c60400151600b81106118ca576118ca61374f565b6003020160020160039054906101000a900461ffff1661ffff168c608001516118f3919061391b565b8d6004018d60400151600b811061190c5761190c61374f565b600302016002015460405160e087901b6001600160e01b0319168152600481019590955260248501939093526044840191909152606483015262ffffff16608482015260a4810184905260c401600060405180830381600087803b15801561197357600080fd5b505af1158015611987573d6000803e3d6000fd5b50505050611be2565b898b8d6001600160a01b03167f2204f6ff22d33db4677f6c4e555d9994ed7df4af0ae306770814a6e91d920c89600160008d6004018d60400151600b81106119da576119da61374f565b600302016001015487600014611a0057878e61010001516119fb9190613aaf565b611a07565b8d61010001515b60408051948552921515602085015291830152606082015260800160405180910390a46000611a9f8d8a6004018a60400151600b8110611a4957611a4961374f565b6003020160020160089054906101000a900462ffffff1662ffffff168b6004018b60400151600b8110611a7e57611a7e61374f565b6003020160020160059054906101000a900462ffffff1662ffffff166131ce565b905088600001604051611ab190613691565b908152602001604051809103902060009054906101000a90046001600160a01b03166001600160a01b031663588e8f858d8b6004018b60400151600b8110611afb57611afb61374f565b6003020160020160039054906101000a900461ffff1661ffff168b60600151611b24919061391b565b8c6004018c60400151600b8110611b3d57611b3d61374f565b6003020160020160039054906101000a900461ffff1661ffff168c60800151611b66919061391b565b858d60a00151611b76919061391b565b6040516001600160e01b031960e087901b16815260048101949094526024840192909252604483015260648201526084810185905260a401600060405180830381600087803b158015611bc857600080fd5b505af1158015611bdc573d6000803e3d6000fd5b50505050505b6001985050505050505050505b9392505050565b6000808060405161070360f41b81529091508190600201908152604080516020928190038301812054631ea8215d60e21b825291516001600160a01b0390921692637aa08574926004808401938290030181865afa158015610477573d6000803e3d6000fd5b6000808060008060008060328911611d0d576040518790611c7c90613691565b90815260405190819003602001812054637382589360e01b82526001600160a01b031690637382589390611cb8908c9060040190815260200190565b60c060405180830381865afa158015611cd5573d6000803e3d6000fd5b505050506040513d601f19601f82011682018060405250810190611cf99190613ac2565b949a50929850909650945092509050611da8565b6040518790611d1b90613691565b90815260405190819003602001812054631abe24c560e11b82526001600160a01b03169063357c498a90611d57908c9060040190815260200190565b60c060405180830381865afa158015611d74573d6000803e3d6000fd5b505050506040513d601f19601f82011682018060405250810190611d989190613ac2565b949a509298509096509450925090505b808814611db457600080fd5b6040518790611dc290613691565b90815260405190819003602001812054634625a5a160e11b82526001600160a01b038581166004840152602483018590528781166044840152606483018790521690638c4b4b4290608401600060405180830381600087803b158015611e2757600080fd5b505af1158015611e3b573d6000803e3d6000fd5b5050604051636974656d60e01b8152899250600401905090815260405190819003602001812054637a94c56560e11b82526001600160a01b03169063f5298aca90611e8e908d908d908d9060040161382f565b600060405180830381600087803b158015611ea857600080fd5b505af1158015611ebc573d6000803e3d6000fd5b5050604051899250611ece9150613850565b908152604051908190036020018120546001600160a01b0316906323b872dd908c908a90611f0c90696469737472696275746560b01b8152600a0190565b908152604051908190036020018120546001600160e01b031960e085901b168252611f4892916001600160a01b03909116908b9060040161385f565b6020604051808303816000875af1158015611f67573d6000803e3d6000fd5b505050506040513d601f19601f82011682018060405250810190611f8b9190613893565b50611f99838387878a612a5c565b60008088600001604051611fac90613691565b90815260405190819003602001812054632b2e8efb60e01b82526001600160a01b031690632b2e8efb90611fe9908f908f9060009060040161382f565b6000604051808303816000875af1158015612008573d6000803e3d6000fd5b505050506040513d6000823e601f3d908101601f191682016040526120309190810190613b1a565b915091508a828d6001600160a01b03167f2b5c6da75471a32fa816831df06c6a172203625ece9bf5c72a71f67c6aabff818d8c6001876040516120769493929190613b61565b60405180910390a4505050505050505050505050565b604080516330b4b2b760e11b815260006004808301829052925160249281900383018120546331a9108f60e11b8252938101869052909283926001600160a01b0388811693921691636352211e9101602060405180830381865afa1580156120f8573d6000803e3d6000fd5b505050506040513d601f19601f8201168201806040525081019061211c9190613945565b6001600160a01b03161461215e5760405162461bcd60e51b81526020600482015260096024820152683737ba1037bbb732b960b91b60448201526064016109ea565b60008160000160405161217090613691565b90815260405190819003602001812054631c4de8d760e01b82526001600160a01b031690631c4de8d7906121ac90889060040190815260200190565b61012060405180830381865afa1580156121ca573d6000803e3d6000fd5b505050506040513d601f19601f820116820180604052508101906121ee9190613977565b9050816004018160400151600b81106122095761220961374f565b600302015460ff16151560011461224d5760405162461bcd60e51b81526020600482015260086024820152673737ba1037b832b760c11b60448201526064016109ea565b6000806000808560000160405161226390613691565b908152602001604051809103902060009054906101000a90046001600160a01b03166001600160a01b0316637bcb71a689886004018860400151600b81106122ad576122ad61374f565b60030201600101546040518363ffffffff1660e01b81526004016122db929190918252602082015260400190565b6080604051808303816000875af11580156122fa573d6000803e3d6000fd5b505050506040513d601f19601f8201168201806040525081019061231e9190613a6c565b604051636974656d60e01b815293975091955093509150869060040190815260405190819003602001812054637a94c56560e11b82526001600160a01b03169063f5298aca90612377908d908c9060019060040161382f565b600060405180830381600087803b15801561239157600080fd5b505af11580156123a5573d6000803e3d6000fd5b50506040518892506123b79150613850565b908152604051908190036020018120546001600160a01b0316906323b872dd908c9089906123f590696469737472696275746560b01b8152600a0190565b908152602001604051809103902060009054906101000a90046001600160a01b0316896004018960400151600b81106124305761243061374f565b60030201600101546040518463ffffffff1660e01b81526004016124569392919061385f565b6020604051808303816000875af1158015612475573d6000803e3d6000fd5b505050506040513d601f19601f820116820180604052508101906124999190613893565b506124ba838286858a6004018a60400151600b81106117045761170461374f565b84604001516000036125cc5760405186906124d490613691565b908152604080519182900360200182205490870151630e1c1b2b60e01b8352600483018c905260248301526001600160a01b031690630e1c1b2b90604401600060405180830381600087803b15801561252c57600080fd5b505af1158015612540573d6000803e3d6000fd5b5050505087898b6001600160a01b03167f9c2d00f9bd857ba01e3db2db9ad693ac6ada7c0d12cf673bddac07e2f52f93cf6001808b6004018b60400151600b811061258d5761258d61374f565b60030201600101546040516125b5939291909283529015156020830152604082015260600190565b60405180910390a460019650505050505050611bef565b60006125d78b61312f565b90508560a0015181116126675760405187906125f290613691565b908152604080519182900360200182205490880151630e1c1b2b60e01b8352600483018d905260248301526001600160a01b031690630e1c1b2b90604401600060405180830381600087803b15801561264a57600080fd5b505af115801561265e573d6000803e3d6000fd5b50505050612744565b60006126bb8c896004018960400151600b81106126865761268661374f565b6003020160020160089054906101000a900462ffffff1662ffffff168a6004018a60400151600b8110611a7e57611a7e61374f565b9050876000016040516126cd90613691565b9081526040519081900360200181205463a76373c160e01b82526001600160a01b03169063a76373c190612710908e908590600401918252602082015260400190565b600060405180830381600087803b15801561272a57600080fd5b505af115801561273e573d6000803e3d6000fd5b50505050505b888a8c6001600160a01b03167f9c2d00f9bd857ba01e3db2db9ad693ac6ada7c0d12cf673bddac07e2f52f93cf60018a60a001518611158c6004018c60400151600b81106127945761279461374f565b60030201600101546040516127bc939291909283529015156020830152604082015260600190565b60405180910390a45060019a9950505050505050505050565b60008080600080826000016040516127ec90613691565b90815260405190819003602001812054637382589360e01b82526001600160a01b03169063738258939061282890899060040190815260200190565b60c060405180830381865afa158015612845573d6000803e3d6000fd5b505050506040513d601f19601f820116820180604052508101906128699190613ac2565b949b949a509398505050505050505050565b604080518082018252602f5481526030546020820152905160009182918291829182918291829190829081906128b090613691565b9081526040519081900360200181205463295d6f7360e21b82526001600160a01b03169063a575bdcc906128ec908e9060040190815260200190565b61016060405180830381865afa15801561290a573d6000803e3d6000fd5b505050506040513d601f19601f8201168201806040525081019061292e9190613b86565b60ff8b166000908152602d8501602090815260408220908501516002820154939450909282918291620186a09161296491613960565b61296e9190613a08565b90506000620186a08760000151866002015461298a9190613960565b6129949190613a08565b6101208701519091506001600160a01b0316156129b9578561012001519350836129e8565b604051637465616d60e01b81528890600401908152604051908190036020019020546001600160a01b03169350835b5060408601516001600160a01b031615612a06578560400151612a32565b604051637465616d60e01b81528890600401908152604051908190036020019020546001600160a01b03165b6002860154600390960154959e509c50909a50919850909650909450505050509295509295509295565b600080806000806000612a6e8761325a565b94509450945094509450600086600001604051612a8a90613850565b9081526040519081900360200181205463a9059cbb60e01b82526001600160a01b038e81166004840152602483018e9052169150819063a9059cbb906044016020604051808303816000875af1158015612ae8573d6000803e3d6000fd5b505050506040513d601f19601f82011682018060405250810190612b0c9190613893565b5060405163a9059cbb60e01b81526001600160a01b038b81166004830152602482018b905282169063a9059cbb906044016020604051808303816000875af1158015612b5c573d6000803e3d6000fd5b505050506040513d601f19601f82011682018060405250810190612b809190613893565b5060405163313ab93760e11b81526001600160a01b0382169063a9059cbb908990600401908152604051908190036020018120546001600160e01b031960e084901b1682526001600160a01b03166004820152602481018790526044016020604051808303816000875af1158015612bfc573d6000803e3d6000fd5b505050506040513d601f19601f82011682018060405250810190612c209190613893565b5060405161381960f11b81526001600160a01b0382169063a9059cbb908990600201908152604051908190036020018120546001600160e01b031960e084901b1682526001600160a01b03166004820152602481018890526044016020604051808303816000875af1158015612c9a573d6000803e3d6000fd5b505050506040513d601f19601f82011682018060405250810190612cbe9190613893565b5060405161703160f01b81526001600160a01b0382169063a9059cbb908990600201908152604051908190036020018120546001600160e01b031960e084901b1682526001600160a01b03166004820152602481018990526044016020604051808303816000875af1158015612d38573d6000803e3d6000fd5b505050506040513d601f19601f82011682018060405250810190612d5c9190613893565b5060405161381960f11b8152879060020190815260405190819003602001812054632e07668d60e21b825260006004830152602482018790526001600160a01b03169063b81d9a3490604401600060405180830381600087803b158015612dc257600080fd5b505af1158015612dd6573d6000803e3d6000fd5b50506040805161703160f01b8152600281018b90529051908190036022018120546345e17d1d60e11b8252600482018a90526001600160a01b03169250638bc2fa3a9150602401600060405180830381600087803b158015612e3757600080fd5b505af1158015612e4b573d6000803e3d6000fd5b5050505084876026016001016000828254612e66919061391b565b9091555050602687018054839190600090612e8290849061391b565b9091555050602887018054849190600090612e9e90849061391b565b9091555050505050505050505050505050565b6000805b60018351612ec39190613aaf565b811015612f37576000612ed782600161391b565b90505b8351811015612f2e57838181518110612ef557612ef561374f565b6020026020010151848381518110612f0f57612f0f61374f565b602002602001015103612f26575060019392505050565b600101612eda565b50600101612eb5565b50600092915050565b60008060005b83518110156130305760405169706572667269656e647360b01b81526001600160a01b038616908390600a019081526040519081900360200190205485516001600160a01b0390911690636352211e90879085908110612fa857612fa861374f565b60200260200101516040518263ffffffff1660e01b8152600401612fce91815260200190565b602060405180830381865afa158015612feb573d6000803e3d6000fd5b505050506040513d601f19601f8201168201806040525081019061300f9190613945565b6001600160a01b03161461302857600092505050610871565b600101612f46565b506001949350505050565b6000806000805b84518110156106c5578260250160008460000160405161306190613691565b9081526040519081900360200190205487516001600160a01b03909116906342ab8805908990869081106130975761309761374f565b60200260200101516040518263ffffffff1660e01b81526004016130bd91815260200190565b608060405180830381865afa1580156130da573d6000803e3d6000fd5b505050506040513d601f19601f820116820180604052508101906130fe9190613c2b565b6020908101518252810191909152604001600020600101546131259062ffffff168361391b565b9150600101613042565b600080600042844160405160200161317093929190928352606091821b6bffffffffffffffffffffffff199081166020850152911b16603482015260480190565b60408051601f19818403018152919052805160209091012060018301549091506131a19060009062ffffff16613c98565b6131ac906001613cbb565b6131bb9062ffffff1682613cd7565b6131c690600061391b565b949350505050565b60008042854160405160200161320d93929190928352606091821b6bffffffffffffffffffffffff199081166020850152911b16603482015260480190565b6040516020818303038152906040528051906020012090508283856132329190613aaf565b61323d90600161391b565b6132479083613cd7565b613251919061391b565b95945050505050565b6000808080808080602981015490915060009060649061327f9062ffffff168a613960565b6132899190613a08565b60298301549091506000906064906132ad906301000000900462ffffff168b613960565b6132b79190613a08565b60298401549091506000906064906132e1906901000000000000000000900462ffffff168c613960565b6132eb9190613a08565b602985015490915060009060649061330f90600160601b900462ffffff168d613960565b6133199190613a08565b6029860154909150600090606490613340906601000000000000900462ffffff168e613960565b61334a9190613a08565b949c939b5091995097509195509350505050565b803560ff8116811461336f57600080fd5b919050565b60006020828403121561338657600080fd5b611bef8261335e565b60005b838110156133aa578181015183820152602001613392565b50506000910152565b600081518084526133cb81602086016020860161338f565b601f01601f19169290920160200192915050565b60ff81511682526000602082015160e0602085015261340160e08501826133b3565b905060408301516040850152606083015160608501526080830151608085015260a083015160a085015260c0830151151560c08501528091505092915050565b602081526000611bef60208301846133df565b600060208083016020845280855180835260408601915060408160051b87010192506020870160005b828110156134ab57603f198886030184526134998583516133df565b9450928501929085019060010161347d565b5092979650505050505050565b6000806000606084860312156134cd57600080fd5b83359250602084013591506134e46040850161335e565b90509250925092565b634e487b7160e01b600052604160045260246000fd5b604051610120810167ffffffffffffffff81118282101715613527576135276134ed565b60405290565b604051610160810167ffffffffffffffff81118282101715613527576135276134ed565b604051601f8201601f1916810167ffffffffffffffff8111828210171561357a5761357a6134ed565b604052919050565b6000806040838503121561359557600080fd5b8235915060208084013567ffffffffffffffff808211156135b557600080fd5b818601915086601f8301126135c957600080fd5b8135818111156135db576135db6134ed565b8060051b91506135ec848301613551565b818152918301840191848101908984111561360657600080fd5b938501935b838510156136245784358252938501939085019061360b565b8096505050505050509250929050565b6000806040838503121561364757600080fd5b50508035926020909101359150565b60006020828403121561366857600080fd5b5035919050565b60408152600061368260408301856133b3565b90508260208301529392505050565b61323160f11b815260020190565b6000806000606084860312156136b457600080fd5b8351925060208401519150604084015190509250925092565b600181811c908216806136e157607f821691505b60208210810361370157634e487b7160e01b600052602260045260246000fd5b50919050565b60006020828403121561371957600080fd5b5051919050565b634e487b7160e01b600052601160045260246000fd5b60ff828116828216039081111561087157610871613720565b634e487b7160e01b600052603260045260246000fd5b600060ff821660ff810361377b5761377b613720565b60010192915050565b600082601f83011261379557600080fd5b815167ffffffffffffffff8111156137af576137af6134ed565b6137c2601f8201601f1916602001613551565b8181528460208386010111156137d757600080fd5b6131c682602083016020870161338f565b600080604083850312156137fb57600080fd5b825167ffffffffffffffff81111561381257600080fd5b61381e85828601613784565b925050602083015190509250929050565b6001600160a01b039390931683526020830191909152604082015260600190565b623832b960e91b815260030190565b6001600160a01b039384168152919092166020820152604081019190915260600190565b8051801515811461336f57600080fd5b6000602082840312156138a557600080fd5b611bef82613883565b60018060a01b03851681528360208201526080604082015260006138d560808301856133b3565b905060ff8316606083015295945050505050565b84815283602082015260ff8316604082015260806060820152600061391160808301846133b3565b9695505050505050565b8082018082111561087157610871613720565b80516001600160a01b038116811461336f57600080fd5b60006020828403121561395757600080fd5b611bef8261392e565b808202811582820484141761087157610871613720565b6000610120828403121561398a57600080fd5b613992613503565b825181526020830151602082015260408301516040820152606083015160608201526080830151608082015260a083015160a082015260c083015160c082015260e083015160e08201526101008084015181830152508091505092915050565b634e487b7160e01b600052601260045260246000fd5b600082613a1757613a176139f2565b500490565b60006040820184835260206040602085015281855180845260608601915060208701935060005b81811015613a5f57845183529383019391830191600101613a43565b5090979650505050505050565b60008060008060808587031215613a8257600080fd5b613a8b8561392e565b9350613a996020860161392e565b6040860151606090960151949790965092505050565b8181038181111561087157610871613720565b60008060008060008060c08789031215613adb57600080fd5b86519550613aeb6020880161392e565b945060408701519350613b006060880161392e565b92506080870151915060a087015190509295509295509295565b60008060408385031215613b2d57600080fd5b82519150602083015167ffffffffffffffff811115613b4b57600080fd5b613b5785828601613784565b9150509250929050565b84815283602082015282604082015260806060820152600061391160808301846133b3565b60006101608284031215613b9957600080fd5b613ba161352d565b8251815260208301516020820152613bbb6040840161392e565b604082015260608301516060820152613bd660808401613883565b608082015260a083015160a082015260c083015160c082015260e083015160e0820152610100808401518183015250610120613c1381850161392e565b90820152610140928301519281019290925250919050565b600060808284031215613c3d57600080fd5b6040516080810181811067ffffffffffffffff82111715613c6057613c606134ed565b80604052508251815260208301516020820152613c7f60408401613883565b6040820152606083015160608201528091505092915050565b62ffffff828116828216039080821115613cb457613cb4613720565b5092915050565b62ffffff818116838216019080821115613cb457613cb4613720565b600082613ce657613ce66139f2565b50069056fea2646970667358221220070a7cbd3c0a2962bbc5139b72ef7b733cd6f8271e21964f4a989906b237453e64736f6c63430008160033",
  "devdoc": {
    "details": "i-TEZ : P0 (Mix) Facet Contract",
    "kind": "dev",
    "methods": {},
    "version": 1
  },
  "userdoc": {
    "kind": "user",
    "methods": {
      "P0_getMaxProb()": {
        "notice": "P0 _ get functions"
      }
    },
    "version": 1
  },
  "storageLayout": {
    "storage": [],
    "types": null
  }
}