{
  "address": "0x8dB60F0Da320675e0D10De0B00414f0aD0fBeaF2",
  "abi": [
    {
      "anonymous": false,
      "inputs": [
        {
          "indexed": true,
          "internalType": "address",
          "name": "to",
          "type": "address"
        },
        {
          "indexed": true,
          "internalType": "uint256",
          "name": "aienId",
          "type": "uint256"
        },
        {
          "indexed": true,
          "internalType": "uint256",
          "name": "payment",
          "type": "uint256"
        },
        {
          "indexed": false,
          "internalType": "uint256",
          "name": "addProb",
          "type": "uint256"
        },
        {
          "indexed": false,
          "internalType": "uint256[]",
          "name": "perfs",
          "type": "uint256[]"
        }
      ],
      "name": "P0_AddProb_Event",
      "type": "event"
    },
    {
      "anonymous": false,
      "inputs": [
        {
          "indexed": true,
          "internalType": "address",
          "name": "to",
          "type": "address"
        },
        {
          "indexed": true,
          "internalType": "uint256",
          "name": "aienId",
          "type": "uint256"
        },
        {
          "indexed": true,
          "internalType": "uint256",
          "name": "itemId",
          "type": "uint256"
        },
        {
          "indexed": false,
          "internalType": "uint256",
          "name": "itemAmount",
          "type": "uint256"
        },
        {
          "indexed": false,
          "internalType": "bool",
          "name": "isLevelUp",
          "type": "bool"
        },
        {
          "indexed": false,
          "internalType": "uint256",
          "name": "payment",
          "type": "uint256"
        }
      ],
      "name": "P0_BaseMix_Event",
      "type": "event"
    },
    {
      "anonymous": false,
      "inputs": [
        {
          "indexed": true,
          "internalType": "address",
          "name": "to",
          "type": "address"
        },
        {
          "indexed": true,
          "internalType": "uint256",
          "name": "perfId",
          "type": "uint256"
        },
        {
          "indexed": true,
          "internalType": "uint256",
          "name": "itemId",
          "type": "uint256"
        },
        {
          "indexed": false,
          "internalType": "uint256",
          "name": "itemAmount",
          "type": "uint256"
        },
        {
          "indexed": false,
          "internalType": "uint256",
          "name": "payment",
          "type": "uint256"
        },
        {
          "indexed": false,
          "internalType": "uint256",
          "name": "perfGrade",
          "type": "uint256"
        },
        {
          "indexed": false,
          "internalType": "bytes",
          "name": "perfURI",
          "type": "bytes"
        }
      ],
      "name": "P0_ItemMerge_Event",
      "type": "event"
    },
    {
      "anonymous": false,
      "inputs": [
        {
          "indexed": true,
          "internalType": "address",
          "name": "to",
          "type": "address"
        },
        {
          "indexed": true,
          "internalType": "uint256",
          "name": "aienId",
          "type": "uint256"
        },
        {
          "indexed": true,
          "internalType": "uint256",
          "name": "itemId",
          "type": "uint256"
        },
        {
          "indexed": false,
          "internalType": "uint256",
          "name": "itemAmount",
          "type": "uint256"
        },
        {
          "indexed": false,
          "internalType": "bool",
          "name": "isLevelUp",
          "type": "bool"
        },
        {
          "indexed": false,
          "internalType": "uint256",
          "name": "payment",
          "type": "uint256"
        },
        {
          "indexed": false,
          "internalType": "uint256",
          "name": "usePower",
          "type": "uint256"
        }
      ],
      "name": "P0_PremiumMix_Event",
      "type": "event"
    },
    {
      "inputs": [
        {
          "internalType": "uint256",
          "name": "_aienId",
          "type": "uint256"
        },
        {
          "internalType": "uint256[]",
          "name": "_pf_Ids",
          "type": "uint256[]"
        }
      ],
      "name": "P0_addProbCall",
      "outputs": [
        {
          "internalType": "bool",
          "name": "",
          "type": "bool"
        }
      ],
      "stateMutability": "nonpayable",
      "type": "function"
    },
    {
      "inputs": [
        {
          "internalType": "uint256",
          "name": "_id",
          "type": "uint256"
        },
        {
          "internalType": "uint256",
          "name": "_useItemId",
          "type": "uint256"
        }
      ],
      "name": "P0_baseMixCall",
      "outputs": [
        {
          "internalType": "bool",
          "name": "",
          "type": "bool"
        }
      ],
      "stateMutability": "nonpayable",
      "type": "function"
    },
    {
      "inputs": [],
      "name": "P0_basicMergeAmount",
      "outputs": [
        {
          "internalType": "uint256",
          "name": "",
          "type": "uint256"
        }
      ],
      "stateMutability": "view",
      "type": "function"
    },
    {
      "inputs": [],
      "name": "P0_getAddProbFee",
      "outputs": [
        {
          "internalType": "uint256",
          "name": "",
          "type": "uint256"
        }
      ],
      "stateMutability": "view",
      "type": "function"
    },
    {
      "inputs": [],
      "name": "P0_getMaxProb",
      "outputs": [
        {
          "internalType": "uint256",
          "name": "",
          "type": "uint256"
        }
      ],
      "stateMutability": "view",
      "type": "function"
    },
    {
      "inputs": [
        {
          "internalType": "uint256",
          "name": "_itemId",
          "type": "uint256"
        }
      ],
      "name": "P0_getMergeState",
      "outputs": [
        {
          "internalType": "uint256",
          "name": "",
          "type": "uint256"
        },
        {
          "internalType": "uint256",
          "name": "",
          "type": "uint256"
        }
      ],
      "stateMutability": "view",
      "type": "function"
    },
    {
      "inputs": [
        {
          "internalType": "uint8",
          "name": "_grade",
          "type": "uint8"
        }
      ],
      "name": "P0_getMergeStates",
      "outputs": [
        {
          "components": [
            {
              "internalType": "uint8",
              "name": "grade",
              "type": "uint8"
            },
            {
              "internalType": "string",
              "name": "gradeName",
              "type": "string"
            },
            {
              "internalType": "uint256",
              "name": "mergeFee",
              "type": "uint256"
            },
            {
              "internalType": "uint256",
              "name": "mergeUseItemAmount",
              "type": "uint256"
            },
            {
              "internalType": "uint256",
              "name": "latestId",
              "type": "uint256"
            },
            {
              "internalType": "uint256",
              "name": "setMatadataId",
              "type": "uint256"
            },
            {
              "internalType": "bool",
              "name": "isOpen",
              "type": "bool"
            }
          ],
          "internalType": "struct P0_MergePfGrade",
          "name": "",
          "type": "tuple"
        }
      ],
      "stateMutability": "view",
      "type": "function"
    },
    {
      "inputs": [],
      "name": "P0_getMetadataMargin",
      "outputs": [
        {
          "internalType": "uint256",
          "name": "",
          "type": "uint256"
        },
        {
          "internalType": "uint256",
          "name": "",
          "type": "uint256"
        },
        {
          "internalType": "uint256",
          "name": "",
          "type": "uint256"
        }
      ],
      "stateMutability": "view",
      "type": "function"
    },
    {
      "inputs": [],
      "name": "P0_influencerMergeAmount",
      "outputs": [
        {
          "internalType": "uint256",
          "name": "",
          "type": "uint256"
        }
      ],
      "stateMutability": "view",
      "type": "function"
    },
    {
      "inputs": [
        {
          "internalType": "uint256",
          "name": "_itemId",
          "type": "uint256"
        },
        {
          "internalType": "uint256",
          "name": "_itemAmount",
          "type": "uint256"
        }
      ],
      "name": "P0_itemMerge",
      "outputs": [],
      "stateMutability": "nonpayable",
      "type": "function"
    },
    {
      "inputs": [
        {
          "internalType": "uint256",
          "name": "_level",
          "type": "uint256"
        }
      ],
      "name": "P0_mixPFInfos",
      "outputs": [
        {
          "internalType": "string",
          "name": "",
          "type": "string"
        },
        {
          "internalType": "uint256",
          "name": "",
          "type": "uint256"
        }
      ],
      "stateMutability": "view",
      "type": "function"
    },
    {
      "inputs": [
        {
          "internalType": "uint256",
          "name": "_id",
          "type": "uint256"
        },
        {
          "internalType": "uint256",
          "name": "_useItemId",
          "type": "uint256"
        }
      ],
      "name": "P0_premiumMixCall",
      "outputs": [
        {
          "internalType": "bool",
          "name": "",
          "type": "bool"
        }
      ],
      "stateMutability": "nonpayable",
      "type": "function"
    }
  ],
  "args": [],
  "numDeployments": 25,
  "solcInputHash": "254d573f437e72445ffe2f6ea7451291",
  "bytecode": "0x608060405234801561001057600080fd5b50614de5806100206000396000f3fe608060405234801561001057600080fd5b50600436106100b45760003560e01c8063d2236a5411610071578063d2236a54146101b8578063d229a392146101d6578063ddb2bedf146101f4578063e488a83a14610210578063f3ebac5714610240578063f6afa8471461025e576100b4565b80630b0e517a146100b95780632b2dc69e146100d95780633576742f146101095780636d1d105e146101275780637174e25814610157578063ce47adfa14610187575b600080fd5b6100c161028f565b6040516100d093929190613417565b60405180910390f35b6100f360048036038101906100ee919061349b565b610358565b604051610100919061362d565b60405180910390f35b61011161048c565b60405161011e919061364f565b60405180910390f35b610141600480360381019061013c91906137de565b61054c565b60405161014e9190613849565b60405180910390f35b610171600480360381019061016c9190613864565b610578565b60405161017e9190613849565b60405180910390f35b6101a1600480360381019061019c91906138a4565b6105a5565b6040516101af92919061391b565b60405180910390f35b6101c061067b565b6040516101cd919061364f565b60405180910390f35b6101de61068a565b6040516101eb919061364f565b60405180910390f35b61020e60048036038101906102099190613864565b61074a565b005b61022a60048036038101906102259190613864565b610773565b6040516102379190613849565b60405180910390f35b6102486107a1565b604051610255919061364f565b60405180910390f35b610278600480360381019061027391906138a4565b6107d0565b60405161028692919061394b565b60405180910390f35b60008060008061029d6107e5565b9050806000016040516102af906139cb565b908152602001604051809103902060009054906101000a900473ffffffffffffffffffffffffffffffffffffffff1673ffffffffffffffffffffffffffffffffffffffff1663f9db98966040518163ffffffff1660e01b8152600401606060405180830381865afa158015610328573d6000803e3d6000fd5b505050506040513d601f19601f8201168201806040525081019061034c91906139f5565b93509350935050909192565b6103606133bc565b600061036a6107e5565b905080602d0160008460ff1660ff1681526020019081526020016000206040518060e00160405290816000820160009054906101000a900460ff1660ff1660ff1681526020016001820180546103bf90613a77565b80601f01602080910402602001604051908101604052809291908181526020018280546103eb90613a77565b80156104385780601f1061040d57610100808354040283529160200191610438565b820191906000526020600020905b81548152906001019060200180831161041b57829003601f168201915b50505050508152602001600282015481526020016003820154815260200160048201548152602001600582015481526020016006820160009054906101000a900460ff161515151581525050915050919050565b6000806104976107e5565b9050806000016040516104a9906139cb565b908152602001604051809103902060009054906101000a900473ffffffffffffffffffffffffffffffffffffffff1673ffffffffffffffffffffffffffffffffffffffff1663340c2acd6040518163ffffffff1660e01b8152600401602060405180830381865afa158015610522573d6000803e3d6000fd5b505050506040513d601f19601f820116820180604052508101906105469190613aa8565b91505090565b6000806105576107e5565b905060006105636107ea565b905061057081868661089a565b505092915050565b6000806105836107e5565b9050600061058f6107ea565b905061059c818686610f57565b50505092915050565b60606000806105b26107e5565b9050806000016040516105c490613b21565b908152602001604051809103902060009054906101000a900473ffffffffffffffffffffffffffffffffffffffff1673ffffffffffffffffffffffffffffffffffffffff166316dba26f856040518263ffffffff1660e01b815260040161062b919061364f565b600060405180830381865afa158015610648573d6000803e3d6000fd5b505050506040513d6000823e3d601f19601f820116820180604052508101906106719190613bdc565b9250925050915091565b60006106856118e7565b905090565b6000806106956107e5565b9050806000016040516106a7906139cb565b908152602001604051809103902060009054906101000a900473ffffffffffffffffffffffffffffffffffffffff1673ffffffffffffffffffffffffffffffffffffffff1663f6e5f5006040518163ffffffff1660e01b8152600401602060405180830381865afa158015610720573d6000803e3d6000fd5b505050506040513d601f19601f820116820180604052508101906107449190613aa8565b91505090565b60006107546107e5565b905060006107606107ea565b905061076d8185856119a7565b50505050565b60008061077e6107e5565b9050600061078a6107ea565b9050610797818686611f0c565b9250505092915050565b6000806107ac6107e5565b90508060010160000160009054906101000a900462ffffff1662ffffff1691505090565b6000806107dc83612817565b91509150915091565b600090565b60003073ffffffffffffffffffffffffffffffffffffffff163373ffffffffffffffffffffffffffffffffffffffff160361089357600080368080601f016020809104026020016040519081016040528093929190818152602001838380828437600081840152601f19601f820116905080830192505050505050509050600080369050905073ffffffffffffffffffffffffffffffffffffffff818301511692505050610897565b3390505b90565b60006108a46107e5565b90508373ffffffffffffffffffffffffffffffffffffffff16816000016040516108cd90613c84565b908152602001604051809103902060009054906101000a900473ffffffffffffffffffffffffffffffffffffffff1673ffffffffffffffffffffffffffffffffffffffff16636352211e856040518263ffffffff1660e01b8152600401610934919061364f565b602060405180830381865afa158015610951573d6000803e3d6000fd5b505050506040513d601f19601f820116820180604052508101906109759190613cf7565b73ffffffffffffffffffffffffffffffffffffffff16146109cb576040517f08c379a00000000000000000000000000000000000000000000000000000000081526004016109c290613d70565b60405180910390fd5b600015156109d8836128f7565b151514610a1a576040517f08c379a0000000000000000000000000000000000000000000000000000000008152600401610a1190613ddc565b60405180910390fd5b60011515610a28858461299b565b151514610a6a576040517f08c379a0000000000000000000000000000000000000000000000000000000008152600401610a6190613e48565b60405180910390fd5b6000610a7583612add565b905081600001604051610a8790613eb4565b908152602001604051809103902060009054906101000a900473ffffffffffffffffffffffffffffffffffffffff1673ffffffffffffffffffffffffffffffffffffffff166323b872dd8684600001604051610ae290613f15565b908152602001604051809103902060009054906101000a900473ffffffffffffffffffffffffffffffffffffffff1686518660010160010154610b259190613f59565b6040518463ffffffff1660e01b8152600401610b4393929190613faa565b6020604051808303816000875af1158015610b62573d6000803e3d6000fd5b505050506040513d601f19601f82011682018060405250810190610b86919061400d565b5060005b8351811015610d265782600001604051610ba390614086565b908152602001604051809103902060009054906101000a900473ffffffffffffffffffffffffffffffffffffffff1673ffffffffffffffffffffffffffffffffffffffff166342966c68858381518110610c0057610bff61409b565b5b60200260200101516040518263ffffffff1660e01b8152600401610c24919061364f565b600060405180830381600087803b158015610c3e57600080fd5b505af1158015610c52573d6000803e3d6000fd5b5050505082600001604051610c66906139cb565b908152602001604051809103902060009054906101000a900473ffffffffffffffffffffffffffffffffffffffff1673ffffffffffffffffffffffffffffffffffffffff1663c2a6a062858381518110610cc357610cc261409b565b5b60200260200101516040518263ffffffff1660e01b8152600401610ce7919061364f565b600060405180830381600087803b158015610d0157600080fd5b505af1158015610d15573d6000803e3d6000fd5b505050508080600101915050610b8a565b50600082600001604051610d39906139cb565b908152602001604051809103902060009054906101000a900473ffffffffffffffffffffffffffffffffffffffff1673ffffffffffffffffffffffffffffffffffffffff16631c4de8d7866040518263ffffffff1660e01b8152600401610da0919061364f565b61012060405180830381865afa158015610dbe573d6000803e3d6000fd5b505050506040513d601f19601f82011682018060405250810190610de291906141af565b905082600001604051610df4906139cb565b908152602001604051809103902060009054906101000a900473ffffffffffffffffffffffffffffffffffffffff1673ffffffffffffffffffffffffffffffffffffffff1663a02db9a0868360200151846040015188518860010160020160009054906101000a900461ffff1661ffff16610e6f9190613f59565b8660600151610e7e91906141dd565b86608001518760a0015160008960e001518b8b6101000151610ea091906141dd565b6040518a63ffffffff1660e01b8152600401610ec499989796959493929190614256565b600060405180830381600087803b158015610ede57600080fd5b505af1158015610ef2573d6000803e3d6000fd5b505050508260010160010154858773ffffffffffffffffffffffffffffffffffffffff167f99cb040f26b9f8ab0196325428931da1473bc4b7e3f5477d08e93c1713bc05138588604051610f47929190614392565b60405180910390a4505050505050565b600080610f626107e5565b9050600081600001604051610f76906139cb565b908152602001604051809103902060009054906101000a900473ffffffffffffffffffffffffffffffffffffffff1673ffffffffffffffffffffffffffffffffffffffff16631c4de8d7866040518263ffffffff1660e01b8152600401610fdd919061364f565b61012060405180830381865afa158015610ffb573d6000803e3d6000fd5b505050506040513d601f19601f8201168201806040525081019061101f91906141af565b90506000816040015103611068576040517f08c379a000000000000000000000000000000000000000000000000000000000815260040161105f9061440e565b60405180910390fd5b60011515826004018260400151600b81106110865761108561409b565b5b6003020160000160009054906101000a900460ff161515146110dd576040517f08c379a00000000000000000000000000000000000000000000000000000000081526004016110d49061447a565b60405180910390fd5b600080600080856000016040516110f3906139cb565b908152602001604051809103902060009054906101000a900473ffffffffffffffffffffffffffffffffffffffff1673ffffffffffffffffffffffffffffffffffffffff16637bcb71a689886004018860400151600b81106111585761115761409b565b5b60030201600101546040518363ffffffff1660e01b815260040161117d92919061394b565b6080604051808303816000875af115801561119c573d6000803e3d6000fd5b505050506040513d601f19601f820116820180604052508101906111c0919061449a565b9350935093509350856000016040516111d89061454d565b908152602001604051809103902060009054906101000a900473ffffffffffffffffffffffffffffffffffffffff1673ffffffffffffffffffffffffffffffffffffffff1663f5298aca8b8a60016040518463ffffffff1660e01b81526004016112449392919061459d565b600060405180830381600087803b15801561125e57600080fd5b505af1158015611272573d6000803e3d6000fd5b505050508560000160405161128690613eb4565b908152602001604051809103902060009054906101000a900473ffffffffffffffffffffffffffffffffffffffff1673ffffffffffffffffffffffffffffffffffffffff166323b872dd8b886000016040516112e190613f15565b908152602001604051809103902060009054906101000a900473ffffffffffffffffffffffffffffffffffffffff16896004018960400151600b811061132a5761132961409b565b5b60030201600101546040518463ffffffff1660e01b815260040161135093929190613faa565b6020604051808303816000875af115801561136f573d6000803e3d6000fd5b505050506040513d601f19601f82011682018060405250810190611393919061400d565b506113c2838286858a6004018a60400151600b81106113b5576113b461409b565b5b6003020160010154612c1e565b60006113cd8b61317a565b905060008760010160000160009054906101000a900462ffffff1662ffffff168761010001518860a0015161140291906141dd565b10611445578760010160000160009054906101000a900462ffffff1662ffffff168761010001518860a0015161143891906141dd565b61144291906145d4565b90505b818761010001518860a0015161145b91906141dd565b1061167857898b8d73ffffffffffffffffffffffffffffffffffffffff167f2204f6ff22d33db4677f6c4e555d9994ed7df4af0ae306770814a6e91d920c896001808d6004018d60400151600b81106114b7576114b661409b565b5b6003020160010154600088146114dd57878e61010001516114d891906145d4565b6114e4565b8d61010001515b6040516114f49493929190614608565b60405180910390a48760000160405161150c906139cb565b908152602001604051809103902060009054906101000a900473ffffffffffffffffffffffffffffffffffffffff1673ffffffffffffffffffffffffffffffffffffffff1663eab965818c60018a6040015161156891906141dd565b8b6004018b60400151600b81106115825761158161409b565b5b6003020160020160039054906101000a900461ffff1661ffff168b606001516115ab91906141dd565b8c6004018c60400151600b81106115c5576115c461409b565b5b6003020160020160039054906101000a900461ffff1661ffff168c608001516115ee91906141dd565b8d6004018d60400151600b81106116085761160761409b565b5b6003020160020160009054906101000a900462ffffff16876040518763ffffffff1660e01b81526004016116419695949392919061468d565b600060405180830381600087803b15801561165b57600080fd5b505af115801561166f573d6000803e3d6000fd5b505050506118d4565b898b8d73ffffffffffffffffffffffffffffffffffffffff167f2204f6ff22d33db4677f6c4e555d9994ed7df4af0ae306770814a6e91d920c89600160008d6004018d60400151600b81106116d0576116cf61409b565b5b6003020160010154600088146116f657878e61010001516116f191906145d4565b6116fd565b8d61010001515b60405161170d9493929190614608565b60405180910390a4600061178c8d8a6004018a60400151600b81106117355761173461409b565b5b6003020160020160089054906101000a900462ffffff1662ffffff168b6004018b60400151600b811061176b5761176a61409b565b5b6003020160020160059054906101000a900462ffffff1662ffffff1661320d565b90508860000160405161179e906139cb565b908152602001604051809103902060009054906101000a900473ffffffffffffffffffffffffffffffffffffffff1673ffffffffffffffffffffffffffffffffffffffff1663588e8f858d8b6004018b60400151600b81106118035761180261409b565b5b6003020160020160039054906101000a900461ffff1661ffff168b6060015161182c91906141dd565b8c6004018c60400151600b81106118465761184561409b565b5b6003020160020160039054906101000a900461ffff1661ffff168c6080015161186f91906141dd565b858d60a0015161187f91906141dd565b876040518663ffffffff1660e01b81526004016118a09594939291906146ee565b600060405180830381600087803b1580156118ba57600080fd5b505af11580156118ce573d6000803e3d6000fd5b50505050505b6001985050505050505050509392505050565b6000806118f26107e5565b90508060000160405161190490613b21565b908152602001604051809103902060009054906101000a900473ffffffffffffffffffffffffffffffffffffffff1673ffffffffffffffffffffffffffffffffffffffff16637aa085746040518163ffffffff1660e01b8152600401602060405180830381865afa15801561197d573d6000803e3d6000fd5b505050506040513d601f19601f820116820180604052508101906119a19190613aa8565b91505090565b60006119b16107e5565b905060008060008060008060328911611a9957866000016040516119d4906139cb565b908152602001604051809103902060009054906101000a900473ffffffffffffffffffffffffffffffffffffffff1673ffffffffffffffffffffffffffffffffffffffff1663738258938a6040518263ffffffff1660e01b8152600401611a3b919061364f565b60c060405180830381865afa158015611a58573d6000803e3d6000fd5b505050506040513d601f19601f82011682018060405250810190611a7c9190614741565b809650819750829850839950849a50859b50505050505050611b6a565b86600001604051611aa9906139cb565b908152602001604051809103902060009054906101000a900473ffffffffffffffffffffffffffffffffffffffff1673ffffffffffffffffffffffffffffffffffffffff1663357c498a8a6040518263ffffffff1660e01b8152600401611b10919061364f565b60c060405180830381865afa158015611b2d573d6000803e3d6000fd5b505050506040513d601f19601f82011682018060405250810190611b519190614741565b809650819750829850839950849a50859b505050505050505b808814611b7657600080fd5b86600001604051611b86906139cb565b908152602001604051809103902060009054906101000a900473ffffffffffffffffffffffffffffffffffffffff1673ffffffffffffffffffffffffffffffffffffffff16638c4b4b42848488886040518563ffffffff1660e01b8152600401611bf394939291906147ce565b600060405180830381600087803b158015611c0d57600080fd5b505af1158015611c21573d6000803e3d6000fd5b5050505086600001604051611c359061454d565b908152602001604051809103902060009054906101000a900473ffffffffffffffffffffffffffffffffffffffff1673ffffffffffffffffffffffffffffffffffffffff1663f5298aca8b8b8b6040518463ffffffff1660e01b8152600401611ca093929190614813565b600060405180830381600087803b158015611cba57600080fd5b505af1158015611cce573d6000803e3d6000fd5b5050505086600001604051611ce290613eb4565b908152602001604051809103902060009054906101000a900473ffffffffffffffffffffffffffffffffffffffff1673ffffffffffffffffffffffffffffffffffffffff166323b872dd8b89600001604051611d3d90613f15565b908152602001604051809103902060009054906101000a900473ffffffffffffffffffffffffffffffffffffffff16896040518463ffffffff1660e01b8152600401611d8b93929190613faa565b6020604051808303816000875af1158015611daa573d6000803e3d6000fd5b505050506040513d601f19601f82011682018060405250810190611dce919061400d565b50611ddc838387878a612c1e565b60008088600001604051611def906139cb565b908152602001604051809103902060009054906101000a900473ffffffffffffffffffffffffffffffffffffffff1673ffffffffffffffffffffffffffffffffffffffff16632b2e8efb8d8d60006040518463ffffffff1660e01b8152600401611e5b9392919061484a565b6000604051808303816000875af1158015611e7a573d6000803e3d6000fd5b505050506040513d6000823e3d601f19601f82011682018060405250810190611ea39190614881565b915091508a828d73ffffffffffffffffffffffffffffffffffffffff167f2b5c6da75471a32fa816831df06c6a172203625ece9bf5c72a71f67c6aabff818d8c600187604051611ef69493929190614932565b60405180910390a4505050505050505050505050565b600080611f176107e5565b90508473ffffffffffffffffffffffffffffffffffffffff1681600001604051611f4090613c84565b908152602001604051809103902060009054906101000a900473ffffffffffffffffffffffffffffffffffffffff1673ffffffffffffffffffffffffffffffffffffffff16636352211e866040518263ffffffff1660e01b8152600401611fa7919061364f565b602060405180830381865afa158015611fc4573d6000803e3d6000fd5b505050506040513d601f19601f82011682018060405250810190611fe89190613cf7565b73ffffffffffffffffffffffffffffffffffffffff161461203e576040517f08c379a000000000000000000000000000000000000000000000000000000000815260040161203590613d70565b60405180910390fd5b600081600001604051612050906139cb565b908152602001604051809103902060009054906101000a900473ffffffffffffffffffffffffffffffffffffffff1673ffffffffffffffffffffffffffffffffffffffff16631c4de8d7866040518263ffffffff1660e01b81526004016120b7919061364f565b61012060405180830381865afa1580156120d5573d6000803e3d6000fd5b505050506040513d601f19601f820116820180604052508101906120f991906141af565b905060011515826004018260400151600b81106121195761211861409b565b5b6003020160000160009054906101000a900460ff16151514612170576040517f08c379a00000000000000000000000000000000000000000000000000000000081526004016121679061447a565b60405180910390fd5b60008060008085600001604051612186906139cb565b908152602001604051809103902060009054906101000a900473ffffffffffffffffffffffffffffffffffffffff1673ffffffffffffffffffffffffffffffffffffffff16637bcb71a689886004018860400151600b81106121eb576121ea61409b565b5b60030201600101546040518363ffffffff1660e01b815260040161221092919061394b565b6080604051808303816000875af115801561222f573d6000803e3d6000fd5b505050506040513d601f19601f82011682018060405250810190612253919061449a565b93509350935093508560000160405161226b9061454d565b908152602001604051809103902060009054906101000a900473ffffffffffffffffffffffffffffffffffffffff1673ffffffffffffffffffffffffffffffffffffffff1663f5298aca8b8a60016040518463ffffffff1660e01b81526004016122d79392919061459d565b600060405180830381600087803b1580156122f157600080fd5b505af1158015612305573d6000803e3d6000fd5b505050508560000160405161231990613eb4565b908152602001604051809103902060009054906101000a900473ffffffffffffffffffffffffffffffffffffffff1673ffffffffffffffffffffffffffffffffffffffff166323b872dd8b8860000160405161237490613f15565b908152602001604051809103902060009054906101000a900473ffffffffffffffffffffffffffffffffffffffff16896004018960400151600b81106123bd576123bc61409b565b5b60030201600101546040518463ffffffff1660e01b81526004016123e393929190613faa565b6020604051808303816000875af1158015612402573d6000803e3d6000fd5b505050506040513d601f19601f82011682018060405250810190612426919061400d565b50612455838286858a6004018a60400151600b81106124485761244761409b565b5b6003020160010154612c1e565b60008560400151036125955785600001604051612471906139cb565b908152602001604051809103902060009054906101000a900473ffffffffffffffffffffffffffffffffffffffff1673ffffffffffffffffffffffffffffffffffffffff16630e1c1b2b8a87604001516040518363ffffffff1660e01b81526004016124de92919061394b565b600060405180830381600087803b1580156124f857600080fd5b505af115801561250c573d6000803e3d6000fd5b5050505087898b73ffffffffffffffffffffffffffffffffffffffff167f9c2d00f9bd857ba01e3db2db9ad693ac6ada7c0d12cf673bddac07e2f52f93cf6001808b6004018b60400151600b81106125675761256661409b565b5b600302016001015460405161257e9392919061497e565b60405180910390a460019650505050505050612810565b60006125a08b61317a565b90508560a00151811161266157866000016040516125bd906139cb565b908152602001604051809103902060009054906101000a900473ffffffffffffffffffffffffffffffffffffffff1673ffffffffffffffffffffffffffffffffffffffff16630e1c1b2b8b88604001516040518363ffffffff1660e01b815260040161262a92919061394b565b600060405180830381600087803b15801561264457600080fd5b505af1158015612658573d6000803e3d6000fd5b50505050612787565b60006126d88c896004018960400151600b81106126815761268061409b565b5b6003020160020160089054906101000a900462ffffff1662ffffff168a6004018a60400151600b81106126b7576126b661409b565b5b6003020160020160059054906101000a900462ffffff1662ffffff1661320d565b9050876000016040516126ea906139cb565b908152602001604051809103902060009054906101000a900473ffffffffffffffffffffffffffffffffffffffff1673ffffffffffffffffffffffffffffffffffffffff1663a76373c18c836040518363ffffffff1660e01b815260040161275392919061394b565b600060405180830381600087803b15801561276d57600080fd5b505af1158015612781573d6000803e3d6000fd5b50505050505b888a8c73ffffffffffffffffffffffffffffffffffffffff167f9c2d00f9bd857ba01e3db2db9ad693ac6ada7c0d12cf673bddac07e2f52f93cf60018a60a001518611158c6004018c60400151600b81106127e5576127e461409b565b5b60030201600101546040516127fc9392919061497e565b60405180910390a460019750505050505050505b9392505050565b60008060006128246107e5565b905060008082600001604051612839906139cb565b908152602001604051809103902060009054906101000a900473ffffffffffffffffffffffffffffffffffffffff1673ffffffffffffffffffffffffffffffffffffffff166373825893876040518263ffffffff1660e01b81526004016128a0919061364f565b60c060405180830381865afa1580156128bd573d6000803e3d6000fd5b505050506040513d601f19601f820116820180604052508101906128e19190614741565b9550505050509150818194509450505050915091565b600080600090505b6001835161290d91906145d4565b81101561299057600060018261292391906141dd565b90505b8351811015612982578381815181106129425761294161409b565b5b602002602001015184838151811061295d5761295c61409b565b5b60200260200101510361297557600192505050612996565b8080600101915050612926565b5080806001019150506128ff565b50600090505b919050565b6000806129a66107e5565b905060005b8351811015612ad0578473ffffffffffffffffffffffffffffffffffffffff16826000016040516129db90614086565b908152602001604051809103902060009054906101000a900473ffffffffffffffffffffffffffffffffffffffff1673ffffffffffffffffffffffffffffffffffffffff16636352211e868481518110612a3857612a3761409b565b5b60200260200101516040518263ffffffff1660e01b8152600401612a5c919061364f565b602060405180830381865afa158015612a79573d6000803e3d6000fd5b505050506040513d601f19601f82011682018060405250810190612a9d9190613cf7565b73ffffffffffffffffffffffffffffffffffffffff1614612ac357600092505050612ad7565b80806001019150506129ab565b5060019150505b92915050565b600080612ae86107e5565b90506000805b8451811015612c135782602501600084600001604051612b0d906139cb565b908152602001604051809103902060009054906101000a900473ffffffffffffffffffffffffffffffffffffffff1673ffffffffffffffffffffffffffffffffffffffff166342ab8805888581518110612b6a57612b6961409b565b5b60200260200101516040518263ffffffff1660e01b8152600401612b8e919061364f565b608060405180830381865afa158015612bab573d6000803e3d6000fd5b505050506040513d601f19601f82011682018060405250810190612bcf9190614a2d565b60200151815260200190815260200160002060010160009054906101000a900462ffffff1662ffffff1682612c0491906141dd565b91508080600101915050612aee565b508092505050919050565b6000612c286107e5565b90506000806000806000612c3b87613278565b94509450945094509450600086600001604051612c5790613eb4565b908152602001604051809103902060009054906101000a900473ffffffffffffffffffffffffffffffffffffffff1690508073ffffffffffffffffffffffffffffffffffffffff1663a9059cbb8d8d6040518363ffffffff1660e01b8152600401612cc3929190614a5a565b6020604051808303816000875af1158015612ce2573d6000803e3d6000fd5b505050506040513d601f19601f82011682018060405250810190612d06919061400d565b508073ffffffffffffffffffffffffffffffffffffffff1663a9059cbb8b8b6040518363ffffffff1660e01b8152600401612d42929190614a5a565b6020604051808303816000875af1158015612d61573d6000803e3d6000fd5b505050506040513d601f19601f82011682018060405250810190612d85919061400d565b508073ffffffffffffffffffffffffffffffffffffffff1663a9059cbb88600001604051612db290614acf565b908152602001604051809103902060009054906101000a900473ffffffffffffffffffffffffffffffffffffffff16866040518363ffffffff1660e01b8152600401612dff929190614a5a565b6020604051808303816000875af1158015612e1e573d6000803e3d6000fd5b505050506040513d601f19601f82011682018060405250810190612e42919061400d565b508073ffffffffffffffffffffffffffffffffffffffff1663a9059cbb88600001604051612e6f90614b30565b908152602001604051809103902060009054906101000a900473ffffffffffffffffffffffffffffffffffffffff16876040518363ffffffff1660e01b8152600401612ebc929190614a5a565b6020604051808303816000875af1158015612edb573d6000803e3d6000fd5b505050506040513d601f19601f82011682018060405250810190612eff919061400d565b508073ffffffffffffffffffffffffffffffffffffffff1663a9059cbb88600001604051612f2c90614b91565b908152602001604051809103902060009054906101000a900473ffffffffffffffffffffffffffffffffffffffff16886040518363ffffffff1660e01b8152600401612f79929190614a5a565b6020604051808303816000875af1158015612f98573d6000803e3d6000fd5b505050506040513d601f19601f82011682018060405250810190612fbc919061400d565b5086600001604051612fcd90614b30565b908152602001604051809103902060009054906101000a900473ffffffffffffffffffffffffffffffffffffffff1673ffffffffffffffffffffffffffffffffffffffff1663b81d9a346000876040518363ffffffff1660e01b8152600401613037929190614ba6565b600060405180830381600087803b15801561305157600080fd5b505af1158015613065573d6000803e3d6000fd5b505050508660000160405161307990614b91565b908152602001604051809103902060009054906101000a900473ffffffffffffffffffffffffffffffffffffffff1673ffffffffffffffffffffffffffffffffffffffff16638bc2fa3a876040518263ffffffff1660e01b81526004016130e0919061364f565b600060405180830381600087803b1580156130fa57600080fd5b505af115801561310e573d6000803e3d6000fd5b505050508487602601600101600082825461312991906141dd565b925050819055508187602601600001600082825461314791906141dd565b925050819055508287602601600201600082825461316591906141dd565b92505081905550505050505050505050505050565b6000806131856107e5565b9050600042844160405160200161319e93929190614c73565b6040516020818303038152906040528051906020012090506000600160008460010160000160009054906101000a900462ffffff166131dd9190614cb0565b6131e79190614ce7565b62ffffff168260001c6131fa9190614d4d565b61320491906141dd565b92505050919050565b60008042854160405160200161322593929190614c73565b604051602081830303815290604052805190602001209050826001848661324c91906145d4565b61325691906141dd565b8260001c6132649190614d4d565b61326e91906141dd565b9150509392505050565b6000806000806000806132896107e5565b9050600060648260260160030160009054906101000a900462ffffff1662ffffff16896132b69190613f59565b6132c09190614d7e565b9050600060648360260160030160039054906101000a900462ffffff1662ffffff168a6132ed9190613f59565b6132f79190614d7e565b9050600060648460260160030160099054906101000a900462ffffff1662ffffff168b6133249190613f59565b61332e9190614d7e565b90506000606485602601600301600c9054906101000a900462ffffff1662ffffff168c61335b9190613f59565b6133659190614d7e565b9050600060648660260160030160069054906101000a900462ffffff1662ffffff168d6133929190613f59565b61339c9190614d7e565b905084848484849a509a509a509a509a5050505050505091939590929450565b6040518060e00160405280600060ff16815260200160608152602001600081526020016000815260200160008152602001600081526020016000151581525090565b6000819050919050565b613411816133fe565b82525050565b600060608201905061342c6000830186613408565b6134396020830185613408565b6134466040830184613408565b949350505050565b6000604051905090565b600080fd5b600080fd5b600060ff82169050919050565b61347881613462565b811461348357600080fd5b50565b6000813590506134958161346f565b92915050565b6000602082840312156134b1576134b0613458565b5b60006134bf84828501613486565b91505092915050565b6134d181613462565b82525050565b600081519050919050565b600082825260208201905092915050565b60005b838110156135115780820151818401526020810190506134f6565b60008484015250505050565b6000601f19601f8301169050919050565b6000613539826134d7565b61354381856134e2565b93506135538185602086016134f3565b61355c8161351d565b840191505092915050565b613570816133fe565b82525050565b60008115159050919050565b61358b81613576565b82525050565b600060e0830160008301516135a960008601826134c8565b50602083015184820360208601526135c1828261352e565b91505060408301516135d66040860182613567565b5060608301516135e96060860182613567565b5060808301516135fc6080860182613567565b5060a083015161360f60a0860182613567565b5060c083015161362260c0860182613582565b508091505092915050565b600060208201905081810360008301526136478184613591565b905092915050565b60006020820190506136646000830184613408565b92915050565b613673816133fe565b811461367e57600080fd5b50565b6000813590506136908161366a565b92915050565b600080fd5b7f4e487b7100000000000000000000000000000000000000000000000000000000600052604160045260246000fd5b6136d38261351d565b810181811067ffffffffffffffff821117156136f2576136f161369b565b5b80604052505050565b600061370561344e565b905061371182826136ca565b919050565b600067ffffffffffffffff8211156137315761373061369b565b5b602082029050602081019050919050565b600080fd5b600061375a61375584613716565b6136fb565b9050808382526020820190506020840283018581111561377d5761377c613742565b5b835b818110156137a657806137928882613681565b84526020840193505060208101905061377f565b5050509392505050565b600082601f8301126137c5576137c4613696565b5b81356137d5848260208601613747565b91505092915050565b600080604083850312156137f5576137f4613458565b5b600061380385828601613681565b925050602083013567ffffffffffffffff8111156138245761382361345d565b5b613830858286016137b0565b9150509250929050565b61384381613576565b82525050565b600060208201905061385e600083018461383a565b92915050565b6000806040838503121561387b5761387a613458565b5b600061388985828601613681565b925050602061389a85828601613681565b9150509250929050565b6000602082840312156138ba576138b9613458565b5b60006138c884828501613681565b91505092915050565b600082825260208201905092915050565b60006138ed826134d7565b6138f781856138d1565b93506139078185602086016134f3565b6139108161351d565b840191505092915050565b6000604082019050818103600083015261393581856138e2565b90506139446020830184613408565b9392505050565b60006040820190506139606000830185613408565b61396d6020830184613408565b9392505050565b600081905092915050565b7f6462000000000000000000000000000000000000000000000000000000000000600082015250565b60006139b5600283613974565b91506139c08261397f565b600282019050919050565b60006139d6826139a8565b9150819050919050565b6000815190506139ef8161366a565b92915050565b600080600060608486031215613a0e57613a0d613458565b5b6000613a1c868287016139e0565b9350506020613a2d868287016139e0565b9250506040613a3e868287016139e0565b9150509250925092565b7f4e487b7100000000000000000000000000000000000000000000000000000000600052602260045260246000fd5b60006002820490506001821680613a8f57607f821691505b602082108103613aa257613aa1613a48565b5b50919050565b600060208284031215613abe57613abd613458565b5b6000613acc848285016139e0565b91505092915050565b7f7030000000000000000000000000000000000000000000000000000000000000600082015250565b6000613b0b600283613974565b9150613b1682613ad5565b600282019050919050565b6000613b2c82613afe565b9150819050919050565b600080fd5b600067ffffffffffffffff821115613b5657613b5561369b565b5b613b5f8261351d565b9050602081019050919050565b6000613b7f613b7a84613b3b565b6136fb565b905082815260208101848484011115613b9b57613b9a613b36565b5b613ba68482856134f3565b509392505050565b600082601f830112613bc357613bc2613696565b5b8151613bd3848260208601613b6c565b91505092915050565b60008060408385031215613bf357613bf2613458565b5b600083015167ffffffffffffffff811115613c1157613c1061345d565b5b613c1d85828601613bae565b9250506020613c2e858286016139e0565b9150509250929050565b7f6169656e00000000000000000000000000000000000000000000000000000000600082015250565b6000613c6e600483613974565b9150613c7982613c38565b600482019050919050565b6000613c8f82613c61565b9150819050919050565b600073ffffffffffffffffffffffffffffffffffffffff82169050919050565b6000613cc482613c99565b9050919050565b613cd481613cb9565b8114613cdf57600080fd5b50565b600081519050613cf181613ccb565b92915050565b600060208284031215613d0d57613d0c613458565b5b6000613d1b84828501613ce2565b91505092915050565b7f6e6f74206f776e65720000000000000000000000000000000000000000000000600082015250565b6000613d5a6009836138d1565b9150613d6582613d24565b602082019050919050565b60006020820190508181036000830152613d8981613d4d565b9050919050565b7f6475706c69636174652070662069640000000000000000000000000000000000600082015250565b6000613dc6600f836138d1565b9150613dd182613d90565b602082019050919050565b60006020820190508181036000830152613df581613db9565b9050919050565b7f6e6f74206f776e6572206f6620706572667269656e6473000000000000000000600082015250565b6000613e326017836138d1565b9150613e3d82613dfc565b602082019050919050565b60006020820190508181036000830152613e6181613e25565b9050919050565b7f7065720000000000000000000000000000000000000000000000000000000000600082015250565b6000613e9e600383613974565b9150613ea982613e68565b600382019050919050565b6000613ebf82613e91565b9150819050919050565b7f6469737472696275746500000000000000000000000000000000000000000000600082015250565b6000613eff600a83613974565b9150613f0a82613ec9565b600a82019050919050565b6000613f2082613ef2565b9150819050919050565b7f4e487b7100000000000000000000000000000000000000000000000000000000600052601160045260246000fd5b6000613f64826133fe565b9150613f6f836133fe565b9250828202613f7d816133fe565b91508282048414831517613f9457613f93613f2a565b5b5092915050565b613fa481613cb9565b82525050565b6000606082019050613fbf6000830186613f9b565b613fcc6020830185613f9b565b613fd96040830184613408565b949350505050565b613fea81613576565b8114613ff557600080fd5b50565b60008151905061400781613fe1565b92915050565b60006020828403121561402357614022613458565b5b600061403184828501613ff8565b91505092915050565b7f706572667269656e647300000000000000000000000000000000000000000000600082015250565b6000614070600a83613974565b915061407b8261403a565b600a82019050919050565b600061409182614063565b9150819050919050565b7f4e487b7100000000000000000000000000000000000000000000000000000000600052603260045260246000fd5b600080fd5b600061012082840312156140e6576140e56140ca565b5b6140f16101206136fb565b90506000614101848285016139e0565b6000830152506020614115848285016139e0565b6020830152506040614129848285016139e0565b604083015250606061413d848285016139e0565b6060830152506080614151848285016139e0565b60808301525060a0614165848285016139e0565b60a08301525060c0614179848285016139e0565b60c08301525060e061418d848285016139e0565b60e0830152506101006141a2848285016139e0565b6101008301525092915050565b600061012082840312156141c6576141c5613458565b5b60006141d4848285016140cf565b91505092915050565b60006141e8826133fe565b91506141f3836133fe565b925082820190508082111561420b5761420a613f2a565b5b92915050565b6000819050919050565b6000819050919050565b600061424061423b61423684614211565b61421b565b6133fe565b9050919050565b61425081614225565b82525050565b60006101208201905061426c600083018c613408565b614279602083018b613408565b614286604083018a613408565b6142936060830189613408565b6142a06080830188613408565b6142ad60a0830187613408565b6142ba60c0830186614247565b6142c760e0830185613408565b6142d5610100830184613408565b9a9950505050505050505050565b600081519050919050565b600082825260208201905092915050565b6000819050602082019050919050565b600061431b8383613567565b60208301905092915050565b6000602082019050919050565b600061433f826142e3565b61434981856142ee565b9350614354836142ff565b8060005b8381101561438557815161436c888261430f565b975061437783614327565b925050600181019050614358565b5085935050505092915050565b60006040820190506143a76000830185613408565b81810360208301526143b98184614334565b90509392505050565b7f6e6f74207072656d69756d206c6576656c000000000000000000000000000000600082015250565b60006143f86011836138d1565b9150614403826143c2565b602082019050919050565b60006020820190508181036000830152614427816143eb565b9050919050565b7f6e6f74206f70656e000000000000000000000000000000000000000000000000600082015250565b60006144646008836138d1565b915061446f8261442e565b602082019050919050565b6000602082019050818103600083015261449381614457565b9050919050565b600080600080608085870312156144b4576144b3613458565b5b60006144c287828801613ce2565b94505060206144d387828801613ce2565b93505060406144e4878288016139e0565b92505060606144f5878288016139e0565b91505092959194509250565b7f6974656d00000000000000000000000000000000000000000000000000000000600082015250565b6000614537600483613974565b915061454282614501565b600482019050919050565b60006145588261452a565b9150819050919050565b6000819050919050565b600061458761458261457d84614562565b61421b565b6133fe565b9050919050565b6145978161456c565b82525050565b60006060820190506145b26000830186613f9b565b6145bf6020830185613408565b6145cc604083018461458e565b949350505050565b60006145df826133fe565b91506145ea836133fe565b925082820390508181111561460257614601613f2a565b5b92915050565b600060808201905061461d600083018761458e565b61462a602083018661383a565b6146376040830185613408565b6146446060830184613408565b95945050505050565b600062ffffff82169050919050565b600061467761467261466d8461464d565b61421b565b6133fe565b9050919050565b6146878161465c565b82525050565b600060c0820190506146a26000830189613408565b6146af6020830188613408565b6146bc6040830187613408565b6146c96060830186613408565b6146d6608083018561467e565b6146e360a0830184613408565b979650505050505050565b600060a0820190506147036000830188613408565b6147106020830187613408565b61471d6040830186613408565b61472a6060830185613408565b6147376080830184613408565b9695505050505050565b60008060008060008060c0878903121561475e5761475d613458565b5b600061476c89828a016139e0565b965050602061477d89828a01613ce2565b955050604061478e89828a016139e0565b945050606061479f89828a01613ce2565b93505060806147b089828a016139e0565b92505060a06147c189828a016139e0565b9150509295509295509295565b60006080820190506147e36000830187613f9b565b6147f06020830186613408565b6147fd6040830185613f9b565b61480a6060830184613408565b95945050505050565b60006060820190506148286000830186613f9b565b6148356020830185613408565b6148426040830184613408565b949350505050565b600060608201905061485f6000830186613f9b565b61486c6020830185613408565b6148796040830184614247565b949350505050565b6000806040838503121561489857614897613458565b5b60006148a6858286016139e0565b925050602083015167ffffffffffffffff8111156148c7576148c661345d565b5b6148d385828601613bae565b9150509250929050565b600081519050919050565b600082825260208201905092915050565b6000614904826148dd565b61490e81856148e8565b935061491e8185602086016134f3565b6149278161351d565b840191505092915050565b60006080820190506149476000830187613408565b6149546020830186613408565b614961604083018561458e565b818103606083015261497381846148f9565b905095945050505050565b6000606082019050614993600083018661458e565b6149a0602083018561383a565b6149ad6040830184613408565b949350505050565b6000608082840312156149cb576149ca6140ca565b5b6149d560806136fb565b905060006149e5848285016139e0565b60008301525060206149f9848285016139e0565b6020830152506040614a0d84828501613ff8565b6040830152506060614a21848285016139e0565b60608301525092915050565b600060808284031215614a4357614a42613458565b5b6000614a51848285016149b5565b91505092915050565b6000604082019050614a6f6000830185613f9b565b614a7c6020830184613408565b9392505050565b7f6275726e00000000000000000000000000000000000000000000000000000000600082015250565b6000614ab9600483613974565b9150614ac482614a83565b600482019050919050565b6000614ada82614aac565b9150819050919050565b7f7032000000000000000000000000000000000000000000000000000000000000600082015250565b6000614b1a600283613974565b9150614b2582614ae4565b600282019050919050565b6000614b3b82614b0d565b9150819050919050565b7f7031000000000000000000000000000000000000000000000000000000000000600082015250565b6000614b7b600283613974565b9150614b8682614b45565b600282019050919050565b6000614b9c82614b6e565b9150819050919050565b6000604082019050614bbb6000830185614247565b614bc86020830184613408565b9392505050565b6000819050919050565b614bea614be5826133fe565b614bcf565b82525050565b60008160601b9050919050565b6000614c0882614bf0565b9050919050565b6000614c1a82614bfd565b9050919050565b614c32614c2d82613cb9565b614c0f565b82525050565b6000614c4382613c99565b9050919050565b6000614c5582614bfd565b9050919050565b614c6d614c6882614c38565b614c4a565b82525050565b6000614c7f8286614bd9565b602082019150614c8f8285614c21565b601482019150614c9f8284614c5c565b601482019150819050949350505050565b6000614cbb8261464d565b9150614cc68361464d565b9250828203905062ffffff811115614ce157614ce0613f2a565b5b92915050565b6000614cf28261464d565b9150614cfd8361464d565b9250828201905062ffffff811115614d1857614d17613f2a565b5b92915050565b7f4e487b7100000000000000000000000000000000000000000000000000000000600052601260045260246000fd5b6000614d58826133fe565b9150614d63836133fe565b925082614d7357614d72614d1e565b5b828206905092915050565b6000614d89826133fe565b9150614d94836133fe565b925082614da457614da3614d1e565b5b82820490509291505056fea264697066735822122018ffa71407d8dc8e04dd439efc48541ed10692086933fc61dac49ec12ff4957864736f6c63430008160033",
  "devdoc": {
    "details": "i-TEZ : P0 (Mix) Facet Contract",
    "kind": "dev",
    "methods": {},
    "version": 1
  },
  "userdoc": {
    "kind": "user",
    "methods": {
      "P0_getMaxProb()": {
        "notice": "P0 _ get functions"
      }
    },
    "version": 1
  },
  "storageLayout": {
    "storage": [],
    "types": null
  }
}