{
  "address": "0x8c78e4be9Fb6E39774Bd367c2B39c46DF888B306",
  "abi": [
    {
      "anonymous": false,
      "inputs": [
        {
          "indexed": true,
          "internalType": "address",
          "name": "to",
          "type": "address"
        },
        {
          "indexed": true,
          "internalType": "uint256",
          "name": "aienId",
          "type": "uint256"
        },
        {
          "indexed": true,
          "internalType": "uint256",
          "name": "payment",
          "type": "uint256"
        },
        {
          "indexed": false,
          "internalType": "uint256",
          "name": "addProb",
          "type": "uint256"
        },
        {
          "indexed": false,
          "internalType": "uint256[]",
          "name": "perfs",
          "type": "uint256[]"
        }
      ],
      "name": "P0_AddProb_Event",
      "type": "event"
    },
    {
      "anonymous": false,
      "inputs": [
        {
          "indexed": true,
          "internalType": "address",
          "name": "to",
          "type": "address"
        },
        {
          "indexed": true,
          "internalType": "uint256",
          "name": "aienId",
          "type": "uint256"
        },
        {
          "indexed": true,
          "internalType": "uint256",
          "name": "itemId",
          "type": "uint256"
        },
        {
          "indexed": false,
          "internalType": "uint256",
          "name": "itemAmount",
          "type": "uint256"
        },
        {
          "indexed": false,
          "internalType": "bool",
          "name": "isLevelUp",
          "type": "bool"
        },
        {
          "indexed": false,
          "internalType": "uint256",
          "name": "payment",
          "type": "uint256"
        }
      ],
      "name": "P0_BaseMix_Event",
      "type": "event"
    },
    {
      "anonymous": false,
      "inputs": [
        {
          "indexed": true,
          "internalType": "address",
          "name": "to",
          "type": "address"
        },
        {
          "indexed": true,
          "internalType": "uint256",
          "name": "perfId",
          "type": "uint256"
        },
        {
          "indexed": true,
          "internalType": "uint256",
          "name": "itemId",
          "type": "uint256"
        },
        {
          "indexed": false,
          "internalType": "uint256",
          "name": "itemAmount",
          "type": "uint256"
        },
        {
          "indexed": false,
          "internalType": "uint256",
          "name": "payment",
          "type": "uint256"
        },
        {
          "indexed": false,
          "internalType": "uint256",
          "name": "perfGrade",
          "type": "uint256"
        },
        {
          "indexed": false,
          "internalType": "bytes",
          "name": "perfURI",
          "type": "bytes"
        }
      ],
      "name": "P0_ItemMerge_Event",
      "type": "event"
    },
    {
      "anonymous": false,
      "inputs": [
        {
          "indexed": true,
          "internalType": "address",
          "name": "to",
          "type": "address"
        },
        {
          "indexed": true,
          "internalType": "uint256",
          "name": "aienId",
          "type": "uint256"
        },
        {
          "indexed": true,
          "internalType": "uint256",
          "name": "itemId",
          "type": "uint256"
        },
        {
          "indexed": false,
          "internalType": "uint256",
          "name": "itemAmount",
          "type": "uint256"
        },
        {
          "indexed": false,
          "internalType": "bool",
          "name": "isLevelUp",
          "type": "bool"
        },
        {
          "indexed": false,
          "internalType": "uint256",
          "name": "payment",
          "type": "uint256"
        },
        {
          "indexed": false,
          "internalType": "uint256",
          "name": "usePower",
          "type": "uint256"
        }
      ],
      "name": "P0_PremiumMix_Event",
      "type": "event"
    },
    {
      "inputs": [
        {
          "internalType": "uint256",
          "name": "_aienId",
          "type": "uint256"
        },
        {
          "internalType": "uint256[]",
          "name": "_pf_Ids",
          "type": "uint256[]"
        }
      ],
      "name": "P0_addProbCall",
      "outputs": [
        {
          "internalType": "bool",
          "name": "",
          "type": "bool"
        }
      ],
      "stateMutability": "nonpayable",
      "type": "function"
    },
    {
      "inputs": [
        {
          "internalType": "uint256",
          "name": "_id",
          "type": "uint256"
        },
        {
          "internalType": "uint256",
          "name": "_useItemId",
          "type": "uint256"
        }
      ],
      "name": "P0_baseMixCall",
      "outputs": [
        {
          "internalType": "bool",
          "name": "",
          "type": "bool"
        }
      ],
      "stateMutability": "nonpayable",
      "type": "function"
    },
    {
      "inputs": [],
      "name": "P0_basicMergeAmount",
      "outputs": [
        {
          "internalType": "uint256",
          "name": "",
          "type": "uint256"
        }
      ],
      "stateMutability": "view",
      "type": "function"
    },
    {
      "inputs": [],
      "name": "P0_getAddProbFee",
      "outputs": [
        {
          "internalType": "uint256",
          "name": "",
          "type": "uint256"
        }
      ],
      "stateMutability": "view",
      "type": "function"
    },
    {
      "inputs": [],
      "name": "P0_getCurrentMergeStates",
      "outputs": [
        {
          "components": [
            {
              "internalType": "uint8",
              "name": "grade",
              "type": "uint8"
            },
            {
              "internalType": "string",
              "name": "gradeName",
              "type": "string"
            },
            {
              "internalType": "uint256",
              "name": "mergeFee",
              "type": "uint256"
            },
            {
              "internalType": "uint256",
              "name": "mergeUseItemAmount",
              "type": "uint256"
            },
            {
              "internalType": "uint256",
              "name": "latestId",
              "type": "uint256"
            },
            {
              "internalType": "uint256",
              "name": "setMatadataId",
              "type": "uint256"
            },
            {
              "internalType": "bool",
              "name": "isOpen",
              "type": "bool"
            }
          ],
          "internalType": "struct P0_MergePfGrade[]",
          "name": "",
          "type": "tuple[]"
        }
      ],
      "stateMutability": "view",
      "type": "function"
    },
    {
      "inputs": [],
      "name": "P0_getMaxProb",
      "outputs": [
        {
          "internalType": "uint256",
          "name": "",
          "type": "uint256"
        }
      ],
      "stateMutability": "view",
      "type": "function"
    },
    {
      "inputs": [
        {
          "internalType": "uint256",
          "name": "_itemId",
          "type": "uint256"
        }
      ],
      "name": "P0_getMergeState",
      "outputs": [
        {
          "internalType": "uint256",
          "name": "",
          "type": "uint256"
        },
        {
          "internalType": "uint256",
          "name": "",
          "type": "uint256"
        }
      ],
      "stateMutability": "view",
      "type": "function"
    },
    {
      "inputs": [
        {
          "internalType": "uint8",
          "name": "_grade",
          "type": "uint8"
        }
      ],
      "name": "P0_getMergeStates",
      "outputs": [
        {
          "components": [
            {
              "internalType": "uint8",
              "name": "grade",
              "type": "uint8"
            },
            {
              "internalType": "string",
              "name": "gradeName",
              "type": "string"
            },
            {
              "internalType": "uint256",
              "name": "mergeFee",
              "type": "uint256"
            },
            {
              "internalType": "uint256",
              "name": "mergeUseItemAmount",
              "type": "uint256"
            },
            {
              "internalType": "uint256",
              "name": "latestId",
              "type": "uint256"
            },
            {
              "internalType": "uint256",
              "name": "setMatadataId",
              "type": "uint256"
            },
            {
              "internalType": "bool",
              "name": "isOpen",
              "type": "bool"
            }
          ],
          "internalType": "struct P0_MergePfGrade",
          "name": "",
          "type": "tuple"
        }
      ],
      "stateMutability": "view",
      "type": "function"
    },
    {
      "inputs": [],
      "name": "P0_getMetadataMargin",
      "outputs": [
        {
          "internalType": "uint256",
          "name": "",
          "type": "uint256"
        },
        {
          "internalType": "uint256",
          "name": "",
          "type": "uint256"
        },
        {
          "internalType": "uint256",
          "name": "",
          "type": "uint256"
        }
      ],
      "stateMutability": "view",
      "type": "function"
    },
    {
      "inputs": [],
      "name": "P0_influencerMergeAmount",
      "outputs": [
        {
          "internalType": "uint256",
          "name": "",
          "type": "uint256"
        }
      ],
      "stateMutability": "view",
      "type": "function"
    },
    {
      "inputs": [
        {
          "internalType": "uint256",
          "name": "_itemId",
          "type": "uint256"
        },
        {
          "internalType": "uint256",
          "name": "_itemAmount",
          "type": "uint256"
        },
        {
          "internalType": "uint8",
          "name": "_grade",
          "type": "uint8"
        }
      ],
      "name": "P0_itemGradeMerge",
      "outputs": [],
      "stateMutability": "nonpayable",
      "type": "function"
    },
    {
      "inputs": [
        {
          "internalType": "uint256",
          "name": "_itemId",
          "type": "uint256"
        },
        {
          "internalType": "uint256",
          "name": "_itemAmount",
          "type": "uint256"
        }
      ],
      "name": "P0_itemMerge",
      "outputs": [],
      "stateMutability": "nonpayable",
      "type": "function"
    },
    {
      "inputs": [
        {
          "internalType": "uint256",
          "name": "_level",
          "type": "uint256"
        }
      ],
      "name": "P0_mixPFInfos",
      "outputs": [
        {
          "internalType": "string",
          "name": "",
          "type": "string"
        },
        {
          "internalType": "uint256",
          "name": "",
          "type": "uint256"
        }
      ],
      "stateMutability": "view",
      "type": "function"
    },
    {
      "inputs": [
        {
          "internalType": "uint256",
          "name": "_id",
          "type": "uint256"
        },
        {
          "internalType": "uint256",
          "name": "_useItemId",
          "type": "uint256"
        }
      ],
      "name": "P0_premiumMixCall",
      "outputs": [
        {
          "internalType": "bool",
          "name": "",
          "type": "bool"
        }
      ],
      "stateMutability": "nonpayable",
      "type": "function"
    }
  ],
  "transactionHash": "0x783ae09976a8709f65aa7384347627140ddcfb8dd74d6e66c10dddc55f39615e",
  "args": [],
  "numDeployments": 47,
  "solcInputHash": "4450a129486081b872f85e38429e2c90",
  "bytecode": "0x608060405234801561001057600080fd5b50615fa880620000216000396000f3fe608060405234801561001057600080fd5b50600436106100ea5760003560e01c8063ce47adfa1161008c578063ddb2bedf11610066578063ddb2bedf14610264578063e488a83a14610280578063f3ebac57146102b0578063f6afa847146102ce576100ea565b8063ce47adfa146101f7578063d2236a5414610228578063d229a39214610246576100ea565b806355f939d9116100c857806355f939d91461015d5780636a60affb1461017b5780636d1d105e146101975780637174e258146101c7576100ea565b80630b0e517a146100ef5780632b2dc69e1461010f5780633576742f1461013f575b600080fd5b6100f76102ff565b6040516101069392919061405e565b60405180910390f35b610129600480360381019061012491906140e2565b6103c8565b6040516101369190614274565b60405180910390f35b6101476104fc565b6040516101549190614296565b60405180910390f35b6101656105bc565b604051610172919061440f565b60405180910390f35b6101956004803603810190610190919061445d565b6107f9565b005b6101b160048036038101906101ac91906145f8565b610817565b6040516101be9190614663565b60405180910390f35b6101e160048036038101906101dc919061467e565b610843565b6040516101ee9190614663565b60405180910390f35b610211600480360381019061020c91906146be565b610870565b60405161021f929190614735565b60405180910390f35b610230610946565b60405161023d9190614296565b60405180910390f35b61024e610955565b60405161025b9190614296565b60405180910390f35b61027e6004803603810190610279919061467e565b610a15565b005b61029a6004803603810190610295919061467e565b610a3e565b6040516102a79190614663565b60405180910390f35b6102b8610a6c565b6040516102c59190614296565b60405180910390f35b6102e860048036038101906102e391906146be565b610a9b565b6040516102f6929190614765565b60405180910390f35b60008060008061030d610ab0565b90508060000160405161031f906147e5565b908152602001604051809103902060009054906101000a900473ffffffffffffffffffffffffffffffffffffffff1673ffffffffffffffffffffffffffffffffffffffff1663f9db98966040518163ffffffff1660e01b8152600401606060405180830381865afa158015610398573d6000803e3d6000fd5b505050506040513d601f19601f820116820180604052508101906103bc919061480f565b93509350935050909192565b6103d0614003565b60006103da610ab0565b905080602d0160008460ff1660ff1681526020019081526020016000206040518060e00160405290816000820160009054906101000a900460ff1660ff1660ff16815260200160018201805461042f90614891565b80601f016020809104026020016040519081016040528092919081815260200182805461045b90614891565b80156104a85780601f1061047d576101008083540402835291602001916104a8565b820191906000526020600020905b81548152906001019060200180831161048b57829003601f168201915b50505050508152602001600282015481526020016003820154815260200160048201548152602001600582015481526020016006820160009054906101000a900460ff161515151581525050915050919050565b600080610507610ab0565b905080600001604051610519906147e5565b908152602001604051809103902060009054906101000a900473ffffffffffffffffffffffffffffffffffffffff1673ffffffffffffffffffffffffffffffffffffffff1663340c2acd6040518163ffffffff1660e01b8152600401602060405180830381865afa158015610592573d6000803e3d6000fd5b505050506040513d601f19601f820116820180604052508101906105b691906148c2565b91505090565b606060006105c8610ab0565b9050600080600190505b600b8160ff1610156106275782602d0160008260ff1660ff16815260200190815260200160002060060160009054906101000a900460ff166106145781610619565b809150815b5080806001019150506105d2565b5060008160ff1667ffffffffffffffff811115610647576106466144b5565b5b60405190808252806020026020018201604052801561068057816020015b61066d614003565b8152602001906001900390816106655790505b5090506000600190505b8260ff168160ff16116107ef5783602d0160008260ff1660ff1681526020019081526020016000206040518060e00160405290816000820160009054906101000a900460ff1660ff1660ff1681526020016001820180546106ea90614891565b80601f016020809104026020016040519081016040528092919081815260200182805461071690614891565b80156107635780601f1061073857610100808354040283529160200191610763565b820191906000526020600020905b81548152906001019060200180831161074657829003601f168201915b50505050508152602001600282015481526020016003820154815260200160048201548152602001600582015481526020016006820160009054906101000a900460ff161515151581525050826001836107bd919061491e565b60ff16815181106107d1576107d0614953565b5b602002602001018190525080806107e790614982565b91505061068a565b5080935050505090565b6000610803610ab5565b905061081181858585610b65565b50505050565b600080610822610ab0565b9050600061082e610ab5565b905061083b818686611086565b505092915050565b60008061084e610ab0565b9050600061085a610ab5565b90506108678186866117ff565b50505092915050565b606060008061087d610ab0565b90508060000160405161088f906149f7565b908152602001604051809103902060009054906101000a900473ffffffffffffffffffffffffffffffffffffffff1673ffffffffffffffffffffffffffffffffffffffff166316dba26f856040518263ffffffff1660e01b81526004016108f69190614296565b600060405180830381865afa158015610913573d6000803e3d6000fd5b505050506040513d6000823e3d601f19601f8201168201806040525081019061093c9190614ab2565b9250925050915091565b600061095061218f565b905090565b600080610960610ab0565b905080600001604051610972906147e5565b908152602001604051809103902060009054906101000a900473ffffffffffffffffffffffffffffffffffffffff1673ffffffffffffffffffffffffffffffffffffffff1663f6e5f5006040518163ffffffff1660e01b8152600401602060405180830381865afa1580156109eb573d6000803e3d6000fd5b505050506040513d601f19601f82011682018060405250810190610a0f91906148c2565b91505090565b6000610a1f610ab0565b90506000610a2b610ab5565b9050610a3881858561224f565b50505050565b600080610a49610ab0565b90506000610a55610ab5565b9050610a628186866127b4565b9250505092915050565b600080610a77610ab0565b90508060010160000160009054906101000a900462ffffff1662ffffff1691505090565b600080610aa7836130bf565b91509150915091565b600090565b60003073ffffffffffffffffffffffffffffffffffffffff163373ffffffffffffffffffffffffffffffffffffffff1603610b5e57600080368080601f016020809104026020016040519081016040528093929190818152602001838380828437600081840152601f19601f820116905080830192505050505050509050600080369050905073ffffffffffffffffffffffffffffffffffffffff818301511692505050610b62565b3390505b90565b6000610b6f610ab0565b9050600081602d0160008460ff1660ff1681526020019081526020016000209050600082602e016000836004015481526020019081526020016000208054610bb690614891565b80601f0160208091040260200160405190810160405280929190818152602001828054610be290614891565b8015610c2f5780601f10610c0457610100808354040283529160200191610c2f565b820191906000526020600020905b815481529060010190602001808311610c1257829003601f168201915b505050505090508160060160009054906101000a900460ff16610c87576040517f08c379a0000000000000000000000000000000000000000000000000000000008152600401610c7e90614b5a565b60405180910390fd5b600080600080600080610c9a8c8b61319f565b95509550955095509550955088600001604051610cb6906147e5565b908152602001604051809103902060009054906101000a900473ffffffffffffffffffffffffffffffffffffffff1673ffffffffffffffffffffffffffffffffffffffff16638c4b4b42848488886040518563ffffffff1660e01b8152600401610d239493929190614bbb565b600060405180830381600087803b158015610d3d57600080fd5b505af1158015610d51573d6000803e3d6000fd5b50505050808b14610d97576040517f08c379a0000000000000000000000000000000000000000000000000000000008152600401610d8e90614c4c565b60405180910390fd5b88600001604051610da790614cb8565b908152602001604051809103902060009054906101000a900473ffffffffffffffffffffffffffffffffffffffff1673ffffffffffffffffffffffffffffffffffffffff1663f5298aca8e8e846040518463ffffffff1660e01b8152600401610e1293929190614ccd565b600060405180830381600087803b158015610e2c57600080fd5b505af1158015610e40573d6000803e3d6000fd5b5050505088600001604051610e5490614d50565b908152602001604051809103902060009054906101000a900473ffffffffffffffffffffffffffffffffffffffff1673ffffffffffffffffffffffffffffffffffffffff166323b872dd8e8b600001604051610eaf90614db1565b908152602001604051809103902060009054906101000a900473ffffffffffffffffffffffffffffffffffffffff16896040518463ffffffff1660e01b8152600401610efd93929190614dc6565b6020604051808303816000875af1158015610f1c573d6000803e3d6000fd5b505050506040513d601f19601f82011682018060405250810190610f409190614e29565b50610f4e838387878a61353e565b88600001604051610f5e906147e5565b908152602001604051809103902060009054906101000a900473ffffffffffffffffffffffffffffffffffffffff1673ffffffffffffffffffffffffffffffffffffffff1663562034cc8e8a600401548a8e6040518563ffffffff1660e01b8152600401610fcf9493929190614e65565b600060405180830381600087803b158015610fe957600080fd5b505af1158015610ffd573d6000803e3d6000fd5b505050508b88600401548e73ffffffffffffffffffffffffffffffffffffffff167f2b5c6da75471a32fa816831df06c6a172203625ece9bf5c72a71f67c6aabff81848a8f8d6040516110539493929190614f41565b60405180910390a460018860040160008282546110709190614f8d565b9250508190555050505050505050505050505050565b6000611090610ab0565b90508373ffffffffffffffffffffffffffffffffffffffff16816000016040516110b99061500d565b908152602001604051809103902060009054906101000a900473ffffffffffffffffffffffffffffffffffffffff1673ffffffffffffffffffffffffffffffffffffffff16636352211e856040518263ffffffff1660e01b81526004016111209190614296565b602060405180830381865afa15801561113d573d6000803e3d6000fd5b505050506040513d601f19601f82011682018060405250810190611161919061504e565b73ffffffffffffffffffffffffffffffffffffffff16146111b7576040517f08c379a00000000000000000000000000000000000000000000000000000000081526004016111ae906150c7565b60405180910390fd5b600015156111c483613a9a565b151514611206576040517f08c379a00000000000000000000000000000000000000000000000000000000081526004016111fd90615133565b60405180910390fd5b600115156112148584613b3e565b151514611256576040517f08c379a000000000000000000000000000000000000000000000000000000000815260040161124d9061519f565b60405180910390fd5b600061126183613c80565b90508160000160405161127390614d50565b908152602001604051809103902060009054906101000a900473ffffffffffffffffffffffffffffffffffffffff1673ffffffffffffffffffffffffffffffffffffffff166323b872dd86846000016040516112ce90614db1565b908152602001604051809103902060009054906101000a900473ffffffffffffffffffffffffffffffffffffffff168651866001016001015461131191906151bf565b6040518463ffffffff1660e01b815260040161132f93929190614dc6565b6020604051808303816000875af115801561134e573d6000803e3d6000fd5b505050506040513d601f19601f820116820180604052508101906113729190614e29565b5060005b8351811015611512578260000160405161138f9061524d565b908152602001604051809103902060009054906101000a900473ffffffffffffffffffffffffffffffffffffffff1673ffffffffffffffffffffffffffffffffffffffff166342966c688583815181106113ec576113eb614953565b5b60200260200101516040518263ffffffff1660e01b81526004016114109190614296565b600060405180830381600087803b15801561142a57600080fd5b505af115801561143e573d6000803e3d6000fd5b5050505082600001604051611452906147e5565b908152602001604051809103902060009054906101000a900473ffffffffffffffffffffffffffffffffffffffff1673ffffffffffffffffffffffffffffffffffffffff1663c2a6a0628583815181106114af576114ae614953565b5b60200260200101516040518263ffffffff1660e01b81526004016114d39190614296565b600060405180830381600087803b1580156114ed57600080fd5b505af1158015611501573d6000803e3d6000fd5b505050508080600101915050611376565b50600082600001604051611525906147e5565b908152602001604051809103902060009054906101000a900473ffffffffffffffffffffffffffffffffffffffff1673ffffffffffffffffffffffffffffffffffffffff16631c4de8d7866040518263ffffffff1660e01b815260040161158c9190614296565b61012060405180830381865afa1580156115aa573d6000803e3d6000fd5b505050506040513d601f19601f820116820180604052508101906115ce9190615347565b9050826000016040516115e0906147e5565b908152602001604051809103902060009054906101000a900473ffffffffffffffffffffffffffffffffffffffff1673ffffffffffffffffffffffffffffffffffffffff1663a02db9a0868360200151846040015188518860010160020160009054906101000a900461ffff1661ffff1661165b91906151bf565b866060015161166a9190614f8d565b86608001518760a0015160008960e001518b8b610100015161168c9190614f8d565b6040518a63ffffffff1660e01b81526004016116b0999897969594939291906153b0565b600060405180830381600087803b1580156116ca57600080fd5b505af11580156116de573d6000803e3d6000fd5b5050505061179e836000016040516116f590615489565b908152602001604051809103902060009054906101000a900473ffffffffffffffffffffffffffffffffffffffff16600a8651866001016001015461173a91906151bf565b61174491906154cd565b8560000160405161175490615489565b908152602001604051809103902060009054906101000a900473ffffffffffffffffffffffffffffffffffffffff1660008851886001016001015461179991906151bf565b61353e565b8260010160010154858773ffffffffffffffffffffffffffffffffffffffff167f99cb040f26b9f8ab0196325428931da1473bc4b7e3f5477d08e93c1713bc051385886040516117ef9291906155ad565b60405180910390a4505050505050565b60008061180a610ab0565b905060008160000160405161181e906147e5565b908152602001604051809103902060009054906101000a900473ffffffffffffffffffffffffffffffffffffffff1673ffffffffffffffffffffffffffffffffffffffff16631c4de8d7866040518263ffffffff1660e01b81526004016118859190614296565b61012060405180830381865afa1580156118a3573d6000803e3d6000fd5b505050506040513d601f19601f820116820180604052508101906118c79190615347565b90506000816040015103611910576040517f08c379a000000000000000000000000000000000000000000000000000000000815260040161190790615629565b60405180910390fd5b60011515826004018260400151600b811061192e5761192d614953565b5b6003020160000160009054906101000a900460ff16151514611985576040517f08c379a000000000000000000000000000000000000000000000000000000000815260040161197c90615695565b60405180910390fd5b6000806000808560000160405161199b906147e5565b908152602001604051809103902060009054906101000a900473ffffffffffffffffffffffffffffffffffffffff1673ffffffffffffffffffffffffffffffffffffffff16637bcb71a689886004018860400151600b8110611a00576119ff614953565b5b60030201600101546040518363ffffffff1660e01b8152600401611a25929190614765565b6080604051808303816000875af1158015611a44573d6000803e3d6000fd5b505050506040513d601f19601f82011682018060405250810190611a6891906156b5565b935093509350935085600001604051611a8090614cb8565b908152602001604051809103902060009054906101000a900473ffffffffffffffffffffffffffffffffffffffff1673ffffffffffffffffffffffffffffffffffffffff1663f5298aca8b8a60016040518463ffffffff1660e01b8152600401611aec93929190615757565b600060405180830381600087803b158015611b0657600080fd5b505af1158015611b1a573d6000803e3d6000fd5b5050505085600001604051611b2e90614d50565b908152602001604051809103902060009054906101000a900473ffffffffffffffffffffffffffffffffffffffff1673ffffffffffffffffffffffffffffffffffffffff166323b872dd8b88600001604051611b8990614db1565b908152602001604051809103902060009054906101000a900473ffffffffffffffffffffffffffffffffffffffff16896004018960400151600b8110611bd257611bd1614953565b5b60030201600101546040518463ffffffff1660e01b8152600401611bf893929190614dc6565b6020604051808303816000875af1158015611c17573d6000803e3d6000fd5b505050506040513d601f19601f82011682018060405250810190611c3b9190614e29565b50611c6a838286858a6004018a60400151600b8110611c5d57611c5c614953565b5b600302016001015461353e565b6000611c758b613dc1565b905060008760010160000160009054906101000a900462ffffff1662ffffff168761010001518860a00151611caa9190614f8d565b10611ced578760010160000160009054906101000a900462ffffff1662ffffff168761010001518860a00151611ce09190614f8d565b611cea919061578e565b90505b818761010001518860a00151611d039190614f8d565b10611f2057898b8d73ffffffffffffffffffffffffffffffffffffffff167f2204f6ff22d33db4677f6c4e555d9994ed7df4af0ae306770814a6e91d920c896001808d6004018d60400151600b8110611d5f57611d5e614953565b5b600302016001015460008814611d8557878e6101000151611d80919061578e565b611d8c565b8d61010001515b604051611d9c94939291906157c2565b60405180910390a487600001604051611db4906147e5565b908152602001604051809103902060009054906101000a900473ffffffffffffffffffffffffffffffffffffffff1673ffffffffffffffffffffffffffffffffffffffff1663eab965818c60018a60400151611e109190614f8d565b8b6004018b60400151600b8110611e2a57611e29614953565b5b6003020160020160039054906101000a900461ffff1661ffff168b60600151611e539190614f8d565b8c6004018c60400151600b8110611e6d57611e6c614953565b5b6003020160020160039054906101000a900461ffff1661ffff168c60800151611e969190614f8d565b8d6004018d60400151600b8110611eb057611eaf614953565b5b6003020160020160009054906101000a900462ffffff16876040518763ffffffff1660e01b8152600401611ee996959493929190615847565b600060405180830381600087803b158015611f0357600080fd5b505af1158015611f17573d6000803e3d6000fd5b5050505061217c565b898b8d73ffffffffffffffffffffffffffffffffffffffff167f2204f6ff22d33db4677f6c4e555d9994ed7df4af0ae306770814a6e91d920c89600160008d6004018d60400151600b8110611f7857611f77614953565b5b600302016001015460008814611f9e57878e6101000151611f99919061578e565b611fa5565b8d61010001515b604051611fb594939291906157c2565b60405180910390a460006120348d8a6004018a60400151600b8110611fdd57611fdc614953565b5b6003020160020160089054906101000a900462ffffff1662ffffff168b6004018b60400151600b811061201357612012614953565b5b6003020160020160059054906101000a900462ffffff1662ffffff16613e54565b905088600001604051612046906147e5565b908152602001604051809103902060009054906101000a900473ffffffffffffffffffffffffffffffffffffffff1673ffffffffffffffffffffffffffffffffffffffff1663588e8f858d8b6004018b60400151600b81106120ab576120aa614953565b5b6003020160020160039054906101000a900461ffff1661ffff168b606001516120d49190614f8d565b8c6004018c60400151600b81106120ee576120ed614953565b5b6003020160020160039054906101000a900461ffff1661ffff168c608001516121179190614f8d565b858d60a001516121279190614f8d565b876040518663ffffffff1660e01b81526004016121489594939291906158a8565b600060405180830381600087803b15801561216257600080fd5b505af1158015612176573d6000803e3d6000fd5b50505050505b6001985050505050505050509392505050565b60008061219a610ab0565b9050806000016040516121ac906149f7565b908152602001604051809103902060009054906101000a900473ffffffffffffffffffffffffffffffffffffffff1673ffffffffffffffffffffffffffffffffffffffff16637aa085746040518163ffffffff1660e01b8152600401602060405180830381865afa158015612225573d6000803e3d6000fd5b505050506040513d601f19601f8201168201806040525081019061224991906148c2565b91505090565b6000612259610ab0565b905060008060008060008060328911612341578660000160405161227c906147e5565b908152602001604051809103902060009054906101000a900473ffffffffffffffffffffffffffffffffffffffff1673ffffffffffffffffffffffffffffffffffffffff1663738258938a6040518263ffffffff1660e01b81526004016122e39190614296565b60c060405180830381865afa158015612300573d6000803e3d6000fd5b505050506040513d601f19601f8201168201806040525081019061232491906158fb565b809650819750829850839950849a50859b50505050505050612412565b86600001604051612351906147e5565b908152602001604051809103902060009054906101000a900473ffffffffffffffffffffffffffffffffffffffff1673ffffffffffffffffffffffffffffffffffffffff1663357c498a8a6040518263ffffffff1660e01b81526004016123b89190614296565b60c060405180830381865afa1580156123d5573d6000803e3d6000fd5b505050506040513d601f19601f820116820180604052508101906123f991906158fb565b809650819750829850839950849a50859b505050505050505b80881461241e57600080fd5b8660000160405161242e906147e5565b908152602001604051809103902060009054906101000a900473ffffffffffffffffffffffffffffffffffffffff1673ffffffffffffffffffffffffffffffffffffffff16638c4b4b42848488886040518563ffffffff1660e01b815260040161249b9493929190614bbb565b600060405180830381600087803b1580156124b557600080fd5b505af11580156124c9573d6000803e3d6000fd5b50505050866000016040516124dd90614cb8565b908152602001604051809103902060009054906101000a900473ffffffffffffffffffffffffffffffffffffffff1673ffffffffffffffffffffffffffffffffffffffff1663f5298aca8b8b8b6040518463ffffffff1660e01b815260040161254893929190614ccd565b600060405180830381600087803b15801561256257600080fd5b505af1158015612576573d6000803e3d6000fd5b505050508660000160405161258a90614d50565b908152602001604051809103902060009054906101000a900473ffffffffffffffffffffffffffffffffffffffff1673ffffffffffffffffffffffffffffffffffffffff166323b872dd8b896000016040516125e590614db1565b908152602001604051809103902060009054906101000a900473ffffffffffffffffffffffffffffffffffffffff16896040518463ffffffff1660e01b815260040161263393929190614dc6565b6020604051808303816000875af1158015612652573d6000803e3d6000fd5b505050506040513d601f19601f820116820180604052508101906126769190614e29565b50612684838387878a61353e565b60008088600001604051612697906147e5565b908152602001604051809103902060009054906101000a900473ffffffffffffffffffffffffffffffffffffffff1673ffffffffffffffffffffffffffffffffffffffff16632b2e8efb8d8d60006040518463ffffffff1660e01b815260040161270393929190615988565b6000604051808303816000875af1158015612722573d6000803e3d6000fd5b505050506040513d6000823e3d601f19601f8201168201806040525081019061274b91906159bf565b915091508a828d73ffffffffffffffffffffffffffffffffffffffff167f2b5c6da75471a32fa816831df06c6a172203625ece9bf5c72a71f67c6aabff818d8c60018760405161279e9493929190615a1b565b60405180910390a4505050505050505050505050565b6000806127bf610ab0565b90508473ffffffffffffffffffffffffffffffffffffffff16816000016040516127e89061500d565b908152602001604051809103902060009054906101000a900473ffffffffffffffffffffffffffffffffffffffff1673ffffffffffffffffffffffffffffffffffffffff16636352211e866040518263ffffffff1660e01b815260040161284f9190614296565b602060405180830381865afa15801561286c573d6000803e3d6000fd5b505050506040513d601f19601f82011682018060405250810190612890919061504e565b73ffffffffffffffffffffffffffffffffffffffff16146128e6576040517f08c379a00000000000000000000000000000000000000000000000000000000081526004016128dd906150c7565b60405180910390fd5b6000816000016040516128f8906147e5565b908152602001604051809103902060009054906101000a900473ffffffffffffffffffffffffffffffffffffffff1673ffffffffffffffffffffffffffffffffffffffff16631c4de8d7866040518263ffffffff1660e01b815260040161295f9190614296565b61012060405180830381865afa15801561297d573d6000803e3d6000fd5b505050506040513d601f19601f820116820180604052508101906129a19190615347565b905060011515826004018260400151600b81106129c1576129c0614953565b5b6003020160000160009054906101000a900460ff16151514612a18576040517f08c379a0000000000000000000000000000000000000000000000000000000008152600401612a0f90615695565b60405180910390fd5b60008060008085600001604051612a2e906147e5565b908152602001604051809103902060009054906101000a900473ffffffffffffffffffffffffffffffffffffffff1673ffffffffffffffffffffffffffffffffffffffff16637bcb71a689886004018860400151600b8110612a9357612a92614953565b5b60030201600101546040518363ffffffff1660e01b8152600401612ab8929190614765565b6080604051808303816000875af1158015612ad7573d6000803e3d6000fd5b505050506040513d601f19601f82011682018060405250810190612afb91906156b5565b935093509350935085600001604051612b1390614cb8565b908152602001604051809103902060009054906101000a900473ffffffffffffffffffffffffffffffffffffffff1673ffffffffffffffffffffffffffffffffffffffff1663f5298aca8b8a60016040518463ffffffff1660e01b8152600401612b7f93929190615757565b600060405180830381600087803b158015612b9957600080fd5b505af1158015612bad573d6000803e3d6000fd5b5050505085600001604051612bc190614d50565b908152602001604051809103902060009054906101000a900473ffffffffffffffffffffffffffffffffffffffff1673ffffffffffffffffffffffffffffffffffffffff166323b872dd8b88600001604051612c1c90614db1565b908152602001604051809103902060009054906101000a900473ffffffffffffffffffffffffffffffffffffffff16896004018960400151600b8110612c6557612c64614953565b5b60030201600101546040518463ffffffff1660e01b8152600401612c8b93929190614dc6565b6020604051808303816000875af1158015612caa573d6000803e3d6000fd5b505050506040513d601f19601f82011682018060405250810190612cce9190614e29565b50612cfd838286858a6004018a60400151600b8110612cf057612cef614953565b5b600302016001015461353e565b6000856040015103612e3d5785600001604051612d19906147e5565b908152602001604051809103902060009054906101000a900473ffffffffffffffffffffffffffffffffffffffff1673ffffffffffffffffffffffffffffffffffffffff16630e1c1b2b8a87604001516040518363ffffffff1660e01b8152600401612d86929190614765565b600060405180830381600087803b158015612da057600080fd5b505af1158015612db4573d6000803e3d6000fd5b5050505087898b73ffffffffffffffffffffffffffffffffffffffff167f9c2d00f9bd857ba01e3db2db9ad693ac6ada7c0d12cf673bddac07e2f52f93cf6001808b6004018b60400151600b8110612e0f57612e0e614953565b5b6003020160010154604051612e2693929190615a67565b60405180910390a4600196505050505050506130b8565b6000612e488b613dc1565b90508560a001518111612f095786600001604051612e65906147e5565b908152602001604051809103902060009054906101000a900473ffffffffffffffffffffffffffffffffffffffff1673ffffffffffffffffffffffffffffffffffffffff16630e1c1b2b8b88604001516040518363ffffffff1660e01b8152600401612ed2929190614765565b600060405180830381600087803b158015612eec57600080fd5b505af1158015612f00573d6000803e3d6000fd5b5050505061302f565b6000612f808c896004018960400151600b8110612f2957612f28614953565b5b6003020160020160089054906101000a900462ffffff1662ffffff168a6004018a60400151600b8110612f5f57612f5e614953565b5b6003020160020160059054906101000a900462ffffff1662ffffff16613e54565b905087600001604051612f92906147e5565b908152602001604051809103902060009054906101000a900473ffffffffffffffffffffffffffffffffffffffff1673ffffffffffffffffffffffffffffffffffffffff1663a76373c18c836040518363ffffffff1660e01b8152600401612ffb929190614765565b600060405180830381600087803b15801561301557600080fd5b505af1158015613029573d6000803e3d6000fd5b50505050505b888a8c73ffffffffffffffffffffffffffffffffffffffff167f9c2d00f9bd857ba01e3db2db9ad693ac6ada7c0d12cf673bddac07e2f52f93cf60018a60a001518611158c6004018c60400151600b811061308d5761308c614953565b5b60030201600101546040516130a493929190615a67565b60405180910390a460019750505050505050505b9392505050565b60008060006130cc610ab0565b9050600080826000016040516130e1906147e5565b908152602001604051809103902060009054906101000a900473ffffffffffffffffffffffffffffffffffffffff1673ffffffffffffffffffffffffffffffffffffffff166373825893876040518263ffffffff1660e01b81526004016131489190614296565b60c060405180830381865afa158015613165573d6000803e3d6000fd5b505050506040513d601f19601f8201168201806040525081019061318991906158fb565b9550505050509150818194509450505050915091565b60008060008060008060006131b2610ab0565b9050600081602f016040518060400160405290816000820154815260200160018201548152505090506000826000016040516131ed906147e5565b908152602001604051809103902060009054906101000a900473ffffffffffffffffffffffffffffffffffffffff1673ffffffffffffffffffffffffffffffffffffffff1663a575bdcc8c6040518263ffffffff1660e01b81526004016132549190614296565b61016060405180830381865afa158015613272573d6000803e3d6000fd5b505050506040513d601f19601f820116820180604052508101906132969190615baa565b9050600083602d0160008c60ff1660ff1681526020019081526020016000206040518060e00160405290816000820160009054906101000a900460ff1660ff1660ff1681526020016001820180546132ed90614891565b80601f016020809104026020016040519081016040528092919081815260200182805461331990614891565b80156133665780601f1061333b57610100808354040283529160200191613366565b820191906000526020600020905b81548152906001019060200180831161334957829003601f168201915b50505050508152602001600282015481526020016003820154815260200160048201548152602001600582015481526020016006820160009054906101000a900460ff16151515158152505090506000806000620186a0866020015185604001516133d191906151bf565b6133db91906154cd565b90506000620186a0876000015186604001516133f791906151bf565b61340191906154cd565b9050600073ffffffffffffffffffffffffffffffffffffffff1686610120015173ffffffffffffffffffffffffffffffffffffffff161461344a5785610120015193508361348d565b8760000160405161345a90615489565b908152602001604051809103902060009054906101000a900473ffffffffffffffffffffffffffffffffffffffff169350835b50600073ffffffffffffffffffffffffffffffffffffffff16866040015173ffffffffffffffffffffffffffffffffffffffff16146134d0578560400151613510565b876000016040516134e090615489565b908152602001604051809103902060009054906101000a900473ffffffffffffffffffffffffffffffffffffffff165b925084604001518383868489606001519d509d509d509d509d509d5050505050505050509295509295509295565b6000613548610ab0565b9050600080600080600061355b87613ebf565b9450945094509450945060008660000160405161357790614d50565b908152602001604051809103902060009054906101000a900473ffffffffffffffffffffffffffffffffffffffff1690508073ffffffffffffffffffffffffffffffffffffffff1663a9059cbb8d8d6040518363ffffffff1660e01b81526004016135e3929190615bd8565b6020604051808303816000875af1158015613602573d6000803e3d6000fd5b505050506040513d601f19601f820116820180604052508101906136269190614e29565b508073ffffffffffffffffffffffffffffffffffffffff1663a9059cbb8b8b6040518363ffffffff1660e01b8152600401613662929190615bd8565b6020604051808303816000875af1158015613681573d6000803e3d6000fd5b505050506040513d601f19601f820116820180604052508101906136a59190614e29565b508073ffffffffffffffffffffffffffffffffffffffff1663a9059cbb886000016040516136d290615c4d565b908152602001604051809103902060009054906101000a900473ffffffffffffffffffffffffffffffffffffffff16866040518363ffffffff1660e01b815260040161371f929190615bd8565b6020604051808303816000875af115801561373e573d6000803e3d6000fd5b505050506040513d601f19601f820116820180604052508101906137629190614e29565b508073ffffffffffffffffffffffffffffffffffffffff1663a9059cbb8860000160405161378f90615cae565b908152602001604051809103902060009054906101000a900473ffffffffffffffffffffffffffffffffffffffff16876040518363ffffffff1660e01b81526004016137dc929190615bd8565b6020604051808303816000875af11580156137fb573d6000803e3d6000fd5b505050506040513d601f19601f8201168201806040525081019061381f9190614e29565b508073ffffffffffffffffffffffffffffffffffffffff1663a9059cbb8860000160405161384c90615d0f565b908152602001604051809103902060009054906101000a900473ffffffffffffffffffffffffffffffffffffffff16886040518363ffffffff1660e01b8152600401613899929190615bd8565b6020604051808303816000875af11580156138b8573d6000803e3d6000fd5b505050506040513d601f19601f820116820180604052508101906138dc9190614e29565b50866000016040516138ed90615cae565b908152602001604051809103902060009054906101000a900473ffffffffffffffffffffffffffffffffffffffff1673ffffffffffffffffffffffffffffffffffffffff1663b81d9a346000876040518363ffffffff1660e01b8152600401613957929190615d24565b600060405180830381600087803b15801561397157600080fd5b505af1158015613985573d6000803e3d6000fd5b505050508660000160405161399990615d0f565b908152602001604051809103902060009054906101000a900473ffffffffffffffffffffffffffffffffffffffff1673ffffffffffffffffffffffffffffffffffffffff16638bc2fa3a876040518263ffffffff1660e01b8152600401613a009190614296565b600060405180830381600087803b158015613a1a57600080fd5b505af1158015613a2e573d6000803e3d6000fd5b5050505084876026016001016000828254613a499190614f8d565b9250508190555081876026016000016000828254613a679190614f8d565b9250508190555082876026016002016000828254613a859190614f8d565b92505081905550505050505050505050505050565b600080600090505b60018351613ab0919061578e565b811015613b33576000600182613ac69190614f8d565b90505b8351811015613b2557838181518110613ae557613ae4614953565b5b6020026020010151848381518110613b0057613aff614953565b5b602002602001015103613b1857600192505050613b39565b8080600101915050613ac9565b508080600101915050613aa2565b50600090505b919050565b600080613b49610ab0565b905060005b8351811015613c73578473ffffffffffffffffffffffffffffffffffffffff1682600001604051613b7e9061524d565b908152602001604051809103902060009054906101000a900473ffffffffffffffffffffffffffffffffffffffff1673ffffffffffffffffffffffffffffffffffffffff16636352211e868481518110613bdb57613bda614953565b5b60200260200101516040518263ffffffff1660e01b8152600401613bff9190614296565b602060405180830381865afa158015613c1c573d6000803e3d6000fd5b505050506040513d601f19601f82011682018060405250810190613c40919061504e565b73ffffffffffffffffffffffffffffffffffffffff1614613c6657600092505050613c7a565b8080600101915050613b4e565b5060019150505b92915050565b600080613c8b610ab0565b90506000805b8451811015613db65782602501600084600001604051613cb0906147e5565b908152602001604051809103902060009054906101000a900473ffffffffffffffffffffffffffffffffffffffff1673ffffffffffffffffffffffffffffffffffffffff166342ab8805888581518110613d0d57613d0c614953565b5b60200260200101516040518263ffffffff1660e01b8152600401613d319190614296565b608060405180830381865afa158015613d4e573d6000803e3d6000fd5b505050506040513d601f19601f82011682018060405250810190613d729190615dc5565b60200151815260200190815260200160002060010160009054906101000a900462ffffff1662ffffff1682613da79190614f8d565b91508080600101915050613c91565b508092505050919050565b600080613dcc610ab0565b90506000428441604051602001613de593929190615e96565b6040516020818303038152906040528051906020012090506000600160008460010160000160009054906101000a900462ffffff16613e249190615ed3565b613e2e9190615f0a565b62ffffff168260001c613e419190615f41565b613e4b9190614f8d565b92505050919050565b600080428541604051602001613e6c93929190615e96565b6040516020818303038152906040528051906020012090508260018486613e93919061578e565b613e9d9190614f8d565b8260001c613eab9190615f41565b613eb59190614f8d565b9150509392505050565b600080600080600080613ed0610ab0565b9050600060648260260160030160009054906101000a900462ffffff1662ffffff1689613efd91906151bf565b613f0791906154cd565b9050600060648360260160030160039054906101000a900462ffffff1662ffffff168a613f3491906151bf565b613f3e91906154cd565b9050600060648460260160030160099054906101000a900462ffffff1662ffffff168b613f6b91906151bf565b613f7591906154cd565b90506000606485602601600301600c9054906101000a900462ffffff1662ffffff168c613fa291906151bf565b613fac91906154cd565b9050600060648660260160030160069054906101000a900462ffffff1662ffffff168d613fd991906151bf565b613fe391906154cd565b905084848484849a509a509a509a509a5050505050505091939590929450565b6040518060e00160405280600060ff16815260200160608152602001600081526020016000815260200160008152602001600081526020016000151581525090565b6000819050919050565b61405881614045565b82525050565b6000606082019050614073600083018661404f565b614080602083018561404f565b61408d604083018461404f565b949350505050565b6000604051905090565b600080fd5b600080fd5b600060ff82169050919050565b6140bf816140a9565b81146140ca57600080fd5b50565b6000813590506140dc816140b6565b92915050565b6000602082840312156140f8576140f761409f565b5b6000614106848285016140cd565b91505092915050565b614118816140a9565b82525050565b600081519050919050565b600082825260208201905092915050565b60005b8381101561415857808201518184015260208101905061413d565b60008484015250505050565b6000601f19601f8301169050919050565b60006141808261411e565b61418a8185614129565b935061419a81856020860161413a565b6141a381614164565b840191505092915050565b6141b781614045565b82525050565b60008115159050919050565b6141d2816141bd565b82525050565b600060e0830160008301516141f0600086018261410f565b50602083015184820360208601526142088282614175565b915050604083015161421d60408601826141ae565b50606083015161423060608601826141ae565b50608083015161424360808601826141ae565b5060a083015161425660a08601826141ae565b5060c083015161426960c08601826141c9565b508091505092915050565b6000602082019050818103600083015261428e81846141d8565b905092915050565b60006020820190506142ab600083018461404f565b92915050565b600081519050919050565b600082825260208201905092915050565b6000819050602082019050919050565b600060e0830160008301516142f5600086018261410f565b506020830151848203602086015261430d8282614175565b915050604083015161432260408601826141ae565b50606083015161433560608601826141ae565b50608083015161434860808601826141ae565b5060a083015161435b60a08601826141ae565b5060c083015161436e60c08601826141c9565b508091505092915050565b600061438583836142dd565b905092915050565b6000602082019050919050565b60006143a5826142b1565b6143af81856142bc565b9350836020820285016143c1856142cd565b8060005b858110156143fd57848403895281516143de8582614379565b94506143e98361438d565b925060208a019950506001810190506143c5565b50829750879550505050505092915050565b60006020820190508181036000830152614429818461439a565b905092915050565b61443a81614045565b811461444557600080fd5b50565b60008135905061445781614431565b92915050565b6000806000606084860312156144765761447561409f565b5b600061448486828701614448565b935050602061449586828701614448565b92505060406144a6868287016140cd565b9150509250925092565b600080fd5b7f4e487b7100000000000000000000000000000000000000000000000000000000600052604160045260246000fd5b6144ed82614164565b810181811067ffffffffffffffff8211171561450c5761450b6144b5565b5b80604052505050565b600061451f614095565b905061452b82826144e4565b919050565b600067ffffffffffffffff82111561454b5761454a6144b5565b5b602082029050602081019050919050565b600080fd5b600061457461456f84614530565b614515565b905080838252602082019050602084028301858111156145975761459661455c565b5b835b818110156145c057806145ac8882614448565b845260208401935050602081019050614599565b5050509392505050565b600082601f8301126145df576145de6144b0565b5b81356145ef848260208601614561565b91505092915050565b6000806040838503121561460f5761460e61409f565b5b600061461d85828601614448565b925050602083013567ffffffffffffffff81111561463e5761463d6140a4565b5b61464a858286016145ca565b9150509250929050565b61465d816141bd565b82525050565b60006020820190506146786000830184614654565b92915050565b600080604083850312156146955761469461409f565b5b60006146a385828601614448565b92505060206146b485828601614448565b9150509250929050565b6000602082840312156146d4576146d361409f565b5b60006146e284828501614448565b91505092915050565b600082825260208201905092915050565b60006147078261411e565b61471181856146eb565b935061472181856020860161413a565b61472a81614164565b840191505092915050565b6000604082019050818103600083015261474f81856146fc565b905061475e602083018461404f565b9392505050565b600060408201905061477a600083018561404f565b614787602083018461404f565b9392505050565b600081905092915050565b7f6462000000000000000000000000000000000000000000000000000000000000600082015250565b60006147cf60028361478e565b91506147da82614799565b600282019050919050565b60006147f0826147c2565b9150819050919050565b60008151905061480981614431565b92915050565b6000806000606084860312156148285761482761409f565b5b6000614836868287016147fa565b9350506020614847868287016147fa565b9250506040614858868287016147fa565b9150509250925092565b7f4e487b7100000000000000000000000000000000000000000000000000000000600052602260045260246000fd5b600060028204905060018216806148a957607f821691505b6020821081036148bc576148bb614862565b5b50919050565b6000602082840312156148d8576148d761409f565b5b60006148e6848285016147fa565b91505092915050565b7f4e487b7100000000000000000000000000000000000000000000000000000000600052601160045260246000fd5b6000614929826140a9565b9150614934836140a9565b9250828203905060ff81111561494d5761494c6148ef565b5b92915050565b7f4e487b7100000000000000000000000000000000000000000000000000000000600052603260045260246000fd5b600061498d826140a9565b915060ff82036149a05761499f6148ef565b5b600182019050919050565b7f7030000000000000000000000000000000000000000000000000000000000000600082015250565b60006149e160028361478e565b91506149ec826149ab565b600282019050919050565b6000614a02826149d4565b9150819050919050565b600080fd5b600067ffffffffffffffff821115614a2c57614a2b6144b5565b5b614a3582614164565b9050602081019050919050565b6000614a55614a5084614a11565b614515565b905082815260208101848484011115614a7157614a70614a0c565b5b614a7c84828561413a565b509392505050565b600082601f830112614a9957614a986144b0565b5b8151614aa9848260208601614a42565b91505092915050565b60008060408385031215614ac957614ac861409f565b5b600083015167ffffffffffffffff811115614ae757614ae66140a4565b5b614af385828601614a84565b9250506020614b04858286016147fa565b9150509250929050565b7f5046204772616465204d657267652066756e6374696f6e206e6f74206f70656e600082015250565b6000614b446020836146eb565b9150614b4f82614b0e565b602082019050919050565b60006020820190508181036000830152614b7381614b37565b9050919050565b600073ffffffffffffffffffffffffffffffffffffffff82169050919050565b6000614ba582614b7a565b9050919050565b614bb581614b9a565b82525050565b6000608082019050614bd06000830187614bac565b614bdd602083018661404f565b614bea6040830185614bac565b614bf7606083018461404f565b95945050505050565b7f4e6f7420657175616c206974656d20616d6f756e740000000000000000000000600082015250565b6000614c366015836146eb565b9150614c4182614c00565b602082019050919050565b60006020820190508181036000830152614c6581614c29565b9050919050565b7f6974656d00000000000000000000000000000000000000000000000000000000600082015250565b6000614ca260048361478e565b9150614cad82614c6c565b600482019050919050565b6000614cc382614c95565b9150819050919050565b6000606082019050614ce26000830186614bac565b614cef602083018561404f565b614cfc604083018461404f565b949350505050565b7f7065720000000000000000000000000000000000000000000000000000000000600082015250565b6000614d3a60038361478e565b9150614d4582614d04565b600382019050919050565b6000614d5b82614d2d565b9150819050919050565b7f6469737472696275746500000000000000000000000000000000000000000000600082015250565b6000614d9b600a8361478e565b9150614da682614d65565b600a82019050919050565b6000614dbc82614d8e565b9150819050919050565b6000606082019050614ddb6000830186614bac565b614de86020830185614bac565b614df5604083018461404f565b949350505050565b614e06816141bd565b8114614e1157600080fd5b50565b600081519050614e2381614dfd565b92915050565b600060208284031215614e3f57614e3e61409f565b5b6000614e4d84828501614e14565b91505092915050565b614e5f816140a9565b82525050565b6000608082019050614e7a6000830187614bac565b614e87602083018661404f565b8181036040830152614e9981856146fc565b9050614ea86060830184614e56565b95945050505050565b6000819050919050565b6000614ed6614ed1614ecc846140a9565b614eb1565b614045565b9050919050565b614ee681614ebb565b82525050565b600081519050919050565b600082825260208201905092915050565b6000614f1382614eec565b614f1d8185614ef7565b9350614f2d81856020860161413a565b614f3681614164565b840191505092915050565b6000608082019050614f56600083018761404f565b614f63602083018661404f565b614f706040830185614edd565b8181036060830152614f828184614f08565b905095945050505050565b6000614f9882614045565b9150614fa383614045565b9250828201905080821115614fbb57614fba6148ef565b5b92915050565b7f6169656e00000000000000000000000000000000000000000000000000000000600082015250565b6000614ff760048361478e565b915061500282614fc1565b600482019050919050565b600061501882614fea565b9150819050919050565b61502b81614b9a565b811461503657600080fd5b50565b60008151905061504881615022565b92915050565b6000602082840312156150645761506361409f565b5b600061507284828501615039565b91505092915050565b7f6e6f74206f776e65720000000000000000000000000000000000000000000000600082015250565b60006150b16009836146eb565b91506150bc8261507b565b602082019050919050565b600060208201905081810360008301526150e0816150a4565b9050919050565b7f6475706c69636174652070662069640000000000000000000000000000000000600082015250565b600061511d600f836146eb565b9150615128826150e7565b602082019050919050565b6000602082019050818103600083015261514c81615110565b9050919050565b7f6e6f74206f776e6572206f6620706572667269656e6473000000000000000000600082015250565b60006151896017836146eb565b915061519482615153565b602082019050919050565b600060208201905081810360008301526151b88161517c565b9050919050565b60006151ca82614045565b91506151d583614045565b92508282026151e381614045565b915082820484148315176151fa576151f96148ef565b5b5092915050565b7f706572667269656e647300000000000000000000000000000000000000000000600082015250565b6000615237600a8361478e565b915061524282615201565b600a82019050919050565b60006152588261522a565b9150819050919050565b600080fd5b6000610120828403121561527e5761527d615262565b5b615289610120614515565b90506000615299848285016147fa565b60008301525060206152ad848285016147fa565b60208301525060406152c1848285016147fa565b60408301525060606152d5848285016147fa565b60608301525060806152e9848285016147fa565b60808301525060a06152fd848285016147fa565b60a08301525060c0615311848285016147fa565b60c08301525060e0615325848285016147fa565b60e08301525061010061533a848285016147fa565b6101008301525092915050565b6000610120828403121561535e5761535d61409f565b5b600061536c84828501615267565b91505092915050565b6000819050919050565b600061539a61539561539084615375565b614eb1565b614045565b9050919050565b6153aa8161537f565b82525050565b6000610120820190506153c6600083018c61404f565b6153d3602083018b61404f565b6153e0604083018a61404f565b6153ed606083018961404f565b6153fa608083018861404f565b61540760a083018761404f565b61541460c08301866153a1565b61542160e083018561404f565b61542f61010083018461404f565b9a9950505050505050505050565b7f7465616d00000000000000000000000000000000000000000000000000000000600082015250565b600061547360048361478e565b915061547e8261543d565b600482019050919050565b600061549482615466565b9150819050919050565b7f4e487b7100000000000000000000000000000000000000000000000000000000600052601260045260246000fd5b60006154d882614045565b91506154e383614045565b9250826154f3576154f261549e565b5b828204905092915050565b600081519050919050565b600082825260208201905092915050565b6000819050602082019050919050565b600061553683836141ae565b60208301905092915050565b6000602082019050919050565b600061555a826154fe565b6155648185615509565b935061556f8361551a565b8060005b838110156155a0578151615587888261552a565b975061559283615542565b925050600181019050615573565b5085935050505092915050565b60006040820190506155c2600083018561404f565b81810360208301526155d4818461554f565b90509392505050565b7f6e6f74207072656d69756d206c6576656c000000000000000000000000000000600082015250565b60006156136011836146eb565b915061561e826155dd565b602082019050919050565b6000602082019050818103600083015261564281615606565b9050919050565b7f6e6f74206f70656e000000000000000000000000000000000000000000000000600082015250565b600061567f6008836146eb565b915061568a82615649565b602082019050919050565b600060208201905081810360008301526156ae81615672565b9050919050565b600080600080608085870312156156cf576156ce61409f565b5b60006156dd87828801615039565b94505060206156ee87828801615039565b93505060406156ff878288016147fa565b9250506060615710878288016147fa565b91505092959194509250565b6000819050919050565b600061574161573c6157378461571c565b614eb1565b614045565b9050919050565b61575181615726565b82525050565b600060608201905061576c6000830186614bac565b615779602083018561404f565b6157866040830184615748565b949350505050565b600061579982614045565b91506157a483614045565b92508282039050818111156157bc576157bb6148ef565b5b92915050565b60006080820190506157d76000830187615748565b6157e46020830186614654565b6157f1604083018561404f565b6157fe606083018461404f565b95945050505050565b600062ffffff82169050919050565b600061583161582c61582784615807565b614eb1565b614045565b9050919050565b61584181615816565b82525050565b600060c08201905061585c600083018961404f565b615869602083018861404f565b615876604083018761404f565b615883606083018661404f565b6158906080830185615838565b61589d60a083018461404f565b979650505050505050565b600060a0820190506158bd600083018861404f565b6158ca602083018761404f565b6158d7604083018661404f565b6158e4606083018561404f565b6158f1608083018461404f565b9695505050505050565b60008060008060008060c087890312156159185761591761409f565b5b600061592689828a016147fa565b965050602061593789828a01615039565b955050604061594889828a016147fa565b945050606061595989828a01615039565b935050608061596a89828a016147fa565b92505060a061597b89828a016147fa565b9150509295509295509295565b600060608201905061599d6000830186614bac565b6159aa602083018561404f565b6159b760408301846153a1565b949350505050565b600080604083850312156159d6576159d561409f565b5b60006159e4858286016147fa565b925050602083015167ffffffffffffffff811115615a0557615a046140a4565b5b615a1185828601614a84565b9150509250929050565b6000608082019050615a30600083018761404f565b615a3d602083018661404f565b615a4a6040830185615748565b8181036060830152615a5c8184614f08565b905095945050505050565b6000606082019050615a7c6000830186615748565b615a896020830185614654565b615a96604083018461404f565b949350505050565b60006101608284031215615ab557615ab4615262565b5b615ac0610160614515565b90506000615ad0848285016147fa565b6000830152506020615ae4848285016147fa565b6020830152506040615af884828501615039565b6040830152506060615b0c848285016147fa565b6060830152506080615b2084828501614e14565b60808301525060a0615b34848285016147fa565b60a08301525060c0615b48848285016147fa565b60c08301525060e0615b5c848285016147fa565b60e083015250610100615b71848285016147fa565b61010083015250610120615b8784828501615039565b61012083015250610140615b9d848285016147fa565b6101408301525092915050565b60006101608284031215615bc157615bc061409f565b5b6000615bcf84828501615a9e565b91505092915050565b6000604082019050615bed6000830185614bac565b615bfa602083018461404f565b9392505050565b7f6275726e00000000000000000000000000000000000000000000000000000000600082015250565b6000615c3760048361478e565b9150615c4282615c01565b600482019050919050565b6000615c5882615c2a565b9150819050919050565b7f7032000000000000000000000000000000000000000000000000000000000000600082015250565b6000615c9860028361478e565b9150615ca382615c62565b600282019050919050565b6000615cb982615c8b565b9150819050919050565b7f7031000000000000000000000000000000000000000000000000000000000000600082015250565b6000615cf960028361478e565b9150615d0482615cc3565b600282019050919050565b6000615d1a82615cec565b9150819050919050565b6000604082019050615d3960008301856153a1565b615d46602083018461404f565b9392505050565b600060808284031215615d6357615d62615262565b5b615d6d6080614515565b90506000615d7d848285016147fa565b6000830152506020615d91848285016147fa565b6020830152506040615da584828501614e14565b6040830152506060615db9848285016147fa565b60608301525092915050565b600060808284031215615ddb57615dda61409f565b5b6000615de984828501615d4d565b91505092915050565b6000819050919050565b615e0d615e0882614045565b615df2565b82525050565b60008160601b9050919050565b6000615e2b82615e13565b9050919050565b6000615e3d82615e20565b9050919050565b615e55615e5082614b9a565b615e32565b82525050565b6000615e6682614b7a565b9050919050565b6000615e7882615e20565b9050919050565b615e90615e8b82615e5b565b615e6d565b82525050565b6000615ea28286615dfc565b602082019150615eb28285615e44565b601482019150615ec28284615e7f565b601482019150819050949350505050565b6000615ede82615807565b9150615ee983615807565b9250828203905062ffffff811115615f0457615f036148ef565b5b92915050565b6000615f1582615807565b9150615f2083615807565b9250828201905062ffffff811115615f3b57615f3a6148ef565b5b92915050565b6000615f4c82614045565b9150615f5783614045565b925082615f6757615f6661549e565b5b82820690509291505056fea26469706673582212207e106a34635467c9b31e9244300fea6c2eabb1e7b57fab12b10d101fc0a132b664736f6c63430008160033",
  "devdoc": {
    "details": "i-TEZ : P0 (Mix) Facet Contract",
    "kind": "dev",
    "methods": {},
    "version": 1
  },
  "userdoc": {
    "kind": "user",
    "methods": {
      "P0_getMaxProb()": {
        "notice": "P0 _ get functions"
      }
    },
    "version": 1
  },
  "storageLayout": {
    "storage": [],
    "types": null
  }
}