{
  "address": "0xA68C942DB4575c2e1c518798Db4DAf7E567b5E54",
  "abi": [
    {
      "anonymous": false,
      "inputs": [
        {
          "indexed": true,
          "internalType": "address",
          "name": "to",
          "type": "address"
        },
        {
          "indexed": true,
          "internalType": "uint256",
          "name": "aienId",
          "type": "uint256"
        },
        {
          "indexed": true,
          "internalType": "uint256",
          "name": "payment",
          "type": "uint256"
        },
        {
          "indexed": false,
          "internalType": "uint256",
          "name": "addProb",
          "type": "uint256"
        },
        {
          "indexed": false,
          "internalType": "uint256[]",
          "name": "perfs",
          "type": "uint256[]"
        }
      ],
      "name": "P0_AddProb_Event",
      "type": "event"
    },
    {
      "anonymous": false,
      "inputs": [
        {
          "indexed": true,
          "internalType": "address",
          "name": "to",
          "type": "address"
        },
        {
          "indexed": true,
          "internalType": "uint256",
          "name": "aienId",
          "type": "uint256"
        },
        {
          "indexed": true,
          "internalType": "uint256",
          "name": "itemId",
          "type": "uint256"
        },
        {
          "indexed": false,
          "internalType": "uint256",
          "name": "itemAmount",
          "type": "uint256"
        },
        {
          "indexed": false,
          "internalType": "bool",
          "name": "isLevelUp",
          "type": "bool"
        },
        {
          "indexed": false,
          "internalType": "uint256",
          "name": "payment",
          "type": "uint256"
        }
      ],
      "name": "P0_BaseMix_Event",
      "type": "event"
    },
    {
      "anonymous": false,
      "inputs": [
        {
          "indexed": true,
          "internalType": "address",
          "name": "to",
          "type": "address"
        },
        {
          "indexed": true,
          "internalType": "uint256",
          "name": "perfId",
          "type": "uint256"
        },
        {
          "indexed": true,
          "internalType": "uint256",
          "name": "itemId",
          "type": "uint256"
        },
        {
          "indexed": false,
          "internalType": "uint256",
          "name": "itemAmount",
          "type": "uint256"
        },
        {
          "indexed": false,
          "internalType": "uint256",
          "name": "payment",
          "type": "uint256"
        },
        {
          "indexed": false,
          "internalType": "uint256",
          "name": "perfGrade",
          "type": "uint256"
        },
        {
          "indexed": false,
          "internalType": "bytes",
          "name": "perfURI",
          "type": "bytes"
        }
      ],
      "name": "P0_ItemMerge_Event",
      "type": "event"
    },
    {
      "anonymous": false,
      "inputs": [
        {
          "indexed": true,
          "internalType": "address",
          "name": "to",
          "type": "address"
        },
        {
          "indexed": true,
          "internalType": "uint256",
          "name": "aienId",
          "type": "uint256"
        },
        {
          "indexed": true,
          "internalType": "uint256",
          "name": "itemId",
          "type": "uint256"
        },
        {
          "indexed": false,
          "internalType": "uint256",
          "name": "itemAmount",
          "type": "uint256"
        },
        {
          "indexed": false,
          "internalType": "bool",
          "name": "isLevelUp",
          "type": "bool"
        },
        {
          "indexed": false,
          "internalType": "uint256",
          "name": "payment",
          "type": "uint256"
        },
        {
          "indexed": false,
          "internalType": "uint256",
          "name": "usePower",
          "type": "uint256"
        }
      ],
      "name": "P0_PremiumMix_Event",
      "type": "event"
    },
    {
      "inputs": [
        {
          "internalType": "uint256",
          "name": "_aienId",
          "type": "uint256"
        },
        {
          "internalType": "uint256[]",
          "name": "_pf_Ids",
          "type": "uint256[]"
        }
      ],
      "name": "P0_addProbCall",
      "outputs": [
        {
          "internalType": "bool",
          "name": "",
          "type": "bool"
        }
      ],
      "stateMutability": "nonpayable",
      "type": "function"
    },
    {
      "inputs": [
        {
          "internalType": "uint256",
          "name": "_id",
          "type": "uint256"
        },
        {
          "internalType": "uint256",
          "name": "_useItemId",
          "type": "uint256"
        }
      ],
      "name": "P0_baseMixCall",
      "outputs": [
        {
          "internalType": "bool",
          "name": "",
          "type": "bool"
        }
      ],
      "stateMutability": "nonpayable",
      "type": "function"
    },
    {
      "inputs": [],
      "name": "P0_basicMergeAmount",
      "outputs": [
        {
          "internalType": "uint256",
          "name": "",
          "type": "uint256"
        }
      ],
      "stateMutability": "view",
      "type": "function"
    },
    {
      "inputs": [],
      "name": "P0_getAddProbFee",
      "outputs": [
        {
          "internalType": "uint256",
          "name": "",
          "type": "uint256"
        }
      ],
      "stateMutability": "view",
      "type": "function"
    },
    {
      "inputs": [],
      "name": "P0_getMaxProb",
      "outputs": [
        {
          "internalType": "uint256",
          "name": "",
          "type": "uint256"
        }
      ],
      "stateMutability": "view",
      "type": "function"
    },
    {
      "inputs": [
        {
          "internalType": "uint256",
          "name": "_itemId",
          "type": "uint256"
        }
      ],
      "name": "P0_getMergeState",
      "outputs": [
        {
          "internalType": "uint256",
          "name": "",
          "type": "uint256"
        },
        {
          "internalType": "uint256",
          "name": "",
          "type": "uint256"
        }
      ],
      "stateMutability": "view",
      "type": "function"
    },
    {
      "inputs": [
        {
          "internalType": "uint8",
          "name": "_grade",
          "type": "uint8"
        }
      ],
      "name": "P0_getMergeStates",
      "outputs": [
        {
          "components": [
            {
              "internalType": "uint8",
              "name": "grade",
              "type": "uint8"
            },
            {
              "internalType": "string",
              "name": "gradeName",
              "type": "string"
            },
            {
              "internalType": "uint256",
              "name": "mergeFee",
              "type": "uint256"
            },
            {
              "internalType": "uint256",
              "name": "mergeUseItemAmount",
              "type": "uint256"
            },
            {
              "internalType": "uint256",
              "name": "latestId",
              "type": "uint256"
            },
            {
              "internalType": "uint256",
              "name": "setMatadataId",
              "type": "uint256"
            },
            {
              "internalType": "bool",
              "name": "isOpen",
              "type": "bool"
            }
          ],
          "internalType": "struct P0_MergePfGrade",
          "name": "",
          "type": "tuple"
        }
      ],
      "stateMutability": "view",
      "type": "function"
    },
    {
      "inputs": [],
      "name": "P0_getMetadataMargin",
      "outputs": [
        {
          "internalType": "uint256",
          "name": "",
          "type": "uint256"
        },
        {
          "internalType": "uint256",
          "name": "",
          "type": "uint256"
        },
        {
          "internalType": "uint256",
          "name": "",
          "type": "uint256"
        }
      ],
      "stateMutability": "view",
      "type": "function"
    },
    {
      "inputs": [],
      "name": "P0_influencerMergeAmount",
      "outputs": [
        {
          "internalType": "uint256",
          "name": "",
          "type": "uint256"
        }
      ],
      "stateMutability": "view",
      "type": "function"
    },
    {
      "inputs": [
        {
          "internalType": "uint256",
          "name": "_itemId",
          "type": "uint256"
        },
        {
          "internalType": "uint256",
          "name": "_itemAmount",
          "type": "uint256"
        },
        {
          "internalType": "uint8",
          "name": "_grade",
          "type": "uint8"
        }
      ],
      "name": "P0_itemGradeMerge",
      "outputs": [],
      "stateMutability": "nonpayable",
      "type": "function"
    },
    {
      "inputs": [
        {
          "internalType": "uint256",
          "name": "_itemId",
          "type": "uint256"
        },
        {
          "internalType": "uint256",
          "name": "_itemAmount",
          "type": "uint256"
        }
      ],
      "name": "P0_itemMerge",
      "outputs": [],
      "stateMutability": "nonpayable",
      "type": "function"
    },
    {
      "inputs": [
        {
          "internalType": "uint256",
          "name": "_level",
          "type": "uint256"
        }
      ],
      "name": "P0_mixPFInfos",
      "outputs": [
        {
          "internalType": "string",
          "name": "",
          "type": "string"
        },
        {
          "internalType": "uint256",
          "name": "",
          "type": "uint256"
        }
      ],
      "stateMutability": "view",
      "type": "function"
    },
    {
      "inputs": [
        {
          "internalType": "uint256",
          "name": "_id",
          "type": "uint256"
        },
        {
          "internalType": "uint256",
          "name": "_useItemId",
          "type": "uint256"
        }
      ],
      "name": "P0_premiumMixCall",
      "outputs": [
        {
          "internalType": "bool",
          "name": "",
          "type": "bool"
        }
      ],
      "stateMutability": "nonpayable",
      "type": "function"
    }
  ],
  "transactionHash": "0x08abcc463ccbc9e7084396e46f51c8ce58aafaa4fa70aa918370797c095d4c15",
  "args": [],
  "numDeployments": 32,
  "solcInputHash": "0f6bf97830d4962124c3e3f4186ff7d5",
  "bytecode": "0x608060405234801561001057600080fd5b50615b5480620000216000396000f3fe608060405234801561001057600080fd5b50600436106100cf5760003560e01c8063ce47adfa1161008c578063ddb2bedf11610066578063ddb2bedf1461022b578063e488a83a14610247578063f3ebac5714610277578063f6afa84714610295576100cf565b8063ce47adfa146101be578063d2236a54146101ef578063d229a3921461020d576100cf565b80630b0e517a146100d45780632b2dc69e146100f45780633576742f146101245780636a60affb146101425780636d1d105e1461015e5780637174e2581461018e575b600080fd5b6100dc6102c6565b6040516100eb93929190613de8565b60405180910390f35b61010e60048036038101906101099190613e6c565b61038f565b60405161011b9190613ffe565b60405180910390f35b61012c6104c3565b6040516101399190614020565b60405180910390f35b61015c60048036038101906101579190614067565b610583565b005b61017860048036038101906101739190614202565b6105a1565b604051610185919061426d565b60405180910390f35b6101a860048036038101906101a39190614288565b6105cd565b6040516101b5919061426d565b60405180910390f35b6101d860048036038101906101d391906142c8565b6105fa565b6040516101e692919061433f565b60405180910390f35b6101f76106d0565b6040516102049190614020565b60405180910390f35b6102156106df565b6040516102229190614020565b60405180910390f35b61024560048036038101906102409190614288565b61079f565b005b610261600480360381019061025c9190614288565b6107c8565b60405161026e919061426d565b60405180910390f35b61027f6107f6565b60405161028c9190614020565b60405180910390f35b6102af60048036038101906102aa91906142c8565b610825565b6040516102bd92919061436f565b60405180910390f35b6000806000806102d461083a565b9050806000016040516102e6906143ef565b908152602001604051809103902060009054906101000a900473ffffffffffffffffffffffffffffffffffffffff1673ffffffffffffffffffffffffffffffffffffffff1663f9db98966040518163ffffffff1660e01b8152600401606060405180830381865afa15801561035f573d6000803e3d6000fd5b505050506040513d601f19601f820116820180604052508101906103839190614419565b93509350935050909192565b610397613d8d565b60006103a161083a565b905080602d0160008460ff1660ff1681526020019081526020016000206040518060e00160405290816000820160009054906101000a900460ff1660ff1660ff1681526020016001820180546103f69061449b565b80601f01602080910402602001604051908101604052809291908181526020018280546104229061449b565b801561046f5780601f106104445761010080835404028352916020019161046f565b820191906000526020600020905b81548152906001019060200180831161045257829003601f168201915b50505050508152602001600282015481526020016003820154815260200160048201548152602001600582015481526020016006820160009054906101000a900460ff161515151581525050915050919050565b6000806104ce61083a565b9050806000016040516104e0906143ef565b908152602001604051809103902060009054906101000a900473ffffffffffffffffffffffffffffffffffffffff1673ffffffffffffffffffffffffffffffffffffffff1663340c2acd6040518163ffffffff1660e01b8152600401602060405180830381865afa158015610559573d6000803e3d6000fd5b505050506040513d601f19601f8201168201806040525081019061057d91906144cc565b91505090565b600061058d61083f565b905061059b818585856108ef565b50505050565b6000806105ac61083a565b905060006105b861083f565b90506105c5818686610e10565b505092915050565b6000806105d861083a565b905060006105e461083f565b90506105f1818686611589565b50505092915050565b606060008061060761083a565b90508060000160405161061990614545565b908152602001604051809103902060009054906101000a900473ffffffffffffffffffffffffffffffffffffffff1673ffffffffffffffffffffffffffffffffffffffff166316dba26f856040518263ffffffff1660e01b81526004016106809190614020565b600060405180830381865afa15801561069d573d6000803e3d6000fd5b505050506040513d6000823e3d601f19601f820116820180604052508101906106c69190614600565b9250925050915091565b60006106da611f19565b905090565b6000806106ea61083a565b9050806000016040516106fc906143ef565b908152602001604051809103902060009054906101000a900473ffffffffffffffffffffffffffffffffffffffff1673ffffffffffffffffffffffffffffffffffffffff1663f6e5f5006040518163ffffffff1660e01b8152600401602060405180830381865afa158015610775573d6000803e3d6000fd5b505050506040513d601f19601f8201168201806040525081019061079991906144cc565b91505090565b60006107a961083a565b905060006107b561083f565b90506107c2818585611fd9565b50505050565b6000806107d361083a565b905060006107df61083f565b90506107ec81868661253e565b9250505092915050565b60008061080161083a565b90508060010160000160009054906101000a900462ffffff1662ffffff1691505090565b60008061083183612e49565b91509150915091565b600090565b60003073ffffffffffffffffffffffffffffffffffffffff163373ffffffffffffffffffffffffffffffffffffffff16036108e857600080368080601f016020809104026020016040519081016040528093929190818152602001838380828437600081840152601f19601f820116905080830192505050505050509050600080369050905073ffffffffffffffffffffffffffffffffffffffff8183015116925050506108ec565b3390505b90565b60006108f961083a565b9050600081602d0160008460ff1660ff1681526020019081526020016000209050600082602e0160008360040154815260200190815260200160002080546109409061449b565b80601f016020809104026020016040519081016040528092919081815260200182805461096c9061449b565b80156109b95780601f1061098e576101008083540402835291602001916109b9565b820191906000526020600020905b81548152906001019060200180831161099c57829003601f168201915b505050505090508160060160009054906101000a900460ff16610a11576040517f08c379a0000000000000000000000000000000000000000000000000000000008152600401610a08906146a8565b60405180910390fd5b600080600080600080610a248c8b612f29565b95509550955095509550955088600001604051610a40906143ef565b908152602001604051809103902060009054906101000a900473ffffffffffffffffffffffffffffffffffffffff1673ffffffffffffffffffffffffffffffffffffffff16638c4b4b42848488886040518563ffffffff1660e01b8152600401610aad9493929190614709565b600060405180830381600087803b158015610ac757600080fd5b505af1158015610adb573d6000803e3d6000fd5b50505050808b14610b21576040517f08c379a0000000000000000000000000000000000000000000000000000000008152600401610b189061479a565b60405180910390fd5b88600001604051610b3190614806565b908152602001604051809103902060009054906101000a900473ffffffffffffffffffffffffffffffffffffffff1673ffffffffffffffffffffffffffffffffffffffff1663f5298aca8e8e846040518463ffffffff1660e01b8152600401610b9c9392919061481b565b600060405180830381600087803b158015610bb657600080fd5b505af1158015610bca573d6000803e3d6000fd5b5050505088600001604051610bde9061489e565b908152602001604051809103902060009054906101000a900473ffffffffffffffffffffffffffffffffffffffff1673ffffffffffffffffffffffffffffffffffffffff166323b872dd8e8b600001604051610c39906148ff565b908152602001604051809103902060009054906101000a900473ffffffffffffffffffffffffffffffffffffffff16896040518463ffffffff1660e01b8152600401610c8793929190614914565b6020604051808303816000875af1158015610ca6573d6000803e3d6000fd5b505050506040513d601f19601f82011682018060405250810190610cca9190614977565b50610cd8838387878a6132c8565b88600001604051610ce8906143ef565b908152602001604051809103902060009054906101000a900473ffffffffffffffffffffffffffffffffffffffff1673ffffffffffffffffffffffffffffffffffffffff1663562034cc8e8a600401548a8e6040518563ffffffff1660e01b8152600401610d5994939291906149b3565b600060405180830381600087803b158015610d7357600080fd5b505af1158015610d87573d6000803e3d6000fd5b505050508b88600401548e73ffffffffffffffffffffffffffffffffffffffff167f2b5c6da75471a32fa816831df06c6a172203625ece9bf5c72a71f67c6aabff81848a8f8d604051610ddd9493929190614a8f565b60405180910390a46001886004016000828254610dfa9190614b0a565b9250508190555050505050505050505050505050565b6000610e1a61083a565b90508373ffffffffffffffffffffffffffffffffffffffff1681600001604051610e4390614b8a565b908152602001604051809103902060009054906101000a900473ffffffffffffffffffffffffffffffffffffffff1673ffffffffffffffffffffffffffffffffffffffff16636352211e856040518263ffffffff1660e01b8152600401610eaa9190614020565b602060405180830381865afa158015610ec7573d6000803e3d6000fd5b505050506040513d601f19601f82011682018060405250810190610eeb9190614bcb565b73ffffffffffffffffffffffffffffffffffffffff1614610f41576040517f08c379a0000000000000000000000000000000000000000000000000000000008152600401610f3890614c44565b60405180910390fd5b60001515610f4e83613824565b151514610f90576040517f08c379a0000000000000000000000000000000000000000000000000000000008152600401610f8790614cb0565b60405180910390fd5b60011515610f9e85846138c8565b151514610fe0576040517f08c379a0000000000000000000000000000000000000000000000000000000008152600401610fd790614d1c565b60405180910390fd5b6000610feb83613a0a565b905081600001604051610ffd9061489e565b908152602001604051809103902060009054906101000a900473ffffffffffffffffffffffffffffffffffffffff1673ffffffffffffffffffffffffffffffffffffffff166323b872dd8684600001604051611058906148ff565b908152602001604051809103902060009054906101000a900473ffffffffffffffffffffffffffffffffffffffff168651866001016001015461109b9190614d3c565b6040518463ffffffff1660e01b81526004016110b993929190614914565b6020604051808303816000875af11580156110d8573d6000803e3d6000fd5b505050506040513d601f19601f820116820180604052508101906110fc9190614977565b5060005b835181101561129c578260000160405161111990614dca565b908152602001604051809103902060009054906101000a900473ffffffffffffffffffffffffffffffffffffffff1673ffffffffffffffffffffffffffffffffffffffff166342966c6885838151811061117657611175614ddf565b5b60200260200101516040518263ffffffff1660e01b815260040161119a9190614020565b600060405180830381600087803b1580156111b457600080fd5b505af11580156111c8573d6000803e3d6000fd5b50505050826000016040516111dc906143ef565b908152602001604051809103902060009054906101000a900473ffffffffffffffffffffffffffffffffffffffff1673ffffffffffffffffffffffffffffffffffffffff1663c2a6a06285838151811061123957611238614ddf565b5b60200260200101516040518263ffffffff1660e01b815260040161125d9190614020565b600060405180830381600087803b15801561127757600080fd5b505af115801561128b573d6000803e3d6000fd5b505050508080600101915050611100565b506000826000016040516112af906143ef565b908152602001604051809103902060009054906101000a900473ffffffffffffffffffffffffffffffffffffffff1673ffffffffffffffffffffffffffffffffffffffff16631c4de8d7866040518263ffffffff1660e01b81526004016113169190614020565b61012060405180830381865afa158015611334573d6000803e3d6000fd5b505050506040513d601f19601f820116820180604052508101906113589190614ef3565b90508260000160405161136a906143ef565b908152602001604051809103902060009054906101000a900473ffffffffffffffffffffffffffffffffffffffff1673ffffffffffffffffffffffffffffffffffffffff1663a02db9a0868360200151846040015188518860010160020160009054906101000a900461ffff1661ffff166113e59190614d3c565b86606001516113f49190614b0a565b86608001518760a0015160008960e001518b8b61010001516114169190614b0a565b6040518a63ffffffff1660e01b815260040161143a99989796959493929190614f5c565b600060405180830381600087803b15801561145457600080fd5b505af1158015611468573d6000803e3d6000fd5b505050506115288360000160405161147f90615035565b908152602001604051809103902060009054906101000a900473ffffffffffffffffffffffffffffffffffffffff16600a865186600101600101546114c49190614d3c565b6114ce9190615079565b856000016040516114de90615035565b908152602001604051809103902060009054906101000a900473ffffffffffffffffffffffffffffffffffffffff166000885188600101600101546115239190614d3c565b6132c8565b8260010160010154858773ffffffffffffffffffffffffffffffffffffffff167f99cb040f26b9f8ab0196325428931da1473bc4b7e3f5477d08e93c1713bc05138588604051611579929190615159565b60405180910390a4505050505050565b60008061159461083a565b90506000816000016040516115a8906143ef565b908152602001604051809103902060009054906101000a900473ffffffffffffffffffffffffffffffffffffffff1673ffffffffffffffffffffffffffffffffffffffff16631c4de8d7866040518263ffffffff1660e01b815260040161160f9190614020565b61012060405180830381865afa15801561162d573d6000803e3d6000fd5b505050506040513d601f19601f820116820180604052508101906116519190614ef3565b9050600081604001510361169a576040517f08c379a0000000000000000000000000000000000000000000000000000000008152600401611691906151d5565b60405180910390fd5b60011515826004018260400151600b81106116b8576116b7614ddf565b5b6003020160000160009054906101000a900460ff1615151461170f576040517f08c379a000000000000000000000000000000000000000000000000000000000815260040161170690615241565b60405180910390fd5b60008060008085600001604051611725906143ef565b908152602001604051809103902060009054906101000a900473ffffffffffffffffffffffffffffffffffffffff1673ffffffffffffffffffffffffffffffffffffffff16637bcb71a689886004018860400151600b811061178a57611789614ddf565b5b60030201600101546040518363ffffffff1660e01b81526004016117af92919061436f565b6080604051808303816000875af11580156117ce573d6000803e3d6000fd5b505050506040513d601f19601f820116820180604052508101906117f29190615261565b93509350935093508560000160405161180a90614806565b908152602001604051809103902060009054906101000a900473ffffffffffffffffffffffffffffffffffffffff1673ffffffffffffffffffffffffffffffffffffffff1663f5298aca8b8a60016040518463ffffffff1660e01b815260040161187693929190615303565b600060405180830381600087803b15801561189057600080fd5b505af11580156118a4573d6000803e3d6000fd5b50505050856000016040516118b89061489e565b908152602001604051809103902060009054906101000a900473ffffffffffffffffffffffffffffffffffffffff1673ffffffffffffffffffffffffffffffffffffffff166323b872dd8b88600001604051611913906148ff565b908152602001604051809103902060009054906101000a900473ffffffffffffffffffffffffffffffffffffffff16896004018960400151600b811061195c5761195b614ddf565b5b60030201600101546040518463ffffffff1660e01b815260040161198293929190614914565b6020604051808303816000875af11580156119a1573d6000803e3d6000fd5b505050506040513d601f19601f820116820180604052508101906119c59190614977565b506119f4838286858a6004018a60400151600b81106119e7576119e6614ddf565b5b60030201600101546132c8565b60006119ff8b613b4b565b905060008760010160000160009054906101000a900462ffffff1662ffffff168761010001518860a00151611a349190614b0a565b10611a77578760010160000160009054906101000a900462ffffff1662ffffff168761010001518860a00151611a6a9190614b0a565b611a74919061533a565b90505b818761010001518860a00151611a8d9190614b0a565b10611caa57898b8d73ffffffffffffffffffffffffffffffffffffffff167f2204f6ff22d33db4677f6c4e555d9994ed7df4af0ae306770814a6e91d920c896001808d6004018d60400151600b8110611ae957611ae8614ddf565b5b600302016001015460008814611b0f57878e6101000151611b0a919061533a565b611b16565b8d61010001515b604051611b26949392919061536e565b60405180910390a487600001604051611b3e906143ef565b908152602001604051809103902060009054906101000a900473ffffffffffffffffffffffffffffffffffffffff1673ffffffffffffffffffffffffffffffffffffffff1663eab965818c60018a60400151611b9a9190614b0a565b8b6004018b60400151600b8110611bb457611bb3614ddf565b5b6003020160020160039054906101000a900461ffff1661ffff168b60600151611bdd9190614b0a565b8c6004018c60400151600b8110611bf757611bf6614ddf565b5b6003020160020160039054906101000a900461ffff1661ffff168c60800151611c209190614b0a565b8d6004018d60400151600b8110611c3a57611c39614ddf565b5b6003020160020160009054906101000a900462ffffff16876040518763ffffffff1660e01b8152600401611c73969594939291906153f3565b600060405180830381600087803b158015611c8d57600080fd5b505af1158015611ca1573d6000803e3d6000fd5b50505050611f06565b898b8d73ffffffffffffffffffffffffffffffffffffffff167f2204f6ff22d33db4677f6c4e555d9994ed7df4af0ae306770814a6e91d920c89600160008d6004018d60400151600b8110611d0257611d01614ddf565b5b600302016001015460008814611d2857878e6101000151611d23919061533a565b611d2f565b8d61010001515b604051611d3f949392919061536e565b60405180910390a46000611dbe8d8a6004018a60400151600b8110611d6757611d66614ddf565b5b6003020160020160089054906101000a900462ffffff1662ffffff168b6004018b60400151600b8110611d9d57611d9c614ddf565b5b6003020160020160059054906101000a900462ffffff1662ffffff16613bde565b905088600001604051611dd0906143ef565b908152602001604051809103902060009054906101000a900473ffffffffffffffffffffffffffffffffffffffff1673ffffffffffffffffffffffffffffffffffffffff1663588e8f858d8b6004018b60400151600b8110611e3557611e34614ddf565b5b6003020160020160039054906101000a900461ffff1661ffff168b60600151611e5e9190614b0a565b8c6004018c60400151600b8110611e7857611e77614ddf565b5b6003020160020160039054906101000a900461ffff1661ffff168c60800151611ea19190614b0a565b858d60a00151611eb19190614b0a565b876040518663ffffffff1660e01b8152600401611ed2959493929190615454565b600060405180830381600087803b158015611eec57600080fd5b505af1158015611f00573d6000803e3d6000fd5b50505050505b6001985050505050505050509392505050565b600080611f2461083a565b905080600001604051611f3690614545565b908152602001604051809103902060009054906101000a900473ffffffffffffffffffffffffffffffffffffffff1673ffffffffffffffffffffffffffffffffffffffff16637aa085746040518163ffffffff1660e01b8152600401602060405180830381865afa158015611faf573d6000803e3d6000fd5b505050506040513d601f19601f82011682018060405250810190611fd391906144cc565b91505090565b6000611fe361083a565b9050600080600080600080603289116120cb5786600001604051612006906143ef565b908152602001604051809103902060009054906101000a900473ffffffffffffffffffffffffffffffffffffffff1673ffffffffffffffffffffffffffffffffffffffff1663738258938a6040518263ffffffff1660e01b815260040161206d9190614020565b60c060405180830381865afa15801561208a573d6000803e3d6000fd5b505050506040513d601f19601f820116820180604052508101906120ae91906154a7565b809650819750829850839950849a50859b5050505050505061219c565b866000016040516120db906143ef565b908152602001604051809103902060009054906101000a900473ffffffffffffffffffffffffffffffffffffffff1673ffffffffffffffffffffffffffffffffffffffff1663357c498a8a6040518263ffffffff1660e01b81526004016121429190614020565b60c060405180830381865afa15801561215f573d6000803e3d6000fd5b505050506040513d601f19601f8201168201806040525081019061218391906154a7565b809650819750829850839950849a50859b505050505050505b8088146121a857600080fd5b866000016040516121b8906143ef565b908152602001604051809103902060009054906101000a900473ffffffffffffffffffffffffffffffffffffffff1673ffffffffffffffffffffffffffffffffffffffff16638c4b4b42848488886040518563ffffffff1660e01b81526004016122259493929190614709565b600060405180830381600087803b15801561223f57600080fd5b505af1158015612253573d6000803e3d6000fd5b505050508660000160405161226790614806565b908152602001604051809103902060009054906101000a900473ffffffffffffffffffffffffffffffffffffffff1673ffffffffffffffffffffffffffffffffffffffff1663f5298aca8b8b8b6040518463ffffffff1660e01b81526004016122d29392919061481b565b600060405180830381600087803b1580156122ec57600080fd5b505af1158015612300573d6000803e3d6000fd5b50505050866000016040516123149061489e565b908152602001604051809103902060009054906101000a900473ffffffffffffffffffffffffffffffffffffffff1673ffffffffffffffffffffffffffffffffffffffff166323b872dd8b8960000160405161236f906148ff565b908152602001604051809103902060009054906101000a900473ffffffffffffffffffffffffffffffffffffffff16896040518463ffffffff1660e01b81526004016123bd93929190614914565b6020604051808303816000875af11580156123dc573d6000803e3d6000fd5b505050506040513d601f19601f820116820180604052508101906124009190614977565b5061240e838387878a6132c8565b60008088600001604051612421906143ef565b908152602001604051809103902060009054906101000a900473ffffffffffffffffffffffffffffffffffffffff1673ffffffffffffffffffffffffffffffffffffffff16632b2e8efb8d8d60006040518463ffffffff1660e01b815260040161248d93929190615534565b6000604051808303816000875af11580156124ac573d6000803e3d6000fd5b505050506040513d6000823e3d601f19601f820116820180604052508101906124d5919061556b565b915091508a828d73ffffffffffffffffffffffffffffffffffffffff167f2b5c6da75471a32fa816831df06c6a172203625ece9bf5c72a71f67c6aabff818d8c60018760405161252894939291906155c7565b60405180910390a4505050505050505050505050565b60008061254961083a565b90508473ffffffffffffffffffffffffffffffffffffffff168160000160405161257290614b8a565b908152602001604051809103902060009054906101000a900473ffffffffffffffffffffffffffffffffffffffff1673ffffffffffffffffffffffffffffffffffffffff16636352211e866040518263ffffffff1660e01b81526004016125d99190614020565b602060405180830381865afa1580156125f6573d6000803e3d6000fd5b505050506040513d601f19601f8201168201806040525081019061261a9190614bcb565b73ffffffffffffffffffffffffffffffffffffffff1614612670576040517f08c379a000000000000000000000000000000000000000000000000000000000815260040161266790614c44565b60405180910390fd5b600081600001604051612682906143ef565b908152602001604051809103902060009054906101000a900473ffffffffffffffffffffffffffffffffffffffff1673ffffffffffffffffffffffffffffffffffffffff16631c4de8d7866040518263ffffffff1660e01b81526004016126e99190614020565b61012060405180830381865afa158015612707573d6000803e3d6000fd5b505050506040513d601f19601f8201168201806040525081019061272b9190614ef3565b905060011515826004018260400151600b811061274b5761274a614ddf565b5b6003020160000160009054906101000a900460ff161515146127a2576040517f08c379a000000000000000000000000000000000000000000000000000000000815260040161279990615241565b60405180910390fd5b600080600080856000016040516127b8906143ef565b908152602001604051809103902060009054906101000a900473ffffffffffffffffffffffffffffffffffffffff1673ffffffffffffffffffffffffffffffffffffffff16637bcb71a689886004018860400151600b811061281d5761281c614ddf565b5b60030201600101546040518363ffffffff1660e01b815260040161284292919061436f565b6080604051808303816000875af1158015612861573d6000803e3d6000fd5b505050506040513d601f19601f820116820180604052508101906128859190615261565b93509350935093508560000160405161289d90614806565b908152602001604051809103902060009054906101000a900473ffffffffffffffffffffffffffffffffffffffff1673ffffffffffffffffffffffffffffffffffffffff1663f5298aca8b8a60016040518463ffffffff1660e01b815260040161290993929190615303565b600060405180830381600087803b15801561292357600080fd5b505af1158015612937573d6000803e3d6000fd5b505050508560000160405161294b9061489e565b908152602001604051809103902060009054906101000a900473ffffffffffffffffffffffffffffffffffffffff1673ffffffffffffffffffffffffffffffffffffffff166323b872dd8b886000016040516129a6906148ff565b908152602001604051809103902060009054906101000a900473ffffffffffffffffffffffffffffffffffffffff16896004018960400151600b81106129ef576129ee614ddf565b5b60030201600101546040518463ffffffff1660e01b8152600401612a1593929190614914565b6020604051808303816000875af1158015612a34573d6000803e3d6000fd5b505050506040513d601f19601f82011682018060405250810190612a589190614977565b50612a87838286858a6004018a60400151600b8110612a7a57612a79614ddf565b5b60030201600101546132c8565b6000856040015103612bc75785600001604051612aa3906143ef565b908152602001604051809103902060009054906101000a900473ffffffffffffffffffffffffffffffffffffffff1673ffffffffffffffffffffffffffffffffffffffff16630e1c1b2b8a87604001516040518363ffffffff1660e01b8152600401612b1092919061436f565b600060405180830381600087803b158015612b2a57600080fd5b505af1158015612b3e573d6000803e3d6000fd5b5050505087898b73ffffffffffffffffffffffffffffffffffffffff167f9c2d00f9bd857ba01e3db2db9ad693ac6ada7c0d12cf673bddac07e2f52f93cf6001808b6004018b60400151600b8110612b9957612b98614ddf565b5b6003020160010154604051612bb093929190615613565b60405180910390a460019650505050505050612e42565b6000612bd28b613b4b565b90508560a001518111612c935786600001604051612bef906143ef565b908152602001604051809103902060009054906101000a900473ffffffffffffffffffffffffffffffffffffffff1673ffffffffffffffffffffffffffffffffffffffff16630e1c1b2b8b88604001516040518363ffffffff1660e01b8152600401612c5c92919061436f565b600060405180830381600087803b158015612c7657600080fd5b505af1158015612c8a573d6000803e3d6000fd5b50505050612db9565b6000612d0a8c896004018960400151600b8110612cb357612cb2614ddf565b5b6003020160020160089054906101000a900462ffffff1662ffffff168a6004018a60400151600b8110612ce957612ce8614ddf565b5b6003020160020160059054906101000a900462ffffff1662ffffff16613bde565b905087600001604051612d1c906143ef565b908152602001604051809103902060009054906101000a900473ffffffffffffffffffffffffffffffffffffffff1673ffffffffffffffffffffffffffffffffffffffff1663a76373c18c836040518363ffffffff1660e01b8152600401612d8592919061436f565b600060405180830381600087803b158015612d9f57600080fd5b505af1158015612db3573d6000803e3d6000fd5b50505050505b888a8c73ffffffffffffffffffffffffffffffffffffffff167f9c2d00f9bd857ba01e3db2db9ad693ac6ada7c0d12cf673bddac07e2f52f93cf60018a60a001518611158c6004018c60400151600b8110612e1757612e16614ddf565b5b6003020160010154604051612e2e93929190615613565b60405180910390a460019750505050505050505b9392505050565b6000806000612e5661083a565b905060008082600001604051612e6b906143ef565b908152602001604051809103902060009054906101000a900473ffffffffffffffffffffffffffffffffffffffff1673ffffffffffffffffffffffffffffffffffffffff166373825893876040518263ffffffff1660e01b8152600401612ed29190614020565b60c060405180830381865afa158015612eef573d6000803e3d6000fd5b505050506040513d601f19601f82011682018060405250810190612f1391906154a7565b9550505050509150818194509450505050915091565b6000806000806000806000612f3c61083a565b9050600081602f01604051806040016040529081600082015481526020016001820154815250509050600082600001604051612f77906143ef565b908152602001604051809103902060009054906101000a900473ffffffffffffffffffffffffffffffffffffffff1673ffffffffffffffffffffffffffffffffffffffff1663a575bdcc8c6040518263ffffffff1660e01b8152600401612fde9190614020565b61016060405180830381865afa158015612ffc573d6000803e3d6000fd5b505050506040513d601f19601f820116820180604052508101906130209190615756565b9050600083602d0160008c60ff1660ff1681526020019081526020016000206040518060e00160405290816000820160009054906101000a900460ff1660ff1660ff1681526020016001820180546130779061449b565b80601f01602080910402602001604051908101604052809291908181526020018280546130a39061449b565b80156130f05780601f106130c5576101008083540402835291602001916130f0565b820191906000526020600020905b8154815290600101906020018083116130d357829003601f168201915b50505050508152602001600282015481526020016003820154815260200160048201548152602001600582015481526020016006820160009054906101000a900460ff16151515158152505090506000806000620186a08660200151856040015161315b9190614d3c565b6131659190615079565b90506000620186a0876000015186604001516131819190614d3c565b61318b9190615079565b9050600073ffffffffffffffffffffffffffffffffffffffff1686610120015173ffffffffffffffffffffffffffffffffffffffff16146131d457856101200151935083613217565b876000016040516131e490615035565b908152602001604051809103902060009054906101000a900473ffffffffffffffffffffffffffffffffffffffff169350835b50600073ffffffffffffffffffffffffffffffffffffffff16866040015173ffffffffffffffffffffffffffffffffffffffff161461325a57856040015161329a565b8760000160405161326a90615035565b908152602001604051809103902060009054906101000a900473ffffffffffffffffffffffffffffffffffffffff165b925084604001518383868489606001519d509d509d509d509d509d5050505050505050509295509295509295565b60006132d261083a565b905060008060008060006132e587613c49565b945094509450945094506000866000016040516133019061489e565b908152602001604051809103902060009054906101000a900473ffffffffffffffffffffffffffffffffffffffff1690508073ffffffffffffffffffffffffffffffffffffffff1663a9059cbb8d8d6040518363ffffffff1660e01b815260040161336d929190615784565b6020604051808303816000875af115801561338c573d6000803e3d6000fd5b505050506040513d601f19601f820116820180604052508101906133b09190614977565b508073ffffffffffffffffffffffffffffffffffffffff1663a9059cbb8b8b6040518363ffffffff1660e01b81526004016133ec929190615784565b6020604051808303816000875af115801561340b573d6000803e3d6000fd5b505050506040513d601f19601f8201168201806040525081019061342f9190614977565b508073ffffffffffffffffffffffffffffffffffffffff1663a9059cbb8860000160405161345c906157f9565b908152602001604051809103902060009054906101000a900473ffffffffffffffffffffffffffffffffffffffff16866040518363ffffffff1660e01b81526004016134a9929190615784565b6020604051808303816000875af11580156134c8573d6000803e3d6000fd5b505050506040513d601f19601f820116820180604052508101906134ec9190614977565b508073ffffffffffffffffffffffffffffffffffffffff1663a9059cbb886000016040516135199061585a565b908152602001604051809103902060009054906101000a900473ffffffffffffffffffffffffffffffffffffffff16876040518363ffffffff1660e01b8152600401613566929190615784565b6020604051808303816000875af1158015613585573d6000803e3d6000fd5b505050506040513d601f19601f820116820180604052508101906135a99190614977565b508073ffffffffffffffffffffffffffffffffffffffff1663a9059cbb886000016040516135d6906158bb565b908152602001604051809103902060009054906101000a900473ffffffffffffffffffffffffffffffffffffffff16886040518363ffffffff1660e01b8152600401613623929190615784565b6020604051808303816000875af1158015613642573d6000803e3d6000fd5b505050506040513d601f19601f820116820180604052508101906136669190614977565b50866000016040516136779061585a565b908152602001604051809103902060009054906101000a900473ffffffffffffffffffffffffffffffffffffffff1673ffffffffffffffffffffffffffffffffffffffff1663b81d9a346000876040518363ffffffff1660e01b81526004016136e19291906158d0565b600060405180830381600087803b1580156136fb57600080fd5b505af115801561370f573d6000803e3d6000fd5b5050505086600001604051613723906158bb565b908152602001604051809103902060009054906101000a900473ffffffffffffffffffffffffffffffffffffffff1673ffffffffffffffffffffffffffffffffffffffff16638bc2fa3a876040518263ffffffff1660e01b815260040161378a9190614020565b600060405180830381600087803b1580156137a457600080fd5b505af11580156137b8573d6000803e3d6000fd5b50505050848760260160010160008282546137d39190614b0a565b92505081905550818760260160000160008282546137f19190614b0a565b925050819055508287602601600201600082825461380f9190614b0a565b92505081905550505050505050505050505050565b600080600090505b6001835161383a919061533a565b8110156138bd5760006001826138509190614b0a565b90505b83518110156138af5783818151811061386f5761386e614ddf565b5b602002602001015184838151811061388a57613889614ddf565b5b6020026020010151036138a2576001925050506138c3565b8080600101915050613853565b50808060010191505061382c565b50600090505b919050565b6000806138d361083a565b905060005b83518110156139fd578473ffffffffffffffffffffffffffffffffffffffff168260000160405161390890614dca565b908152602001604051809103902060009054906101000a900473ffffffffffffffffffffffffffffffffffffffff1673ffffffffffffffffffffffffffffffffffffffff16636352211e86848151811061396557613964614ddf565b5b60200260200101516040518263ffffffff1660e01b81526004016139899190614020565b602060405180830381865afa1580156139a6573d6000803e3d6000fd5b505050506040513d601f19601f820116820180604052508101906139ca9190614bcb565b73ffffffffffffffffffffffffffffffffffffffff16146139f057600092505050613a04565b80806001019150506138d8565b5060019150505b92915050565b600080613a1561083a565b90506000805b8451811015613b405782602501600084600001604051613a3a906143ef565b908152602001604051809103902060009054906101000a900473ffffffffffffffffffffffffffffffffffffffff1673ffffffffffffffffffffffffffffffffffffffff166342ab8805888581518110613a9757613a96614ddf565b5b60200260200101516040518263ffffffff1660e01b8152600401613abb9190614020565b608060405180830381865afa158015613ad8573d6000803e3d6000fd5b505050506040513d601f19601f82011682018060405250810190613afc9190615971565b60200151815260200190815260200160002060010160009054906101000a900462ffffff1662ffffff1682613b319190614b0a565b91508080600101915050613a1b565b508092505050919050565b600080613b5661083a565b90506000428441604051602001613b6f93929190615a42565b6040516020818303038152906040528051906020012090506000600160008460010160000160009054906101000a900462ffffff16613bae9190615a7f565b613bb89190615ab6565b62ffffff168260001c613bcb9190615aed565b613bd59190614b0a565b92505050919050565b600080428541604051602001613bf693929190615a42565b6040516020818303038152906040528051906020012090508260018486613c1d919061533a565b613c279190614b0a565b8260001c613c359190615aed565b613c3f9190614b0a565b9150509392505050565b600080600080600080613c5a61083a565b9050600060648260260160030160009054906101000a900462ffffff1662ffffff1689613c879190614d3c565b613c919190615079565b9050600060648360260160030160039054906101000a900462ffffff1662ffffff168a613cbe9190614d3c565b613cc89190615079565b9050600060648460260160030160099054906101000a900462ffffff1662ffffff168b613cf59190614d3c565b613cff9190615079565b90506000606485602601600301600c9054906101000a900462ffffff1662ffffff168c613d2c9190614d3c565b613d369190615079565b9050600060648660260160030160069054906101000a900462ffffff1662ffffff168d613d639190614d3c565b613d6d9190615079565b905084848484849a509a509a509a509a5050505050505091939590929450565b6040518060e00160405280600060ff16815260200160608152602001600081526020016000815260200160008152602001600081526020016000151581525090565b6000819050919050565b613de281613dcf565b82525050565b6000606082019050613dfd6000830186613dd9565b613e0a6020830185613dd9565b613e176040830184613dd9565b949350505050565b6000604051905090565b600080fd5b600080fd5b600060ff82169050919050565b613e4981613e33565b8114613e5457600080fd5b50565b600081359050613e6681613e40565b92915050565b600060208284031215613e8257613e81613e29565b5b6000613e9084828501613e57565b91505092915050565b613ea281613e33565b82525050565b600081519050919050565b600082825260208201905092915050565b60005b83811015613ee2578082015181840152602081019050613ec7565b60008484015250505050565b6000601f19601f8301169050919050565b6000613f0a82613ea8565b613f148185613eb3565b9350613f24818560208601613ec4565b613f2d81613eee565b840191505092915050565b613f4181613dcf565b82525050565b60008115159050919050565b613f5c81613f47565b82525050565b600060e083016000830151613f7a6000860182613e99565b5060208301518482036020860152613f928282613eff565b9150506040830151613fa76040860182613f38565b506060830151613fba6060860182613f38565b506080830151613fcd6080860182613f38565b5060a0830151613fe060a0860182613f38565b5060c0830151613ff360c0860182613f53565b508091505092915050565b600060208201905081810360008301526140188184613f62565b905092915050565b60006020820190506140356000830184613dd9565b92915050565b61404481613dcf565b811461404f57600080fd5b50565b6000813590506140618161403b565b92915050565b6000806000606084860312156140805761407f613e29565b5b600061408e86828701614052565b935050602061409f86828701614052565b92505060406140b086828701613e57565b9150509250925092565b600080fd5b7f4e487b7100000000000000000000000000000000000000000000000000000000600052604160045260246000fd5b6140f782613eee565b810181811067ffffffffffffffff82111715614116576141156140bf565b5b80604052505050565b6000614129613e1f565b905061413582826140ee565b919050565b600067ffffffffffffffff821115614155576141546140bf565b5b602082029050602081019050919050565b600080fd5b600061417e6141798461413a565b61411f565b905080838252602082019050602084028301858111156141a1576141a0614166565b5b835b818110156141ca57806141b68882614052565b8452602084019350506020810190506141a3565b5050509392505050565b600082601f8301126141e9576141e86140ba565b5b81356141f984826020860161416b565b91505092915050565b6000806040838503121561421957614218613e29565b5b600061422785828601614052565b925050602083013567ffffffffffffffff81111561424857614247613e2e565b5b614254858286016141d4565b9150509250929050565b61426781613f47565b82525050565b6000602082019050614282600083018461425e565b92915050565b6000806040838503121561429f5761429e613e29565b5b60006142ad85828601614052565b92505060206142be85828601614052565b9150509250929050565b6000602082840312156142de576142dd613e29565b5b60006142ec84828501614052565b91505092915050565b600082825260208201905092915050565b600061431182613ea8565b61431b81856142f5565b935061432b818560208601613ec4565b61433481613eee565b840191505092915050565b600060408201905081810360008301526143598185614306565b90506143686020830184613dd9565b9392505050565b60006040820190506143846000830185613dd9565b6143916020830184613dd9565b9392505050565b600081905092915050565b7f6462000000000000000000000000000000000000000000000000000000000000600082015250565b60006143d9600283614398565b91506143e4826143a3565b600282019050919050565b60006143fa826143cc565b9150819050919050565b6000815190506144138161403b565b92915050565b60008060006060848603121561443257614431613e29565b5b600061444086828701614404565b935050602061445186828701614404565b925050604061446286828701614404565b9150509250925092565b7f4e487b7100000000000000000000000000000000000000000000000000000000600052602260045260246000fd5b600060028204905060018216806144b357607f821691505b6020821081036144c6576144c561446c565b5b50919050565b6000602082840312156144e2576144e1613e29565b5b60006144f084828501614404565b91505092915050565b7f7030000000000000000000000000000000000000000000000000000000000000600082015250565b600061452f600283614398565b915061453a826144f9565b600282019050919050565b600061455082614522565b9150819050919050565b600080fd5b600067ffffffffffffffff82111561457a576145796140bf565b5b61458382613eee565b9050602081019050919050565b60006145a361459e8461455f565b61411f565b9050828152602081018484840111156145bf576145be61455a565b5b6145ca848285613ec4565b509392505050565b600082601f8301126145e7576145e66140ba565b5b81516145f7848260208601614590565b91505092915050565b6000806040838503121561461757614616613e29565b5b600083015167ffffffffffffffff81111561463557614634613e2e565b5b614641858286016145d2565b925050602061465285828601614404565b9150509250929050565b7f5046204772616465204d657267652066756e6374696f6e206e6f74206f70656e600082015250565b60006146926020836142f5565b915061469d8261465c565b602082019050919050565b600060208201905081810360008301526146c181614685565b9050919050565b600073ffffffffffffffffffffffffffffffffffffffff82169050919050565b60006146f3826146c8565b9050919050565b614703816146e8565b82525050565b600060808201905061471e60008301876146fa565b61472b6020830186613dd9565b61473860408301856146fa565b6147456060830184613dd9565b95945050505050565b7f4e6f7420657175616c206974656d20616d6f756e740000000000000000000000600082015250565b60006147846015836142f5565b915061478f8261474e565b602082019050919050565b600060208201905081810360008301526147b381614777565b9050919050565b7f6974656d00000000000000000000000000000000000000000000000000000000600082015250565b60006147f0600483614398565b91506147fb826147ba565b600482019050919050565b6000614811826147e3565b9150819050919050565b600060608201905061483060008301866146fa565b61483d6020830185613dd9565b61484a6040830184613dd9565b949350505050565b7f7065720000000000000000000000000000000000000000000000000000000000600082015250565b6000614888600383614398565b915061489382614852565b600382019050919050565b60006148a98261487b565b9150819050919050565b7f6469737472696275746500000000000000000000000000000000000000000000600082015250565b60006148e9600a83614398565b91506148f4826148b3565b600a82019050919050565b600061490a826148dc565b9150819050919050565b600060608201905061492960008301866146fa565b61493660208301856146fa565b6149436040830184613dd9565b949350505050565b61495481613f47565b811461495f57600080fd5b50565b6000815190506149718161494b565b92915050565b60006020828403121561498d5761498c613e29565b5b600061499b84828501614962565b91505092915050565b6149ad81613e33565b82525050565b60006080820190506149c860008301876146fa565b6149d56020830186613dd9565b81810360408301526149e78185614306565b90506149f660608301846149a4565b95945050505050565b6000819050919050565b6000614a24614a1f614a1a84613e33565b6149ff565b613dcf565b9050919050565b614a3481614a09565b82525050565b600081519050919050565b600082825260208201905092915050565b6000614a6182614a3a565b614a6b8185614a45565b9350614a7b818560208601613ec4565b614a8481613eee565b840191505092915050565b6000608082019050614aa46000830187613dd9565b614ab16020830186613dd9565b614abe6040830185614a2b565b8181036060830152614ad08184614a56565b905095945050505050565b7f4e487b7100000000000000000000000000000000000000000000000000000000600052601160045260246000fd5b6000614b1582613dcf565b9150614b2083613dcf565b9250828201905080821115614b3857614b37614adb565b5b92915050565b7f6169656e00000000000000000000000000000000000000000000000000000000600082015250565b6000614b74600483614398565b9150614b7f82614b3e565b600482019050919050565b6000614b9582614b67565b9150819050919050565b614ba8816146e8565b8114614bb357600080fd5b50565b600081519050614bc581614b9f565b92915050565b600060208284031215614be157614be0613e29565b5b6000614bef84828501614bb6565b91505092915050565b7f6e6f74206f776e65720000000000000000000000000000000000000000000000600082015250565b6000614c2e6009836142f5565b9150614c3982614bf8565b602082019050919050565b60006020820190508181036000830152614c5d81614c21565b9050919050565b7f6475706c69636174652070662069640000000000000000000000000000000000600082015250565b6000614c9a600f836142f5565b9150614ca582614c64565b602082019050919050565b60006020820190508181036000830152614cc981614c8d565b9050919050565b7f6e6f74206f776e6572206f6620706572667269656e6473000000000000000000600082015250565b6000614d066017836142f5565b9150614d1182614cd0565b602082019050919050565b60006020820190508181036000830152614d3581614cf9565b9050919050565b6000614d4782613dcf565b9150614d5283613dcf565b9250828202614d6081613dcf565b91508282048414831517614d7757614d76614adb565b5b5092915050565b7f706572667269656e647300000000000000000000000000000000000000000000600082015250565b6000614db4600a83614398565b9150614dbf82614d7e565b600a82019050919050565b6000614dd582614da7565b9150819050919050565b7f4e487b7100000000000000000000000000000000000000000000000000000000600052603260045260246000fd5b600080fd5b60006101208284031215614e2a57614e29614e0e565b5b614e3561012061411f565b90506000614e4584828501614404565b6000830152506020614e5984828501614404565b6020830152506040614e6d84828501614404565b6040830152506060614e8184828501614404565b6060830152506080614e9584828501614404565b60808301525060a0614ea984828501614404565b60a08301525060c0614ebd84828501614404565b60c08301525060e0614ed184828501614404565b60e083015250610100614ee684828501614404565b6101008301525092915050565b60006101208284031215614f0a57614f09613e29565b5b6000614f1884828501614e13565b91505092915050565b6000819050919050565b6000614f46614f41614f3c84614f21565b6149ff565b613dcf565b9050919050565b614f5681614f2b565b82525050565b600061012082019050614f72600083018c613dd9565b614f7f602083018b613dd9565b614f8c604083018a613dd9565b614f996060830189613dd9565b614fa66080830188613dd9565b614fb360a0830187613dd9565b614fc060c0830186614f4d565b614fcd60e0830185613dd9565b614fdb610100830184613dd9565b9a9950505050505050505050565b7f7465616d00000000000000000000000000000000000000000000000000000000600082015250565b600061501f600483614398565b915061502a82614fe9565b600482019050919050565b600061504082615012565b9150819050919050565b7f4e487b7100000000000000000000000000000000000000000000000000000000600052601260045260246000fd5b600061508482613dcf565b915061508f83613dcf565b92508261509f5761509e61504a565b5b828204905092915050565b600081519050919050565b600082825260208201905092915050565b6000819050602082019050919050565b60006150e28383613f38565b60208301905092915050565b6000602082019050919050565b6000615106826150aa565b61511081856150b5565b935061511b836150c6565b8060005b8381101561514c57815161513388826150d6565b975061513e836150ee565b92505060018101905061511f565b5085935050505092915050565b600060408201905061516e6000830185613dd9565b818103602083015261518081846150fb565b90509392505050565b7f6e6f74207072656d69756d206c6576656c000000000000000000000000000000600082015250565b60006151bf6011836142f5565b91506151ca82615189565b602082019050919050565b600060208201905081810360008301526151ee816151b2565b9050919050565b7f6e6f74206f70656e000000000000000000000000000000000000000000000000600082015250565b600061522b6008836142f5565b9150615236826151f5565b602082019050919050565b6000602082019050818103600083015261525a8161521e565b9050919050565b6000806000806080858703121561527b5761527a613e29565b5b600061528987828801614bb6565b945050602061529a87828801614bb6565b93505060406152ab87828801614404565b92505060606152bc87828801614404565b91505092959194509250565b6000819050919050565b60006152ed6152e86152e3846152c8565b6149ff565b613dcf565b9050919050565b6152fd816152d2565b82525050565b600060608201905061531860008301866146fa565b6153256020830185613dd9565b61533260408301846152f4565b949350505050565b600061534582613dcf565b915061535083613dcf565b925082820390508181111561536857615367614adb565b5b92915050565b600060808201905061538360008301876152f4565b615390602083018661425e565b61539d6040830185613dd9565b6153aa6060830184613dd9565b95945050505050565b600062ffffff82169050919050565b60006153dd6153d86153d3846153b3565b6149ff565b613dcf565b9050919050565b6153ed816153c2565b82525050565b600060c0820190506154086000830189613dd9565b6154156020830188613dd9565b6154226040830187613dd9565b61542f6060830186613dd9565b61543c60808301856153e4565b61544960a0830184613dd9565b979650505050505050565b600060a0820190506154696000830188613dd9565b6154766020830187613dd9565b6154836040830186613dd9565b6154906060830185613dd9565b61549d6080830184613dd9565b9695505050505050565b60008060008060008060c087890312156154c4576154c3613e29565b5b60006154d289828a01614404565b96505060206154e389828a01614bb6565b95505060406154f489828a01614404565b945050606061550589828a01614bb6565b935050608061551689828a01614404565b92505060a061552789828a01614404565b9150509295509295509295565b600060608201905061554960008301866146fa565b6155566020830185613dd9565b6155636040830184614f4d565b949350505050565b6000806040838503121561558257615581613e29565b5b600061559085828601614404565b925050602083015167ffffffffffffffff8111156155b1576155b0613e2e565b5b6155bd858286016145d2565b9150509250929050565b60006080820190506155dc6000830187613dd9565b6155e96020830186613dd9565b6155f660408301856152f4565b81810360608301526156088184614a56565b905095945050505050565b600060608201905061562860008301866152f4565b615635602083018561425e565b6156426040830184613dd9565b949350505050565b6000610160828403121561566157615660614e0e565b5b61566c61016061411f565b9050600061567c84828501614404565b600083015250602061569084828501614404565b60208301525060406156a484828501614bb6565b60408301525060606156b884828501614404565b60608301525060806156cc84828501614962565b60808301525060a06156e084828501614404565b60a08301525060c06156f484828501614404565b60c08301525060e061570884828501614404565b60e08301525061010061571d84828501614404565b6101008301525061012061573384828501614bb6565b6101208301525061014061574984828501614404565b6101408301525092915050565b6000610160828403121561576d5761576c613e29565b5b600061577b8482850161564a565b91505092915050565b600060408201905061579960008301856146fa565b6157a66020830184613dd9565b9392505050565b7f6275726e00000000000000000000000000000000000000000000000000000000600082015250565b60006157e3600483614398565b91506157ee826157ad565b600482019050919050565b6000615804826157d6565b9150819050919050565b7f7032000000000000000000000000000000000000000000000000000000000000600082015250565b6000615844600283614398565b915061584f8261580e565b600282019050919050565b600061586582615837565b9150819050919050565b7f7031000000000000000000000000000000000000000000000000000000000000600082015250565b60006158a5600283614398565b91506158b08261586f565b600282019050919050565b60006158c682615898565b9150819050919050565b60006040820190506158e56000830185614f4d565b6158f26020830184613dd9565b9392505050565b60006080828403121561590f5761590e614e0e565b5b615919608061411f565b9050600061592984828501614404565b600083015250602061593d84828501614404565b602083015250604061595184828501614962565b604083015250606061596584828501614404565b60608301525092915050565b60006080828403121561598757615986613e29565b5b6000615995848285016158f9565b91505092915050565b6000819050919050565b6159b96159b482613dcf565b61599e565b82525050565b60008160601b9050919050565b60006159d7826159bf565b9050919050565b60006159e9826159cc565b9050919050565b615a016159fc826146e8565b6159de565b82525050565b6000615a12826146c8565b9050919050565b6000615a24826159cc565b9050919050565b615a3c615a3782615a07565b615a19565b82525050565b6000615a4e82866159a8565b602082019150615a5e82856159f0565b601482019150615a6e8284615a2b565b601482019150819050949350505050565b6000615a8a826153b3565b9150615a95836153b3565b9250828203905062ffffff811115615ab057615aaf614adb565b5b92915050565b6000615ac1826153b3565b9150615acc836153b3565b9250828201905062ffffff811115615ae757615ae6614adb565b5b92915050565b6000615af882613dcf565b9150615b0383613dcf565b925082615b1357615b1261504a565b5b82820690509291505056fea264697066735822122021b23fbdb5a50186a65b8ec831765720e4bb84c0f45e70efe5c94997d38eb4db64736f6c63430008160033",
  "devdoc": {
    "details": "i-TEZ : P0 (Mix) Facet Contract",
    "kind": "dev",
    "methods": {},
    "version": 1
  },
  "userdoc": {
    "kind": "user",
    "methods": {
      "P0_getMaxProb()": {
        "notice": "P0 _ get functions"
      }
    },
    "version": 1
  },
  "storageLayout": {
    "storage": [],
    "types": null
  }
}