{
  "address": "0x5F1f9eE0d7b94646873564FEEEa303dBD7934A82",
  "abi": [
    {
      "anonymous": false,
      "inputs": [
        {
          "indexed": true,
          "internalType": "address",
          "name": "to",
          "type": "address"
        },
        {
          "indexed": true,
          "internalType": "uint256",
          "name": "aienId",
          "type": "uint256"
        },
        {
          "indexed": true,
          "internalType": "uint256",
          "name": "payment",
          "type": "uint256"
        },
        {
          "indexed": false,
          "internalType": "uint256",
          "name": "addProb",
          "type": "uint256"
        },
        {
          "indexed": false,
          "internalType": "uint256[]",
          "name": "perfs",
          "type": "uint256[]"
        }
      ],
      "name": "P0_AddProb_Event",
      "type": "event"
    },
    {
      "anonymous": false,
      "inputs": [
        {
          "indexed": true,
          "internalType": "address",
          "name": "to",
          "type": "address"
        },
        {
          "indexed": true,
          "internalType": "uint256",
          "name": "aienId",
          "type": "uint256"
        },
        {
          "indexed": true,
          "internalType": "uint256",
          "name": "itemId",
          "type": "uint256"
        },
        {
          "indexed": false,
          "internalType": "uint256",
          "name": "itemAmount",
          "type": "uint256"
        },
        {
          "indexed": false,
          "internalType": "bool",
          "name": "isLevelUp",
          "type": "bool"
        },
        {
          "indexed": false,
          "internalType": "uint256",
          "name": "payment",
          "type": "uint256"
        }
      ],
      "name": "P0_BaseMix_Event",
      "type": "event"
    },
    {
      "anonymous": false,
      "inputs": [
        {
          "indexed": true,
          "internalType": "address",
          "name": "to",
          "type": "address"
        },
        {
          "indexed": true,
          "internalType": "uint256",
          "name": "perfId",
          "type": "uint256"
        },
        {
          "indexed": true,
          "internalType": "uint256",
          "name": "itemId",
          "type": "uint256"
        },
        {
          "indexed": false,
          "internalType": "uint256",
          "name": "itemAmount",
          "type": "uint256"
        },
        {
          "indexed": false,
          "internalType": "uint256",
          "name": "payment",
          "type": "uint256"
        },
        {
          "indexed": false,
          "internalType": "uint256",
          "name": "perfGrade",
          "type": "uint256"
        },
        {
          "indexed": false,
          "internalType": "bytes",
          "name": "perfURI",
          "type": "bytes"
        }
      ],
      "name": "P0_ItemMerge_Event",
      "type": "event"
    },
    {
      "anonymous": false,
      "inputs": [
        {
          "indexed": true,
          "internalType": "address",
          "name": "to",
          "type": "address"
        },
        {
          "indexed": true,
          "internalType": "uint256",
          "name": "aienId",
          "type": "uint256"
        },
        {
          "indexed": true,
          "internalType": "uint256",
          "name": "itemId",
          "type": "uint256"
        },
        {
          "indexed": false,
          "internalType": "uint256",
          "name": "itemAmount",
          "type": "uint256"
        },
        {
          "indexed": false,
          "internalType": "bool",
          "name": "isLevelUp",
          "type": "bool"
        },
        {
          "indexed": false,
          "internalType": "uint256",
          "name": "payment",
          "type": "uint256"
        },
        {
          "indexed": false,
          "internalType": "uint256",
          "name": "usePower",
          "type": "uint256"
        }
      ],
      "name": "P0_PremiumMix_Event",
      "type": "event"
    },
    {
      "inputs": [
        {
          "internalType": "uint256",
          "name": "_aienId",
          "type": "uint256"
        },
        {
          "internalType": "uint256[]",
          "name": "_pf_Ids",
          "type": "uint256[]"
        }
      ],
      "name": "P0_addProbCall",
      "outputs": [
        {
          "internalType": "bool",
          "name": "",
          "type": "bool"
        }
      ],
      "stateMutability": "nonpayable",
      "type": "function"
    },
    {
      "inputs": [
        {
          "internalType": "uint256",
          "name": "_id",
          "type": "uint256"
        },
        {
          "internalType": "uint256",
          "name": "_useItemId",
          "type": "uint256"
        }
      ],
      "name": "P0_baseMixCall",
      "outputs": [
        {
          "internalType": "bool",
          "name": "",
          "type": "bool"
        }
      ],
      "stateMutability": "nonpayable",
      "type": "function"
    },
    {
      "inputs": [],
      "name": "P0_basicMergeAmount",
      "outputs": [
        {
          "internalType": "uint256",
          "name": "",
          "type": "uint256"
        }
      ],
      "stateMutability": "view",
      "type": "function"
    },
    {
      "inputs": [],
      "name": "P0_getAddProbFee",
      "outputs": [
        {
          "internalType": "uint256",
          "name": "",
          "type": "uint256"
        }
      ],
      "stateMutability": "view",
      "type": "function"
    },
    {
      "inputs": [],
      "name": "P0_getMaxProb",
      "outputs": [
        {
          "internalType": "uint256",
          "name": "",
          "type": "uint256"
        }
      ],
      "stateMutability": "view",
      "type": "function"
    },
    {
      "inputs": [
        {
          "internalType": "uint256",
          "name": "_itemId",
          "type": "uint256"
        }
      ],
      "name": "P0_getMergeState",
      "outputs": [
        {
          "internalType": "uint256",
          "name": "",
          "type": "uint256"
        },
        {
          "internalType": "uint256",
          "name": "",
          "type": "uint256"
        }
      ],
      "stateMutability": "view",
      "type": "function"
    },
    {
      "inputs": [
        {
          "internalType": "uint8",
          "name": "_grade",
          "type": "uint8"
        }
      ],
      "name": "P0_getMergeStates",
      "outputs": [
        {
          "components": [
            {
              "internalType": "uint8",
              "name": "grade",
              "type": "uint8"
            },
            {
              "internalType": "string",
              "name": "gradeName",
              "type": "string"
            },
            {
              "internalType": "uint256",
              "name": "mergeFee",
              "type": "uint256"
            },
            {
              "internalType": "uint256",
              "name": "mergeUseItemAmount",
              "type": "uint256"
            },
            {
              "internalType": "uint256",
              "name": "latestId",
              "type": "uint256"
            },
            {
              "internalType": "uint256",
              "name": "setMatadataId",
              "type": "uint256"
            },
            {
              "internalType": "bool",
              "name": "isOpen",
              "type": "bool"
            }
          ],
          "internalType": "struct P0_MergePfGrade",
          "name": "",
          "type": "tuple"
        }
      ],
      "stateMutability": "view",
      "type": "function"
    },
    {
      "inputs": [],
      "name": "P0_getMetadataMargin",
      "outputs": [
        {
          "internalType": "uint256",
          "name": "",
          "type": "uint256"
        },
        {
          "internalType": "uint256",
          "name": "",
          "type": "uint256"
        },
        {
          "internalType": "uint256",
          "name": "",
          "type": "uint256"
        }
      ],
      "stateMutability": "view",
      "type": "function"
    },
    {
      "inputs": [],
      "name": "P0_influencerMergeAmount",
      "outputs": [
        {
          "internalType": "uint256",
          "name": "",
          "type": "uint256"
        }
      ],
      "stateMutability": "view",
      "type": "function"
    },
    {
      "inputs": [
        {
          "internalType": "uint256",
          "name": "_itemId",
          "type": "uint256"
        },
        {
          "internalType": "uint256",
          "name": "_itemAmount",
          "type": "uint256"
        },
        {
          "internalType": "uint8",
          "name": "_grade",
          "type": "uint8"
        }
      ],
      "name": "P0_itemGradeMerge",
      "outputs": [],
      "stateMutability": "nonpayable",
      "type": "function"
    },
    {
      "inputs": [
        {
          "internalType": "uint256",
          "name": "_itemId",
          "type": "uint256"
        },
        {
          "internalType": "uint256",
          "name": "_itemAmount",
          "type": "uint256"
        }
      ],
      "name": "P0_itemMerge",
      "outputs": [],
      "stateMutability": "nonpayable",
      "type": "function"
    },
    {
      "inputs": [
        {
          "internalType": "uint256",
          "name": "_level",
          "type": "uint256"
        }
      ],
      "name": "P0_mixPFInfos",
      "outputs": [
        {
          "internalType": "string",
          "name": "",
          "type": "string"
        },
        {
          "internalType": "uint256",
          "name": "",
          "type": "uint256"
        }
      ],
      "stateMutability": "view",
      "type": "function"
    },
    {
      "inputs": [
        {
          "internalType": "uint256",
          "name": "_id",
          "type": "uint256"
        },
        {
          "internalType": "uint256",
          "name": "_useItemId",
          "type": "uint256"
        }
      ],
      "name": "P0_premiumMixCall",
      "outputs": [
        {
          "internalType": "bool",
          "name": "",
          "type": "bool"
        }
      ],
      "stateMutability": "nonpayable",
      "type": "function"
    }
  ],
  "transactionHash": "0xf787448ee80d82f6000260e5f11b50205bb2a0c67132007ea08b70dca51cecb0",
  "args": [],
  "numDeployments": 28,
  "solcInputHash": "83f95329f367c5fc59356a499438560a",
  "bytecode": "0x608060405234801561001057600080fd5b506156dd80620000216000396000f3fe608060405234801561001057600080fd5b50600436106100cf5760003560e01c8063ce47adfa1161008c578063ddb2bedf11610066578063ddb2bedf1461022b578063e488a83a14610247578063f3ebac5714610277578063f6afa84714610295576100cf565b8063ce47adfa146101be578063d2236a54146101ef578063d229a3921461020d576100cf565b80630b0e517a146100d45780632b2dc69e146100f45780633576742f146101245780636a60affb146101425780636d1d105e1461015e5780637174e2581461018e575b600080fd5b6100dc6102c6565b6040516100eb93929190613bef565b60405180910390f35b61010e60048036038101906101099190613c73565b61038f565b60405161011b9190613e05565b60405180910390f35b61012c6104c3565b6040516101399190613e27565b60405180910390f35b61015c60048036038101906101579190613e6e565b610583565b005b61017860048036038101906101739190614009565b6105a1565b6040516101859190614074565b60405180910390f35b6101a860048036038101906101a3919061408f565b6105cd565b6040516101b59190614074565b60405180910390f35b6101d860048036038101906101d391906140cf565b6105fa565b6040516101e6929190614146565b60405180910390f35b6101f76106d0565b6040516102049190613e27565b60405180910390f35b6102156106df565b6040516102229190613e27565b60405180910390f35b6102456004803603810190610240919061408f565b61079f565b005b610261600480360381019061025c919061408f565b6107c8565b60405161026e9190614074565b60405180910390f35b61027f6107f6565b60405161028c9190613e27565b60405180910390f35b6102af60048036038101906102aa91906140cf565b610825565b6040516102bd929190614176565b60405180910390f35b6000806000806102d461083a565b9050806000016040516102e6906141f6565b908152602001604051809103902060009054906101000a900473ffffffffffffffffffffffffffffffffffffffff1673ffffffffffffffffffffffffffffffffffffffff1663f9db98966040518163ffffffff1660e01b8152600401606060405180830381865afa15801561035f573d6000803e3d6000fd5b505050506040513d601f19601f820116820180604052508101906103839190614220565b93509350935050909192565b610397613b94565b60006103a161083a565b905080602d0160008460ff1660ff1681526020019081526020016000206040518060e00160405290816000820160009054906101000a900460ff1660ff1660ff1681526020016001820180546103f6906142a2565b80601f0160208091040260200160405190810160405280929190818152602001828054610422906142a2565b801561046f5780601f106104445761010080835404028352916020019161046f565b820191906000526020600020905b81548152906001019060200180831161045257829003601f168201915b50505050508152602001600282015481526020016003820154815260200160048201548152602001600582015481526020016006820160009054906101000a900460ff161515151581525050915050919050565b6000806104ce61083a565b9050806000016040516104e0906141f6565b908152602001604051809103902060009054906101000a900473ffffffffffffffffffffffffffffffffffffffff1673ffffffffffffffffffffffffffffffffffffffff1663340c2acd6040518163ffffffff1660e01b8152600401602060405180830381865afa158015610559573d6000803e3d6000fd5b505050506040513d601f19601f8201168201806040525081019061057d91906142d3565b91505090565b600061058d61083f565b905061059b818585856108ef565b50505050565b6000806105ac61083a565b905060006105b861083f565b90506105c5818686610fb6565b505092915050565b6000806105d861083a565b905060006105e461083f565b90506105f181868661172f565b50505092915050565b606060008061060761083a565b9050806000016040516106199061434c565b908152602001604051809103902060009054906101000a900473ffffffffffffffffffffffffffffffffffffffff1673ffffffffffffffffffffffffffffffffffffffff166316dba26f856040518263ffffffff1660e01b81526004016106809190613e27565b600060405180830381865afa15801561069d573d6000803e3d6000fd5b505050506040513d6000823e3d601f19601f820116820180604052508101906106c69190614407565b9250925050915091565b60006106da6120bf565b905090565b6000806106ea61083a565b9050806000016040516106fc906141f6565b908152602001604051809103902060009054906101000a900473ffffffffffffffffffffffffffffffffffffffff1673ffffffffffffffffffffffffffffffffffffffff1663f6e5f5006040518163ffffffff1660e01b8152600401602060405180830381865afa158015610775573d6000803e3d6000fd5b505050506040513d601f19601f8201168201806040525081019061079991906142d3565b91505090565b60006107a961083a565b905060006107b561083f565b90506107c281858561217f565b50505050565b6000806107d361083a565b905060006107df61083f565b90506107ec8186866126e4565b9250505092915050565b60008061080161083a565b90508060010160000160009054906101000a900462ffffff1662ffffff1691505090565b60008061083183612fef565b91509150915091565b600090565b60003073ffffffffffffffffffffffffffffffffffffffff163373ffffffffffffffffffffffffffffffffffffffff16036108e857600080368080601f016020809104026020016040519081016040528093929190818152602001838380828437600081840152601f19601f820116905080830192505050505050509050600080369050905073ffffffffffffffffffffffffffffffffffffffff8183015116925050506108ec565b3390505b90565b60006108f961083a565b9050600081602d0160008460ff1660ff1681526020019081526020016000206040518060e00160405290816000820160009054906101000a900460ff1660ff1660ff168152602001600182018054610950906142a2565b80601f016020809104026020016040519081016040528092919081815260200182805461097c906142a2565b80156109c95780601f1061099e576101008083540402835291602001916109c9565b820191906000526020600020905b8154815290600101906020018083116109ac57829003601f168201915b50505050508152602001600282015481526020016003820154815260200160048201548152602001600582015481526020016006820160009054906101000a900460ff16151515158152505090508060c00151610a5b576040517f08c379a0000000000000000000000000000000000000000000000000000000008152600401610a52906144af565b60405180910390fd5b60008060008060008060328b11610b415787600001604051610a7c906141f6565b908152602001604051809103902060009054906101000a900473ffffffffffffffffffffffffffffffffffffffff1673ffffffffffffffffffffffffffffffffffffffff1663738258938c6040518263ffffffff1660e01b8152600401610ae39190613e27565b60c060405180830381865afa158015610b00573d6000803e3d6000fd5b505050506040513d601f19601f82011682018060405250810190610b24919061452d565b809650819750829850839950849a50859b50505050505050610c12565b87600001604051610b51906141f6565b908152602001604051809103902060009054906101000a900473ffffffffffffffffffffffffffffffffffffffff1673ffffffffffffffffffffffffffffffffffffffff1663357c498a8c6040518263ffffffff1660e01b8152600401610bb89190613e27565b60c060405180830381865afa158015610bd5573d6000803e3d6000fd5b505050506040513d601f19601f82011682018060405250810190610bf9919061452d565b809650819750829850839950849a50859b505050505050505b808a14610c1e57600080fd5b87600001604051610c2e906141f6565b908152602001604051809103902060009054906101000a900473ffffffffffffffffffffffffffffffffffffffff1673ffffffffffffffffffffffffffffffffffffffff16638c4b4b42848488886040518563ffffffff1660e01b8152600401610c9b94939291906145c9565b600060405180830381600087803b158015610cb557600080fd5b505af1158015610cc9573d6000803e3d6000fd5b5050505087600001604051610cdd9061465a565b908152602001604051809103902060009054906101000a900473ffffffffffffffffffffffffffffffffffffffff1673ffffffffffffffffffffffffffffffffffffffff1663f5298aca8d8d8d6040518463ffffffff1660e01b8152600401610d489392919061466f565b600060405180830381600087803b158015610d6257600080fd5b505af1158015610d76573d6000803e3d6000fd5b5050505087600001604051610d8a906146f2565b908152602001604051809103902060009054906101000a900473ffffffffffffffffffffffffffffffffffffffff1673ffffffffffffffffffffffffffffffffffffffff166323b872dd8d8a600001604051610de590614753565b908152602001604051809103902060009054906101000a900473ffffffffffffffffffffffffffffffffffffffff16896040518463ffffffff1660e01b8152600401610e3393929190614768565b6020604051808303816000875af1158015610e52573d6000803e3d6000fd5b505050506040513d601f19601f82011682018060405250810190610e7691906147cb565b50610e84838387878a6130cf565b60008089600001604051610e97906141f6565b908152602001604051809103902060009054906101000a900473ffffffffffffffffffffffffffffffffffffffff1673ffffffffffffffffffffffffffffffffffffffff16632b2e8efb8f8f60006040518463ffffffff1660e01b8152600401610f039392919061483d565b6000604051808303816000875af1158015610f22573d6000803e3d6000fd5b505050506040513d6000823e3d601f19601f82011682018060405250810190610f4b9190614874565b915091508c828f73ffffffffffffffffffffffffffffffffffffffff167f2b5c6da75471a32fa816831df06c6a172203625ece9bf5c72a71f67c6aabff818f8c600187604051610f9e9493929190614960565b60405180910390a45050505050505050505050505050565b6000610fc061083a565b90508373ffffffffffffffffffffffffffffffffffffffff1681600001604051610fe9906149f8565b908152602001604051809103902060009054906101000a900473ffffffffffffffffffffffffffffffffffffffff1673ffffffffffffffffffffffffffffffffffffffff16636352211e856040518263ffffffff1660e01b81526004016110509190613e27565b602060405180830381865afa15801561106d573d6000803e3d6000fd5b505050506040513d601f19601f820116820180604052508101906110919190614a0d565b73ffffffffffffffffffffffffffffffffffffffff16146110e7576040517f08c379a00000000000000000000000000000000000000000000000000000000081526004016110de90614a86565b60405180910390fd5b600015156110f48361362b565b151514611136576040517f08c379a000000000000000000000000000000000000000000000000000000000815260040161112d90614af2565b60405180910390fd5b6001151561114485846136cf565b151514611186576040517f08c379a000000000000000000000000000000000000000000000000000000000815260040161117d90614b5e565b60405180910390fd5b600061119183613811565b9050816000016040516111a3906146f2565b908152602001604051809103902060009054906101000a900473ffffffffffffffffffffffffffffffffffffffff1673ffffffffffffffffffffffffffffffffffffffff166323b872dd86846000016040516111fe90614753565b908152602001604051809103902060009054906101000a900473ffffffffffffffffffffffffffffffffffffffff16865186600101600101546112419190614bad565b6040518463ffffffff1660e01b815260040161125f93929190614768565b6020604051808303816000875af115801561127e573d6000803e3d6000fd5b505050506040513d601f19601f820116820180604052508101906112a291906147cb565b5060005b835181101561144257826000016040516112bf90614c3b565b908152602001604051809103902060009054906101000a900473ffffffffffffffffffffffffffffffffffffffff1673ffffffffffffffffffffffffffffffffffffffff166342966c6885838151811061131c5761131b614c50565b5b60200260200101516040518263ffffffff1660e01b81526004016113409190613e27565b600060405180830381600087803b15801561135a57600080fd5b505af115801561136e573d6000803e3d6000fd5b5050505082600001604051611382906141f6565b908152602001604051809103902060009054906101000a900473ffffffffffffffffffffffffffffffffffffffff1673ffffffffffffffffffffffffffffffffffffffff1663c2a6a0628583815181106113df576113de614c50565b5b60200260200101516040518263ffffffff1660e01b81526004016114039190613e27565b600060405180830381600087803b15801561141d57600080fd5b505af1158015611431573d6000803e3d6000fd5b5050505080806001019150506112a6565b50600082600001604051611455906141f6565b908152602001604051809103902060009054906101000a900473ffffffffffffffffffffffffffffffffffffffff1673ffffffffffffffffffffffffffffffffffffffff16631c4de8d7866040518263ffffffff1660e01b81526004016114bc9190613e27565b61012060405180830381865afa1580156114da573d6000803e3d6000fd5b505050506040513d601f19601f820116820180604052508101906114fe9190614d64565b905082600001604051611510906141f6565b908152602001604051809103902060009054906101000a900473ffffffffffffffffffffffffffffffffffffffff1673ffffffffffffffffffffffffffffffffffffffff1663a02db9a0868360200151846040015188518860010160020160009054906101000a900461ffff1661ffff1661158b9190614bad565b866060015161159a9190614d92565b86608001518760a0015160008960e001518b8b61010001516115bc9190614d92565b6040518a63ffffffff1660e01b81526004016115e099989796959493929190614dc6565b600060405180830381600087803b1580156115fa57600080fd5b505af115801561160e573d6000803e3d6000fd5b505050506116ce8360000160405161162590614e9f565b908152602001604051809103902060009054906101000a900473ffffffffffffffffffffffffffffffffffffffff16600a8651866001016001015461166a9190614bad565b6116749190614ee3565b8560000160405161168490614e9f565b908152602001604051809103902060009054906101000a900473ffffffffffffffffffffffffffffffffffffffff166000885188600101600101546116c99190614bad565b6130cf565b8260010160010154858773ffffffffffffffffffffffffffffffffffffffff167f99cb040f26b9f8ab0196325428931da1473bc4b7e3f5477d08e93c1713bc0513858860405161171f929190614fc3565b60405180910390a4505050505050565b60008061173a61083a565b905060008160000160405161174e906141f6565b908152602001604051809103902060009054906101000a900473ffffffffffffffffffffffffffffffffffffffff1673ffffffffffffffffffffffffffffffffffffffff16631c4de8d7866040518263ffffffff1660e01b81526004016117b59190613e27565b61012060405180830381865afa1580156117d3573d6000803e3d6000fd5b505050506040513d601f19601f820116820180604052508101906117f79190614d64565b90506000816040015103611840576040517f08c379a00000000000000000000000000000000000000000000000000000000081526004016118379061503f565b60405180910390fd5b60011515826004018260400151600b811061185e5761185d614c50565b5b6003020160000160009054906101000a900460ff161515146118b5576040517f08c379a00000000000000000000000000000000000000000000000000000000081526004016118ac906150ab565b60405180910390fd5b600080600080856000016040516118cb906141f6565b908152602001604051809103902060009054906101000a900473ffffffffffffffffffffffffffffffffffffffff1673ffffffffffffffffffffffffffffffffffffffff16637bcb71a689886004018860400151600b81106119305761192f614c50565b5b60030201600101546040518363ffffffff1660e01b8152600401611955929190614176565b6080604051808303816000875af1158015611974573d6000803e3d6000fd5b505050506040513d601f19601f8201168201806040525081019061199891906150cb565b9350935093509350856000016040516119b09061465a565b908152602001604051809103902060009054906101000a900473ffffffffffffffffffffffffffffffffffffffff1673ffffffffffffffffffffffffffffffffffffffff1663f5298aca8b8a60016040518463ffffffff1660e01b8152600401611a1c93929190615132565b600060405180830381600087803b158015611a3657600080fd5b505af1158015611a4a573d6000803e3d6000fd5b5050505085600001604051611a5e906146f2565b908152602001604051809103902060009054906101000a900473ffffffffffffffffffffffffffffffffffffffff1673ffffffffffffffffffffffffffffffffffffffff166323b872dd8b88600001604051611ab990614753565b908152602001604051809103902060009054906101000a900473ffffffffffffffffffffffffffffffffffffffff16896004018960400151600b8110611b0257611b01614c50565b5b60030201600101546040518463ffffffff1660e01b8152600401611b2893929190614768565b6020604051808303816000875af1158015611b47573d6000803e3d6000fd5b505050506040513d601f19601f82011682018060405250810190611b6b91906147cb565b50611b9a838286858a6004018a60400151600b8110611b8d57611b8c614c50565b5b60030201600101546130cf565b6000611ba58b613952565b905060008760010160000160009054906101000a900462ffffff1662ffffff168761010001518860a00151611bda9190614d92565b10611c1d578760010160000160009054906101000a900462ffffff1662ffffff168761010001518860a00151611c109190614d92565b611c1a9190615169565b90505b818761010001518860a00151611c339190614d92565b10611e5057898b8d73ffffffffffffffffffffffffffffffffffffffff167f2204f6ff22d33db4677f6c4e555d9994ed7df4af0ae306770814a6e91d920c896001808d6004018d60400151600b8110611c8f57611c8e614c50565b5b600302016001015460008814611cb557878e6101000151611cb09190615169565b611cbc565b8d61010001515b604051611ccc949392919061519d565b60405180910390a487600001604051611ce4906141f6565b908152602001604051809103902060009054906101000a900473ffffffffffffffffffffffffffffffffffffffff1673ffffffffffffffffffffffffffffffffffffffff1663eab965818c60018a60400151611d409190614d92565b8b6004018b60400151600b8110611d5a57611d59614c50565b5b6003020160020160039054906101000a900461ffff1661ffff168b60600151611d839190614d92565b8c6004018c60400151600b8110611d9d57611d9c614c50565b5b6003020160020160039054906101000a900461ffff1661ffff168c60800151611dc69190614d92565b8d6004018d60400151600b8110611de057611ddf614c50565b5b6003020160020160009054906101000a900462ffffff16876040518763ffffffff1660e01b8152600401611e1996959493929190615222565b600060405180830381600087803b158015611e3357600080fd5b505af1158015611e47573d6000803e3d6000fd5b505050506120ac565b898b8d73ffffffffffffffffffffffffffffffffffffffff167f2204f6ff22d33db4677f6c4e555d9994ed7df4af0ae306770814a6e91d920c89600160008d6004018d60400151600b8110611ea857611ea7614c50565b5b600302016001015460008814611ece57878e6101000151611ec99190615169565b611ed5565b8d61010001515b604051611ee5949392919061519d565b60405180910390a46000611f648d8a6004018a60400151600b8110611f0d57611f0c614c50565b5b6003020160020160089054906101000a900462ffffff1662ffffff168b6004018b60400151600b8110611f4357611f42614c50565b5b6003020160020160059054906101000a900462ffffff1662ffffff166139e5565b905088600001604051611f76906141f6565b908152602001604051809103902060009054906101000a900473ffffffffffffffffffffffffffffffffffffffff1673ffffffffffffffffffffffffffffffffffffffff1663588e8f858d8b6004018b60400151600b8110611fdb57611fda614c50565b5b6003020160020160039054906101000a900461ffff1661ffff168b606001516120049190614d92565b8c6004018c60400151600b811061201e5761201d614c50565b5b6003020160020160039054906101000a900461ffff1661ffff168c608001516120479190614d92565b858d60a001516120579190614d92565b876040518663ffffffff1660e01b8152600401612078959493929190615283565b600060405180830381600087803b15801561209257600080fd5b505af11580156120a6573d6000803e3d6000fd5b50505050505b6001985050505050505050509392505050565b6000806120ca61083a565b9050806000016040516120dc9061434c565b908152602001604051809103902060009054906101000a900473ffffffffffffffffffffffffffffffffffffffff1673ffffffffffffffffffffffffffffffffffffffff16637aa085746040518163ffffffff1660e01b8152600401602060405180830381865afa158015612155573d6000803e3d6000fd5b505050506040513d601f19601f8201168201806040525081019061217991906142d3565b91505090565b600061218961083a565b90506000806000806000806032891161227157866000016040516121ac906141f6565b908152602001604051809103902060009054906101000a900473ffffffffffffffffffffffffffffffffffffffff1673ffffffffffffffffffffffffffffffffffffffff1663738258938a6040518263ffffffff1660e01b81526004016122139190613e27565b60c060405180830381865afa158015612230573d6000803e3d6000fd5b505050506040513d601f19601f82011682018060405250810190612254919061452d565b809650819750829850839950849a50859b50505050505050612342565b86600001604051612281906141f6565b908152602001604051809103902060009054906101000a900473ffffffffffffffffffffffffffffffffffffffff1673ffffffffffffffffffffffffffffffffffffffff1663357c498a8a6040518263ffffffff1660e01b81526004016122e89190613e27565b60c060405180830381865afa158015612305573d6000803e3d6000fd5b505050506040513d601f19601f82011682018060405250810190612329919061452d565b809650819750829850839950849a50859b505050505050505b80881461234e57600080fd5b8660000160405161235e906141f6565b908152602001604051809103902060009054906101000a900473ffffffffffffffffffffffffffffffffffffffff1673ffffffffffffffffffffffffffffffffffffffff16638c4b4b42848488886040518563ffffffff1660e01b81526004016123cb94939291906145c9565b600060405180830381600087803b1580156123e557600080fd5b505af11580156123f9573d6000803e3d6000fd5b505050508660000160405161240d9061465a565b908152602001604051809103902060009054906101000a900473ffffffffffffffffffffffffffffffffffffffff1673ffffffffffffffffffffffffffffffffffffffff1663f5298aca8b8b8b6040518463ffffffff1660e01b81526004016124789392919061466f565b600060405180830381600087803b15801561249257600080fd5b505af11580156124a6573d6000803e3d6000fd5b50505050866000016040516124ba906146f2565b908152602001604051809103902060009054906101000a900473ffffffffffffffffffffffffffffffffffffffff1673ffffffffffffffffffffffffffffffffffffffff166323b872dd8b8960000160405161251590614753565b908152602001604051809103902060009054906101000a900473ffffffffffffffffffffffffffffffffffffffff16896040518463ffffffff1660e01b815260040161256393929190614768565b6020604051808303816000875af1158015612582573d6000803e3d6000fd5b505050506040513d601f19601f820116820180604052508101906125a691906147cb565b506125b4838387878a6130cf565b600080886000016040516125c7906141f6565b908152602001604051809103902060009054906101000a900473ffffffffffffffffffffffffffffffffffffffff1673ffffffffffffffffffffffffffffffffffffffff16632b2e8efb8d8d60006040518463ffffffff1660e01b81526004016126339392919061483d565b6000604051808303816000875af1158015612652573d6000803e3d6000fd5b505050506040513d6000823e3d601f19601f8201168201806040525081019061267b9190614874565b915091508a828d73ffffffffffffffffffffffffffffffffffffffff167f2b5c6da75471a32fa816831df06c6a172203625ece9bf5c72a71f67c6aabff818d8c6001876040516126ce9493929190614960565b60405180910390a4505050505050505050505050565b6000806126ef61083a565b90508473ffffffffffffffffffffffffffffffffffffffff1681600001604051612718906149f8565b908152602001604051809103902060009054906101000a900473ffffffffffffffffffffffffffffffffffffffff1673ffffffffffffffffffffffffffffffffffffffff16636352211e866040518263ffffffff1660e01b815260040161277f9190613e27565b602060405180830381865afa15801561279c573d6000803e3d6000fd5b505050506040513d601f19601f820116820180604052508101906127c09190614a0d565b73ffffffffffffffffffffffffffffffffffffffff1614612816576040517f08c379a000000000000000000000000000000000000000000000000000000000815260040161280d90614a86565b60405180910390fd5b600081600001604051612828906141f6565b908152602001604051809103902060009054906101000a900473ffffffffffffffffffffffffffffffffffffffff1673ffffffffffffffffffffffffffffffffffffffff16631c4de8d7866040518263ffffffff1660e01b815260040161288f9190613e27565b61012060405180830381865afa1580156128ad573d6000803e3d6000fd5b505050506040513d601f19601f820116820180604052508101906128d19190614d64565b905060011515826004018260400151600b81106128f1576128f0614c50565b5b6003020160000160009054906101000a900460ff16151514612948576040517f08c379a000000000000000000000000000000000000000000000000000000000815260040161293f906150ab565b60405180910390fd5b6000806000808560000160405161295e906141f6565b908152602001604051809103902060009054906101000a900473ffffffffffffffffffffffffffffffffffffffff1673ffffffffffffffffffffffffffffffffffffffff16637bcb71a689886004018860400151600b81106129c3576129c2614c50565b5b60030201600101546040518363ffffffff1660e01b81526004016129e8929190614176565b6080604051808303816000875af1158015612a07573d6000803e3d6000fd5b505050506040513d601f19601f82011682018060405250810190612a2b91906150cb565b935093509350935085600001604051612a439061465a565b908152602001604051809103902060009054906101000a900473ffffffffffffffffffffffffffffffffffffffff1673ffffffffffffffffffffffffffffffffffffffff1663f5298aca8b8a60016040518463ffffffff1660e01b8152600401612aaf93929190615132565b600060405180830381600087803b158015612ac957600080fd5b505af1158015612add573d6000803e3d6000fd5b5050505085600001604051612af1906146f2565b908152602001604051809103902060009054906101000a900473ffffffffffffffffffffffffffffffffffffffff1673ffffffffffffffffffffffffffffffffffffffff166323b872dd8b88600001604051612b4c90614753565b908152602001604051809103902060009054906101000a900473ffffffffffffffffffffffffffffffffffffffff16896004018960400151600b8110612b9557612b94614c50565b5b60030201600101546040518463ffffffff1660e01b8152600401612bbb93929190614768565b6020604051808303816000875af1158015612bda573d6000803e3d6000fd5b505050506040513d601f19601f82011682018060405250810190612bfe91906147cb565b50612c2d838286858a6004018a60400151600b8110612c2057612c1f614c50565b5b60030201600101546130cf565b6000856040015103612d6d5785600001604051612c49906141f6565b908152602001604051809103902060009054906101000a900473ffffffffffffffffffffffffffffffffffffffff1673ffffffffffffffffffffffffffffffffffffffff16630e1c1b2b8a87604001516040518363ffffffff1660e01b8152600401612cb6929190614176565b600060405180830381600087803b158015612cd057600080fd5b505af1158015612ce4573d6000803e3d6000fd5b5050505087898b73ffffffffffffffffffffffffffffffffffffffff167f9c2d00f9bd857ba01e3db2db9ad693ac6ada7c0d12cf673bddac07e2f52f93cf6001808b6004018b60400151600b8110612d3f57612d3e614c50565b5b6003020160010154604051612d56939291906152d6565b60405180910390a460019650505050505050612fe8565b6000612d788b613952565b90508560a001518111612e395786600001604051612d95906141f6565b908152602001604051809103902060009054906101000a900473ffffffffffffffffffffffffffffffffffffffff1673ffffffffffffffffffffffffffffffffffffffff16630e1c1b2b8b88604001516040518363ffffffff1660e01b8152600401612e02929190614176565b600060405180830381600087803b158015612e1c57600080fd5b505af1158015612e30573d6000803e3d6000fd5b50505050612f5f565b6000612eb08c896004018960400151600b8110612e5957612e58614c50565b5b6003020160020160089054906101000a900462ffffff1662ffffff168a6004018a60400151600b8110612e8f57612e8e614c50565b5b6003020160020160059054906101000a900462ffffff1662ffffff166139e5565b905087600001604051612ec2906141f6565b908152602001604051809103902060009054906101000a900473ffffffffffffffffffffffffffffffffffffffff1673ffffffffffffffffffffffffffffffffffffffff1663a76373c18c836040518363ffffffff1660e01b8152600401612f2b929190614176565b600060405180830381600087803b158015612f4557600080fd5b505af1158015612f59573d6000803e3d6000fd5b50505050505b888a8c73ffffffffffffffffffffffffffffffffffffffff167f9c2d00f9bd857ba01e3db2db9ad693ac6ada7c0d12cf673bddac07e2f52f93cf60018a60a001518611158c6004018c60400151600b8110612fbd57612fbc614c50565b5b6003020160010154604051612fd4939291906152d6565b60405180910390a460019750505050505050505b9392505050565b6000806000612ffc61083a565b905060008082600001604051613011906141f6565b908152602001604051809103902060009054906101000a900473ffffffffffffffffffffffffffffffffffffffff1673ffffffffffffffffffffffffffffffffffffffff166373825893876040518263ffffffff1660e01b81526004016130789190613e27565b60c060405180830381865afa158015613095573d6000803e3d6000fd5b505050506040513d601f19601f820116820180604052508101906130b9919061452d565b9550505050509150818194509450505050915091565b60006130d961083a565b905060008060008060006130ec87613a50565b94509450945094509450600086600001604051613108906146f2565b908152602001604051809103902060009054906101000a900473ffffffffffffffffffffffffffffffffffffffff1690508073ffffffffffffffffffffffffffffffffffffffff1663a9059cbb8d8d6040518363ffffffff1660e01b815260040161317492919061530d565b6020604051808303816000875af1158015613193573d6000803e3d6000fd5b505050506040513d601f19601f820116820180604052508101906131b791906147cb565b508073ffffffffffffffffffffffffffffffffffffffff1663a9059cbb8b8b6040518363ffffffff1660e01b81526004016131f392919061530d565b6020604051808303816000875af1158015613212573d6000803e3d6000fd5b505050506040513d601f19601f8201168201806040525081019061323691906147cb565b508073ffffffffffffffffffffffffffffffffffffffff1663a9059cbb8860000160405161326390615382565b908152602001604051809103902060009054906101000a900473ffffffffffffffffffffffffffffffffffffffff16866040518363ffffffff1660e01b81526004016132b092919061530d565b6020604051808303816000875af11580156132cf573d6000803e3d6000fd5b505050506040513d601f19601f820116820180604052508101906132f391906147cb565b508073ffffffffffffffffffffffffffffffffffffffff1663a9059cbb88600001604051613320906153e3565b908152602001604051809103902060009054906101000a900473ffffffffffffffffffffffffffffffffffffffff16876040518363ffffffff1660e01b815260040161336d92919061530d565b6020604051808303816000875af115801561338c573d6000803e3d6000fd5b505050506040513d601f19601f820116820180604052508101906133b091906147cb565b508073ffffffffffffffffffffffffffffffffffffffff1663a9059cbb886000016040516133dd90615444565b908152602001604051809103902060009054906101000a900473ffffffffffffffffffffffffffffffffffffffff16886040518363ffffffff1660e01b815260040161342a92919061530d565b6020604051808303816000875af1158015613449573d6000803e3d6000fd5b505050506040513d601f19601f8201168201806040525081019061346d91906147cb565b508660000160405161347e906153e3565b908152602001604051809103902060009054906101000a900473ffffffffffffffffffffffffffffffffffffffff1673ffffffffffffffffffffffffffffffffffffffff1663b81d9a346000876040518363ffffffff1660e01b81526004016134e8929190615459565b600060405180830381600087803b15801561350257600080fd5b505af1158015613516573d6000803e3d6000fd5b505050508660000160405161352a90615444565b908152602001604051809103902060009054906101000a900473ffffffffffffffffffffffffffffffffffffffff1673ffffffffffffffffffffffffffffffffffffffff16638bc2fa3a876040518263ffffffff1660e01b81526004016135919190613e27565b600060405180830381600087803b1580156135ab57600080fd5b505af11580156135bf573d6000803e3d6000fd5b50505050848760260160010160008282546135da9190614d92565b92505081905550818760260160000160008282546135f89190614d92565b92505081905550828760260160020160008282546136169190614d92565b92505081905550505050505050505050505050565b600080600090505b600183516136419190615169565b8110156136c45760006001826136579190614d92565b90505b83518110156136b65783818151811061367657613675614c50565b5b602002602001015184838151811061369157613690614c50565b5b6020026020010151036136a9576001925050506136ca565b808060010191505061365a565b508080600101915050613633565b50600090505b919050565b6000806136da61083a565b905060005b8351811015613804578473ffffffffffffffffffffffffffffffffffffffff168260000160405161370f90614c3b565b908152602001604051809103902060009054906101000a900473ffffffffffffffffffffffffffffffffffffffff1673ffffffffffffffffffffffffffffffffffffffff16636352211e86848151811061376c5761376b614c50565b5b60200260200101516040518263ffffffff1660e01b81526004016137909190613e27565b602060405180830381865afa1580156137ad573d6000803e3d6000fd5b505050506040513d601f19601f820116820180604052508101906137d19190614a0d565b73ffffffffffffffffffffffffffffffffffffffff16146137f75760009250505061380b565b80806001019150506136df565b5060019150505b92915050565b60008061381c61083a565b90506000805b84518110156139475782602501600084600001604051613841906141f6565b908152602001604051809103902060009054906101000a900473ffffffffffffffffffffffffffffffffffffffff1673ffffffffffffffffffffffffffffffffffffffff166342ab880588858151811061389e5761389d614c50565b5b60200260200101516040518263ffffffff1660e01b81526004016138c29190613e27565b608060405180830381865afa1580156138df573d6000803e3d6000fd5b505050506040513d601f19601f8201168201806040525081019061390391906154fa565b60200151815260200190815260200160002060010160009054906101000a900462ffffff1662ffffff16826139389190614d92565b91508080600101915050613822565b508092505050919050565b60008061395d61083a565b90506000428441604051602001613976939291906155cb565b6040516020818303038152906040528051906020012090506000600160008460010160000160009054906101000a900462ffffff166139b59190615608565b6139bf919061563f565b62ffffff168260001c6139d29190615676565b6139dc9190614d92565b92505050919050565b6000804285416040516020016139fd939291906155cb565b6040516020818303038152906040528051906020012090508260018486613a249190615169565b613a2e9190614d92565b8260001c613a3c9190615676565b613a469190614d92565b9150509392505050565b600080600080600080613a6161083a565b9050600060648260260160030160009054906101000a900462ffffff1662ffffff1689613a8e9190614bad565b613a989190614ee3565b9050600060648360260160030160039054906101000a900462ffffff1662ffffff168a613ac59190614bad565b613acf9190614ee3565b9050600060648460260160030160099054906101000a900462ffffff1662ffffff168b613afc9190614bad565b613b069190614ee3565b90506000606485602601600301600c9054906101000a900462ffffff1662ffffff168c613b339190614bad565b613b3d9190614ee3565b9050600060648660260160030160069054906101000a900462ffffff1662ffffff168d613b6a9190614bad565b613b749190614ee3565b905084848484849a509a509a509a509a5050505050505091939590929450565b6040518060e00160405280600060ff16815260200160608152602001600081526020016000815260200160008152602001600081526020016000151581525090565b6000819050919050565b613be981613bd6565b82525050565b6000606082019050613c046000830186613be0565b613c116020830185613be0565b613c1e6040830184613be0565b949350505050565b6000604051905090565b600080fd5b600080fd5b600060ff82169050919050565b613c5081613c3a565b8114613c5b57600080fd5b50565b600081359050613c6d81613c47565b92915050565b600060208284031215613c8957613c88613c30565b5b6000613c9784828501613c5e565b91505092915050565b613ca981613c3a565b82525050565b600081519050919050565b600082825260208201905092915050565b60005b83811015613ce9578082015181840152602081019050613cce565b60008484015250505050565b6000601f19601f8301169050919050565b6000613d1182613caf565b613d1b8185613cba565b9350613d2b818560208601613ccb565b613d3481613cf5565b840191505092915050565b613d4881613bd6565b82525050565b60008115159050919050565b613d6381613d4e565b82525050565b600060e083016000830151613d816000860182613ca0565b5060208301518482036020860152613d998282613d06565b9150506040830151613dae6040860182613d3f565b506060830151613dc16060860182613d3f565b506080830151613dd46080860182613d3f565b5060a0830151613de760a0860182613d3f565b5060c0830151613dfa60c0860182613d5a565b508091505092915050565b60006020820190508181036000830152613e1f8184613d69565b905092915050565b6000602082019050613e3c6000830184613be0565b92915050565b613e4b81613bd6565b8114613e5657600080fd5b50565b600081359050613e6881613e42565b92915050565b600080600060608486031215613e8757613e86613c30565b5b6000613e9586828701613e59565b9350506020613ea686828701613e59565b9250506040613eb786828701613c5e565b9150509250925092565b600080fd5b7f4e487b7100000000000000000000000000000000000000000000000000000000600052604160045260246000fd5b613efe82613cf5565b810181811067ffffffffffffffff82111715613f1d57613f1c613ec6565b5b80604052505050565b6000613f30613c26565b9050613f3c8282613ef5565b919050565b600067ffffffffffffffff821115613f5c57613f5b613ec6565b5b602082029050602081019050919050565b600080fd5b6000613f85613f8084613f41565b613f26565b90508083825260208201905060208402830185811115613fa857613fa7613f6d565b5b835b81811015613fd15780613fbd8882613e59565b845260208401935050602081019050613faa565b5050509392505050565b600082601f830112613ff057613fef613ec1565b5b8135614000848260208601613f72565b91505092915050565b600080604083850312156140205761401f613c30565b5b600061402e85828601613e59565b925050602083013567ffffffffffffffff81111561404f5761404e613c35565b5b61405b85828601613fdb565b9150509250929050565b61406e81613d4e565b82525050565b60006020820190506140896000830184614065565b92915050565b600080604083850312156140a6576140a5613c30565b5b60006140b485828601613e59565b92505060206140c585828601613e59565b9150509250929050565b6000602082840312156140e5576140e4613c30565b5b60006140f384828501613e59565b91505092915050565b600082825260208201905092915050565b600061411882613caf565b61412281856140fc565b9350614132818560208601613ccb565b61413b81613cf5565b840191505092915050565b60006040820190508181036000830152614160818561410d565b905061416f6020830184613be0565b9392505050565b600060408201905061418b6000830185613be0565b6141986020830184613be0565b9392505050565b600081905092915050565b7f6462000000000000000000000000000000000000000000000000000000000000600082015250565b60006141e060028361419f565b91506141eb826141aa565b600282019050919050565b6000614201826141d3565b9150819050919050565b60008151905061421a81613e42565b92915050565b60008060006060848603121561423957614238613c30565b5b60006142478682870161420b565b93505060206142588682870161420b565b92505060406142698682870161420b565b9150509250925092565b7f4e487b7100000000000000000000000000000000000000000000000000000000600052602260045260246000fd5b600060028204905060018216806142ba57607f821691505b6020821081036142cd576142cc614273565b5b50919050565b6000602082840312156142e9576142e8613c30565b5b60006142f78482850161420b565b91505092915050565b7f7030000000000000000000000000000000000000000000000000000000000000600082015250565b600061433660028361419f565b915061434182614300565b600282019050919050565b600061435782614329565b9150819050919050565b600080fd5b600067ffffffffffffffff82111561438157614380613ec6565b5b61438a82613cf5565b9050602081019050919050565b60006143aa6143a584614366565b613f26565b9050828152602081018484840111156143c6576143c5614361565b5b6143d1848285613ccb565b509392505050565b600082601f8301126143ee576143ed613ec1565b5b81516143fe848260208601614397565b91505092915050565b6000806040838503121561441e5761441d613c30565b5b600083015167ffffffffffffffff81111561443c5761443b613c35565b5b614448858286016143d9565b92505060206144598582860161420b565b9150509250929050565b7f5046204772616465204d657267652066756e6374696f6e206e6f74206f70656e600082015250565b60006144996020836140fc565b91506144a482614463565b602082019050919050565b600060208201905081810360008301526144c88161448c565b9050919050565b600073ffffffffffffffffffffffffffffffffffffffff82169050919050565b60006144fa826144cf565b9050919050565b61450a816144ef565b811461451557600080fd5b50565b60008151905061452781614501565b92915050565b60008060008060008060c0878903121561454a57614549613c30565b5b600061455889828a0161420b565b965050602061456989828a01614518565b955050604061457a89828a0161420b565b945050606061458b89828a01614518565b935050608061459c89828a0161420b565b92505060a06145ad89828a0161420b565b9150509295509295509295565b6145c3816144ef565b82525050565b60006080820190506145de60008301876145ba565b6145eb6020830186613be0565b6145f860408301856145ba565b6146056060830184613be0565b95945050505050565b7f6974656d00000000000000000000000000000000000000000000000000000000600082015250565b600061464460048361419f565b915061464f8261460e565b600482019050919050565b600061466582614637565b9150819050919050565b600060608201905061468460008301866145ba565b6146916020830185613be0565b61469e6040830184613be0565b949350505050565b7f7065720000000000000000000000000000000000000000000000000000000000600082015250565b60006146dc60038361419f565b91506146e7826146a6565b600382019050919050565b60006146fd826146cf565b9150819050919050565b7f6469737472696275746500000000000000000000000000000000000000000000600082015250565b600061473d600a8361419f565b915061474882614707565b600a82019050919050565b600061475e82614730565b9150819050919050565b600060608201905061477d60008301866145ba565b61478a60208301856145ba565b6147976040830184613be0565b949350505050565b6147a881613d4e565b81146147b357600080fd5b50565b6000815190506147c58161479f565b92915050565b6000602082840312156147e1576147e0613c30565b5b60006147ef848285016147b6565b91505092915050565b6000819050919050565b6000819050919050565b600061482761482261481d846147f8565b614802565b613bd6565b9050919050565b6148378161480c565b82525050565b600060608201905061485260008301866145ba565b61485f6020830185613be0565b61486c604083018461482e565b949350505050565b6000806040838503121561488b5761488a613c30565b5b60006148998582860161420b565b925050602083015167ffffffffffffffff8111156148ba576148b9613c35565b5b6148c6858286016143d9565b9150509250929050565b6000819050919050565b60006148f56148f06148eb846148d0565b614802565b613bd6565b9050919050565b614905816148da565b82525050565b600081519050919050565b600082825260208201905092915050565b60006149328261490b565b61493c8185614916565b935061494c818560208601613ccb565b61495581613cf5565b840191505092915050565b60006080820190506149756000830187613be0565b6149826020830186613be0565b61498f60408301856148fc565b81810360608301526149a18184614927565b905095945050505050565b7f6169656e00000000000000000000000000000000000000000000000000000000600082015250565b60006149e260048361419f565b91506149ed826149ac565b600482019050919050565b6000614a03826149d5565b9150819050919050565b600060208284031215614a2357614a22613c30565b5b6000614a3184828501614518565b91505092915050565b7f6e6f74206f776e65720000000000000000000000000000000000000000000000600082015250565b6000614a706009836140fc565b9150614a7b82614a3a565b602082019050919050565b60006020820190508181036000830152614a9f81614a63565b9050919050565b7f6475706c69636174652070662069640000000000000000000000000000000000600082015250565b6000614adc600f836140fc565b9150614ae782614aa6565b602082019050919050565b60006020820190508181036000830152614b0b81614acf565b9050919050565b7f6e6f74206f776e6572206f6620706572667269656e6473000000000000000000600082015250565b6000614b486017836140fc565b9150614b5382614b12565b602082019050919050565b60006020820190508181036000830152614b7781614b3b565b9050919050565b7f4e487b7100000000000000000000000000000000000000000000000000000000600052601160045260246000fd5b6000614bb882613bd6565b9150614bc383613bd6565b9250828202614bd181613bd6565b91508282048414831517614be857614be7614b7e565b5b5092915050565b7f706572667269656e647300000000000000000000000000000000000000000000600082015250565b6000614c25600a8361419f565b9150614c3082614bef565b600a82019050919050565b6000614c4682614c18565b9150819050919050565b7f4e487b7100000000000000000000000000000000000000000000000000000000600052603260045260246000fd5b600080fd5b60006101208284031215614c9b57614c9a614c7f565b5b614ca6610120613f26565b90506000614cb68482850161420b565b6000830152506020614cca8482850161420b565b6020830152506040614cde8482850161420b565b6040830152506060614cf28482850161420b565b6060830152506080614d068482850161420b565b60808301525060a0614d1a8482850161420b565b60a08301525060c0614d2e8482850161420b565b60c08301525060e0614d428482850161420b565b60e083015250610100614d578482850161420b565b6101008301525092915050565b60006101208284031215614d7b57614d7a613c30565b5b6000614d8984828501614c84565b91505092915050565b6000614d9d82613bd6565b9150614da883613bd6565b9250828201905080821115614dc057614dbf614b7e565b5b92915050565b600061012082019050614ddc600083018c613be0565b614de9602083018b613be0565b614df6604083018a613be0565b614e036060830189613be0565b614e106080830188613be0565b614e1d60a0830187613be0565b614e2a60c083018661482e565b614e3760e0830185613be0565b614e45610100830184613be0565b9a9950505050505050505050565b7f7465616d00000000000000000000000000000000000000000000000000000000600082015250565b6000614e8960048361419f565b9150614e9482614e53565b600482019050919050565b6000614eaa82614e7c565b9150819050919050565b7f4e487b7100000000000000000000000000000000000000000000000000000000600052601260045260246000fd5b6000614eee82613bd6565b9150614ef983613bd6565b925082614f0957614f08614eb4565b5b828204905092915050565b600081519050919050565b600082825260208201905092915050565b6000819050602082019050919050565b6000614f4c8383613d3f565b60208301905092915050565b6000602082019050919050565b6000614f7082614f14565b614f7a8185614f1f565b9350614f8583614f30565b8060005b83811015614fb6578151614f9d8882614f40565b9750614fa883614f58565b925050600181019050614f89565b5085935050505092915050565b6000604082019050614fd86000830185613be0565b8181036020830152614fea8184614f65565b90509392505050565b7f6e6f74207072656d69756d206c6576656c000000000000000000000000000000600082015250565b60006150296011836140fc565b915061503482614ff3565b602082019050919050565b600060208201905081810360008301526150588161501c565b9050919050565b7f6e6f74206f70656e000000000000000000000000000000000000000000000000600082015250565b60006150956008836140fc565b91506150a08261505f565b602082019050919050565b600060208201905081810360008301526150c481615088565b9050919050565b600080600080608085870312156150e5576150e4613c30565b5b60006150f387828801614518565b945050602061510487828801614518565b93505060406151158782880161420b565b92505060606151268782880161420b565b91505092959194509250565b600060608201905061514760008301866145ba565b6151546020830185613be0565b61516160408301846148fc565b949350505050565b600061517482613bd6565b915061517f83613bd6565b925082820390508181111561519757615196614b7e565b5b92915050565b60006080820190506151b260008301876148fc565b6151bf6020830186614065565b6151cc6040830185613be0565b6151d96060830184613be0565b95945050505050565b600062ffffff82169050919050565b600061520c615207615202846151e2565b614802565b613bd6565b9050919050565b61521c816151f1565b82525050565b600060c0820190506152376000830189613be0565b6152446020830188613be0565b6152516040830187613be0565b61525e6060830186613be0565b61526b6080830185615213565b61527860a0830184613be0565b979650505050505050565b600060a0820190506152986000830188613be0565b6152a56020830187613be0565b6152b26040830186613be0565b6152bf6060830185613be0565b6152cc6080830184613be0565b9695505050505050565b60006060820190506152eb60008301866148fc565b6152f86020830185614065565b6153056040830184613be0565b949350505050565b600060408201905061532260008301856145ba565b61532f6020830184613be0565b9392505050565b7f6275726e00000000000000000000000000000000000000000000000000000000600082015250565b600061536c60048361419f565b915061537782615336565b600482019050919050565b600061538d8261535f565b9150819050919050565b7f7032000000000000000000000000000000000000000000000000000000000000600082015250565b60006153cd60028361419f565b91506153d882615397565b600282019050919050565b60006153ee826153c0565b9150819050919050565b7f7031000000000000000000000000000000000000000000000000000000000000600082015250565b600061542e60028361419f565b9150615439826153f8565b600282019050919050565b600061544f82615421565b9150819050919050565b600060408201905061546e600083018561482e565b61547b6020830184613be0565b9392505050565b60006080828403121561549857615497614c7f565b5b6154a26080613f26565b905060006154b28482850161420b565b60008301525060206154c68482850161420b565b60208301525060406154da848285016147b6565b60408301525060606154ee8482850161420b565b60608301525092915050565b6000608082840312156155105761550f613c30565b5b600061551e84828501615482565b91505092915050565b6000819050919050565b61554261553d82613bd6565b615527565b82525050565b60008160601b9050919050565b600061556082615548565b9050919050565b600061557282615555565b9050919050565b61558a615585826144ef565b615567565b82525050565b600061559b826144cf565b9050919050565b60006155ad82615555565b9050919050565b6155c56155c082615590565b6155a2565b82525050565b60006155d78286615531565b6020820191506155e78285615579565b6014820191506155f782846155b4565b601482019150819050949350505050565b6000615613826151e2565b915061561e836151e2565b9250828203905062ffffff81111561563957615638614b7e565b5b92915050565b600061564a826151e2565b9150615655836151e2565b9250828201905062ffffff8111156156705761566f614b7e565b5b92915050565b600061568182613bd6565b915061568c83613bd6565b92508261569c5761569b614eb4565b5b82820690509291505056fea2646970667358221220da97ce03239ffb5441a54a440a3cf4a769f703ca10e2e787aaefc3a17bc8ae2064736f6c63430008160033",
  "devdoc": {
    "details": "i-TEZ : P0 (Mix) Facet Contract",
    "kind": "dev",
    "methods": {},
    "version": 1
  },
  "userdoc": {
    "kind": "user",
    "methods": {
      "P0_getMaxProb()": {
        "notice": "P0 _ get functions"
      }
    },
    "version": 1
  },
  "storageLayout": {
    "storage": [],
    "types": null
  }
}