{
  "address": "0xdD2b81BdF4eb0d53f9Ad86E2E1eab3ec2aa8396F",
  "abi": [
    {
      "anonymous": false,
      "inputs": [
        {
          "indexed": true,
          "internalType": "address",
          "name": "to",
          "type": "address"
        },
        {
          "indexed": true,
          "internalType": "uint256",
          "name": "usePower",
          "type": "uint256"
        }
      ],
      "name": "P1_AddPower_Event",
      "type": "event"
    },
    {
      "anonymous": false,
      "inputs": [
        {
          "indexed": true,
          "internalType": "address",
          "name": "to",
          "type": "address"
        },
        {
          "indexed": true,
          "internalType": "uint256",
          "name": "rewardAmount",
          "type": "uint256"
        }
      ],
      "name": "P1_Harvest_Event",
      "type": "event"
    },
    {
      "anonymous": false,
      "inputs": [
        {
          "indexed": true,
          "internalType": "address",
          "name": "to",
          "type": "address"
        },
        {
          "indexed": true,
          "internalType": "uint256",
          "name": "stakeAmount",
          "type": "uint256"
        }
      ],
      "name": "P1_RewardStaking_Event",
      "type": "event"
    },
    {
      "anonymous": false,
      "inputs": [
        {
          "indexed": true,
          "internalType": "address",
          "name": "to",
          "type": "address"
        },
        {
          "indexed": true,
          "internalType": "uint256",
          "name": "stakeAmount",
          "type": "uint256"
        }
      ],
      "name": "P1_Staking_Event",
      "type": "event"
    },
    {
      "anonymous": false,
      "inputs": [
        {
          "indexed": true,
          "internalType": "address",
          "name": "to",
          "type": "address"
        },
        {
          "indexed": true,
          "internalType": "uint256",
          "name": "unStakeAmount",
          "type": "uint256"
        },
        {
          "indexed": true,
          "internalType": "uint256",
          "name": "pendingId",
          "type": "uint256"
        },
        {
          "indexed": false,
          "internalType": "uint256",
          "name": "burnPower",
          "type": "uint256"
        }
      ],
      "name": "P1_UnStaking_Event",
      "type": "event"
    },
    {
      "anonymous": false,
      "inputs": [
        {
          "indexed": true,
          "internalType": "address",
          "name": "to",
          "type": "address"
        },
        {
          "indexed": true,
          "internalType": "uint256",
          "name": "unStakeAmount",
          "type": "uint256"
        },
        {
          "indexed": true,
          "internalType": "uint256",
          "name": "pendingId",
          "type": "uint256"
        }
      ],
      "name": "P1_UnstakingCancelConfirm_Event",
      "type": "event"
    },
    {
      "anonymous": false,
      "inputs": [
        {
          "indexed": true,
          "internalType": "address",
          "name": "to",
          "type": "address"
        },
        {
          "indexed": true,
          "internalType": "uint256",
          "name": "unStakeAmount",
          "type": "uint256"
        },
        {
          "indexed": true,
          "internalType": "uint256",
          "name": "pendingId",
          "type": "uint256"
        }
      ],
      "name": "P1_UnstakingCancel_Event",
      "type": "event"
    },
    {
      "anonymous": false,
      "inputs": [
        {
          "indexed": true,
          "internalType": "address",
          "name": "to",
          "type": "address"
        },
        {
          "indexed": true,
          "internalType": "uint256",
          "name": "unStakeAmount",
          "type": "uint256"
        },
        {
          "indexed": true,
          "internalType": "uint256",
          "name": "pendingId",
          "type": "uint256"
        }
      ],
      "name": "P1_UnstakingConfirm_Event",
      "type": "event"
    },
    {
      "inputs": [
        {
          "internalType": "uint256",
          "name": "_aienId",
          "type": "uint256"
        },
        {
          "internalType": "uint256",
          "name": "_usePower",
          "type": "uint256"
        }
      ],
      "name": "P1_addPower",
      "outputs": [],
      "stateMutability": "nonpayable",
      "type": "function"
    },
    {
      "inputs": [],
      "name": "P1_getPoolData",
      "outputs": [
        {
          "internalType": "uint256",
          "name": "",
          "type": "uint256"
        },
        {
          "internalType": "uint256",
          "name": "",
          "type": "uint256"
        },
        {
          "internalType": "uint256",
          "name": "",
          "type": "uint256"
        }
      ],
      "stateMutability": "view",
      "type": "function"
    },
    {
      "inputs": [],
      "name": "P1_getTimeLockInfo",
      "outputs": [
        {
          "internalType": "uint16",
          "name": "",
          "type": "uint16"
        },
        {
          "internalType": "uint16",
          "name": "",
          "type": "uint16"
        }
      ],
      "stateMutability": "view",
      "type": "function"
    },
    {
      "inputs": [],
      "name": "P1_getUnstakeData",
      "outputs": [
        {
          "components": [
            {
              "internalType": "address",
              "name": "user",
              "type": "address"
            },
            {
              "internalType": "uint8",
              "name": "pendingType",
              "type": "uint8"
            },
            {
              "internalType": "uint256",
              "name": "startTime",
              "type": "uint256"
            },
            {
              "internalType": "uint256",
              "name": "endTime",
              "type": "uint256"
            },
            {
              "internalType": "uint256",
              "name": "amount",
              "type": "uint256"
            },
            {
              "internalType": "uint256",
              "name": "pendingId",
              "type": "uint256"
            }
          ],
          "internalType": "struct IP1.PendingInfo[]",
          "name": "",
          "type": "tuple[]"
        }
      ],
      "stateMutability": "view",
      "type": "function"
    },
    {
      "inputs": [],
      "name": "P1_getUserData",
      "outputs": [
        {
          "internalType": "uint256",
          "name": "",
          "type": "uint256"
        },
        {
          "internalType": "uint256",
          "name": "",
          "type": "uint256"
        },
        {
          "internalType": "uint256",
          "name": "",
          "type": "uint256"
        },
        {
          "internalType": "uint256",
          "name": "",
          "type": "uint256"
        },
        {
          "internalType": "uint256",
          "name": "",
          "type": "uint256"
        }
      ],
      "stateMutability": "view",
      "type": "function"
    },
    {
      "inputs": [],
      "name": "P1_harvest",
      "outputs": [],
      "stateMutability": "nonpayable",
      "type": "function"
    },
    {
      "inputs": [
        {
          "internalType": "address",
          "name": "_user",
          "type": "address"
        },
        {
          "internalType": "uint256",
          "name": "_withdrawBlock",
          "type": "uint256"
        }
      ],
      "name": "P1_pendingReward",
      "outputs": [
        {
          "internalType": "uint256",
          "name": "",
          "type": "uint256"
        }
      ],
      "stateMutability": "view",
      "type": "function"
    },
    {
      "inputs": [],
      "name": "P1_rewardStaking",
      "outputs": [],
      "stateMutability": "nonpayable",
      "type": "function"
    },
    {
      "inputs": [
        {
          "internalType": "uint256",
          "name": "_amount",
          "type": "uint256"
        }
      ],
      "name": "P1_staking",
      "outputs": [],
      "stateMutability": "nonpayable",
      "type": "function"
    },
    {
      "inputs": [
        {
          "internalType": "uint256",
          "name": "_amount",
          "type": "uint256"
        }
      ],
      "name": "P1_unstaking",
      "outputs": [],
      "stateMutability": "nonpayable",
      "type": "function"
    },
    {
      "inputs": [
        {
          "internalType": "uint256",
          "name": "_pendingId",
          "type": "uint256"
        }
      ],
      "name": "P1_unstakingCancel",
      "outputs": [],
      "stateMutability": "nonpayable",
      "type": "function"
    },
    {
      "inputs": [
        {
          "internalType": "uint256",
          "name": "_pendingId",
          "type": "uint256"
        }
      ],
      "name": "P1_unstakingCancelConfirm",
      "outputs": [],
      "stateMutability": "nonpayable",
      "type": "function"
    },
    {
      "inputs": [
        {
          "internalType": "uint256",
          "name": "_pendingId",
          "type": "uint256"
        }
      ],
      "name": "P1_unstakingConfirm",
      "outputs": [],
      "stateMutability": "nonpayable",
      "type": "function"
    }
  ],
  "transactionHash": "0x8cb6f6253661d21054d029e6b45742812a45afb34c63a2b7e3d5256f5746c428",
  "args": [],
  "numDeployments": 21,
  "solcInputHash": "8671c198786fd136cf73750457a52214",
  "bytecode": "0x608060405234801561001057600080fd5b50611280806100206000396000f3fe608060405234801561001057600080fd5b50600436106100cf5760003560e01c80637bf9f3991161008c578063abc5643111610066578063abc56431146101b8578063b10656c2146101c0578063c5ec9ca2146101d3578063deb37805146101f657600080fd5b80637bf9f3991461016d57806382c2e9e01461018057806388ee42fc1461019557600080fd5b806326a28a2a146100d457806342f8f3301461010957806348baa7f41461011e5780634b6b29ca14610131578063529291d4146101395780635f0108791461014c575b600080fd5b6100dc610209565b604080519586526020860194909452928401919091526060830152608082015260a0015b60405180910390f35b61011c610117366004610ec6565b6102b4565b005b61011c61012c366004610ec6565b610395565b61011c610476565b61011c610147366004610ec6565b6105d9565b61015f61015a366004610ef7565b6106c7565b604051908152602001610100565b61011c61017b366004610ec6565b61075f565b610188610840565b6040516101009190610f23565b61019d6108e0565b6040805161ffff938416815292909116602083015201610100565b61011c6109f1565b61011c6101ce366004610ec6565b610b54565b6101db610cf2565b60408051938452602084019290925290820152606001610100565b61011c610204366004610fa7565b610d8a565b60008080808080600061021a610e6a565b90508160000160405161022c90610fc9565b90815260405190819003602001812054626b8fdd60e51b82526001600160a01b0383811660048401521690630d71fba09060240160a060405180830381865afa15801561027d573d6000803e3d6000fd5b505050506040513d601f19601f820116820180604052508101906102a19190610fd7565b9650965096509650965050509091929394565b6000806102bf610e6a565b9050600080836000016040516102d490610fc9565b908152604051908190036020018120546327e450d360e01b82526001600160a01b0385811660048401526024830188905216906327e450d39060440160408051808303816000875af115801561032e573d6000803e3d6000fd5b505050506040513d601f19601f820116820180604052508101906103529190611017565b915091508082846001600160a01b03167fdce307ad8cc45c1b96ed14c0f9253faf6ef7238a708602298f240009e78405fe60405160405180910390a45050505050565b6000806103a0610e6a565b9050600080836000016040516103b590610fc9565b9081526040519081900360200181205463224463a160e21b82526001600160a01b0385811660048401526024830188905216906389118e849060440160408051808303816000875af115801561040f573d6000803e3d6000fd5b505050506040513d601f19601f820116820180604052508101906104339190611017565b915091508082846001600160a01b03167fc18e31d64f580a9420255733fba92e8302f3fd5322b812b344cddb995b7743ff60405160405180910390a45050505050565b600080610481610e6a565b90508160000160405161049390610fc9565b90815260405190819003602001812054632fb8694160e01b82526001600160a01b0383811660048401521690632fb86941906024016020604051808303816000875af11580156104e7573d6000803e3d6000fd5b505050506040513d601f19601f8201168201806040525081019061050b919061103b565b5060008260000160405161051e90610fc9565b90815260405190819003602001812054638b487f3560e01b82526001600160a01b038481166004840152600060248401521690638b487f3590604401602060405180830381865afa158015610577573d6000803e3d6000fd5b505050506040513d601f19601f8201168201806040525081019061059b919061103b565b905080826001600160a01b03167fadc3fc4e0ed830a47bee2a00666364c20153e3f2786206bb495cdb2a89e67ea860405160405180910390a3505050565b6000806105e4610e6a565b9050600080836000016040516105f990610fc9565b90815260405190819003602001812054630f7cb96360e21b82526001600160a01b038581166004840152602483018890521690633df2e58c9060440160408051808303816000875af1158015610653573d6000803e3d6000fd5b505050506040513d601f19601f820116820180604052508101906106779190611017565b915091508085846001600160a01b03167ff1acbf9c0276d0b403a7585bc324500bc225245ea229a54faafe08dddae9c517856040516106b891815260200190565b60405180910390a45050505050565b600080806000016040516106da90610fc9565b90815260405190819003602001812054638b487f3560e01b82526001600160a01b038681166004840152602483018690521690638b487f3590604401602060405180830381865afa158015610733573d6000803e3d6000fd5b505050506040513d601f19601f82011682018060405250810190610757919061103b565b949350505050565b60008061076a610e6a565b90506000808360000160405161077f90610fc9565b9081526040519081900360200181205463a179c05560e01b82526001600160a01b03858116600484015260248301889052169063a179c0559060440160408051808303816000875af11580156107d9573d6000803e3d6000fd5b505050506040513d601f19601f820116820180604052508101906107fd9190611017565b915091508082846001600160a01b03167f01caf0a99616b02736ceaea6a35a4297b9522184b82e2ddb6b7f4a6916b25caf60405160405180910390a45050505050565b606060008061084d610e6a565b90508160000160405161085f90610fc9565b90815260405190819003602001812054639f2508f160e01b82526001600160a01b0383811660048401521690639f2508f190602401600060405180830381865afa1580156108b1573d6000803e3d6000fd5b505050506040513d6000823e601f3d908101601f191682016040526108d991908101906110c4565b9250505090565b60008080806000016040516108f490610fc9565b908152604080516020928190038301812054633be9ce0960e11b825291516001600160a01b03909216926377d39c12926004808401938290030181865afa158015610943573d6000803e3d6000fd5b505050506040513d601f19601f8201168201806040525081019061096791906111cf565b604051829061097590610fc9565b90815260408051602092819003830181205463614ff36f60e11b825291516001600160a01b039092169263c29fe6de926004808401938290030181865afa1580156109c4573d6000803e3d6000fd5b505050506040513d601f19601f820116820180604052508101906109e891906111cf565b92509250509091565b6000806109fc610e6a565b905081600001604051610a0e90610fc9565b908152604051908190036020018120546303a25aa760e01b82526001600160a01b03838116600484015216906303a25aa7906024016020604051808303816000875af1158015610a62573d6000803e3d6000fd5b505050506040513d601f19601f82011682018060405250810190610a86919061103b565b50600082600001604051610a9990610fc9565b90815260405190819003602001812054638b487f3560e01b82526001600160a01b038481166004840152600060248401521690638b487f3590604401602060405180830381865afa158015610af2573d6000803e3d6000fd5b505050506040513d601f19601f82011682018060405250810190610b16919061103b565b905080826001600160a01b03167f60629895e8faede9a3cf62b422082caab9bb9c908a25b13a8ea72fb20e65f22260405160405180910390a3505050565b600080610b5f610e6a565b905081600001604051610b7190610fc9565b90815260405190819003602001812054636053f9bb60e01b82526001600160a01b038381166004840152602483018690521690636053f9bb906044016020604051808303816000875af1158015610bcc573d6000803e3d6000fd5b505050506040513d601f19601f82011682018060405250810190610bf0919061103b565b50604051623832b960e91b81528290600301908152604051908190036020018120546001600160a01b0316906323b872dd9083908590610c2f90610fc9565b908152604051908190036020018120546001600160e01b031960e085901b1682526001600160a01b039283166004830152919091166024820152604481018690526064016020604051808303816000875af1158015610c92573d6000803e3d6000fd5b505050506040513d601f19601f82011682018060405250810190610cb691906111fa565b5060405183906001600160a01b038316907fb2327801cab7c0b01aabdca29d7fb0969cb6c244660ed4e2df0a0afb1d2f23f890600090a3505050565b600080808080600001604051610d0790610fc9565b908152604080519182900360200182205463415b80ab60e01b835290516001600160a01b039091169163415b80ab9160048083019260609291908290030181865afa158015610d5a573d6000803e3d6000fd5b505050506040513d601f19601f82011682018060405250810190610d7e919061121c565b93509350935050909192565b600080610d95610e6a565b905081600001604051610da790610fc9565b90815260405190819003602001812054630c5eabd360e31b82526001600160a01b038381166004840152602483018790526044830186905216906362f55e98906064016020604051808303816000875af1158015610e09573d6000803e3d6000fd5b505050506040513d601f19601f82011682018060405250810190610e2d919061103b565b5060405183906001600160a01b038316907f3f00fb14be48f6552027de5d877386835c7acd20bd0e63e5f6ef95c86d5b2f7890600090a350505050565b6000303303610ec057600080368080601f0160208091040260200160405190810160405280939291908181526020018383808284376000920191909152505050503601516001600160a01b03169150610ec39050565b50335b90565b600060208284031215610ed857600080fd5b5035919050565b6001600160a01b0381168114610ef457600080fd5b50565b60008060408385031215610f0a57600080fd5b8235610f1581610edf565b946020939093013593505050565b602080825282518282018190526000919060409081850190868401855b82811015610f9a57815180516001600160a01b031685528681015160ff16878601528581015186860152606080820151908601526080808201519086015260a0908101519085015260c09093019290850190600101610f40565b5091979650505050505050565b60008060408385031215610fba57600080fd5b50508035926020909101359150565b61703160f01b815260020190565b600080600080600060a08688031215610fef57600080fd5b5050835160208501516040860151606087015160809097015192989197509594509092509050565b6000806040838503121561102a57600080fd5b505080516020909101519092909150565b60006020828403121561104d57600080fd5b5051919050565b634e487b7160e01b600052604160045260246000fd5b60405160c0810167ffffffffffffffff8111828210171561108d5761108d611054565b60405290565b604051601f8201601f1916810167ffffffffffffffff811182821017156110bc576110bc611054565b604052919050565b600060208083850312156110d757600080fd5b825167ffffffffffffffff808211156110ef57600080fd5b818501915085601f83011261110357600080fd5b81518181111561111557611115611054565b611123848260051b01611093565b818152848101925060c091820284018501918883111561114257600080fd5b938501935b828510156111c35780858a03121561115f5760008081fd5b61116761106a565b855161117281610edf565b81528587015160ff811681146111885760008081fd5b8188015260408681015190820152606080870151908201526080808701519082015260a0808701519082015284529384019392850192611147565b50979650505050505050565b6000602082840312156111e157600080fd5b815161ffff811681146111f357600080fd5b9392505050565b60006020828403121561120c57600080fd5b815180151581146111f357600080fd5b60008060006060848603121561123157600080fd5b835192506020840151915060408401519050925092509256fea264697066735822122049068336a63c03fec992edb76e01e90e08f7f0145d8e6b7cddbe460e3d0dbddb64736f6c63430008160033",
  "devdoc": {
    "kind": "dev",
    "methods": {},
    "version": 1
  },
  "userdoc": {
    "kind": "user",
    "methods": {
      "P1_getPoolData()": {
        "notice": "P1 _ get functions"
      }
    },
    "version": 1
  },
  "storageLayout": {
    "storage": [],
    "types": null
  }
}