{
  "address": "0x5133136A6d9A9C2e09ed81Fc83cFdaBca1C89C52",
  "abi": [
    {
      "inputs": [
        {
          "internalType": "uint256",
          "name": "_id",
          "type": "uint256"
        }
      ],
      "name": "exitAien",
      "outputs": [],
      "stateMutability": "nonpayable",
      "type": "function"
    },
    {
      "inputs": [],
      "name": "exitAssets",
      "outputs": [],
      "stateMutability": "nonpayable",
      "type": "function"
    }
  ],
  "transactionHash": "0xdc7c6605ff63fcff66c51eff6ddb29e3042648a9b18040cd7eb7c41f5c86e992",
  "args": [],
  "numDeployments": 1,
  "solcInputHash": "e030b3c65f571675cfb2343e51725e64",
  "bytecode": "0x608060405234801561001057600080fd5b50610313806100206000396000f3fe608060405234801561001057600080fd5b50600436106100365760003560e01c806330b376201461003b5780636ecdd92414610050575b600080fd5b61004e610049366004610282565b610058565b005b61004e6100e7565b6100606101f5565b60006040516330b4b2b760e11b815260040190815260405190819003602001812054632142170760e11b8252306004830152336024830152604482018390526001600160a01b0316906342842e0e90606401600060405180830381600087803b1580156100cc57600080fd5b505af11580156100e0573d6000803e3d6000fd5b5050505050565b6100ef6101f5565b600080604051623832b960e91b8152600301908152604051908190036020018120546370a0823160e01b82523060048301526001600160a01b03169150819063a9059cbb90339083906370a0823190602401602060405180830381865afa15801561015e573d6000803e3d6000fd5b505050506040513d601f19601f82011682018060405250810190610182919061029b565b6040516001600160e01b031960e085901b1681526001600160a01b03909216600483015260248201526044016020604051808303816000875af11580156101cd573d6000803e3d6000fd5b505050506040513d601f19601f820116820180604052508101906101f191906102b4565b5050565b7fc8fcad8db84d3cc18b4c41d551ea0ee66dd599cde068d998e57d5e09332c131c600401546001600160a01b031633146102805760405162461bcd60e51b815260206004820152602260248201527f4c69624469616d6f6e643a204d75737420626520636f6e7472616374206f776e60448201526132b960f11b606482015260840160405180910390fd5b565b60006020828403121561029457600080fd5b5035919050565b6000602082840312156102ad57600080fd5b5051919050565b6000602082840312156102c657600080fd5b815180151581146102d657600080fd5b939250505056fea2646970667358221220d7b97a934782b19ef56709c862e836f3204274cc74ebd085710df0ddad02c25164736f6c63430008160033",
  "devdoc": {
    "kind": "dev",
    "methods": {},
    "version": 1
  },
  "userdoc": {
    "kind": "user",
    "methods": {},
    "version": 1
  },
  "storageLayout": {
    "storage": [],
    "types": null
  }
}