{
  "address": "0x27Cf4792972E190F911aeB039d26dB22E48A81f7",
  "abi": [
    {
      "anonymous": false,
      "inputs": [
        {
          "indexed": true,
          "internalType": "address",
          "name": "to",
          "type": "address"
        },
        {
          "indexed": true,
          "internalType": "uint256",
          "name": "aienId",
          "type": "uint256"
        },
        {
          "indexed": true,
          "internalType": "uint256",
          "name": "layer",
          "type": "uint256"
        },
        {
          "indexed": false,
          "internalType": "uint256",
          "name": "ousdt",
          "type": "uint256"
        },
        {
          "indexed": false,
          "internalType": "uint256",
          "name": "per",
          "type": "uint256"
        }
      ],
      "name": "P2_Harvest_Event",
      "type": "event"
    },
    {
      "anonymous": false,
      "inputs": [
        {
          "indexed": true,
          "internalType": "address",
          "name": "to",
          "type": "address"
        },
        {
          "indexed": true,
          "internalType": "uint256",
          "name": "aienId",
          "type": "uint256"
        },
        {
          "indexed": true,
          "internalType": "uint256",
          "name": "layer",
          "type": "uint256"
        }
      ],
      "name": "P2_Staking_Event",
      "type": "event"
    },
    {
      "anonymous": false,
      "inputs": [
        {
          "indexed": true,
          "internalType": "address",
          "name": "to",
          "type": "address"
        },
        {
          "indexed": true,
          "internalType": "uint256",
          "name": "aienId",
          "type": "uint256"
        },
        {
          "indexed": true,
          "internalType": "uint256",
          "name": "layer",
          "type": "uint256"
        }
      ],
      "name": "P2_UnStaking_Event",
      "type": "event"
    },
    {
      "inputs": [
        {
          "internalType": "uint256",
          "name": "_aienId",
          "type": "uint256"
        }
      ],
      "name": "P2_getAienLevel",
      "outputs": [
        {
          "internalType": "uint256",
          "name": "",
          "type": "uint256"
        }
      ],
      "stateMutability": "view",
      "type": "function"
    },
    {
      "inputs": [
        {
          "internalType": "uint256",
          "name": "_number",
          "type": "uint256"
        }
      ],
      "name": "P2_getLayerData",
      "outputs": [
        {
          "internalType": "uint256",
          "name": "",
          "type": "uint256"
        },
        {
          "internalType": "uint256",
          "name": "",
          "type": "uint256"
        },
        {
          "internalType": "uint256",
          "name": "",
          "type": "uint256"
        }
      ],
      "stateMutability": "view",
      "type": "function"
    },
    {
      "inputs": [],
      "name": "P2_getUserInfo",
      "outputs": [
        {
          "components": [
            {
              "internalType": "uint256",
              "name": "_usdtRewarded",
              "type": "uint256"
            },
            {
              "internalType": "uint256",
              "name": "_perRewarded",
              "type": "uint256"
            },
            {
              "internalType": "bool",
              "name": "_isBlockUser",
              "type": "bool"
            }
          ],
          "internalType": "struct IP2.UserLoadData",
          "name": "",
          "type": "tuple"
        },
        {
          "components": [
            {
              "internalType": "uint256",
              "name": "_aienId",
              "type": "uint256"
            },
            {
              "internalType": "uint256",
              "name": "_aienLevel",
              "type": "uint256"
            },
            {
              "internalType": "uint256",
              "name": "_aien_per_received",
              "type": "uint256"
            },
            {
              "internalType": "uint256",
              "name": "_aien_usdt_received",
              "type": "uint256"
            },
            {
              "internalType": "uint256",
              "name": "usdt_withdrawable",
              "type": "uint256"
            },
            {
              "internalType": "uint256",
              "name": "per_withdrawable",
              "type": "uint256"
            },
            {
              "internalType": "uint256",
              "name": "block_reward_per",
              "type": "uint256"
            },
            {
              "internalType": "uint256",
              "name": "block_reward_usdt",
              "type": "uint256"
            }
          ],
          "internalType": "struct IP2.AienLoadData[]",
          "name": "",
          "type": "tuple[]"
        },
        {
          "components": [
            {
              "internalType": "bool",
              "name": "isOpen",
              "type": "bool"
            },
            {
              "internalType": "uint256",
              "name": "_layerNumber",
              "type": "uint256"
            },
            {
              "internalType": "uint256",
              "name": "_24h_reward_per",
              "type": "uint256"
            },
            {
              "internalType": "uint256",
              "name": "_24h_reward_usdt",
              "type": "uint256"
            },
            {
              "internalType": "uint256",
              "name": "totalStakedAien",
              "type": "uint256"
            }
          ],
          "internalType": "struct IP2.LayerLoadData[]",
          "name": "",
          "type": "tuple[]"
        }
      ],
      "stateMutability": "view",
      "type": "function"
    },
    {
      "inputs": [
        {
          "internalType": "uint256",
          "name": "_aienId",
          "type": "uint256"
        }
      ],
      "name": "P2_harvest",
      "outputs": [],
      "stateMutability": "nonpayable",
      "type": "function"
    },
    {
      "inputs": [
        {
          "internalType": "uint256",
          "name": "_number",
          "type": "uint256"
        }
      ],
      "name": "P2_layers",
      "outputs": [
        {
          "components": [
            {
              "components": [
                {
                  "internalType": "uint256",
                  "name": "perBalance",
                  "type": "uint256"
                },
                {
                  "internalType": "uint256",
                  "name": "usdtBalance",
                  "type": "uint256"
                },
                {
                  "internalType": "uint256",
                  "name": "savedPerBalance",
                  "type": "uint256"
                },
                {
                  "internalType": "uint256",
                  "name": "savedUsdtBalance",
                  "type": "uint256"
                },
                {
                  "internalType": "uint256",
                  "name": "add_dailyUSDT",
                  "type": "uint256"
                },
                {
                  "internalType": "uint256",
                  "name": "add_dailyPER",
                  "type": "uint256"
                },
                {
                  "internalType": "uint256",
                  "name": "total_checkWithdrawPER",
                  "type": "uint256"
                },
                {
                  "internalType": "uint256",
                  "name": "withdrawal_checkWithdrawPER",
                  "type": "uint256"
                },
                {
                  "internalType": "uint256",
                  "name": "total_checkWithdrawUSDT",
                  "type": "uint256"
                },
                {
                  "internalType": "uint256",
                  "name": "withdrawal_checkWithdrawUSDT",
                  "type": "uint256"
                }
              ],
              "internalType": "struct IP2.Balances",
              "name": "balances",
              "type": "tuple"
            },
            {
              "internalType": "uint256",
              "name": "rewardUsdtPercent",
              "type": "uint256"
            },
            {
              "internalType": "uint256",
              "name": "rewardPerPercent",
              "type": "uint256"
            },
            {
              "internalType": "uint256",
              "name": "dailyReward_Percent",
              "type": "uint256"
            },
            {
              "internalType": "uint256",
              "name": "rewardPer",
              "type": "uint256"
            },
            {
              "internalType": "uint256",
              "name": "rewardUsdt",
              "type": "uint256"
            },
            {
              "internalType": "uint256",
              "name": "add_dailyReward_Percent",
              "type": "uint256"
            },
            {
              "internalType": "uint256",
              "name": "lastRewardBlock",
              "type": "uint256"
            },
            {
              "internalType": "uint256",
              "name": "dailyRewardUpdateBlock",
              "type": "uint256"
            },
            {
              "internalType": "uint256",
              "name": "totalStakedAien",
              "type": "uint256"
            },
            {
              "internalType": "bool",
              "name": "isOpen",
              "type": "bool"
            }
          ],
          "internalType": "struct IP2.Layer",
          "name": "",
          "type": "tuple"
        }
      ],
      "stateMutability": "view",
      "type": "function"
    },
    {
      "inputs": [],
      "name": "P2_maxStakingLimit",
      "outputs": [
        {
          "internalType": "uint256",
          "name": "",
          "type": "uint256"
        }
      ],
      "stateMutability": "view",
      "type": "function"
    },
    {
      "inputs": [],
      "name": "P2_perBalance",
      "outputs": [
        {
          "internalType": "uint256",
          "name": "",
          "type": "uint256"
        }
      ],
      "stateMutability": "view",
      "type": "function"
    },
    {
      "inputs": [
        {
          "internalType": "uint256",
          "name": "_aienId",
          "type": "uint256"
        }
      ],
      "name": "P2_staking",
      "outputs": [],
      "stateMutability": "nonpayable",
      "type": "function"
    },
    {
      "inputs": [
        {
          "internalType": "uint256",
          "name": "_aienId",
          "type": "uint256"
        }
      ],
      "name": "P2_unStaking",
      "outputs": [],
      "stateMutability": "nonpayable",
      "type": "function"
    },
    {
      "inputs": [],
      "name": "P2_usdtBalance",
      "outputs": [
        {
          "internalType": "uint256",
          "name": "",
          "type": "uint256"
        }
      ],
      "stateMutability": "view",
      "type": "function"
    }
  ],
  "args": [],
  "numDeployments": 20,
  "solcInputHash": "4f929f09ae59e44da443ccddb3da9401",
  "bytecode": "0x608060405234801561001057600080fd5b50611f92806100206000396000f3fe608060405234801561001057600080fd5b506004361061009e5760003560e01c80638c9e5564116100665780638c9e55641461015d5780638de1ce6e146101795780639ba6678f146101ab578063ce2a9d66146101c7578063ea26a267146101e55761009e565b80631f6371ab146100a3578063496758ba146100bf57806353849719146100dd5780636efa686b1461010d5780637aca4c961461012d575b600080fd5b6100bd60048036038101906100b89190610fb5565b610203565b005b6100c7610409565b6040516100d49190610ff1565b60405180910390f35b6100f760048036038101906100f29190610fb5565b6104c9565b6040516101049190610ff1565b60405180910390f35b610115610596565b604051610124939291906112e1565b60405180910390f35b61014760048036038101906101429190610fb5565b610694565b60405161015491906114da565b60405180910390f35b61017760048036038101906101729190610fb5565b610769565b005b610193600480360381019061018e9190610fb5565b610956565b6040516101a2939291906114f6565b60405180910390f35b6101c560048036038101906101c09190610fb5565b610a2c565b005b6101cf610c5e565b6040516101dc9190610ff1565b60405180910390f35b6101ed610d1e565b6040516101fa9190610ff1565b60405180910390f35b600061020d610dde565b90506000610219610de3565b90506000610226846104c9565b90508260000160405161023890611584565b908152602001604051809103902060009054906101000a900473ffffffffffffffffffffffffffffffffffffffff1673ffffffffffffffffffffffffffffffffffffffff166378c6904683866040518363ffffffff1660e01b81526004016102a19291906115da565b600060405180830381600087803b1580156102bb57600080fd5b505af11580156102cf573d6000803e3d6000fd5b50505050826000016040516102e39061164f565b908152602001604051809103902060009054906101000a900473ffffffffffffffffffffffffffffffffffffffff1673ffffffffffffffffffffffffffffffffffffffff166342842e0e838560000160405161033e90611584565b908152602001604051809103902060009054906101000a900473ffffffffffffffffffffffffffffffffffffffff16876040518463ffffffff1660e01b815260040161038c93929190611664565b600060405180830381600087803b1580156103a657600080fd5b505af11580156103ba573d6000803e3d6000fd5b5050505080848373ffffffffffffffffffffffffffffffffffffffff167f4cb27fb1ffb51d515b4943731980479ad0a2b5df222fb6d08f4df5e5c39b58ec60405160405180910390a450505050565b600080610414610dde565b90508060000160405161042690611584565b908152602001604051809103902060009054906101000a900473ffffffffffffffffffffffffffffffffffffffff1673ffffffffffffffffffffffffffffffffffffffff1663496758ba6040518163ffffffff1660e01b8152600401602060405180830381865afa15801561049f573d6000803e3d6000fd5b505050506040513d601f19601f820116820180604052508101906104c391906116b0565b91505090565b6000806104d4610dde565b9050806000016040516104e690611729565b908152602001604051809103902060009054906101000a900473ffffffffffffffffffffffffffffffffffffffff1673ffffffffffffffffffffffffffffffffffffffff1663fc5435b4846040518263ffffffff1660e01b815260040161054d9190610ff1565b602060405180830381865afa15801561056a573d6000803e3d6000fd5b505050506040513d601f19601f8201168201806040525081019061058e91906116b0565b915050919050565b61059e610e93565b60608060006105ab610dde565b905060006105b7610de3565b90506000806000846000016040516105ce90611584565b908152602001604051809103902060009054906101000a900473ffffffffffffffffffffffffffffffffffffffff1673ffffffffffffffffffffffffffffffffffffffff1663503ead18856040518263ffffffff1660e01b8152600401610635919061173e565b600060405180830381865afa158015610652573d6000803e3d6000fd5b505050506040513d6000823e3d601f19601f8201168201806040525081019061067b9190611b62565b9250925092508282829750975097505050505050909192565b61069c610eb6565b60006106a6610dde565b9050806000016040516106b890611584565b908152602001604051809103902060009054906101000a900473ffffffffffffffffffffffffffffffffffffffff1673ffffffffffffffffffffffffffffffffffffffff16639e9198c2846040518263ffffffff1660e01b815260040161071f9190610ff1565b61028060405180830381865afa15801561073d573d6000803e3d6000fd5b505050506040513d601f19601f820116820180604052508101906107619190611df6565b915050919050565b6000610773610dde565b9050600061077f610de3565b9050600061078c846104c9565b9050600080846000016040516107a190611584565b908152602001604051809103902060009054906101000a900473ffffffffffffffffffffffffffffffffffffffff1673ffffffffffffffffffffffffffffffffffffffff1663296daaac878560006040518463ffffffff1660e01b815260040161080d93929190611e69565b6040805180830381865afa158015610829573d6000803e3d6000fd5b505050506040513d601f19601f8201168201806040525081019061084d9190611ea0565b9150915082868573ffffffffffffffffffffffffffffffffffffffff167f684d4bb8505a79e56d23051935dc82b83cfb4b495b7b76bc214988ee3a2802fe858560405161089b929190611ee0565b60405180910390a4846000016040516108b390611584565b908152602001604051809103902060009054906101000a900473ffffffffffffffffffffffffffffffffffffffff1673ffffffffffffffffffffffffffffffffffffffff1663f405730885886040518363ffffffff1660e01b815260040161091c9291906115da565b600060405180830381600087803b15801561093657600080fd5b505af115801561094a573d6000803e3d6000fd5b50505050505050505050565b600080600080610964610dde565b90508060000160405161097690611584565b908152602001604051809103902060009054906101000a900473ffffffffffffffffffffffffffffffffffffffff1673ffffffffffffffffffffffffffffffffffffffff166362912a05866040518263ffffffff1660e01b81526004016109dd9190610ff1565b606060405180830381865afa1580156109fa573d6000803e3d6000fd5b505050506040513d601f19601f82011682018060405250810190610a1e9190611f09565b935093509350509193909250565b6000610a36610dde565b90506000610a42610de3565b90506000610a4f846104c9565b905060008084600001604051610a6490611584565b908152602001604051809103902060009054906101000a900473ffffffffffffffffffffffffffffffffffffffff1673ffffffffffffffffffffffffffffffffffffffff1663296daaac878560006040518463ffffffff1660e01b8152600401610ad093929190611e69565b6040805180830381865afa158015610aec573d6000803e3d6000fd5b505050506040513d601f19601f82011682018060405250810190610b109190611ea0565b9150915082868573ffffffffffffffffffffffffffffffffffffffff167f249c91593e22a24937e64924560e7ce5935b8194cce99247dfade070618c6afe60405160405180910390a482868573ffffffffffffffffffffffffffffffffffffffff167f684d4bb8505a79e56d23051935dc82b83cfb4b495b7b76bc214988ee3a2802fe8585604051610ba3929190611ee0565b60405180910390a484600001604051610bbb90611584565b908152602001604051809103902060009054906101000a900473ffffffffffffffffffffffffffffffffffffffff1673ffffffffffffffffffffffffffffffffffffffff1663a3f2a37a85886040518363ffffffff1660e01b8152600401610c249291906115da565b600060405180830381600087803b158015610c3e57600080fd5b505af1158015610c52573d6000803e3d6000fd5b50505050505050505050565b600080610c69610dde565b905080600001604051610c7b90611584565b908152602001604051809103902060009054906101000a900473ffffffffffffffffffffffffffffffffffffffff1673ffffffffffffffffffffffffffffffffffffffff16637349298d6040518163ffffffff1660e01b8152600401602060405180830381865afa158015610cf4573d6000803e3d6000fd5b505050506040513d601f19601f82011682018060405250810190610d1891906116b0565b91505090565b600080610d29610dde565b905080600001604051610d3b90611584565b908152602001604051809103902060009054906101000a900473ffffffffffffffffffffffffffffffffffffffff1673ffffffffffffffffffffffffffffffffffffffff1663ea26a2676040518163ffffffff1660e01b8152600401602060405180830381865afa158015610db4573d6000803e3d6000fd5b505050506040513d601f19601f82011682018060405250810190610dd891906116b0565b91505090565b600090565b60003073ffffffffffffffffffffffffffffffffffffffff163373ffffffffffffffffffffffffffffffffffffffff1603610e8c57600080368080601f016020809104026020016040519081016040528093929190818152602001838380828437600081840152601f19601f820116905080830192505050505050509050600080369050905073ffffffffffffffffffffffffffffffffffffffff818301511692505050610e90565b3390505b90565b604051806060016040528060008152602001600081526020016000151581525090565b604051806101600160405280610eca610f18565b81526020016000815260200160008152602001600081526020016000815260200160008152602001600081526020016000815260200160008152602001600081526020016000151581525090565b604051806101400160405280600081526020016000815260200160008152602001600081526020016000815260200160008152602001600081526020016000815260200160008152602001600081525090565b6000604051905090565b600080fd5b600080fd5b6000819050919050565b610f9281610f7f565b8114610f9d57600080fd5b50565b600081359050610faf81610f89565b92915050565b600060208284031215610fcb57610fca610f75565b5b6000610fd984828501610fa0565b91505092915050565b610feb81610f7f565b82525050565b60006020820190506110066000830184610fe2565b92915050565b61101581610f7f565b82525050565b60008115159050919050565b6110308161101b565b82525050565b60608201600082015161104c600085018261100c565b50602082015161105f602085018261100c565b5060408201516110726040850182611027565b50505050565b600081519050919050565b600082825260208201905092915050565b6000819050602082019050919050565b610100820160008201516110bb600085018261100c565b5060208201516110ce602085018261100c565b5060408201516110e1604085018261100c565b5060608201516110f4606085018261100c565b506080820151611107608085018261100c565b5060a082015161111a60a085018261100c565b5060c082015161112d60c085018261100c565b5060e082015161114060e085018261100c565b50505050565b600061115283836110a4565b6101008301905092915050565b6000602082019050919050565b600061117782611078565b6111818185611083565b935061118c83611094565b8060005b838110156111bd5781516111a48882611146565b97506111af8361115f565b925050600181019050611190565b5085935050505092915050565b600081519050919050565b600082825260208201905092915050565b6000819050602082019050919050565b60a08201600082015161120c6000850182611027565b50602082015161121f602085018261100c565b506040820151611232604085018261100c565b506060820151611245606085018261100c565b506080820151611258608085018261100c565b50505050565b600061126a83836111f6565b60a08301905092915050565b6000602082019050919050565b600061128e826111ca565b61129881856111d5565b93506112a3836111e6565b8060005b838110156112d45781516112bb888261125e565b97506112c683611276565b9250506001810190506112a7565b5085935050505092915050565b600060a0820190506112f66000830186611036565b8181036060830152611308818561116c565b9050818103608083015261131c8184611283565b9050949350505050565b6101408201600082015161133d600085018261100c565b506020820151611350602085018261100c565b506040820151611363604085018261100c565b506060820151611376606085018261100c565b506080820151611389608085018261100c565b5060a082015161139c60a085018261100c565b5060c08201516113af60c085018261100c565b5060e08201516113c260e085018261100c565b506101008201516113d761010085018261100c565b506101208201516113ec61012085018261100c565b50505050565b610280820160008201516114096000850182611326565b50602082015161141d61014085018261100c565b50604082015161143161016085018261100c565b50606082015161144561018085018261100c565b5060808201516114596101a085018261100c565b5060a082015161146d6101c085018261100c565b5060c08201516114816101e085018261100c565b5060e082015161149561020085018261100c565b506101008201516114aa61022085018261100c565b506101208201516114bf61024085018261100c565b506101408201516114d4610260850182611027565b50505050565b6000610280820190506114f060008301846113f2565b92915050565b600060608201905061150b6000830186610fe2565b6115186020830185610fe2565b6115256040830184610fe2565b949350505050565b600081905092915050565b7f7032000000000000000000000000000000000000000000000000000000000000600082015250565b600061156e60028361152d565b915061157982611538565b600282019050919050565b600061158f82611561565b9150819050919050565b600073ffffffffffffffffffffffffffffffffffffffff82169050919050565b60006115c482611599565b9050919050565b6115d4816115b9565b82525050565b60006040820190506115ef60008301856115cb565b6115fc6020830184610fe2565b9392505050565b7f6169656e00000000000000000000000000000000000000000000000000000000600082015250565b600061163960048361152d565b915061164482611603565b600482019050919050565b600061165a8261162c565b9150819050919050565b600060608201905061167960008301866115cb565b61168660208301856115cb565b6116936040830184610fe2565b949350505050565b6000815190506116aa81610f89565b92915050565b6000602082840312156116c6576116c5610f75565b5b60006116d48482850161169b565b91505092915050565b7f6462000000000000000000000000000000000000000000000000000000000000600082015250565b600061171360028361152d565b915061171e826116dd565b600282019050919050565b600061173482611706565b9150819050919050565b600060208201905061175360008301846115cb565b92915050565b600080fd5b6000601f19601f8301169050919050565b7f4e487b7100000000000000000000000000000000000000000000000000000000600052604160045260246000fd5b6117a78261175e565b810181811067ffffffffffffffff821117156117c6576117c561176f565b5b80604052505050565b60006117d9610f6b565b90506117e5828261179e565b919050565b6117f38161101b565b81146117fe57600080fd5b50565b600081519050611810816117ea565b92915050565b60006060828403121561182c5761182b611759565b5b61183660606117cf565b905060006118468482850161169b565b600083015250602061185a8482850161169b565b602083015250604061186e84828501611801565b60408301525092915050565b600080fd5b600067ffffffffffffffff82111561189a5761189961176f565b5b602082029050602081019050919050565b600080fd5b600061010082840312156118c7576118c6611759565b5b6118d26101006117cf565b905060006118e28482850161169b565b60008301525060206118f68482850161169b565b602083015250604061190a8482850161169b565b604083015250606061191e8482850161169b565b60608301525060806119328482850161169b565b60808301525060a06119468482850161169b565b60a08301525060c061195a8482850161169b565b60c08301525060e061196e8482850161169b565b60e08301525092915050565b600061198d6119888461187f565b6117cf565b90508083825260208201905061010084028301858111156119b1576119b06118ab565b5b835b818110156119db57806119c688826118b0565b845260208401935050610100810190506119b3565b5050509392505050565b600082601f8301126119fa576119f961187a565b5b8151611a0a84826020860161197a565b91505092915050565b600067ffffffffffffffff821115611a2e57611a2d61176f565b5b602082029050602081019050919050565b600060a08284031215611a5557611a54611759565b5b611a5f60a06117cf565b90506000611a6f84828501611801565b6000830152506020611a838482850161169b565b6020830152506040611a978482850161169b565b6040830152506060611aab8482850161169b565b6060830152506080611abf8482850161169b565b60808301525092915050565b6000611ade611ad984611a13565b6117cf565b90508083825260208201905060a08402830185811115611b0157611b006118ab565b5b835b81811015611b2a5780611b168882611a3f565b84526020840193505060a081019050611b03565b5050509392505050565b600082601f830112611b4957611b4861187a565b5b8151611b59848260208601611acb565b91505092915050565b600080600060a08486031215611b7b57611b7a610f75565b5b6000611b8986828701611816565b935050606084015167ffffffffffffffff811115611baa57611ba9610f7a565b5b611bb6868287016119e5565b925050608084015167ffffffffffffffff811115611bd757611bd6610f7a565b5b611be386828701611b34565b9150509250925092565b60006101408284031215611c0457611c03611759565b5b611c0f6101406117cf565b90506000611c1f8482850161169b565b6000830152506020611c338482850161169b565b6020830152506040611c478482850161169b565b6040830152506060611c5b8482850161169b565b6060830152506080611c6f8482850161169b565b60808301525060a0611c838482850161169b565b60a08301525060c0611c978482850161169b565b60c08301525060e0611cab8482850161169b565b60e083015250610100611cc08482850161169b565b61010083015250610120611cd68482850161169b565b6101208301525092915050565b60006102808284031215611cfa57611cf9611759565b5b611d056101606117cf565b90506000611d1584828501611bed565b600083015250610140611d2a8482850161169b565b602083015250610160611d3f8482850161169b565b604083015250610180611d548482850161169b565b6060830152506101a0611d698482850161169b565b6080830152506101c0611d7e8482850161169b565b60a0830152506101e0611d938482850161169b565b60c083015250610200611da88482850161169b565b60e083015250610220611dbd8482850161169b565b61010083015250610240611dd38482850161169b565b61012083015250610260611de984828501611801565b6101408301525092915050565b60006102808284031215611e0d57611e0c610f75565b5b6000611e1b84828501611ce3565b91505092915050565b6000819050919050565b6000819050919050565b6000611e53611e4e611e4984611e24565b611e2e565b610f7f565b9050919050565b611e6381611e38565b82525050565b6000606082019050611e7e6000830186610fe2565b611e8b6020830185610fe2565b611e986040830184611e5a565b949350505050565b60008060408385031215611eb757611eb6610f75565b5b6000611ec58582860161169b565b9250506020611ed68582860161169b565b9150509250929050565b6000604082019050611ef56000830185610fe2565b611f026020830184610fe2565b9392505050565b600080600060608486031215611f2257611f21610f75565b5b6000611f308682870161169b565b9350506020611f418682870161169b565b9250506040611f528682870161169b565b915050925092509256fea2646970667358221220f9f03769e3fe18dd18d41ee2d526477adb588f25f4cce39a1d1dcb13f668dcab64736f6c63430008160033",
  "devdoc": {
    "kind": "dev",
    "methods": {},
    "version": 1
  },
  "userdoc": {
    "kind": "user",
    "methods": {},
    "version": 1
  },
  "storageLayout": {
    "storage": [],
    "types": null
  }
}