{
  "address": "0xCfF376Afd921691C1eEC29C659448Fd7E69C97cc",
  "abi": [
    {
      "anonymous": false,
      "inputs": [
        {
          "indexed": true,
          "internalType": "address",
          "name": "to",
          "type": "address"
        },
        {
          "indexed": true,
          "internalType": "uint256",
          "name": "aienId",
          "type": "uint256"
        },
        {
          "indexed": true,
          "internalType": "uint256",
          "name": "layer",
          "type": "uint256"
        },
        {
          "indexed": false,
          "internalType": "uint256",
          "name": "baseReward",
          "type": "uint256"
        },
        {
          "indexed": false,
          "internalType": "uint256",
          "name": "plusReward",
          "type": "uint256"
        }
      ],
      "name": "P2_Harvest_Event",
      "type": "event"
    },
    {
      "anonymous": false,
      "inputs": [
        {
          "indexed": true,
          "internalType": "address",
          "name": "to",
          "type": "address"
        },
        {
          "indexed": true,
          "internalType": "uint256",
          "name": "aienId",
          "type": "uint256"
        },
        {
          "indexed": true,
          "internalType": "uint256",
          "name": "layer",
          "type": "uint256"
        }
      ],
      "name": "P2_Staking_Event",
      "type": "event"
    },
    {
      "anonymous": false,
      "inputs": [
        {
          "indexed": true,
          "internalType": "address",
          "name": "to",
          "type": "address"
        },
        {
          "indexed": true,
          "internalType": "uint256",
          "name": "aienId",
          "type": "uint256"
        },
        {
          "indexed": true,
          "internalType": "uint256",
          "name": "layer",
          "type": "uint256"
        }
      ],
      "name": "P2_UnStaking_Event",
      "type": "event"
    },
    {
      "inputs": [],
      "name": "P2_baseBalance",
      "outputs": [
        {
          "internalType": "uint256",
          "name": "",
          "type": "uint256"
        }
      ],
      "stateMutability": "view",
      "type": "function"
    },
    {
      "inputs": [
        {
          "internalType": "uint256",
          "name": "_layer",
          "type": "uint256"
        }
      ],
      "name": "P2_beforeOpenLayer",
      "outputs": [
        {
          "internalType": "uint256",
          "name": "",
          "type": "uint256"
        }
      ],
      "stateMutability": "view",
      "type": "function"
    },
    {
      "inputs": [
        {
          "internalType": "uint256",
          "name": "_number",
          "type": "uint256"
        }
      ],
      "name": "P2_blockPerLayers",
      "outputs": [
        {
          "internalType": "uint256",
          "name": "",
          "type": "uint256"
        },
        {
          "internalType": "uint256",
          "name": "",
          "type": "uint256"
        }
      ],
      "stateMutability": "view",
      "type": "function"
    },
    {
      "inputs": [
        {
          "internalType": "uint256",
          "name": "_aienId",
          "type": "uint256"
        }
      ],
      "name": "P2_getAienLevel",
      "outputs": [
        {
          "internalType": "uint256",
          "name": "",
          "type": "uint256"
        }
      ],
      "stateMutability": "view",
      "type": "function"
    },
    {
      "inputs": [
        {
          "internalType": "uint256",
          "name": "_number",
          "type": "uint256"
        }
      ],
      "name": "P2_getLayerData",
      "outputs": [
        {
          "internalType": "uint256",
          "name": "",
          "type": "uint256"
        },
        {
          "internalType": "uint256",
          "name": "",
          "type": "uint256"
        },
        {
          "internalType": "uint256",
          "name": "",
          "type": "uint256"
        }
      ],
      "stateMutability": "view",
      "type": "function"
    },
    {
      "inputs": [],
      "name": "P2_getUserInfo",
      "outputs": [
        {
          "components": [
            {
              "internalType": "uint256",
              "name": "_baseRewarded",
              "type": "uint256"
            },
            {
              "internalType": "uint256",
              "name": "_plusRewarded",
              "type": "uint256"
            },
            {
              "internalType": "bool",
              "name": "_isBlockUser",
              "type": "bool"
            }
          ],
          "internalType": "struct LibP2.UserLoadData",
          "name": "",
          "type": "tuple"
        },
        {
          "components": [
            {
              "internalType": "uint256",
              "name": "_aienId",
              "type": "uint256"
            },
            {
              "internalType": "uint256",
              "name": "_aienLevel",
              "type": "uint256"
            },
            {
              "internalType": "uint256",
              "name": "_aien_base_received",
              "type": "uint256"
            },
            {
              "internalType": "uint256",
              "name": "_aien_plus_received",
              "type": "uint256"
            },
            {
              "internalType": "uint256",
              "name": "base_withdrawable",
              "type": "uint256"
            },
            {
              "internalType": "uint256",
              "name": "plus_withdrawable",
              "type": "uint256"
            },
            {
              "internalType": "uint256",
              "name": "block_reward_base",
              "type": "uint256"
            },
            {
              "internalType": "uint256",
              "name": "block_reward_plus",
              "type": "uint256"
            }
          ],
          "internalType": "struct LibP2.AienLoadData[]",
          "name": "",
          "type": "tuple[]"
        },
        {
          "components": [
            {
              "internalType": "bool",
              "name": "isOpen",
              "type": "bool"
            },
            {
              "internalType": "uint256",
              "name": "_layerNumber",
              "type": "uint256"
            },
            {
              "internalType": "uint256",
              "name": "_24h_reward_base",
              "type": "uint256"
            },
            {
              "internalType": "uint256",
              "name": "_24h_reward_plus",
              "type": "uint256"
            },
            {
              "internalType": "uint256",
              "name": "totalStakedAien",
              "type": "uint256"
            }
          ],
          "internalType": "struct LibP2.LayerLoadData[]",
          "name": "",
          "type": "tuple[]"
        }
      ],
      "stateMutability": "view",
      "type": "function"
    },
    {
      "inputs": [
        {
          "internalType": "uint256",
          "name": "_aienId",
          "type": "uint256"
        }
      ],
      "name": "P2_harvest",
      "outputs": [],
      "stateMutability": "nonpayable",
      "type": "function"
    },
    {
      "inputs": [
        {
          "internalType": "uint256",
          "name": "_layNumber",
          "type": "uint256"
        }
      ],
      "name": "P2_layer_update",
      "outputs": [],
      "stateMutability": "nonpayable",
      "type": "function"
    },
    {
      "inputs": [
        {
          "internalType": "uint256",
          "name": "_layerNumber",
          "type": "uint256"
        }
      ],
      "name": "P2_layer_updateAll",
      "outputs": [],
      "stateMutability": "nonpayable",
      "type": "function"
    },
    {
      "inputs": [
        {
          "internalType": "uint256",
          "name": "_number",
          "type": "uint256"
        }
      ],
      "name": "P2_layers",
      "outputs": [
        {
          "components": [
            {
              "components": [
                {
                  "internalType": "uint256",
                  "name": "baseBalance",
                  "type": "uint256"
                },
                {
                  "internalType": "uint256",
                  "name": "plusBalance",
                  "type": "uint256"
                },
                {
                  "internalType": "uint256",
                  "name": "savedBaseBalance",
                  "type": "uint256"
                },
                {
                  "internalType": "uint256",
                  "name": "savedPlusBalance",
                  "type": "uint256"
                },
                {
                  "internalType": "uint256",
                  "name": "add_dailyBASE",
                  "type": "uint256"
                },
                {
                  "internalType": "uint256",
                  "name": "add_dailyPLUS",
                  "type": "uint256"
                },
                {
                  "internalType": "uint256",
                  "name": "a",
                  "type": "uint256"
                },
                {
                  "internalType": "uint256",
                  "name": "b",
                  "type": "uint256"
                },
                {
                  "internalType": "uint256",
                  "name": "c",
                  "type": "uint256"
                },
                {
                  "internalType": "uint256",
                  "name": "d",
                  "type": "uint256"
                }
              ],
              "internalType": "struct P2_Balances",
              "name": "balances",
              "type": "tuple"
            },
            {
              "internalType": "uint256",
              "name": "rewardBasePercent",
              "type": "uint256"
            },
            {
              "internalType": "uint256",
              "name": "rewardPlusPercent",
              "type": "uint256"
            },
            {
              "internalType": "uint256",
              "name": "dailyReward_Percent",
              "type": "uint256"
            },
            {
              "internalType": "uint256",
              "name": "add_dailyReward_Percent",
              "type": "uint256"
            },
            {
              "internalType": "uint256",
              "name": "rewardPlus",
              "type": "uint256"
            },
            {
              "internalType": "uint256",
              "name": "rewardBase",
              "type": "uint256"
            },
            {
              "internalType": "uint256",
              "name": "lastRewardBlock",
              "type": "uint256"
            },
            {
              "internalType": "uint256",
              "name": "dailyRewardUpdateBlock",
              "type": "uint256"
            },
            {
              "internalType": "uint256",
              "name": "totalStakedAien",
              "type": "uint256"
            },
            {
              "internalType": "bool",
              "name": "isOpen",
              "type": "bool"
            }
          ],
          "internalType": "struct P2_Layer",
          "name": "",
          "type": "tuple"
        }
      ],
      "stateMutability": "view",
      "type": "function"
    },
    {
      "inputs": [],
      "name": "P2_maxStakingLimit",
      "outputs": [
        {
          "internalType": "uint256",
          "name": "",
          "type": "uint256"
        }
      ],
      "stateMutability": "view",
      "type": "function"
    },
    {
      "inputs": [
        {
          "internalType": "uint256",
          "name": "_aienId",
          "type": "uint256"
        }
      ],
      "name": "P2_pendingReward",
      "outputs": [
        {
          "internalType": "uint256",
          "name": "",
          "type": "uint256"
        },
        {
          "internalType": "uint256",
          "name": "",
          "type": "uint256"
        }
      ],
      "stateMutability": "view",
      "type": "function"
    },
    {
      "inputs": [],
      "name": "P2_plusBalance",
      "outputs": [
        {
          "internalType": "uint256",
          "name": "",
          "type": "uint256"
        }
      ],
      "stateMutability": "view",
      "type": "function"
    },
    {
      "inputs": [
        {
          "internalType": "uint256",
          "name": "_aienId",
          "type": "uint256"
        }
      ],
      "name": "P2_staking",
      "outputs": [],
      "stateMutability": "nonpayable",
      "type": "function"
    },
    {
      "inputs": [
        {
          "internalType": "uint256",
          "name": "_aienId",
          "type": "uint256"
        }
      ],
      "name": "P2_unStaking",
      "outputs": [],
      "stateMutability": "nonpayable",
      "type": "function"
    },
    {
      "inputs": [],
      "name": "P2_update",
      "outputs": [],
      "stateMutability": "nonpayable",
      "type": "function"
    },
    {
      "inputs": [],
      "name": "P2_updateBlock",
      "outputs": [
        {
          "internalType": "uint256",
          "name": "",
          "type": "uint256"
        }
      ],
      "stateMutability": "view",
      "type": "function"
    }
  ],
  "args": [],
  "numDeployments": 59,
  "solcInputHash": "0692674093b2318d08d69394a22e7ec2",
  "bytecode": "0x608060405234801561001057600080fd5b50612e6b806100206000396000f3fe608060405234801561001057600080fd5b506004361061010b5760003560e01c80637f164068116100a2578063ad122de211610071578063ad122de214610234578063c489642b14610247578063ce2a9d661461025a578063cebee72414610262578063e016e8f01461026a57600080fd5b80637f164068146101d85780638c9e5564146101e05780638de1ce6e146101f35780639ba6678f1461022157600080fd5b806368b4735d116100de57806368b4735d146101865780636efa686b1461018e5780637aa1771e146101a55780637aca4c96146101b857600080fd5b80630356ce89146101105780631f6371ab1461012557806349fb7834146101385780635384971914610165575b600080fd5b61012361011e366004612add565b610272565b005b610123610133366004612add565b610293565b61014b610146366004612add565b61039c565b604080519283526020830191909152015b60405180910390f35b610178610173366004612add565b6103c0565b60405190815260200161015c565b603354610178565b610196610451565b60405161015c93929190612b5e565b6101236101b3366004612add565b610497565b6101cb6101c6366004612add565b6104a0565b60405161015c9190612c20565b603254610178565b6101236101ee366004612add565b6105a7565b610206610201366004612add565b610624565b6040805193845260208401929092529082015260600161015c565b61012361022f366004612add565b61063f565b61014b610242366004612add565b6106d6565b610178610255366004612add565b61078f565b603754610178565b603554610178565b6101236107a0565b60015b8181101561028f57610286816107ab565b50600101610275565b5050565b60008061029f836103c0565b90506102ab3384610b39565b6040516330b4b2b760e11b81528290600401908152604051908190036020018120546001600160a01b0316906342842e0e90339085906102fa9068703262616c616e636560b81b815260090190565b908152604051908190036020018120546001600160e01b031960e085901b16825261033692916001600160a01b03909116908890600401612cf4565b600060405180830381600087803b15801561035057600080fd5b505af1158015610364573d6000803e3d6000fd5b505060405183925085915033907f4cb27fb1ffb51d515b4943731980479ad0a2b5df222fb6d08f4df5e5c39b58ec90600090a4505050565b60008060006103aa846103c0565b90506103b68482610d88565b9250925050915091565b6040805161323160f11b8152600060028201819052915190819003602201812054633f150d6d60e21b82526004820184905282916001600160a01b039091169063fc5435b490602401602060405180830381865afa158015610426573d6000803e3d6000fd5b505050506040513d601f19601f8201168201806040525081019061044a9190612d18565b9392505050565b610477604051806060016040528060008152602001600081526020016000151581525090565b606080600080600061048833611202565b91989097509095509350505050565b61028f816107ab565b6104a8612a2d565b5060009081526043602090815260409182902082516102a08101845281546101608201908152600183015461018083015260028301546101a083015260038301546101c083015260048301546101e0830152600583015461020083015260068301546102208301526007830154610240830152600883015461026083015260098301546102808301528152600a82015492810192909252600b81015492820192909252600c8201546060820152600d8201546080820152600e82015460a0820152600f82015460c0820152601082015460e08201526011820154610100820152601282015461012082015260139091015460ff16151561014082015290565b60006105b2826103c0565b90506000806105c18484610d88565b915091508284336001600160a01b03167f684d4bb8505a79e56d23051935dc82b83cfb4b495b7b76bc214988ee3a2802fe858560405161060b929190918252602082015260400190565b60405180910390a461061d3385611912565b5050505050565b600080600061063284611a68565b9250925092509193909250565b600061064a826103c0565b90506000806106598484610d88565b60405191935091508390859033907f249c91593e22a24937e64924560e7ce5935b8194cce99247dfade070618c6afe90600090a460408051838152602081018390528491869133917f684d4bb8505a79e56d23051935dc82b83cfb4b495b7b76bc214988ee3a2802fe910160405180910390a461061d3385611c26565b60385460008281526043602052604081206012810154603954600c8301549254939485948594859492939161070b9190612d47565b6107159190612d5e565b61071f9190612d5e565b6107299190612d5e565b60388301546000878152604385016020526040812060128101546039870154600c830154600190930154959650929490929161076491612d47565b61076e9190612d5e565b6107789190612d5e565b6107829190612d5e565b9196919550909350505050565b600061079a82611e67565b92915050565b6107a861204a565b50565b6000818152604360205260408120601301548290829060ff1661080d5760405162461bcd60e51b815260206004820152601560248201527428191d102630bcb2b91034b9903737ba1037b832b760591b60448201526064015b60405180910390fd5b60008481526043602052604081206013015460ff166108665760405162461bcd60e51b815260206004820152601560248201527428191d102630bcb2b91034b9903737ba1037b832b760591b6044820152606401610804565b60008581526043820160205260408120601081015490919081904390036108935743965050505050610b32565b82601201546000036108ab5743965050505050610b32565b836038015483601101546108bf9190612d80565b431115610a1d575b836038015483601101546108db9190612d80565b431115610a1d5783603801548360110160008282546108fa9190612d80565b90915550506039840154603a850154600c8501546109189190612d47565b6109229190612d5e565b603885015484546109339190612d5e565b846010015485601101546109479190612d93565b6109519190612d47565b61095b9190612d47565b915082601201548261096d9190612d5e565b83600f0160008282546109809190612d80565b90915550506039840154603a850154600c85015461099e9190612d47565b6109a89190612d5e565b603885015460018501546109bc9190612d5e565b846010015485601101546109d09190612d93565b6109da9190612d47565b6109e49190612d47565b90508260120154816109f69190612d5e565b83600e016000828254610a099190612d80565b9091555050601183015460108401556108c7565b836039015484603a015484600c0154610a369190612d47565b610a409190612d5e565b60388501548454610a519190612d5e565b6010850154610a609043612d93565b610a6a9190612d47565b610a749190612d47565b9150826012015482610a869190612d5e565b83600f016000828254610a999190612d80565b90915550506039840154603a850154600c850154610ab79190612d47565b610ac19190612d5e565b60388501546001850154610ad59190612d5e565b6010850154610ae49043612d93565b610aee9190612d47565b610af89190612d47565b9050826012015481610b0a9190612d5e565b83600e016000828254610b1d9190612d80565b90915550504360109093018390555090945050505b5050919050565b6037546001600160a01b0383166000908152604060208190528120849290610b6390600301612456565b10610ba85760405162461bcd60e51b8152602060048201526015602482015274140c8e8813585e0814dd185ada5b99c8131a5b5a5d605a1b6044820152606401610804565b6001600160a01b03841660009081526040602081905281205485919060ff1615610c095760405162461bcd60e51b815260206004820152601260248201527128191d10213630b1b5a634b9ba102ab9b2b960711b6044820152606401610804565b60315460009060ff16610c2e5760405162461bcd60e51b815260040161080490612da6565b6040805161323160f11b8152600060028201819052915190819003602201812054633f150d6d60e21b82526004820189905282916001600160a01b039091169063fc5435b490602401602060405180830381865afa158015610c94573d6000803e3d6000fd5b505050506040513d601f19601f82011682018060405250810190610cb89190612d18565b600081815260438401602052604081206012810154929350919003610ce057610ce082612460565b610ce861204a565b50610cf2826107ab565b506001600160a01b038a166000908152604080850160209081528183208c8452604187019091529120610d28600383018c612469565b5080546001600160a01b0319166001600160a01b038d161781556001808201859055601284018054600090610d5e908490612d80565b9091555050600f8301546004820155600e9092015460059092019190915550505050505050505050565b6000808060008160430160008681526020019081526020016000206040518061016001604052908160008201604051806101400160405290816000820154815260200160018201548152602001600282015481526020016003820154815260200160048201548152602001600582015481526020016006820154815260200160078201548152602001600882015481526020016009820154815250508152602001600a8201548152602001600b8201548152602001600c8201548152602001600d8201548152602001600e8201548152602001600f82015481526020016010820154815260200160118201548152602001601282015481526020016013820160009054906101000a900460ff16151515158152505090506000826041016000888152602001908152602001600020604051806101000160405290816000820160009054906101000a90046001600160a01b03166001600160a01b03166001600160a01b031681526020016001820154815260200160028201548152602001600382015481526020016004820154815260200160058201548152602001600682015481526020016007820154815250509050816101200151600003610f5557600080945094505050506111fb565b61010082015160e083015160c084015160a085015185518051602090910151603889015460009081904390610f8a908a612d80565b8111156110c3575b60388c0154610fa1908a612d80565b8111156110c35760388c0154610fb7908a612d80565b98508b603901548c603a01548c60600151610fd29190612d47565b610fdc9190612d5e565b60388d0154610feb9087612d5e565b610ff58a8c612d93565b610fff9190612d47565b6110099190612d47565b92508a61012001518361101c9190612d5e565b6110269088612d80565b96508b603a0154836110389190612d5e565b94508b603901548c603a01548c606001516110539190612d47565b61105d9190612d5e565b60388d015461106c9086612d5e565b6110768a8c612d93565b6110809190612d47565b61108a9190612d47565b91508a61012001518261109d9190612d5e565b6110a79087612d80565b95508b603a0154826110b99190612d5e565b9350889750610f92565b8b603901548c603a01548c606001516110dc9190612d47565b6110e69190612d5e565b60388d01546110f59087612d5e565b6110ff8a84612d93565b6111099190612d47565b6111139190612d47565b92508a6101200151836111269190612d5e565b6111309088612d80565b96508b603901548c603a01548c6060015161114b9190612d47565b6111559190612d5e565b60388d01546111649086612d5e565b61116e8a84612d93565b6111789190612d47565b6111829190612d47565b91508a6101200151826111959190612d5e565b61119f9087612d80565b955060008a60800151886111b39190612d93565b905060008b60a00151886111c79190612d93565b90508d603a0154826111d99190612d5e565b603a8f01546111e89083612d5e565b9f509f5050505050505050505050505050505b9250929050565b611228604051806060016040528060008152602001600081526020016000151581525090565b6001600160a01b03821660009081526040602081815281832082516060818101855260028301548252600183015493820193909352815460ff16151593810193909352909283929091908261127f60038401612456565b67ffffffffffffffff81111561129757611297612dd1565b60405190808252806020026020018201604052801561131057816020015b6112fd60405180610100016040528060008152602001600081526020016000815260200160008152602001600081526020016000815260200160008152602001600081525090565b8152602001906001900390816112b55790505b5060408051600b808252610180820190925291925060009190816020015b6113626040518060a00160405280600015158152602001600081526020016000815260200160008152602001600081525090565b81526020019060019003908161132e57905050905060005b61138685600301612456565b81101561164557600060418701816113a16003890185612475565b81526020808201929092526040908101600090812082516101008101845281546001600160a01b03168152600182015494810194909452600281015492840192909252600380830154606085015260048301546080850152600583015460a0850152600683015460c085015260079092015460e084015291925081906114379061142d908a0186612475565b8460200151610d88565b90925090506114496003890185612475565b86858151811061145b5761145b612de7565b60200260200101516000018181525050826020015186858151811061148257611482612de7565b602002602001015160200181815250508260e001518685815181106114a9576114a9612de7565b602002602001015160400181815250508260c001518685815181106114d0576114d0612de7565b6020908102919091018101516060019190915260388a01548482018051600090815260438d0190935260408084206012015460398e015483518652828620600c0154935186529190942054929392909161152991612d47565b6115339190612d5e565b61153d9190612d5e565b6115479190612d5e565b86858151811061155957611559612de7565b60209081029190910181015160c0019190915260388a01548482018051600090815260438d0190935260408084206012015460398e015483518652828620600c015493518652919094206001015492939290916115b591612d47565b6115bf9190612d5e565b6115c99190612d5e565b6115d39190612d5e565b8685815181106115e5576115e5612de7565b602002602001015160e00181815250508186858151811061160857611608612de7565b602002602001015160800181815250508086858151811061162b5761162b612de7565b602090810291909101015160a0015250505060010161137a565b5060015b600b811015611902576000818152604387016020908152604080832081516102a08101835281546101608201908152600183015461018083015260028301546101a0830181905260038401546101c0840181905260048501546101e085015260058501546102008501526006850154610220850152600785015461024085015260088501546102608501526009850154610280850152918352600a84015495830195909552600b83015493820193909352600c8201546060820152600d82015460808201819052600e83015460a0830152600f83015460c0830152601083015460e08301526011830154610100830152601283015461012083015260139092015460ff1615156101408201529392839261176292612481565b915091506000836101200151600014611782575061012083015180611787565b506001805b508486868151811061179b5761179b612de7565b602002602001015160200181815250508361014001518686815181106117c3576117c3612de7565b6020026020010151600001901515908115158152505080838b6039015486602001518d603901548e603401548f603201546117fe9190612d47565b6118089190612d5e565b6118129190612d47565b61181c9190612d5e565b6118269190612d80565b6118309190612d5e565b86868151811061184257611842612de7565b6020026020010151604001818152505080828b6039015486604001518d603901548e603401548f603301546118779190612d47565b6118819190612d5e565b61188b9190612d47565b6118959190612d5e565b61189f9190612d80565b6118a99190612d5e565b8686815181106118bb576118bb612de7565b602002602001015160600181815250508361012001518686815181106118e3576118e3612de7565b6020908102919091010151608001525050600190920191506116499050565b5091989097509095509350505050565b603154600090819060ff166119395760405162461bcd60e51b815260040161080490612da6565b6001600160a01b03841660009081526040602081815281832086845260418252828420600181015485526043909252918320838061197561204a565b5061198384600101546107ab565b50611992898560010154610d88565b90925090506119a28a83836124c7565b818560020160008282546119b69190612d80565b92505081905550808560010160008282546119d19190612d80565b9091555050600f8301546004850155600e8301546005850155600384018054839190600090611a01908490612d80565b9250508190555080846002016000828254611a1c9190612d80565b9250508190555081846007016000828254611a379190612d80565b9250508190555080846006016000828254611a529190612d80565b90915550439850505050505050505b5092915050565b600081815260436020908152604080832081516102a0810183528154610160820190815260018084015461018084015260028401546101a084015260038401546101c084015260048401546101e084015260058401546102008401526006840154610220840152600784015461024084015260088401546102608401526009840154610280840152908252600a83015494820194909452600b82015492810192909252600c8101546060830152600d8101546080830152600e81015460a0830152600f81015460c0830152601081015460e083015260118101546101008301526012810154610120830181905260139091015460ff16151561014083015283928392839290918391611b7991612d80565b60398401546060840151845160400151611b939190612d47565b611b9d9190612d5e565b611ba79190612d5e565b905060008261012001516001611bbd9190612d80565b84603901548460600151856000015160600151611bda9190612d47565b611be49190612d5e565b611bee9190612d5e565b9050836038015482611c009190612d5e565b6038850154611c0f9083612d5e565b846101200151965096509650505050509193909250565b6001600160a01b0382166000908152604060208190528120548390829060ff1615611c885760405162461bcd60e51b815260206004820152601260248201527128191d10213630b1b5a634b9ba102ab9b2b960711b6044820152606401610804565b60315460009060ff16611cad5760405162461bcd60e51b815260040161080490612da6565b6001600160a01b038616600090815260406020818152818320888452604182528284206001810154855260439092529183208380611ce961204a565b50611cf784600101546107ab565b50611d068b8560010154610d88565b85549193509150611d21906001600160a01b031683836124c7565b81856002016000828254611d359190612d80565b9250508190555080856001016000828254611d509190612d80565b9250508190555081846007016000828254611d6b9190612d80565b9250508190555080846006016000828254611d869190612d80565b90915550611d999050600386018c61265a565b506001836012016000828254611daf9190612d93565b90915550506012830154600003611deb57600060118401819055601084018190556004840181905560058401819055600f8401819055600e8401555b81846003016000828254611dff9190612d80565b9250508190555080846002016000828254611e1a9190612d80565b9091555050600f8301546004850155600e83015460058501558354611e48906001600160a01b03168c612666565b505081546001600160a01b031916909155504398975050505050505050565b600081815260436020908152604080832081516102a08101835281546101608201908152600183015461018083015260028301546101a0830181905260038401546101c0840181905260048501546101e085015260058501546102008501526006850154610220850152600785015461024085015260088501546102608501526009850154610280850152918352600a84015495830195909552600b83015493820193909352600c8201546060820152600d82015460808201819052600e83015460a0830152600f83015460c0830152601083015460e08301526011830154610100830152601283015461012083015260139092015460ff1615156101408201528493909284928392611f7b929091612481565b9150915060006001838660390154876039015488603401548960320154611fa29190612d47565b611fac9190612d5e565b611fb8906132c8612d47565b611fc29190612d5e565b611fcc9190612d80565b611fd69190612d5e565b905060006001838760390154876040015189603901548a603401548b603301546120009190612d47565b61200a9190612d5e565b6120149190612d47565b61201e9190612d5e565b6120289190612d80565b6120329190612d5e565b905061203e8183612d80565b98975050505050505050565b603154600090819060ff166120715760405162461bcd60e51b815260040161080490612da6565b60004381603501540361208657439250505090565b8060380154816035015461209a9190612d80565b43111561244e576000805b826038015483603501546120b99190612d80565b43111561244b5782603801548360350160008282546120d89190612d80565b925050819055506000806120f9856032015486603301548760340154612481565b909250905060015b600b8160ff16101561240e5760ff8082166000908152604388016020526040902060130154166122715760ff8116600090815260438701602052604081208181556001810191909155600a0154603987015461215d9085612d5e565b6121679190612d47565b60ff821660009081526043880160205260408120600201805490919061218e908490612d80565b909155505060ff811660009081526043870160205260409020600b015460398701546121ba9084612d5e565b6121c49190612d47565b60ff82166000908152604388016020526040812060030180549091906121eb908490612d80565b909155505060ff811660009081526043870160205260409020600a015460398701546122179085612d5e565b6122219190612d47565b61222b9086612d80565b60ff821660009081526043880160205260409020600b01546039880154919650906122569084612d5e565b6122609190612d47565b61226a9085612d80565b9350612406565b60ff81166000908152604387016020526040812060028101546003820154600d9092015483926122a19291612481565b60ff8516600090815260438b0160205260409020600a015460398b015492945090925083916122d09088612d5e565b6122da9190612d47565b6122e49190612d80565b60ff8416600090815260438a0160205260409020908155600b015460398901548291906123119087612d5e565b61231b9190612d47565b6123259190612d80565b60ff8416600090815260438a0160205260408120600181019290925560029091018054849290612356908490612d93565b909155505060ff8316600090815260438901602052604081206003018054839290612382908490612d93565b909155505060ff831660009081526043890160205260409020600a015460398901546123ae9087612d5e565b6123b89190612d47565b6123c29088612d80565b60ff8416600090815260438a0160205260409020600b015460398a0154919850906123ed9086612d5e565b6123f79190612d47565b6124019087612d80565b955050505b600101612101565b50838560320160008282546124239190612d93565b925050819055508285603301600082825461243e9190612d93565b909155506120a592505050565b50505b439250505090565b600061079a825490565b6107a881612721565b600061044a83836128c1565b600061044a8383612910565b60008080620186a06124938588612d47565b61249d9190612d5e565b90506000620186a06124af8688612d47565b6124b99190612d5e565b919791965090945050505050565b60408051623832b960e91b815260006003820181905291519081900360230181205468703262616c616e636560b81b82526001600160a01b0316906323b872dd908390600901908152604051908190036020018120546001600160e01b031960e084901b16825261254a916001600160a01b039091169088908890600401612cf4565b6020604051808303816000875af1158015612569573d6000803e3d6000fd5b505050506040513d601f19601f8201168201806040525081019061258d9190612dfd565b50604051623832b960e91b81528190600301908152604051908190036020018120546001600160a01b0316906323b872dd9083906125da9068703262616c616e636560b81b815260090190565b908152604051908190036020018120546001600160e01b031960e084901b168252612617916001600160a01b039091169088908790600401612cf4565b6020604051808303816000875af1158015612636573d6000803e3d6000fd5b505050506040513d601f19601f8201168201806040525081019061061d9190612dfd565b600061044a838361293a565b604080516330b4b2b760e11b815260006004820181905291519081900360240181205468703262616c616e636560b81b82526001600160a01b0316906342842e0e908390600901908152604051908190036020018120546001600160e01b031960e084901b1682526126ea916001600160a01b039091169087908790600401612cf4565b600060405180830381600087803b15801561270457600080fd5b505af1158015612718573d6000803e3d6000fd5b50505050505050565b6000818152604360205260408120436011820181905560108201558054600290910180548390612752908490612d80565b90915550506000828152604382016020526040812060018101546003909101805491929091612782908490612d80565b925050819055506000806127a3836032015484603301548560340154612481565b6000868152604386016020526040812060028101546003820154600d90920154949650929450909283926127d8929091612481565b6000888152604388016020526040812060020180549395509193508492612800908490612d93565b9091555050600086815260438601602052604081206003018054839290612828908490612d93565b909155505060008681526043860160205260409020600a015460398601548391906128539087612d5e565b61285d9190612d47565b6128679190612d80565b60008781526043870160205260409020908155600b015460398601548291906128909086612d5e565b61289a9190612d47565b6128a49190612d80565b6000878152604387016020526040902060010155612718866107ab565b60008181526001830160205260408120546129085750815460018181018455600084815260208082209093018490558454848252828601909352604090209190915561079a565b50600061079a565b600082600001828154811061292757612927612de7565b9060005260206000200154905092915050565b60008181526001830160205260408120548015612a2357600061295e600183612d93565b855490915060009061297290600190612d93565b90508082146129d757600086600001828154811061299257612992612de7565b90600052602060002001549050808760000184815481106129b5576129b5612de7565b6000918252602080832090910192909255918252600188019052604090208390555b85548690806129e8576129e8612e1f565b60019003818190600052602060002001600090559055856001016000868152602001908152602001600020600090556001935050505061079a565b600091505061079a565b604051806101600160405280612a8f604051806101400160405280600081526020016000815260200160008152602001600081526020016000815260200160008152602001600081526020016000815260200160008152602001600081525090565b81526020016000815260200160008152602001600081526020016000815260200160008152602001600081526020016000815260200160008152602001600081526020016000151581525090565b600060208284031215612aef57600080fd5b5035919050565b60008151808452602080850194506020840160005b83811015612b53578151805115158852838101518489015260408082015190890152606080820151908901526080908101519088015260a09096019590820190600101612b0b565b509495945050505050565b600060a0808301865184526020808801518186015260408089015115156040870152606060a0606088015283895180865260c0955060c089019150848b0160005b82811015612bfc5781518051855287810151888601528681015187860152858101518686015260808082015190860152898101518a860152888101518986015260e090810151908501526101009093019290860190600101612b9f565b5050508781036080890152612c11818a612af6565b9b9a5050505050505050505050565b8151805182526020808201518184015260408083015181850152606080840151818601526080808501518187015260a0808601518188015260c0808701518189015260e080880151818a015261010080890151818b015261012098890151898b0152968a0151610140808b0191909152958a01516101608a015293890151610180890152918801516101a08801528701516101c08701528601516101e08601528501516102008501529084015161022084015290830151610240830152820151801515610260830152610280820190611a61565b6001600160a01b039384168152919092166020820152604081019190915260600190565b600060208284031215612d2a57600080fd5b5051919050565b634e487b7160e01b600052601160045260246000fd5b808202811582820484141761079a5761079a612d31565b600082612d7b57634e487b7160e01b600052601260045260246000fd5b500490565b8082018082111561079a5761079a612d31565b8181038181111561079a5761079a612d31565b602080825260119082015270140c8e88140c881a5cc81cdd1bdc1c1959607a1b604082015260600190565b634e487b7160e01b600052604160045260246000fd5b634e487b7160e01b600052603260045260246000fd5b600060208284031215612e0f57600080fd5b8151801515811461044a57600080fd5b634e487b7160e01b600052603160045260246000fdfea2646970667358221220b9125b2285b6e6c00a35ab65a5404af19f47656ad8034544e6500ce244bf7db064736f6c63430008160033",
  "devdoc": {
    "kind": "dev",
    "methods": {},
    "version": 1
  },
  "userdoc": {
    "kind": "user",
    "methods": {},
    "version": 1
  },
  "storageLayout": {
    "storage": [],
    "types": null
  }
}