{
  "address": "0x6F6b96679E68719035E07CA5c0992E5A03c650C1",
  "abi": [
    {
      "inputs": [
        {
          "internalType": "address",
          "name": "_tokenA",
          "type": "address"
        },
        {
          "internalType": "address",
          "name": "_tokenB",
          "type": "address"
        }
      ],
      "name": "P3_getPairAddress",
      "outputs": [
        {
          "internalType": "address",
          "name": "",
          "type": "address"
        }
      ],
      "stateMutability": "view",
      "type": "function"
    },
    {
      "inputs": [],
      "name": "P3_getPairLists",
      "outputs": [
        {
          "internalType": "address[]",
          "name": "",
          "type": "address[]"
        }
      ],
      "stateMutability": "view",
      "type": "function"
    },
    {
      "inputs": [
        {
          "internalType": "address",
          "name": "_tokenA",
          "type": "address"
        },
        {
          "internalType": "address",
          "name": "_tokenB",
          "type": "address"
        },
        {
          "internalType": "uint256",
          "name": "_amountA",
          "type": "uint256"
        }
      ],
      "name": "P3_getQuote",
      "outputs": [
        {
          "internalType": "uint256",
          "name": "amountB",
          "type": "uint256"
        }
      ],
      "stateMutability": "view",
      "type": "function"
    }
  ],
  "transactionHash": "0xfba5622fef8a58bb17b4a925ad2f2ccb256c08110142b267da5749dd820351d3",
  "args": [],
  "numDeployments": 2,
  "solcInputHash": "7b5e74b22912467256daea2ecea61f44",
  "bytecode": "0x608060405234801561001057600080fd5b50610689806100206000396000f3fe608060405234801561001057600080fd5b50600436106100415760003560e01c80633672e3e3146100465780634526507714610064578063d6f116dc1461008f575b600080fd5b61004e6100b0565b60405161005b919061046e565b60405180910390f35b6100776100723660046104a0565b61023c565b6040516001600160a01b03909116815260200161005b565b6100a261009d3660046104d9565b6102e4565b60405190815260200161005b565b604080516b6465787632666163746f727960a01b81526000600c8201819052825191829003602c0182205463574f2ba360e01b835292516060936001600160a01b031692839163574f2ba3916004808201926020929091908290030181865afa158015610121573d6000803e3d6000fd5b505050506040513d601f19601f82011682018060405250810190610145919061051a565b905060008167ffffffffffffffff81111561016257610162610533565b60405190808252806020026020018201604052801561018b578160200160208202803683370190505b50905060005b8281101561023457604051631e3dd18b60e01b8152600481018290526001600160a01b03851690631e3dd18b90602401602060405180830381865afa1580156101de573d6000803e3d6000fd5b505050506040513d601f19601f820116820180604052508101906102029190610549565b82828151811061021457610214610566565b6001600160a01b0390921660209283029190910190910152600101610191565b509392505050565b6040516b6465787632666163746f727960a01b815260009081908190600c019081526040519081900360200181205463e6a4390560e01b82526001600160a01b0386811660048401528581166024840152169150819063e6a4390590604401602060405180830381865afa1580156102b8573d6000803e3d6000fd5b505050506040513d601f19601f820116820180604052508101906102dc9190610549565b949350505050565b604080516a3232bc3b193937baba32b960a91b81526000600b8201819052825191829003602b01822054600280845260608401855291936001600160a01b039091169284929091602083019080368337019050509050858160008151811061034e5761034e610566565b60200260200101906001600160a01b031690816001600160a01b031681525050848160018151811061038257610382610566565b6001600160a01b03928316602091820292909201015260405163d06ca61f60e01b81529083169063d06ca61f906103bf908790859060040161057c565b600060405180830381865afa1580156103dc573d6000803e3d6000fd5b505050506040513d6000823e601f3d908101601f191682016040526104049190810190610595565b60018151811061041657610416610566565b6020026020010151925050509392505050565b60008151808452602080850194506020840160005b838110156104635781516001600160a01b03168752958201959082019060010161043e565b509495945050505050565b6020815260006104816020830184610429565b9392505050565b6001600160a01b038116811461049d57600080fd5b50565b600080604083850312156104b357600080fd5b82356104be81610488565b915060208301356104ce81610488565b809150509250929050565b6000806000606084860312156104ee57600080fd5b83356104f981610488565b9250602084013561050981610488565b929592945050506040919091013590565b60006020828403121561052c57600080fd5b5051919050565b634e487b7160e01b600052604160045260246000fd5b60006020828403121561055b57600080fd5b815161048181610488565b634e487b7160e01b600052603260045260246000fd5b8281526040602082015260006102dc6040830184610429565b600060208083850312156105a857600080fd5b825167ffffffffffffffff808211156105c057600080fd5b818501915085601f8301126105d457600080fd5b8151818111156105e6576105e6610533565b8060051b604051601f19603f8301168101818110858211171561060b5761060b610533565b60405291825284820192508381018501918883111561062957600080fd5b938501935b828510156106475784518452938501939285019261062e565b9897505050505050505056fea2646970667358221220c80d3da9b14767bbab5713c54721a29e1728c7b2f454e5d559dc077d9277f2cd64736f6c63430008160033",
  "devdoc": {
    "kind": "dev",
    "methods": {},
    "version": 1
  },
  "userdoc": {
    "kind": "user",
    "methods": {},
    "version": 1
  },
  "storageLayout": {
    "storage": [
      {
        "astId": 13,
        "contract": "contracts/Channel_iN/facets/P3Facet.sol:P3Facet",
        "label": "s",
        "offset": 0,
        "slot": "0",
        "type": "t_struct(AppStorage)918_storage"
      }
    ],
    "types": {
      "t_address": {
        "encoding": "inplace",
        "label": "address",
        "numberOfBytes": "20"
      },
      "t_array(t_bytes32)dyn_storage": {
        "base": "t_bytes32",
        "encoding": "dynamic_array",
        "label": "bytes32[]",
        "numberOfBytes": "32"
      },
      "t_array(t_struct(P0_GradeInfo)688_storage)11_storage": {
        "base": "t_struct(P0_GradeInfo)688_storage",
        "encoding": "inplace",
        "label": "struct P0_GradeInfo[11]",
        "numberOfBytes": "1056"
      },
      "t_array(t_uint256)5_storage": {
        "base": "t_uint256",
        "encoding": "inplace",
        "label": "uint256[5]",
        "numberOfBytes": "160"
      },
      "t_bool": {
        "encoding": "inplace",
        "label": "bool",
        "numberOfBytes": "1"
      },
      "t_bytes32": {
        "encoding": "inplace",
        "label": "bytes32",
        "numberOfBytes": "32"
      },
      "t_mapping(t_address,t_struct(P2_User)773_storage)": {
        "encoding": "mapping",
        "key": "t_address",
        "label": "mapping(address => struct P2_User)",
        "numberOfBytes": "32",
        "value": "t_struct(P2_User)773_storage"
      },
      "t_mapping(t_bytes32,t_uint256)": {
        "encoding": "mapping",
        "key": "t_bytes32",
        "label": "mapping(bytes32 => uint256)",
        "numberOfBytes": "32",
        "value": "t_uint256"
      },
      "t_mapping(t_string_memory_ptr,t_address)": {
        "encoding": "mapping",
        "key": "t_string_memory_ptr",
        "label": "mapping(string => address)",
        "numberOfBytes": "32",
        "value": "t_address"
      },
      "t_mapping(t_string_memory_ptr,t_struct(P2_Balances)811_storage)": {
        "encoding": "mapping",
        "key": "t_string_memory_ptr",
        "label": "mapping(string => struct P2_Balances)",
        "numberOfBytes": "32",
        "value": "t_struct(P2_Balances)811_storage"
      },
      "t_mapping(t_uint256,t_string_storage)": {
        "encoding": "mapping",
        "key": "t_uint256",
        "label": "mapping(uint256 => string)",
        "numberOfBytes": "32",
        "value": "t_string_storage"
      },
      "t_mapping(t_uint256,t_struct(P0_PerFriendsProb)675_storage)": {
        "encoding": "mapping",
        "key": "t_uint256",
        "label": "mapping(uint256 => struct P0_PerFriendsProb)",
        "numberOfBytes": "32",
        "value": "t_struct(P0_PerFriendsProb)675_storage"
      },
      "t_mapping(t_uint256,t_struct(P2_Aien)790_storage)": {
        "encoding": "mapping",
        "key": "t_uint256",
        "label": "mapping(uint256 => struct P2_Aien)",
        "numberOfBytes": "32",
        "value": "t_struct(P2_Aien)790_storage"
      },
      "t_mapping(t_uint256,t_struct(P2_Layer)835_storage)": {
        "encoding": "mapping",
        "key": "t_uint256",
        "label": "mapping(uint256 => struct P2_Layer)",
        "numberOfBytes": "32",
        "value": "t_struct(P2_Layer)835_storage"
      },
      "t_mapping(t_uint8,t_struct(P0_MergePfGrade)703_storage)": {
        "encoding": "mapping",
        "key": "t_uint8",
        "label": "mapping(uint8 => struct P0_MergePfGrade)",
        "numberOfBytes": "32",
        "value": "t_struct(P0_MergePfGrade)703_storage"
      },
      "t_string_memory_ptr": {
        "encoding": "bytes",
        "label": "string",
        "numberOfBytes": "32"
      },
      "t_string_storage": {
        "encoding": "bytes",
        "label": "string",
        "numberOfBytes": "32"
      },
      "t_struct(AppStorage)918_storage": {
        "encoding": "inplace",
        "label": "struct AppStorage",
        "members": [
          {
            "astId": 839,
            "contract": "contracts/Channel_iN/facets/P3Facet.sol:P3Facet",
            "label": "contracts",
            "offset": 0,
            "slot": "0",
            "type": "t_mapping(t_string_memory_ptr,t_address)"
          },
          {
            "astId": 842,
            "contract": "contracts/Channel_iN/facets/P3Facet.sol:P3Facet",
            "label": "p0_states",
            "offset": 0,
            "slot": "1",
            "type": "t_struct(P0_State)670_storage"
          },
          {
            "astId": 847,
            "contract": "contracts/Channel_iN/facets/P3Facet.sol:P3Facet",
            "label": "p0_gradeInfos",
            "offset": 0,
            "slot": "4",
            "type": "t_array(t_struct(P0_GradeInfo)688_storage)11_storage"
          },
          {
            "astId": 852,
            "contract": "contracts/Channel_iN/facets/P3Facet.sol:P3Facet",
            "label": "p0_perFriendsProbs",
            "offset": 0,
            "slot": "37",
            "type": "t_mapping(t_uint256,t_struct(P0_PerFriendsProb)675_storage)"
          },
          {
            "astId": 855,
            "contract": "contracts/Channel_iN/facets/P3Facet.sol:P3Facet",
            "label": "distribute_states",
            "offset": 0,
            "slot": "38",
            "type": "t_struct(Distribute_State)725_storage"
          },
          {
            "astId": 857,
            "contract": "contracts/Channel_iN/facets/P3Facet.sol:P3Facet",
            "label": "aienMintFee",
            "offset": 0,
            "slot": "42",
            "type": "t_uint256"
          },
          {
            "astId": 859,
            "contract": "contracts/Channel_iN/facets/P3Facet.sol:P3Facet",
            "label": "ksSwapLimit",
            "offset": 0,
            "slot": "43",
            "type": "t_uint256"
          },
          {
            "astId": 861,
            "contract": "contracts/Channel_iN/facets/P3Facet.sol:P3Facet",
            "label": "isAutoDistribute",
            "offset": 0,
            "slot": "44",
            "type": "t_bool"
          },
          {
            "astId": 866,
            "contract": "contracts/Channel_iN/facets/P3Facet.sol:P3Facet",
            "label": "p0_mergePfGrades",
            "offset": 0,
            "slot": "45",
            "type": "t_mapping(t_uint8,t_struct(P0_MergePfGrade)703_storage)"
          },
          {
            "astId": 870,
            "contract": "contracts/Channel_iN/facets/P3Facet.sol:P3Facet",
            "label": "pfMetaURI",
            "offset": 0,
            "slot": "46",
            "type": "t_mapping(t_uint256,t_string_storage)"
          },
          {
            "astId": 873,
            "contract": "contracts/Channel_iN/facets/P3Facet.sol:P3Facet",
            "label": "p0_mergeState",
            "offset": 0,
            "slot": "47",
            "type": "t_struct(P0_MergeState)708_storage"
          },
          {
            "astId": 875,
            "contract": "contracts/Channel_iN/facets/P3Facet.sol:P3Facet",
            "label": "isP2Stop",
            "offset": 0,
            "slot": "49",
            "type": "t_bool"
          },
          {
            "astId": 877,
            "contract": "contracts/Channel_iN/facets/P3Facet.sol:P3Facet",
            "label": "P2_baseBalance",
            "offset": 0,
            "slot": "50",
            "type": "t_uint256"
          },
          {
            "astId": 879,
            "contract": "contracts/Channel_iN/facets/P3Facet.sol:P3Facet",
            "label": "P2_plusBalance",
            "offset": 0,
            "slot": "51",
            "type": "t_uint256"
          },
          {
            "astId": 881,
            "contract": "contracts/Channel_iN/facets/P3Facet.sol:P3Facet",
            "label": "P2_dailyRewardPercent",
            "offset": 0,
            "slot": "52",
            "type": "t_uint256"
          },
          {
            "astId": 883,
            "contract": "contracts/Channel_iN/facets/P3Facet.sol:P3Facet",
            "label": "P2_dailyRewardUpdateBlock",
            "offset": 0,
            "slot": "53",
            "type": "t_uint256"
          },
          {
            "astId": 885,
            "contract": "contracts/Channel_iN/facets/P3Facet.sol:P3Facet",
            "label": "P2_lastRewardBlock",
            "offset": 0,
            "slot": "54",
            "type": "t_uint256"
          },
          {
            "astId": 887,
            "contract": "contracts/Channel_iN/facets/P3Facet.sol:P3Facet",
            "label": "P2_MAX_STAKING_LIMIT",
            "offset": 0,
            "slot": "55",
            "type": "t_uint256"
          },
          {
            "astId": 889,
            "contract": "contracts/Channel_iN/facets/P3Facet.sol:P3Facet",
            "label": "DAY_TO_SEC",
            "offset": 0,
            "slot": "56",
            "type": "t_uint256"
          },
          {
            "astId": 891,
            "contract": "contracts/Channel_iN/facets/P3Facet.sol:P3Facet",
            "label": "REWARD_PERCENT_DECIMAL",
            "offset": 0,
            "slot": "57",
            "type": "t_uint256"
          },
          {
            "astId": 893,
            "contract": "contracts/Channel_iN/facets/P3Facet.sol:P3Facet",
            "label": "PRECISION_FACTOR",
            "offset": 0,
            "slot": "58",
            "type": "t_uint256"
          },
          {
            "astId": 897,
            "contract": "contracts/Channel_iN/facets/P3Facet.sol:P3Facet",
            "label": "__gap",
            "offset": 0,
            "slot": "59",
            "type": "t_array(t_uint256)5_storage"
          },
          {
            "astId": 902,
            "contract": "contracts/Channel_iN/facets/P3Facet.sol:P3Facet",
            "label": "p2_users",
            "offset": 0,
            "slot": "64",
            "type": "t_mapping(t_address,t_struct(P2_User)773_storage)"
          },
          {
            "astId": 907,
            "contract": "contracts/Channel_iN/facets/P3Facet.sol:P3Facet",
            "label": "p2_aiens",
            "offset": 0,
            "slot": "65",
            "type": "t_mapping(t_uint256,t_struct(P2_Aien)790_storage)"
          },
          {
            "astId": 912,
            "contract": "contracts/Channel_iN/facets/P3Facet.sol:P3Facet",
            "label": "p2_balances",
            "offset": 0,
            "slot": "66",
            "type": "t_mapping(t_string_memory_ptr,t_struct(P2_Balances)811_storage)"
          },
          {
            "astId": 917,
            "contract": "contracts/Channel_iN/facets/P3Facet.sol:P3Facet",
            "label": "p2_layers",
            "offset": 0,
            "slot": "67",
            "type": "t_mapping(t_uint256,t_struct(P2_Layer)835_storage)"
          }
        ],
        "numberOfBytes": "2176"
      },
      "t_struct(Distribute_State)725_storage": {
        "encoding": "inplace",
        "label": "struct Distribute_State",
        "members": [
          {
            "astId": 710,
            "contract": "contracts/Channel_iN/facets/P3Facet.sol:P3Facet",
            "label": "beforeP2Usdt",
            "offset": 0,
            "slot": "0",
            "type": "t_uint256"
          },
          {
            "astId": 712,
            "contract": "contracts/Channel_iN/facets/P3Facet.sol:P3Facet",
            "label": "beforeP2Per",
            "offset": 0,
            "slot": "1",
            "type": "t_uint256"
          },
          {
            "astId": 714,
            "contract": "contracts/Channel_iN/facets/P3Facet.sol:P3Facet",
            "label": "beforeTeamUsdt",
            "offset": 0,
            "slot": "2",
            "type": "t_uint256"
          },
          {
            "astId": 716,
            "contract": "contracts/Channel_iN/facets/P3Facet.sol:P3Facet",
            "label": "p1Ratio",
            "offset": 0,
            "slot": "3",
            "type": "t_uint24"
          },
          {
            "astId": 718,
            "contract": "contracts/Channel_iN/facets/P3Facet.sol:P3Facet",
            "label": "p2BaseRatio",
            "offset": 3,
            "slot": "3",
            "type": "t_uint24"
          },
          {
            "astId": 720,
            "contract": "contracts/Channel_iN/facets/P3Facet.sol:P3Facet",
            "label": "p2PlusRatio",
            "offset": 6,
            "slot": "3",
            "type": "t_uint24"
          },
          {
            "astId": 722,
            "contract": "contracts/Channel_iN/facets/P3Facet.sol:P3Facet",
            "label": "burnRatio",
            "offset": 9,
            "slot": "3",
            "type": "t_uint24"
          },
          {
            "astId": 724,
            "contract": "contracts/Channel_iN/facets/P3Facet.sol:P3Facet",
            "label": "teamFeeRatio",
            "offset": 12,
            "slot": "3",
            "type": "t_uint24"
          }
        ],
        "numberOfBytes": "128"
      },
      "t_struct(P0_GradeInfo)688_storage": {
        "encoding": "inplace",
        "label": "struct P0_GradeInfo",
        "members": [
          {
            "astId": 677,
            "contract": "contracts/Channel_iN/facets/P3Facet.sol:P3Facet",
            "label": "isOpen",
            "offset": 0,
            "slot": "0",
            "type": "t_bool"
          },
          {
            "astId": 679,
            "contract": "contracts/Channel_iN/facets/P3Facet.sol:P3Facet",
            "label": "mixFee",
            "offset": 0,
            "slot": "1",
            "type": "t_uint256"
          },
          {
            "astId": 681,
            "contract": "contracts/Channel_iN/facets/P3Facet.sol:P3Facet",
            "label": "initBaseProb",
            "offset": 0,
            "slot": "2",
            "type": "t_uint24"
          },
          {
            "astId": 683,
            "contract": "contracts/Channel_iN/facets/P3Facet.sol:P3Facet",
            "label": "mixExp",
            "offset": 3,
            "slot": "2",
            "type": "t_uint16"
          },
          {
            "astId": 685,
            "contract": "contracts/Channel_iN/facets/P3Facet.sol:P3Facet",
            "label": "failedAddProbMin",
            "offset": 5,
            "slot": "2",
            "type": "t_uint24"
          },
          {
            "astId": 687,
            "contract": "contracts/Channel_iN/facets/P3Facet.sol:P3Facet",
            "label": "failedAddProbMax",
            "offset": 8,
            "slot": "2",
            "type": "t_uint24"
          }
        ],
        "numberOfBytes": "96"
      },
      "t_struct(P0_MergePfGrade)703_storage": {
        "encoding": "inplace",
        "label": "struct P0_MergePfGrade",
        "members": [
          {
            "astId": 690,
            "contract": "contracts/Channel_iN/facets/P3Facet.sol:P3Facet",
            "label": "grade",
            "offset": 0,
            "slot": "0",
            "type": "t_uint8"
          },
          {
            "astId": 692,
            "contract": "contracts/Channel_iN/facets/P3Facet.sol:P3Facet",
            "label": "gradeName",
            "offset": 0,
            "slot": "1",
            "type": "t_string_storage"
          },
          {
            "astId": 694,
            "contract": "contracts/Channel_iN/facets/P3Facet.sol:P3Facet",
            "label": "mergeFee",
            "offset": 0,
            "slot": "2",
            "type": "t_uint256"
          },
          {
            "astId": 696,
            "contract": "contracts/Channel_iN/facets/P3Facet.sol:P3Facet",
            "label": "mergeUseItemAmount",
            "offset": 0,
            "slot": "3",
            "type": "t_uint256"
          },
          {
            "astId": 698,
            "contract": "contracts/Channel_iN/facets/P3Facet.sol:P3Facet",
            "label": "latestId",
            "offset": 0,
            "slot": "4",
            "type": "t_uint256"
          },
          {
            "astId": 700,
            "contract": "contracts/Channel_iN/facets/P3Facet.sol:P3Facet",
            "label": "setMatadataId",
            "offset": 0,
            "slot": "5",
            "type": "t_uint256"
          },
          {
            "astId": 702,
            "contract": "contracts/Channel_iN/facets/P3Facet.sol:P3Facet",
            "label": "isOpen",
            "offset": 0,
            "slot": "6",
            "type": "t_bool"
          }
        ],
        "numberOfBytes": "224"
      },
      "t_struct(P0_MergeState)708_storage": {
        "encoding": "inplace",
        "label": "struct P0_MergeState",
        "members": [
          {
            "astId": 705,
            "contract": "contracts/Channel_iN/facets/P3Facet.sol:P3Facet",
            "label": "agencyIncomePercent",
            "offset": 0,
            "slot": "0",
            "type": "t_uint256"
          },
          {
            "astId": 707,
            "contract": "contracts/Channel_iN/facets/P3Facet.sol:P3Facet",
            "label": "influencerIncomePercent",
            "offset": 0,
            "slot": "1",
            "type": "t_uint256"
          }
        ],
        "numberOfBytes": "64"
      },
      "t_struct(P0_PerFriendsProb)675_storage": {
        "encoding": "inplace",
        "label": "struct P0_PerFriendsProb",
        "members": [
          {
            "astId": 672,
            "contract": "contracts/Channel_iN/facets/P3Facet.sol:P3Facet",
            "label": "pfGrade",
            "offset": 0,
            "slot": "0",
            "type": "t_string_storage"
          },
          {
            "astId": 674,
            "contract": "contracts/Channel_iN/facets/P3Facet.sol:P3Facet",
            "label": "gradeProb",
            "offset": 0,
            "slot": "1",
            "type": "t_uint24"
          }
        ],
        "numberOfBytes": "64"
      },
      "t_struct(P0_State)670_storage": {
        "encoding": "inplace",
        "label": "struct P0_State",
        "members": [
          {
            "astId": 663,
            "contract": "contracts/Channel_iN/facets/P3Facet.sol:P3Facet",
            "label": "maxProb",
            "offset": 0,
            "slot": "0",
            "type": "t_uint24"
          },
          {
            "astId": 665,
            "contract": "contracts/Channel_iN/facets/P3Facet.sol:P3Facet",
            "label": "addProbFee",
            "offset": 0,
            "slot": "1",
            "type": "t_uint256"
          },
          {
            "astId": 667,
            "contract": "contracts/Channel_iN/facets/P3Facet.sol:P3Facet",
            "label": "addProbExp",
            "offset": 0,
            "slot": "2",
            "type": "t_uint16"
          },
          {
            "astId": 669,
            "contract": "contracts/Channel_iN/facets/P3Facet.sol:P3Facet",
            "label": "isVRF",
            "offset": 2,
            "slot": "2",
            "type": "t_bool"
          }
        ],
        "numberOfBytes": "96"
      },
      "t_struct(P2_Aien)790_storage": {
        "encoding": "inplace",
        "label": "struct P2_Aien",
        "members": [
          {
            "astId": 775,
            "contract": "contracts/Channel_iN/facets/P3Facet.sol:P3Facet",
            "label": "staker",
            "offset": 0,
            "slot": "0",
            "type": "t_address"
          },
          {
            "astId": 777,
            "contract": "contracts/Channel_iN/facets/P3Facet.sol:P3Facet",
            "label": "level",
            "offset": 0,
            "slot": "1",
            "type": "t_uint256"
          },
          {
            "astId": 779,
            "contract": "contracts/Channel_iN/facets/P3Facet.sol:P3Facet",
            "label": "rewardPlus",
            "offset": 0,
            "slot": "2",
            "type": "t_uint256"
          },
          {
            "astId": 781,
            "contract": "contracts/Channel_iN/facets/P3Facet.sol:P3Facet",
            "label": "rewardBase",
            "offset": 0,
            "slot": "3",
            "type": "t_uint256"
          },
          {
            "astId": 783,
            "contract": "contracts/Channel_iN/facets/P3Facet.sol:P3Facet",
            "label": "rewardBaseDebt",
            "offset": 0,
            "slot": "4",
            "type": "t_uint256"
          },
          {
            "astId": 785,
            "contract": "contracts/Channel_iN/facets/P3Facet.sol:P3Facet",
            "label": "rewardPlusDebt",
            "offset": 0,
            "slot": "5",
            "type": "t_uint256"
          },
          {
            "astId": 787,
            "contract": "contracts/Channel_iN/facets/P3Facet.sol:P3Facet",
            "label": "plus_received",
            "offset": 0,
            "slot": "6",
            "type": "t_uint256"
          },
          {
            "astId": 789,
            "contract": "contracts/Channel_iN/facets/P3Facet.sol:P3Facet",
            "label": "base_received",
            "offset": 0,
            "slot": "7",
            "type": "t_uint256"
          }
        ],
        "numberOfBytes": "256"
      },
      "t_struct(P2_Balances)811_storage": {
        "encoding": "inplace",
        "label": "struct P2_Balances",
        "members": [
          {
            "astId": 792,
            "contract": "contracts/Channel_iN/facets/P3Facet.sol:P3Facet",
            "label": "baseBalance",
            "offset": 0,
            "slot": "0",
            "type": "t_uint256"
          },
          {
            "astId": 794,
            "contract": "contracts/Channel_iN/facets/P3Facet.sol:P3Facet",
            "label": "plusBalance",
            "offset": 0,
            "slot": "1",
            "type": "t_uint256"
          },
          {
            "astId": 796,
            "contract": "contracts/Channel_iN/facets/P3Facet.sol:P3Facet",
            "label": "savedBaseBalance",
            "offset": 0,
            "slot": "2",
            "type": "t_uint256"
          },
          {
            "astId": 798,
            "contract": "contracts/Channel_iN/facets/P3Facet.sol:P3Facet",
            "label": "savedPlusBalance",
            "offset": 0,
            "slot": "3",
            "type": "t_uint256"
          },
          {
            "astId": 800,
            "contract": "contracts/Channel_iN/facets/P3Facet.sol:P3Facet",
            "label": "add_dailyBASE",
            "offset": 0,
            "slot": "4",
            "type": "t_uint256"
          },
          {
            "astId": 802,
            "contract": "contracts/Channel_iN/facets/P3Facet.sol:P3Facet",
            "label": "add_dailyPLUS",
            "offset": 0,
            "slot": "5",
            "type": "t_uint256"
          },
          {
            "astId": 804,
            "contract": "contracts/Channel_iN/facets/P3Facet.sol:P3Facet",
            "label": "a",
            "offset": 0,
            "slot": "6",
            "type": "t_uint256"
          },
          {
            "astId": 806,
            "contract": "contracts/Channel_iN/facets/P3Facet.sol:P3Facet",
            "label": "b",
            "offset": 0,
            "slot": "7",
            "type": "t_uint256"
          },
          {
            "astId": 808,
            "contract": "contracts/Channel_iN/facets/P3Facet.sol:P3Facet",
            "label": "c",
            "offset": 0,
            "slot": "8",
            "type": "t_uint256"
          },
          {
            "astId": 810,
            "contract": "contracts/Channel_iN/facets/P3Facet.sol:P3Facet",
            "label": "d",
            "offset": 0,
            "slot": "9",
            "type": "t_uint256"
          }
        ],
        "numberOfBytes": "320"
      },
      "t_struct(P2_Layer)835_storage": {
        "encoding": "inplace",
        "label": "struct P2_Layer",
        "members": [
          {
            "astId": 814,
            "contract": "contracts/Channel_iN/facets/P3Facet.sol:P3Facet",
            "label": "balances",
            "offset": 0,
            "slot": "0",
            "type": "t_struct(P2_Balances)811_storage"
          },
          {
            "astId": 816,
            "contract": "contracts/Channel_iN/facets/P3Facet.sol:P3Facet",
            "label": "rewardBasePercent",
            "offset": 0,
            "slot": "10",
            "type": "t_uint256"
          },
          {
            "astId": 818,
            "contract": "contracts/Channel_iN/facets/P3Facet.sol:P3Facet",
            "label": "rewardPlusPercent",
            "offset": 0,
            "slot": "11",
            "type": "t_uint256"
          },
          {
            "astId": 820,
            "contract": "contracts/Channel_iN/facets/P3Facet.sol:P3Facet",
            "label": "dailyReward_Percent",
            "offset": 0,
            "slot": "12",
            "type": "t_uint256"
          },
          {
            "astId": 822,
            "contract": "contracts/Channel_iN/facets/P3Facet.sol:P3Facet",
            "label": "add_dailyReward_Percent",
            "offset": 0,
            "slot": "13",
            "type": "t_uint256"
          },
          {
            "astId": 824,
            "contract": "contracts/Channel_iN/facets/P3Facet.sol:P3Facet",
            "label": "rewardPlus",
            "offset": 0,
            "slot": "14",
            "type": "t_uint256"
          },
          {
            "astId": 826,
            "contract": "contracts/Channel_iN/facets/P3Facet.sol:P3Facet",
            "label": "rewardBase",
            "offset": 0,
            "slot": "15",
            "type": "t_uint256"
          },
          {
            "astId": 828,
            "contract": "contracts/Channel_iN/facets/P3Facet.sol:P3Facet",
            "label": "lastRewardBlock",
            "offset": 0,
            "slot": "16",
            "type": "t_uint256"
          },
          {
            "astId": 830,
            "contract": "contracts/Channel_iN/facets/P3Facet.sol:P3Facet",
            "label": "dailyRewardUpdateBlock",
            "offset": 0,
            "slot": "17",
            "type": "t_uint256"
          },
          {
            "astId": 832,
            "contract": "contracts/Channel_iN/facets/P3Facet.sol:P3Facet",
            "label": "totalStakedAien",
            "offset": 0,
            "slot": "18",
            "type": "t_uint256"
          },
          {
            "astId": 834,
            "contract": "contracts/Channel_iN/facets/P3Facet.sol:P3Facet",
            "label": "isOpen",
            "offset": 0,
            "slot": "19",
            "type": "t_bool"
          }
        ],
        "numberOfBytes": "640"
      },
      "t_struct(P2_User)773_storage": {
        "encoding": "inplace",
        "label": "struct P2_User",
        "members": [
          {
            "astId": 765,
            "contract": "contracts/Channel_iN/facets/P3Facet.sol:P3Facet",
            "label": "isBlockUser",
            "offset": 0,
            "slot": "0",
            "type": "t_bool"
          },
          {
            "astId": 767,
            "contract": "contracts/Channel_iN/facets/P3Facet.sol:P3Facet",
            "label": "plusRewarded",
            "offset": 0,
            "slot": "1",
            "type": "t_uint256"
          },
          {
            "astId": 769,
            "contract": "contracts/Channel_iN/facets/P3Facet.sol:P3Facet",
            "label": "baseRewarded",
            "offset": 0,
            "slot": "2",
            "type": "t_uint256"
          },
          {
            "astId": 772,
            "contract": "contracts/Channel_iN/facets/P3Facet.sol:P3Facet",
            "label": "tokenIds",
            "offset": 0,
            "slot": "3",
            "type": "t_struct(UintSet)2287_storage"
          }
        ],
        "numberOfBytes": "160"
      },
      "t_struct(Set)1815_storage": {
        "encoding": "inplace",
        "label": "struct EnumerableSet.Set",
        "members": [
          {
            "astId": 1810,
            "contract": "contracts/Channel_iN/facets/P3Facet.sol:P3Facet",
            "label": "_values",
            "offset": 0,
            "slot": "0",
            "type": "t_array(t_bytes32)dyn_storage"
          },
          {
            "astId": 1814,
            "contract": "contracts/Channel_iN/facets/P3Facet.sol:P3Facet",
            "label": "_positions",
            "offset": 0,
            "slot": "1",
            "type": "t_mapping(t_bytes32,t_uint256)"
          }
        ],
        "numberOfBytes": "64"
      },
      "t_struct(UintSet)2287_storage": {
        "encoding": "inplace",
        "label": "struct EnumerableSet.UintSet",
        "members": [
          {
            "astId": 2286,
            "contract": "contracts/Channel_iN/facets/P3Facet.sol:P3Facet",
            "label": "_inner",
            "offset": 0,
            "slot": "0",
            "type": "t_struct(Set)1815_storage"
          }
        ],
        "numberOfBytes": "64"
      },
      "t_uint16": {
        "encoding": "inplace",
        "label": "uint16",
        "numberOfBytes": "2"
      },
      "t_uint24": {
        "encoding": "inplace",
        "label": "uint24",
        "numberOfBytes": "3"
      },
      "t_uint256": {
        "encoding": "inplace",
        "label": "uint256",
        "numberOfBytes": "32"
      },
      "t_uint8": {
        "encoding": "inplace",
        "label": "uint8",
        "numberOfBytes": "1"
      }
    }
  }
}