{
  "address": "0xAa38Da472B77D60b0C3F68DfA48497a7bB6C4B59",
  "abi": [
    {
      "inputs": [
        {
          "internalType": "address",
          "name": "_user",
          "type": "address"
        },
        {
          "internalType": "bool",
          "name": "_isBlock",
          "type": "bool"
        },
        {
          "internalType": "string",
          "name": "_why",
          "type": "string"
        }
      ],
      "name": "admin_P2_blockUser",
      "outputs": [],
      "stateMutability": "nonpayable",
      "type": "function"
    },
    {
      "inputs": [
        {
          "internalType": "uint256",
          "name": "_layerNumber",
          "type": "uint256"
        },
        {
          "internalType": "uint256",
          "name": "_fromP2PerPercent",
          "type": "uint256"
        },
        {
          "internalType": "uint256",
          "name": "_fromP2UsdtPercent",
          "type": "uint256"
        },
        {
          "internalType": "uint256",
          "name": "_dailyReward_percent",
          "type": "uint256"
        },
        {
          "internalType": "uint256",
          "name": "_add_dailyReward_Percent",
          "type": "uint256"
        },
        {
          "internalType": "bool",
          "name": "_isOpen",
          "type": "bool"
        }
      ],
      "name": "admin_P2_layer_setting",
      "outputs": [],
      "stateMutability": "nonpayable",
      "type": "function"
    },
    {
      "inputs": [
        {
          "internalType": "uint256",
          "name": "_maxLimit",
          "type": "uint256"
        }
      ],
      "name": "admin_P2_setMaxLimit",
      "outputs": [],
      "stateMutability": "nonpayable",
      "type": "function"
    },
    {
      "inputs": [],
      "name": "admin_distribute_getBeforAmounts",
      "outputs": [
        {
          "internalType": "uint256",
          "name": "",
          "type": "uint256"
        },
        {
          "internalType": "uint256",
          "name": "",
          "type": "uint256"
        },
        {
          "internalType": "uint256",
          "name": "",
          "type": "uint256"
        }
      ],
      "stateMutability": "view",
      "type": "function"
    },
    {
      "inputs": [],
      "name": "admin_distribute_getStates",
      "outputs": [
        {
          "internalType": "uint24",
          "name": "",
          "type": "uint24"
        },
        {
          "internalType": "uint24",
          "name": "",
          "type": "uint24"
        },
        {
          "internalType": "uint24",
          "name": "",
          "type": "uint24"
        },
        {
          "internalType": "uint24",
          "name": "",
          "type": "uint24"
        },
        {
          "internalType": "uint24",
          "name": "",
          "type": "uint24"
        }
      ],
      "stateMutability": "view",
      "type": "function"
    },
    {
      "inputs": [
        {
          "internalType": "uint256",
          "name": "_limit",
          "type": "uint256"
        }
      ],
      "name": "admin_distribute_ksSwapLimit",
      "outputs": [],
      "stateMutability": "nonpayable",
      "type": "function"
    },
    {
      "inputs": [
        {
          "internalType": "bool",
          "name": "_isAuto",
          "type": "bool"
        }
      ],
      "name": "admin_distribute_setAuto",
      "outputs": [],
      "stateMutability": "nonpayable",
      "type": "function"
    },
    {
      "inputs": [
        {
          "internalType": "uint24",
          "name": "_p1Ratio",
          "type": "uint24"
        },
        {
          "internalType": "uint24",
          "name": "_p2PerRatio",
          "type": "uint24"
        },
        {
          "internalType": "uint24",
          "name": "_p2UsdtRatio",
          "type": "uint24"
        },
        {
          "internalType": "uint24",
          "name": "_burnRatio",
          "type": "uint24"
        },
        {
          "internalType": "uint24",
          "name": "_teamUsdtRatio",
          "type": "uint24"
        }
      ],
      "name": "admin_distribute_setStates",
      "outputs": [],
      "stateMutability": "nonpayable",
      "type": "function"
    },
    {
      "inputs": [],
      "name": "admin_getAienMintFee",
      "outputs": [
        {
          "internalType": "uint256",
          "name": "",
          "type": "uint256"
        }
      ],
      "stateMutability": "view",
      "type": "function"
    },
    {
      "inputs": [
        {
          "internalType": "uint8",
          "name": "_gradeIndex",
          "type": "uint8"
        }
      ],
      "name": "admin_p0_getGradeInfos",
      "outputs": [
        {
          "internalType": "bool",
          "name": "",
          "type": "bool"
        },
        {
          "internalType": "uint256",
          "name": "",
          "type": "uint256"
        },
        {
          "internalType": "uint24",
          "name": "",
          "type": "uint24"
        },
        {
          "internalType": "uint16",
          "name": "",
          "type": "uint16"
        },
        {
          "internalType": "uint24",
          "name": "",
          "type": "uint24"
        },
        {
          "internalType": "uint24",
          "name": "",
          "type": "uint24"
        }
      ],
      "stateMutability": "view",
      "type": "function"
    },
    {
      "inputs": [
        {
          "internalType": "uint256",
          "name": "_grade",
          "type": "uint256"
        }
      ],
      "name": "admin_p0_getPerFriendsProb",
      "outputs": [
        {
          "internalType": "string",
          "name": "",
          "type": "string"
        },
        {
          "internalType": "uint24",
          "name": "",
          "type": "uint24"
        }
      ],
      "stateMutability": "view",
      "type": "function"
    },
    {
      "inputs": [],
      "name": "admin_p0_getStates",
      "outputs": [
        {
          "internalType": "uint24",
          "name": "",
          "type": "uint24"
        },
        {
          "internalType": "uint256",
          "name": "",
          "type": "uint256"
        },
        {
          "internalType": "uint16",
          "name": "",
          "type": "uint16"
        },
        {
          "internalType": "bool",
          "name": "",
          "type": "bool"
        }
      ],
      "stateMutability": "view",
      "type": "function"
    },
    {
      "inputs": [
        {
          "internalType": "uint8",
          "name": "_gradeIndex",
          "type": "uint8"
        },
        {
          "internalType": "bool",
          "name": "_isOpen",
          "type": "bool"
        },
        {
          "internalType": "uint256",
          "name": "_mixFee",
          "type": "uint256"
        },
        {
          "internalType": "uint24",
          "name": "_initBaseProb",
          "type": "uint24"
        },
        {
          "internalType": "uint16",
          "name": "_mixExp",
          "type": "uint16"
        },
        {
          "internalType": "uint24",
          "name": "_failedAddProbMin",
          "type": "uint24"
        },
        {
          "internalType": "uint24",
          "name": "_failedAddProbMax",
          "type": "uint24"
        }
      ],
      "name": "admin_p0_setGradeInfos",
      "outputs": [],
      "stateMutability": "nonpayable",
      "type": "function"
    },
    {
      "inputs": [
        {
          "internalType": "uint256",
          "name": "_pfId",
          "type": "uint256"
        },
        {
          "internalType": "uint8",
          "name": "_grade",
          "type": "uint8"
        },
        {
          "internalType": "string",
          "name": "_seedHash",
          "type": "string"
        }
      ],
      "name": "admin_p0_setMetaData",
      "outputs": [],
      "stateMutability": "nonpayable",
      "type": "function"
    },
    {
      "inputs": [
        {
          "internalType": "uint256",
          "name": "_grade",
          "type": "uint256"
        },
        {
          "internalType": "string",
          "name": "_pfGrade",
          "type": "string"
        },
        {
          "internalType": "uint24",
          "name": "_gradeProb",
          "type": "uint24"
        }
      ],
      "name": "admin_p0_setPerFriendsProb",
      "outputs": [],
      "stateMutability": "nonpayable",
      "type": "function"
    },
    {
      "inputs": [
        {
          "internalType": "uint24",
          "name": "_maxProb",
          "type": "uint24"
        },
        {
          "internalType": "uint256",
          "name": "_addProbFee",
          "type": "uint256"
        },
        {
          "internalType": "uint16",
          "name": "_addProbExp",
          "type": "uint16"
        },
        {
          "internalType": "bool",
          "name": "_isVRF",
          "type": "bool"
        }
      ],
      "name": "admin_p0_setStates",
      "outputs": [],
      "stateMutability": "nonpayable",
      "type": "function"
    },
    {
      "inputs": [
        {
          "internalType": "uint256",
          "name": "_mintFee",
          "type": "uint256"
        }
      ],
      "name": "admin_setAienMintFee",
      "outputs": [],
      "stateMutability": "nonpayable",
      "type": "function"
    }
  ],
  "transactionHash": "0x090a8963e72275b96c224abc8a1b361d76a5864db3b3356226de6834b7df2eed",
  "args": [],
  "numDeployments": 6,
  "solcInputHash": "13c9ea684e9853eee0b987483eda6343",
  "bytecode": "0x608060405234801561001057600080fd5b50611d0a806100206000396000f3fe608060405234801561001057600080fd5b506004361061010b5760003560e01c80638a1833ed116100a2578063b545c43f11610071578063b545c43f1461029f578063b5643cdb146102bb578063c7809e2f146102d7578063ef404fa2146102f3578063f6f005631461030f5761010b565b80638a1833ed146102145780639a6d9887146102325780639b0988f11461024e578063a4517553146102835761010b565b806345d08ac6116100de57806345d08ac61461018b5780635c53ddae146101a757806374e35d19146101c35780637fe5cca1146101e35761010b565b8063025aa16c146101105780631ad1d5dc1461012c57806324eb911e146101485780633a8e18de1461016a575b600080fd5b61012a60048036038101906101259190611047565b61032b565b005b610146600480360381019061014191906110f1565b610438565b005b6101506104ad565b60405161016195949392919061116f565b60405180910390f35b610172610545565b6040516101829493929190611209565b60405180910390f35b6101a560048036038101906101a0919061124e565b6105b0565b005b6101c160048036038101906101bc919061124e565b610671565b005b6101cb610692565b6040516101da9392919061127b565b60405180910390f35b6101fd60048036038101906101f8919061124e565b6106c6565b60405161020b929190611331565b60405180910390f35b61021c6107ab565b6040516102299190611361565b60405180910390f35b61024c600480360381019061024791906113a8565b6107c3565b005b61026860048036038101906102639190611435565b610893565b60405161027a96959493929190611462565b60405180910390f35b61029d600480360381019061029891906114c3565b6109cc565b005b6102b960048036038101906102b4919061153e565b610a9c565b005b6102d560048036038101906102d0919061124e565b610ad0565b005b6102f160048036038101906102ec9190611597565b610af1565b005b61030d60048036038101906103089190611639565b610c5e565b005b610329600480360381019061032491906116fe565b610cea565b005b610333610db1565b600061033d610e4c565b90508181602e01600086815260200190815260200160002090816103619190611979565b508381602d0160008560ff1660ff168152602001908152602001600020600501819055508060000160405161039590611aa2565b908152602001604051809103902060009054906101000a900473ffffffffffffffffffffffffffffffffffffffff1673ffffffffffffffffffffffffffffffffffffffff16636ff7d6c58585856040518463ffffffff1660e01b815260040161040093929190611ac6565b600060405180830381600087803b15801561041a57600080fd5b505af115801561042e573d6000803e3d6000fd5b5050505050505050565b610440610db1565b600061044a610e4c565b90508281602501600086815260200190815260200160002060000190816104719190611979565b508181602501600086815260200190815260200160002060010160006101000a81548162ffffff021916908362ffffff16021790555050505050565b6000806000806000806104be610e4c565b90508060260160030160009054906101000a900462ffffff168160260160030160039054906101000a900462ffffff168260260160030160069054906101000a900462ffffff168360260160030160099054906101000a900462ffffff1684602601600301600c9054906101000a900462ffffff1695509550955095509550509091929394565b6000806000806000610555610e4c565b90508060010160000160009054906101000a900462ffffff1681600101600101548260010160020160009054906101000a900461ffff168360010160020160029054906101000a900460ff1694509450945094505090919293565b6105b8610db1565b60006105c2610e4c565b9050806000016040516105d490611b50565b908152602001604051809103902060009054906101000a900473ffffffffffffffffffffffffffffffffffffffff1673ffffffffffffffffffffffffffffffffffffffff166328e52aae836040518263ffffffff1660e01b815260040161063b9190611361565b600060405180830381600087803b15801561065557600080fd5b505af1158015610669573d6000803e3d6000fd5b505050505050565b610679610db1565b6000610683610e4c565b90508181602b01819055505050565b6000806000806106a0610e4c565b905080602601600001548160260160010154826026016002015493509350935050909192565b60606000806106d3610e4c565b905080602501600085815260200190815260200160002060000181602501600086815260200190815260200160002060010160009054906101000a900462ffffff168180546107219061179c565b80601f016020809104026020016040519081016040528092919081815260200182805461074d9061179c565b801561079a5780601f1061076f5761010080835404028352916020019161079a565b820191906000526020600020905b81548152906001019060200180831161077d57829003601f168201915b505050505091509250925050915091565b6000806107b6610e4c565b905080602a015491505090565b6107cb610db1565b60006107d5610e4c565b9050806000016040516107e790611b50565b908152602001604051809103902060009054906101000a900473ffffffffffffffffffffffffffffffffffffffff1673ffffffffffffffffffffffffffffffffffffffff1663d78d3ce88888888888886040518763ffffffff1660e01b815260040161085896959493929190611b65565b600060405180830381600087803b15801561087257600080fd5b505af1158015610886573d6000803e3d6000fd5b5050505050505050505050565b60008060008060008060006108a6610e4c565b9050806004018860ff16600b81106108c1576108c0611bc6565b5b6003020160000160009054906101000a900460ff16816004018960ff16600b81106108ef576108ee611bc6565b5b6003020160010154826004018a60ff16600b81106109105761090f611bc6565b5b6003020160020160009054906101000a900462ffffff16836004018b60ff16600b81106109405761093f611bc6565b5b6003020160020160039054906101000a900461ffff16846004018c60ff16600b811061096f5761096e611bc6565b5b6003020160020160059054906101000a900462ffffff16856004018d60ff16600b811061099f5761099e611bc6565b5b6003020160020160089054906101000a900462ffffff169650965096509650965096505091939550919395565b6109d4610db1565b60006109de610e4c565b9050858160260160030160006101000a81548162ffffff021916908362ffffff160217905550848160260160030160036101000a81548162ffffff021916908362ffffff160217905550838160260160030160066101000a81548162ffffff021916908362ffffff160217905550828160260160030160096101000a81548162ffffff021916908362ffffff1602179055508181602601600301600c6101000a81548162ffffff021916908362ffffff160217905550505050505050565b610aa4610db1565b6000610aae610e4c565b90508181602c0160006101000a81548160ff0219169083151502179055505050565b610ad8610db1565b6000610ae2610e4c565b90508181602a01819055505050565b610af9610db1565b6000610b03610e4c565b905086816004018960ff16600b8110610b1f57610b1e611bc6565b5b6003020160000160006101000a81548160ff02191690831515021790555085816004018960ff16600b8110610b5757610b56611bc6565b5b600302016001018190555084816004018960ff16600b8110610b7c57610b7b611bc6565b5b6003020160020160006101000a81548162ffffff021916908362ffffff16021790555083816004018960ff16600b8110610bb957610bb8611bc6565b5b6003020160020160036101000a81548161ffff021916908361ffff16021790555082816004018960ff16600b8110610bf457610bf3611bc6565b5b6003020160020160056101000a81548162ffffff021916908362ffffff16021790555081816004018960ff16600b8110610c3157610c30611bc6565b5b6003020160020160086101000a81548162ffffff021916908362ffffff1602179055505050505050505050565b610c66610db1565b6000610c70610e4c565b9050848160010160000160006101000a81548162ffffff021916908362ffffff160217905550838160010160010181905550828160010160020160006101000a81548161ffff021916908361ffff160217905550818160010160020160026101000a81548160ff0219169083151502179055505050505050565b610cf2610db1565b6000610cfc610e4c565b905080600001604051610d0e90611b50565b908152602001604051809103902060009054906101000a900473ffffffffffffffffffffffffffffffffffffffff1673ffffffffffffffffffffffffffffffffffffffff166319eff0ab8585856040518463ffffffff1660e01b8152600401610d7993929190611c04565b600060405180830381600087803b158015610d9357600080fd5b505af1158015610da7573d6000803e3d6000fd5b5050505050505050565b610db9610e51565b60040160009054906101000a900473ffffffffffffffffffffffffffffffffffffffff1673ffffffffffffffffffffffffffffffffffffffff163373ffffffffffffffffffffffffffffffffffffffff1614610e4a576040517f08c379a0000000000000000000000000000000000000000000000000000000008152600401610e4190611cb4565b60405180910390fd5b565b600090565b6000807fc8fcad8db84d3cc18b4c41d551ea0ee66dd599cde068d998e57d5e09332c131c90508091505090565b6000604051905090565b600080fd5b600080fd5b6000819050919050565b610ea581610e92565b8114610eb057600080fd5b50565b600081359050610ec281610e9c565b92915050565b600060ff82169050919050565b610ede81610ec8565b8114610ee957600080fd5b50565b600081359050610efb81610ed5565b92915050565b600080fd5b600080fd5b6000601f19601f8301169050919050565b7f4e487b7100000000000000000000000000000000000000000000000000000000600052604160045260246000fd5b610f5482610f0b565b810181811067ffffffffffffffff82111715610f7357610f72610f1c565b5b80604052505050565b6000610f86610e7e565b9050610f928282610f4b565b919050565b600067ffffffffffffffff821115610fb257610fb1610f1c565b5b610fbb82610f0b565b9050602081019050919050565b82818337600083830152505050565b6000610fea610fe584610f97565b610f7c565b90508281526020810184848401111561100657611005610f06565b5b611011848285610fc8565b509392505050565b600082601f83011261102e5761102d610f01565b5b813561103e848260208601610fd7565b91505092915050565b6000806000606084860312156110605761105f610e88565b5b600061106e86828701610eb3565b935050602061107f86828701610eec565b925050604084013567ffffffffffffffff8111156110a05761109f610e8d565b5b6110ac86828701611019565b9150509250925092565b600062ffffff82169050919050565b6110ce816110b6565b81146110d957600080fd5b50565b6000813590506110eb816110c5565b92915050565b60008060006060848603121561110a57611109610e88565b5b600061111886828701610eb3565b935050602084013567ffffffffffffffff81111561113957611138610e8d565b5b61114586828701611019565b9250506040611156868287016110dc565b9150509250925092565b611169816110b6565b82525050565b600060a0820190506111846000830188611160565b6111916020830187611160565b61119e6040830186611160565b6111ab6060830185611160565b6111b86080830184611160565b9695505050505050565b6111cb81610e92565b82525050565b600061ffff82169050919050565b6111e8816111d1565b82525050565b60008115159050919050565b611203816111ee565b82525050565b600060808201905061121e6000830187611160565b61122b60208301866111c2565b61123860408301856111df565b61124560608301846111fa565b95945050505050565b60006020828403121561126457611263610e88565b5b600061127284828501610eb3565b91505092915050565b600060608201905061129060008301866111c2565b61129d60208301856111c2565b6112aa60408301846111c2565b949350505050565b600081519050919050565b600082825260208201905092915050565b60005b838110156112ec5780820151818401526020810190506112d1565b60008484015250505050565b6000611303826112b2565b61130d81856112bd565b935061131d8185602086016112ce565b61132681610f0b565b840191505092915050565b6000604082019050818103600083015261134b81856112f8565b905061135a6020830184611160565b9392505050565b600060208201905061137660008301846111c2565b92915050565b611385816111ee565b811461139057600080fd5b50565b6000813590506113a28161137c565b92915050565b60008060008060008060c087890312156113c5576113c4610e88565b5b60006113d389828a01610eb3565b96505060206113e489828a01610eb3565b95505060406113f589828a01610eb3565b945050606061140689828a01610eb3565b935050608061141789828a01610eb3565b92505060a061142889828a01611393565b9150509295509295509295565b60006020828403121561144b5761144a610e88565b5b600061145984828501610eec565b91505092915050565b600060c08201905061147760008301896111fa565b61148460208301886111c2565b6114916040830187611160565b61149e60608301866111df565b6114ab6080830185611160565b6114b860a0830184611160565b979650505050505050565b600080600080600060a086880312156114df576114de610e88565b5b60006114ed888289016110dc565b95505060206114fe888289016110dc565b945050604061150f888289016110dc565b9350506060611520888289016110dc565b9250506080611531888289016110dc565b9150509295509295909350565b60006020828403121561155457611553610e88565b5b600061156284828501611393565b91505092915050565b611574816111d1565b811461157f57600080fd5b50565b6000813590506115918161156b565b92915050565b600080600080600080600060e0888a0312156115b6576115b5610e88565b5b60006115c48a828b01610eec565b97505060206115d58a828b01611393565b96505060406115e68a828b01610eb3565b95505060606115f78a828b016110dc565b94505060806116088a828b01611582565b93505060a06116198a828b016110dc565b92505060c061162a8a828b016110dc565b91505092959891949750929550565b6000806000806080858703121561165357611652610e88565b5b6000611661878288016110dc565b945050602061167287828801610eb3565b935050604061168387828801611582565b925050606061169487828801611393565b91505092959194509250565b600073ffffffffffffffffffffffffffffffffffffffff82169050919050565b60006116cb826116a0565b9050919050565b6116db816116c0565b81146116e657600080fd5b50565b6000813590506116f8816116d2565b92915050565b60008060006060848603121561171757611716610e88565b5b6000611725868287016116e9565b935050602061173686828701611393565b925050604084013567ffffffffffffffff81111561175757611756610e8d565b5b61176386828701611019565b9150509250925092565b7f4e487b7100000000000000000000000000000000000000000000000000000000600052602260045260246000fd5b600060028204905060018216806117b457607f821691505b6020821081036117c7576117c661176d565b5b50919050565b60008190508160005260206000209050919050565b60006020601f8301049050919050565b600082821b905092915050565b60006008830261182f7fffffffffffffffffffffffffffffffffffffffffffffffffffffffffffffffff826117f2565b61183986836117f2565b95508019841693508086168417925050509392505050565b6000819050919050565b600061187661187161186c84610e92565b611851565b610e92565b9050919050565b6000819050919050565b6118908361185b565b6118a461189c8261187d565b8484546117ff565b825550505050565b600090565b6118b96118ac565b6118c4818484611887565b505050565b5b818110156118e8576118dd6000826118b1565b6001810190506118ca565b5050565b601f82111561192d576118fe816117cd565b611907846117e2565b81016020851015611916578190505b61192a611922856117e2565b8301826118c9565b50505b505050565b600082821c905092915050565b600061195060001984600802611932565b1980831691505092915050565b6000611969838361193f565b9150826002028217905092915050565b611982826112b2565b67ffffffffffffffff81111561199b5761199a610f1c565b5b6119a5825461179c565b6119b08282856118ec565b600060209050601f8311600181146119e357600084156119d1578287015190505b6119db858261195d565b865550611a43565b601f1984166119f1866117cd565b60005b82811015611a19578489015182556001820191506020850194506020810190506119f4565b86831015611a365784890151611a32601f89168261193f565b8355505b6001600288020188555050505b505050505050565b600081905092915050565b7f6462000000000000000000000000000000000000000000000000000000000000600082015250565b6000611a8c600283611a4b565b9150611a9782611a56565b600282019050919050565b6000611aad82611a7f565b9150819050919050565b611ac081610ec8565b82525050565b6000606082019050611adb60008301866111c2565b611ae86020830185611ab7565b8181036040830152611afa81846112f8565b9050949350505050565b7f7032000000000000000000000000000000000000000000000000000000000000600082015250565b6000611b3a600283611a4b565b9150611b4582611b04565b600282019050919050565b6000611b5b82611b2d565b9150819050919050565b600060c082019050611b7a60008301896111c2565b611b8760208301886111c2565b611b9460408301876111c2565b611ba160608301866111c2565b611bae60808301856111c2565b611bbb60a08301846111fa565b979650505050505050565b7f4e487b7100000000000000000000000000000000000000000000000000000000600052603260045260246000fd5b611bfe816116c0565b82525050565b6000606082019050611c196000830186611bf5565b611c2660208301856111fa565b8181036040830152611c3881846112f8565b9050949350505050565b7f4c69624469616d6f6e643a204d75737420626520636f6e7472616374206f776e60008201527f6572000000000000000000000000000000000000000000000000000000000000602082015250565b6000611c9e6022836112bd565b9150611ca982611c42565b604082019050919050565b60006020820190508181036000830152611ccd81611c91565b905091905056fea26469706673582212208b9da87ef9bfabeffb3f0e3c891abe8539477ce09a2783bd37c4d8f066c29ca964736f6c63430008160033",
  "devdoc": {
    "kind": "dev",
    "methods": {
      "admin_P2_layer_setting(uint256,uint256,uint256,uint256,uint256,bool)": {
        "details": "P2 Admin functions"
      },
      "admin_distribute_setStates(uint24,uint24,uint24,uint24,uint24)": {
        "details": "DistriBute Admin functions"
      },
      "admin_p0_setStates(uint24,uint256,uint16,bool)": {
        "details": "P0 Admin functions"
      },
      "admin_setAienMintFee(uint256)": {
        "details": "aien mint variables"
      }
    },
    "version": 1
  },
  "userdoc": {
    "kind": "user",
    "methods": {},
    "version": 1
  },
  "storageLayout": {
    "storage": [],
    "types": null
  }
}