{
  "address": "0x9f363248f3b0F331B8BfE3A1F5A7f58bE9c5e297",
  "abi": [
    {
      "inputs": [
        {
          "internalType": "bool",
          "name": "_isStop",
          "type": "bool"
        }
      ],
      "name": "admin_P2_Stop",
      "outputs": [],
      "stateMutability": "nonpayable",
      "type": "function"
    },
    {
      "inputs": [
        {
          "internalType": "uint256",
          "name": "_baseBalance",
          "type": "uint256"
        },
        {
          "internalType": "uint256",
          "name": "_plusBalance",
          "type": "uint256"
        }
      ],
      "name": "admin_P2_addBalance",
      "outputs": [],
      "stateMutability": "nonpayable",
      "type": "function"
    },
    {
      "inputs": [
        {
          "internalType": "address",
          "name": "_user",
          "type": "address"
        },
        {
          "internalType": "bool",
          "name": "_isBlock",
          "type": "bool"
        }
      ],
      "name": "admin_P2_blockUser",
      "outputs": [],
      "stateMutability": "nonpayable",
      "type": "function"
    },
    {
      "inputs": [
        {
          "internalType": "uint256",
          "name": "_layerNumber",
          "type": "uint256"
        },
        {
          "internalType": "uint256",
          "name": "_baseBalance",
          "type": "uint256"
        },
        {
          "internalType": "uint256",
          "name": "_plusBalance",
          "type": "uint256"
        },
        {
          "internalType": "uint256",
          "name": "_savedBaseBalance",
          "type": "uint256"
        },
        {
          "internalType": "uint256",
          "name": "_savedPlusBalance",
          "type": "uint256"
        }
      ],
      "name": "admin_P2_layer_balances_setting",
      "outputs": [
        {
          "internalType": "bool",
          "name": "",
          "type": "bool"
        }
      ],
      "stateMutability": "nonpayable",
      "type": "function"
    },
    {
      "inputs": [
        {
          "internalType": "uint256",
          "name": "_layerNumber",
          "type": "uint256"
        },
        {
          "internalType": "uint256",
          "name": "_rewardBasePercent",
          "type": "uint256"
        },
        {
          "internalType": "uint256",
          "name": "_rewardPlusPercent",
          "type": "uint256"
        }
      ],
      "name": "admin_P2_layer_setRewardPercent",
      "outputs": [],
      "stateMutability": "nonpayable",
      "type": "function"
    },
    {
      "inputs": [
        {
          "internalType": "uint256",
          "name": "_layerNumber",
          "type": "uint256"
        },
        {
          "internalType": "uint256",
          "name": "_fromP2BasePercent",
          "type": "uint256"
        },
        {
          "internalType": "uint256",
          "name": "_fromP2PlusPercent",
          "type": "uint256"
        },
        {
          "internalType": "uint256",
          "name": "_add_dailyReward_Percent",
          "type": "uint256"
        },
        {
          "internalType": "bool",
          "name": "_isOpen",
          "type": "bool"
        }
      ],
      "name": "admin_P2_layer_setting",
      "outputs": [],
      "stateMutability": "nonpayable",
      "type": "function"
    },
    {
      "inputs": [
        {
          "internalType": "uint256",
          "name": "_baseBalance",
          "type": "uint256"
        },
        {
          "internalType": "uint256",
          "name": "_plusBalance",
          "type": "uint256"
        }
      ],
      "name": "admin_P2_setBalance",
      "outputs": [],
      "stateMutability": "nonpayable",
      "type": "function"
    },
    {
      "inputs": [
        {
          "internalType": "uint256",
          "name": "_dailyRewardPercent",
          "type": "uint256"
        }
      ],
      "name": "admin_P2_setDailyRewardPercent",
      "outputs": [],
      "stateMutability": "nonpayable",
      "type": "function"
    },
    {
      "inputs": [
        {
          "internalType": "uint256",
          "name": "_maxLimit",
          "type": "uint256"
        }
      ],
      "name": "admin_P2_setMaxLimit",
      "outputs": [],
      "stateMutability": "nonpayable",
      "type": "function"
    },
    {
      "inputs": [
        {
          "internalType": "uint256",
          "name": "_baseBalance",
          "type": "uint256"
        },
        {
          "internalType": "uint256",
          "name": "_plusBalance",
          "type": "uint256"
        },
        {
          "internalType": "uint256",
          "name": "_dailyRewardPercent",
          "type": "uint256"
        },
        {
          "internalType": "uint256",
          "name": "_maxStakingLimit",
          "type": "uint256"
        },
        {
          "internalType": "uint256",
          "name": "_dayToSec",
          "type": "uint256"
        }
      ],
      "name": "admin_P2_start",
      "outputs": [
        {
          "internalType": "bool",
          "name": "",
          "type": "bool"
        }
      ],
      "stateMutability": "nonpayable",
      "type": "function"
    },
    {
      "inputs": [],
      "name": "admin_distribute_estimate",
      "outputs": [
        {
          "internalType": "bool",
          "name": "",
          "type": "bool"
        },
        {
          "internalType": "uint256",
          "name": "",
          "type": "uint256"
        },
        {
          "internalType": "uint256",
          "name": "",
          "type": "uint256"
        }
      ],
      "stateMutability": "view",
      "type": "function"
    },
    {
      "inputs": [],
      "name": "admin_distribute_getBeforAmounts",
      "outputs": [
        {
          "internalType": "uint256",
          "name": "",
          "type": "uint256"
        },
        {
          "internalType": "uint256",
          "name": "",
          "type": "uint256"
        },
        {
          "internalType": "uint256",
          "name": "",
          "type": "uint256"
        }
      ],
      "stateMutability": "view",
      "type": "function"
    },
    {
      "inputs": [],
      "name": "admin_distribute_getStates",
      "outputs": [
        {
          "internalType": "uint24",
          "name": "",
          "type": "uint24"
        },
        {
          "internalType": "uint24",
          "name": "",
          "type": "uint24"
        },
        {
          "internalType": "uint24",
          "name": "",
          "type": "uint24"
        },
        {
          "internalType": "uint24",
          "name": "",
          "type": "uint24"
        },
        {
          "internalType": "uint24",
          "name": "",
          "type": "uint24"
        },
        {
          "internalType": "uint256",
          "name": "",
          "type": "uint256"
        },
        {
          "internalType": "uint256",
          "name": "",
          "type": "uint256"
        }
      ],
      "stateMutability": "view",
      "type": "function"
    },
    {
      "inputs": [
        {
          "internalType": "uint256",
          "name": "_limit",
          "type": "uint256"
        }
      ],
      "name": "admin_distribute_ksSwapLimit",
      "outputs": [],
      "stateMutability": "nonpayable",
      "type": "function"
    },
    {
      "inputs": [
        {
          "internalType": "bool",
          "name": "_isAuto",
          "type": "bool"
        }
      ],
      "name": "admin_distribute_setAuto",
      "outputs": [],
      "stateMutability": "nonpayable",
      "type": "function"
    },
    {
      "inputs": [
        {
          "internalType": "uint24",
          "name": "_p1Ratio",
          "type": "uint24"
        },
        {
          "internalType": "uint24",
          "name": "_p2BaseRatio",
          "type": "uint24"
        },
        {
          "internalType": "uint24",
          "name": "_p2PlusRatio",
          "type": "uint24"
        },
        {
          "internalType": "uint24",
          "name": "_burnRatio",
          "type": "uint24"
        },
        {
          "internalType": "uint24",
          "name": "_teamFeeRatio",
          "type": "uint24"
        }
      ],
      "name": "admin_distribute_setStates",
      "outputs": [],
      "stateMutability": "nonpayable",
      "type": "function"
    },
    {
      "inputs": [
        {
          "internalType": "uint256",
          "name": "_agencyIncomePercent",
          "type": "uint256"
        },
        {
          "internalType": "uint256",
          "name": "_influencerIncomePercent",
          "type": "uint256"
        }
      ],
      "name": "admin_distribute_userStates",
      "outputs": [],
      "stateMutability": "nonpayable",
      "type": "function"
    },
    {
      "inputs": [
        {
          "internalType": "uint8",
          "name": "_gradeIndex",
          "type": "uint8"
        }
      ],
      "name": "admin_p0_getGradeInfos",
      "outputs": [
        {
          "internalType": "bool",
          "name": "",
          "type": "bool"
        },
        {
          "internalType": "uint256",
          "name": "",
          "type": "uint256"
        },
        {
          "internalType": "uint24",
          "name": "",
          "type": "uint24"
        },
        {
          "internalType": "uint16",
          "name": "",
          "type": "uint16"
        },
        {
          "internalType": "uint24",
          "name": "",
          "type": "uint24"
        },
        {
          "internalType": "uint24",
          "name": "",
          "type": "uint24"
        }
      ],
      "stateMutability": "view",
      "type": "function"
    },
    {
      "inputs": [
        {
          "internalType": "uint8",
          "name": "_grade",
          "type": "uint8"
        }
      ],
      "name": "admin_p0_getMetadataMargin",
      "outputs": [
        {
          "internalType": "uint256",
          "name": "",
          "type": "uint256"
        },
        {
          "internalType": "uint256",
          "name": "",
          "type": "uint256"
        },
        {
          "internalType": "uint256",
          "name": "",
          "type": "uint256"
        }
      ],
      "stateMutability": "view",
      "type": "function"
    },
    {
      "inputs": [
        {
          "internalType": "uint256",
          "name": "_grade",
          "type": "uint256"
        }
      ],
      "name": "admin_p0_getPerFriendsProb",
      "outputs": [
        {
          "internalType": "string",
          "name": "",
          "type": "string"
        },
        {
          "internalType": "uint24",
          "name": "",
          "type": "uint24"
        }
      ],
      "stateMutability": "view",
      "type": "function"
    },
    {
      "inputs": [],
      "name": "admin_p0_getStates",
      "outputs": [
        {
          "internalType": "uint24",
          "name": "",
          "type": "uint24"
        },
        {
          "internalType": "uint256",
          "name": "",
          "type": "uint256"
        },
        {
          "internalType": "uint16",
          "name": "",
          "type": "uint16"
        },
        {
          "internalType": "bool",
          "name": "",
          "type": "bool"
        }
      ],
      "stateMutability": "view",
      "type": "function"
    },
    {
      "inputs": [
        {
          "internalType": "uint8",
          "name": "_gradeIndex",
          "type": "uint8"
        },
        {
          "internalType": "bool",
          "name": "_isOpen",
          "type": "bool"
        },
        {
          "internalType": "uint256",
          "name": "_mixFee",
          "type": "uint256"
        },
        {
          "internalType": "uint24",
          "name": "_initBaseProb",
          "type": "uint24"
        },
        {
          "internalType": "uint16",
          "name": "_mixExp",
          "type": "uint16"
        },
        {
          "internalType": "uint24",
          "name": "_failedAddProbMin",
          "type": "uint24"
        },
        {
          "internalType": "uint24",
          "name": "_failedAddProbMax",
          "type": "uint24"
        }
      ],
      "name": "admin_p0_setGradeInfos",
      "outputs": [],
      "stateMutability": "nonpayable",
      "type": "function"
    },
    {
      "inputs": [
        {
          "internalType": "uint8",
          "name": "_grade",
          "type": "uint8"
        },
        {
          "internalType": "string",
          "name": "_gradeName",
          "type": "string"
        },
        {
          "internalType": "uint256",
          "name": "_mergeFee",
          "type": "uint256"
        },
        {
          "internalType": "uint256",
          "name": "_mergeUseItemAmount",
          "type": "uint256"
        },
        {
          "internalType": "uint256",
          "name": "_latestId",
          "type": "uint256"
        },
        {
          "internalType": "bool",
          "name": "_isOpen",
          "type": "bool"
        }
      ],
      "name": "admin_p0_setMergeGradesInfo",
      "outputs": [],
      "stateMutability": "nonpayable",
      "type": "function"
    },
    {
      "inputs": [
        {
          "internalType": "uint256",
          "name": "_pfId",
          "type": "uint256"
        },
        {
          "internalType": "uint8",
          "name": "_grade",
          "type": "uint8"
        },
        {
          "internalType": "string",
          "name": "_seedHash",
          "type": "string"
        }
      ],
      "name": "admin_p0_setMetaData",
      "outputs": [],
      "stateMutability": "nonpayable",
      "type": "function"
    },
    {
      "inputs": [
        {
          "internalType": "uint256",
          "name": "_grade",
          "type": "uint256"
        },
        {
          "internalType": "string",
          "name": "_pfGrade",
          "type": "string"
        },
        {
          "internalType": "uint24",
          "name": "_gradeProb",
          "type": "uint24"
        }
      ],
      "name": "admin_p0_setPerFriendsProb",
      "outputs": [],
      "stateMutability": "nonpayable",
      "type": "function"
    },
    {
      "inputs": [
        {
          "internalType": "uint24",
          "name": "_maxProb",
          "type": "uint24"
        },
        {
          "internalType": "uint256",
          "name": "_addProbFee",
          "type": "uint256"
        },
        {
          "internalType": "uint16",
          "name": "_addProbExp",
          "type": "uint16"
        },
        {
          "internalType": "bool",
          "name": "_isVRF",
          "type": "bool"
        }
      ],
      "name": "admin_p0_setStates",
      "outputs": [],
      "stateMutability": "nonpayable",
      "type": "function"
    },
    {
      "inputs": [
        {
          "internalType": "uint256",
          "name": "_mintFee",
          "type": "uint256"
        }
      ],
      "name": "admin_setAienMintFee",
      "outputs": [],
      "stateMutability": "nonpayable",
      "type": "function"
    }
  ],
  "args": [],
  "numDeployments": 12,
  "solcInputHash": "f68ce13d1963c428f5bf0bb833c4847c",
  "bytecode": "0x608060405234801561001057600080fd5b50611682806100206000396000f3fe608060405234801561001057600080fd5b50600436106101a95760003560e01c8063849bc90a116100f9578063c7809e2f11610097578063ced1c98711610071578063ced1c98714610473578063cf6c467814610486578063d1a71d3114610499578063ef404fa2146104ac57600080fd5b8063c7809e2f1461043a578063ca937ac81461044d578063cc6d37d61461046057600080fd5b8063b545c43f116100d3578063b545c43f146103cc578063b5643cdb146103df578063b75670e0146103f2578063c093fb0d1461041757600080fd5b8063849bc90a146103545780639b0988f114610367578063a4517553146103b957600080fd5b806345d08ac61161016657806368f2571e1161014057806368f2571e146102ff5780636e8e2fa61461031257806374e35d19146103255780637fe5cca11461033357600080fd5b806345d08ac6146102c657806358a7d821146102d95780635c53ddae146102ec57600080fd5b8063025aa16c146101ae5780631ad1d5dc146101c35780631b907b2c146101d657806323143abd1461020957806324eb911e1461021c5780633a8e18de14610284575b600080fd5b6101c16101bc366004610fa1565b6104bf565b005b6101c16101d136600461100b565b61057e565b6101e96101e4366004611062565b6105cb565b604080519384526020840192909252908201526060015b60405180910390f35b6101c1610217366004611084565b610607565b602954602f546030546040805162ffffff8086168252630100000086048116602083015266010000000000008604811692820192909252600160481b850482166060820152600160601b90940416608084015260a083019190915260c082015260e001610200565b6001546002546003546040805162ffffff9094168452602084019290925261ffff81169183019190915262010000900460ff1615156060820152608001610200565b6101c16102d43660046110b0565b61062c565b6101c16102e73660046110c9565b610639565b6101c16102fa3660046110b0565b61067c565b6101c161030d3660046110b0565b610689565b6101c16103203660046110fb565b610696565b6026546028546027546101e9565b6103466103413660046110b0565b6106df565b60405161020092919061118a565b6101c16103623660046110c9565b610799565b61037a610375366004611062565b6107ac565b604080519615158752602087019590955262ffffff9384169486019490945261ffff9091166060850152811660808401521660a082015260c001610200565b6101c16103c73660046111b1565b6108bb565b6101c16103da36600461120a565b610940565b6101c16103ed3660046110b0565b61095b565b6103fa610968565b604080519315158452602084019290925290820152606001610200565b61042a610425366004611225565b610980565b6040519015158152602001610200565b6101c1610448366004611272565b6109b7565b6101c161045b36600461120a565b610b07565b6101c161046e3660046110c9565b610b22565b6101c16104813660046112f1565b610b35565b6101c161049436600461136b565b610bac565b61042a6104a7366004611225565b610bdf565b6101c16104ba3660046113ac565b610c3d565b6104c7610c7f565b6000838152602e602052604081206104df8382611484565b5060ff83166000908152602d82016020526040908190206005018590555161323160f11b8152819060020190815260405190819003602001812054636ff7d6c560e01b82526001600160a01b031690636ff7d6c59061054690879087908790600401611544565b600060405180830381600087803b15801561056057600080fd5b505af1158015610574573d6000803e3d6000fd5b5050505050505050565b610586610c7f565b600083815260256020526040812061059e8482611484565b5060009384526025016020526040909220600101805462ffffff191662ffffff9093169290921790915550565b60ff81166000908152602d602052604081206004810154600590910154829182918291906105f98282611585565b935093509350509193909250565b61060f610c7f565b600092835260436020526040909220600c810191909155600d0155565b610634610c7f565b603755565b610641610c7f565b600082816032016000828254610657919061159e565b9250508190555081816033016000828254610672919061159e565b9091555050505050565b610684610c7f565b602b55565b610691610c7f565b603455565b61069e610c7f565b600094855260436020526040909420600a810193909355600b830191909155620186a0600c830155600d820155601301805460ff1916911515919091179055565b600081815260256020526040812060018101548154606093928392909162ffffff90911690829061070f906113f9565b80601f016020809104026020016040519081016040528092919081815260200182805461073b906113f9565b80156107885780601f1061075d57610100808354040283529160200191610788565b820191906000526020600020905b81548152906001019060200180831161076b57829003601f168201915b505050505091509250925050915091565b6107a1610c7f565b603291909155603355565b6000808080808080600460ff8916600b81106107ca576107ca6115b1565b600302015460ff9081169060048301908a16600b81106107ec576107ec6115b1565b6003020160010154826004018a60ff16600b811061080c5761080c6115b1565b600302016002015462ffffff166004840160ff8c16600b8110610831576108316115b1565b6003020160020160039054906101000a900461ffff16846004018c60ff16600b811061085f5761085f6115b1565b6003020160020160059054906101000a900462ffffff16856004018d60ff16600b811061088e5761088e6115b1565b6003020160020160089054906101000a900462ffffff169650965096509650965096505091939550919395565b6108c3610c7f565b6029805462ffffff928316600160601b0262ffffff60601b19948416600160481b026bffffff00000000000000000019968516660100000000000002969096166bffffffffffff0000000000001997851663010000000265ffffffffffff1990931698909416979097171794909416179190911716919091179055565b610948610c7f565b602c805460ff1916911515919091179055565b610963610c7f565b602a55565b6000806000610975610d0c565b925092509250909192565b600061098a610c7f565b50600094855260436020526040909420928355600180840192909255600283015560039091019190915590565b6109bf610c7f565b600086600460ff8a16600b81106109d8576109d86115b1565b60030201805460ff1916911515919091179055856004820160ff8a16600b8110610a0457610a046115b1565b600302016001018190555084816004018960ff16600b8110610a2857610a286115b1565b6003020160020160006101000a81548162ffffff021916908362ffffff16021790555083816004018960ff16600b8110610a6457610a646115b1565b6003020160020160036101000a81548161ffff021916908361ffff16021790555082816004018960ff16600b8110610a9e57610a9e6115b1565b6003020160020160056101000a81548162ffffff021916908362ffffff16021790555081816004018960ff16600b8110610ada57610ada6115b1565b6003020160020160086101000a81548162ffffff021916908362ffffff1602179055505050505050505050565b610b0f610c7f565b6031805460ff1916911515919091179055565b610b2a610c7f565b602f91909155603055565b610b3d610c7f565b60ff86166000818152602d60205260408120805460ff1916909217825590600101610b688782611484565b5060ff969096166000908152602d9096016020526040909520600281019390935560038301919091556004820155600601805460ff19169215159290921790915550565b610bb4610c7f565b6001600160a01b03919091166000908152604060208190529020805460ff1916911515919091179055565b6000610be9610c7f565b6031805460ff19166001179055620186a060395564e8d4a51000603a5560388290556032869055603385905560348490556000610c268343611585565b603582015560370183905550600195945050505050565b610c45610c7f565b6001805462ffffff9590951662ffffff199586161790556002929092556003805492151562010000029290931661ffff9190911617179055565b7fc8fcad8db84d3cc18b4c41d551ea0ee66dd599cde068d998e57d5e09332c131c600401546001600160a01b03163314610d0a5760405162461bcd60e51b815260206004820152602260248201527f4c69624469616d6f6e643a204d75737420626520636f6e7472616374206f776e60448201526132b960f11b606482015260840160405180910390fd5b565b60008080806060600082600001604051610d2f90623832b960e91b815260030190565b908152604051908190036020018120546370a0823160e01b82523060048301526001600160a01b0316906370a0823190602401602060405180830381865afa158015610d7f573d6000803e3d6000fd5b505050506040513d601f19601f82011682018060405250810190610da391906115c7565b6040516b1adb185e5cddd85c1d5d1a5b60a21b81529091506000908490600c01908152604051908190036020018120546001600160a01b03169063692ca7a0908690610df890623832b960e91b815260030190565b908152604051908190036020018120546001600160a01b0316908790610e2790623832b960e91b815260030190565b908152604051908190036020018120546001600160e01b031960e085901b168252610e6592916001600160a01b0390911690879089906004016115e0565b602060405180830381865afa158015610e82573d6000803e3d6000fd5b505050506040513d601f19601f82011682018060405250810190610ea691906115c7565b905083602b015481118015610ec45750602c84015460ff1615156001145b15610ed757600197919650945092505050565b506000968796508695509350505050565b803560ff81168114610ef957600080fd5b919050565b634e487b7160e01b600052604160045260246000fd5b600082601f830112610f2557600080fd5b813567ffffffffffffffff80821115610f4057610f40610efe565b604051601f8301601f19908116603f01168101908282118183101715610f6857610f68610efe565b81604052838152866020858801011115610f8157600080fd5b836020870160208301376000602085830101528094505050505092915050565b600080600060608486031215610fb657600080fd5b83359250610fc660208501610ee8565b9150604084013567ffffffffffffffff811115610fe257600080fd5b610fee86828701610f14565b9150509250925092565b803562ffffff81168114610ef957600080fd5b60008060006060848603121561102057600080fd5b83359250602084013567ffffffffffffffff81111561103e57600080fd5b61104a86828701610f14565b92505061105960408501610ff8565b90509250925092565b60006020828403121561107457600080fd5b61107d82610ee8565b9392505050565b60008060006060848603121561109957600080fd5b505081359360208301359350604090920135919050565b6000602082840312156110c257600080fd5b5035919050565b600080604083850312156110dc57600080fd5b50508035926020909101359150565b80358015158114610ef957600080fd5b600080600080600060a0868803121561111357600080fd5b85359450602086013593506040860135925060608601359150611138608087016110eb565b90509295509295909350565b6000815180845260005b8181101561116a5760208185018101518683018201520161114e565b506000602082860101526020601f19601f83011685010191505092915050565b60408152600061119d6040830185611144565b905062ffffff831660208301529392505050565b600080600080600060a086880312156111c957600080fd5b6111d286610ff8565b94506111e060208701610ff8565b93506111ee60408701610ff8565b92506111fc60608701610ff8565b915061113860808701610ff8565b60006020828403121561121c57600080fd5b61107d826110eb565b600080600080600060a0868803121561123d57600080fd5b505083359560208501359550604085013594606081013594506080013592509050565b803561ffff81168114610ef957600080fd5b600080600080600080600060e0888a03121561128d57600080fd5b61129688610ee8565b96506112a4602089016110eb565b9550604088013594506112b960608901610ff8565b93506112c760808901611260565b92506112d560a08901610ff8565b91506112e360c08901610ff8565b905092959891949750929550565b60008060008060008060c0878903121561130a57600080fd5b61131387610ee8565b9550602087013567ffffffffffffffff81111561132f57600080fd5b61133b89828a01610f14565b95505060408701359350606087013592506080870135915061135f60a088016110eb565b90509295509295509295565b6000806040838503121561137e57600080fd5b82356001600160a01b038116811461139557600080fd5b91506113a3602084016110eb565b90509250929050565b600080600080608085870312156113c257600080fd5b6113cb85610ff8565b9350602085013592506113e060408601611260565b91506113ee606086016110eb565b905092959194509250565b600181811c9082168061140d57607f821691505b60208210810361142d57634e487b7160e01b600052602260045260246000fd5b50919050565b601f82111561147f576000816000526020600020601f850160051c8101602086101561145c5750805b601f850160051c820191505b8181101561147b57828155600101611468565b5050505b505050565b815167ffffffffffffffff81111561149e5761149e610efe565b6114b2816114ac84546113f9565b84611433565b602080601f8311600181146114e757600084156114cf5750858301515b600019600386901b1c1916600185901b17855561147b565b600085815260208120601f198616915b82811015611516578886015182559484019460019091019084016114f7565b50858210156115345787850151600019600388901b60f8161c191681555b5050505050600190811b01905550565b83815260ff831660208201526060604082015260006115666060830184611144565b95945050505050565b634e487b7160e01b600052601160045260246000fd5b818103818111156115985761159861156f565b92915050565b808201808211156115985761159861156f565b634e487b7160e01b600052603260045260246000fd5b6000602082840312156115d957600080fd5b5051919050565b60006080820160018060a01b038088168452602081881660208601528660408601526080606086015282865180855260a08701915060208801945060005b8181101561163c57855185168352948301949183019160010161161e565b50909a995050505050505050505056fea26469706673582212209e58018278a89bf4d5e18d0d41156aaf539a396b51561d33c8385543d9713fe864736f6c63430008160033",
  "devdoc": {
    "kind": "dev",
    "methods": {
      "admin_P2_start(uint256,uint256,uint256,uint256,uint256)": {
        "details": "P2 Admin functions"
      },
      "admin_distribute_setStates(uint24,uint24,uint24,uint24,uint24)": {
        "details": "DistriBute Admin functions"
      },
      "admin_p0_setStates(uint24,uint256,uint16,bool)": {
        "details": "P0 Admin functions"
      },
      "admin_setAienMintFee(uint256)": {
        "details": "aien mint variables"
      }
    },
    "version": 1
  },
  "userdoc": {
    "kind": "user",
    "methods": {},
    "version": 1
  },
  "storageLayout": {
    "storage": [],
    "types": null
  }
}