{
  "address": "0x10bE3060cFedb65D6108B0E76376A0c667BB8eB3",
  "abi": [
    {
      "inputs": [
        {
          "internalType": "address",
          "name": "_user",
          "type": "address"
        },
        {
          "internalType": "bool",
          "name": "_isBlock",
          "type": "bool"
        },
        {
          "internalType": "string",
          "name": "_why",
          "type": "string"
        }
      ],
      "name": "admin_P2_blockUser",
      "outputs": [],
      "stateMutability": "nonpayable",
      "type": "function"
    },
    {
      "inputs": [
        {
          "internalType": "uint256",
          "name": "_layerNumber",
          "type": "uint256"
        },
        {
          "internalType": "uint256",
          "name": "_fromP2PerPercent",
          "type": "uint256"
        },
        {
          "internalType": "uint256",
          "name": "_fromP2UsdtPercent",
          "type": "uint256"
        },
        {
          "internalType": "uint256",
          "name": "_dailyReward_percent",
          "type": "uint256"
        },
        {
          "internalType": "uint256",
          "name": "_add_dailyReward_Percent",
          "type": "uint256"
        },
        {
          "internalType": "bool",
          "name": "_isOpen",
          "type": "bool"
        }
      ],
      "name": "admin_P2_layer_setting",
      "outputs": [],
      "stateMutability": "nonpayable",
      "type": "function"
    },
    {
      "inputs": [
        {
          "internalType": "uint256",
          "name": "_maxLimit",
          "type": "uint256"
        }
      ],
      "name": "admin_P2_setMaxLimit",
      "outputs": [],
      "stateMutability": "nonpayable",
      "type": "function"
    },
    {
      "inputs": [],
      "name": "admin_distribute_getStates",
      "outputs": [
        {
          "internalType": "uint24",
          "name": "",
          "type": "uint24"
        },
        {
          "internalType": "uint24",
          "name": "",
          "type": "uint24"
        },
        {
          "internalType": "uint24",
          "name": "",
          "type": "uint24"
        },
        {
          "internalType": "uint24",
          "name": "",
          "type": "uint24"
        },
        {
          "internalType": "uint24",
          "name": "",
          "type": "uint24"
        }
      ],
      "stateMutability": "view",
      "type": "function"
    },
    {
      "inputs": [
        {
          "internalType": "uint256",
          "name": "_limit",
          "type": "uint256"
        }
      ],
      "name": "admin_distribute_ksSwapLimit",
      "outputs": [],
      "stateMutability": "nonpayable",
      "type": "function"
    },
    {
      "inputs": [
        {
          "internalType": "bool",
          "name": "_isAuto",
          "type": "bool"
        }
      ],
      "name": "admin_distribute_setAuto",
      "outputs": [],
      "stateMutability": "nonpayable",
      "type": "function"
    },
    {
      "inputs": [
        {
          "internalType": "uint24",
          "name": "_p1Ratio",
          "type": "uint24"
        },
        {
          "internalType": "uint24",
          "name": "_p2PerRatio",
          "type": "uint24"
        },
        {
          "internalType": "uint24",
          "name": "_p2UsdtRatio",
          "type": "uint24"
        },
        {
          "internalType": "uint24",
          "name": "_burnRatio",
          "type": "uint24"
        },
        {
          "internalType": "uint24",
          "name": "_teamUsdtRatio",
          "type": "uint24"
        }
      ],
      "name": "admin_distribute_setStates",
      "outputs": [],
      "stateMutability": "nonpayable",
      "type": "function"
    },
    {
      "inputs": [],
      "name": "admin_getAienMintFee",
      "outputs": [
        {
          "internalType": "uint256",
          "name": "",
          "type": "uint256"
        }
      ],
      "stateMutability": "view",
      "type": "function"
    },
    {
      "inputs": [
        {
          "internalType": "uint8",
          "name": "_gradeIndex",
          "type": "uint8"
        }
      ],
      "name": "admin_p0_getGradeInfos",
      "outputs": [
        {
          "internalType": "bool",
          "name": "",
          "type": "bool"
        },
        {
          "internalType": "uint256",
          "name": "",
          "type": "uint256"
        },
        {
          "internalType": "uint24",
          "name": "",
          "type": "uint24"
        },
        {
          "internalType": "uint16",
          "name": "",
          "type": "uint16"
        },
        {
          "internalType": "uint24",
          "name": "",
          "type": "uint24"
        },
        {
          "internalType": "uint24",
          "name": "",
          "type": "uint24"
        }
      ],
      "stateMutability": "view",
      "type": "function"
    },
    {
      "inputs": [
        {
          "internalType": "uint256",
          "name": "_grade",
          "type": "uint256"
        }
      ],
      "name": "admin_p0_getPerFriendsProb",
      "outputs": [
        {
          "internalType": "string",
          "name": "",
          "type": "string"
        },
        {
          "internalType": "uint24",
          "name": "",
          "type": "uint24"
        }
      ],
      "stateMutability": "view",
      "type": "function"
    },
    {
      "inputs": [],
      "name": "admin_p0_getStates",
      "outputs": [
        {
          "internalType": "uint24",
          "name": "",
          "type": "uint24"
        },
        {
          "internalType": "uint256",
          "name": "",
          "type": "uint256"
        },
        {
          "internalType": "uint16",
          "name": "",
          "type": "uint16"
        },
        {
          "internalType": "bool",
          "name": "",
          "type": "bool"
        }
      ],
      "stateMutability": "view",
      "type": "function"
    },
    {
      "inputs": [
        {
          "internalType": "uint8",
          "name": "_gradeIndex",
          "type": "uint8"
        },
        {
          "internalType": "bool",
          "name": "_isOpen",
          "type": "bool"
        },
        {
          "internalType": "uint256",
          "name": "_mixFee",
          "type": "uint256"
        },
        {
          "internalType": "uint24",
          "name": "_initBaseProb",
          "type": "uint24"
        },
        {
          "internalType": "uint16",
          "name": "_mixExp",
          "type": "uint16"
        },
        {
          "internalType": "uint24",
          "name": "_failedAddProbMin",
          "type": "uint24"
        },
        {
          "internalType": "uint24",
          "name": "_failedAddProbMax",
          "type": "uint24"
        }
      ],
      "name": "admin_p0_setGradeInfos",
      "outputs": [],
      "stateMutability": "nonpayable",
      "type": "function"
    },
    {
      "inputs": [
        {
          "internalType": "uint256",
          "name": "_pfId",
          "type": "uint256"
        },
        {
          "internalType": "uint8",
          "name": "_grade",
          "type": "uint8"
        },
        {
          "internalType": "string",
          "name": "_seedHash",
          "type": "string"
        }
      ],
      "name": "admin_p0_setMetaData",
      "outputs": [],
      "stateMutability": "nonpayable",
      "type": "function"
    },
    {
      "inputs": [
        {
          "internalType": "uint256",
          "name": "_grade",
          "type": "uint256"
        },
        {
          "internalType": "string",
          "name": "_pfGrade",
          "type": "string"
        },
        {
          "internalType": "uint24",
          "name": "_gradeProb",
          "type": "uint24"
        }
      ],
      "name": "admin_p0_setPerFriendsProb",
      "outputs": [],
      "stateMutability": "nonpayable",
      "type": "function"
    },
    {
      "inputs": [
        {
          "internalType": "uint24",
          "name": "_maxProb",
          "type": "uint24"
        },
        {
          "internalType": "uint256",
          "name": "_addProbFee",
          "type": "uint256"
        },
        {
          "internalType": "uint16",
          "name": "_addProbExp",
          "type": "uint16"
        },
        {
          "internalType": "bool",
          "name": "_isVRF",
          "type": "bool"
        }
      ],
      "name": "admin_p0_setStates",
      "outputs": [],
      "stateMutability": "nonpayable",
      "type": "function"
    },
    {
      "inputs": [
        {
          "internalType": "uint256",
          "name": "_mintFee",
          "type": "uint256"
        }
      ],
      "name": "admin_setAienMintFee",
      "outputs": [],
      "stateMutability": "nonpayable",
      "type": "function"
    }
  ],
  "transactionHash": "0xdd6bd95162bbfb063db040a1322bdf034e3f671f313da4620c744581f2053785",
  "args": [],
  "numDeployments": 3,
  "solcInputHash": "4f929f09ae59e44da443ccddb3da9401",
  "bytecode": "0x608060405234801561001057600080fd5b50611c74806100206000396000f3fe608060405234801561001057600080fd5b50600436106101005760003560e01c80639a6d988711610097578063b5643cdb11610066578063b5643cdb14610290578063c7809e2f146102ac578063ef404fa2146102c8578063f6f00563146102e457610100565b80639a6d9887146102075780639b0988f114610223578063a451755314610258578063b545c43f1461027457610100565b806345d08ac6116100d357806345d08ac6146101805780635c53ddae1461019c5780637fe5cca1146101b85780638a1833ed146101e957610100565b8063025aa16c146101055780631ad1d5dc1461012157806324eb911e1461013d5780633a8e18de1461015f575b600080fd5b61011f600480360381019061011a9190610fe8565b610300565b005b61013b60048036038101906101369190611092565b61040d565b005b610145610482565b604051610156959493929190611110565b60405180910390f35b61016761051a565b60405161017794939291906111aa565b60405180910390f35b61019a600480360381019061019591906111ef565b610585565b005b6101b660048036038101906101b191906111ef565b610646565b005b6101d260048036038101906101cd91906111ef565b610667565b6040516101e092919061129b565b60405180910390f35b6101f161074c565b6040516101fe91906112cb565b60405180910390f35b610221600480360381019061021c9190611312565b610764565b005b61023d6004803603810190610238919061139f565b610834565b60405161024f969594939291906113cc565b60405180910390f35b610272600480360381019061026d919061142d565b61096d565b005b61028e600480360381019061028991906114a8565b610a3d565b005b6102aa60048036038101906102a591906111ef565b610a71565b005b6102c660048036038101906102c19190611501565b610a92565b005b6102e260048036038101906102dd91906115a3565b610bff565b005b6102fe60048036038101906102f99190611668565b610c8b565b005b610308610d52565b6000610312610ded565b90508181602e016000868152602001908152602001600020908161033691906118e3565b508381602d0160008560ff1660ff168152602001908152602001600020600501819055508060000160405161036a90611a0c565b908152602001604051809103902060009054906101000a900473ffffffffffffffffffffffffffffffffffffffff1673ffffffffffffffffffffffffffffffffffffffff16636ff7d6c58585856040518463ffffffff1660e01b81526004016103d593929190611a30565b600060405180830381600087803b1580156103ef57600080fd5b505af1158015610403573d6000803e3d6000fd5b5050505050505050565b610415610d52565b600061041f610ded565b905082816025016000868152602001908152602001600020600001908161044691906118e3565b508181602501600086815260200190815260200160002060010160006101000a81548162ffffff021916908362ffffff16021790555050505050565b600080600080600080610493610ded565b90508060260160030160009054906101000a900462ffffff168160260160030160039054906101000a900462ffffff168260260160030160069054906101000a900462ffffff168360260160030160099054906101000a900462ffffff1684602601600301600c9054906101000a900462ffffff1695509550955095509550509091929394565b600080600080600061052a610ded565b90508060010160000160009054906101000a900462ffffff1681600101600101548260010160020160009054906101000a900461ffff168360010160020160029054906101000a900460ff1694509450945094505090919293565b61058d610d52565b6000610597610ded565b9050806000016040516105a990611aba565b908152602001604051809103902060009054906101000a900473ffffffffffffffffffffffffffffffffffffffff1673ffffffffffffffffffffffffffffffffffffffff166328e52aae836040518263ffffffff1660e01b815260040161061091906112cb565b600060405180830381600087803b15801561062a57600080fd5b505af115801561063e573d6000803e3d6000fd5b505050505050565b61064e610d52565b6000610658610ded565b90508181602b01819055505050565b6060600080610674610ded565b905080602501600085815260200190815260200160002060000181602501600086815260200190815260200160002060010160009054906101000a900462ffffff168180546106c290611706565b80601f01602080910402602001604051908101604052809291908181526020018280546106ee90611706565b801561073b5780601f106107105761010080835404028352916020019161073b565b820191906000526020600020905b81548152906001019060200180831161071e57829003601f168201915b505050505091509250925050915091565b600080610757610ded565b905080602a015491505090565b61076c610d52565b6000610776610ded565b90508060000160405161078890611aba565b908152602001604051809103902060009054906101000a900473ffffffffffffffffffffffffffffffffffffffff1673ffffffffffffffffffffffffffffffffffffffff1663d78d3ce88888888888886040518763ffffffff1660e01b81526004016107f996959493929190611acf565b600060405180830381600087803b15801561081357600080fd5b505af1158015610827573d6000803e3d6000fd5b5050505050505050505050565b6000806000806000806000610847610ded565b9050806004018860ff16600b811061086257610861611b30565b5b6003020160000160009054906101000a900460ff16816004018960ff16600b81106108905761088f611b30565b5b6003020160010154826004018a60ff16600b81106108b1576108b0611b30565b5b6003020160020160009054906101000a900462ffffff16836004018b60ff16600b81106108e1576108e0611b30565b5b6003020160020160039054906101000a900461ffff16846004018c60ff16600b81106109105761090f611b30565b5b6003020160020160059054906101000a900462ffffff16856004018d60ff16600b81106109405761093f611b30565b5b6003020160020160089054906101000a900462ffffff169650965096509650965096505091939550919395565b610975610d52565b600061097f610ded565b9050858160260160030160006101000a81548162ffffff021916908362ffffff160217905550848160260160030160036101000a81548162ffffff021916908362ffffff160217905550838160260160030160066101000a81548162ffffff021916908362ffffff160217905550828160260160030160096101000a81548162ffffff021916908362ffffff1602179055508181602601600301600c6101000a81548162ffffff021916908362ffffff160217905550505050505050565b610a45610d52565b6000610a4f610ded565b90508181602c0160006101000a81548160ff0219169083151502179055505050565b610a79610d52565b6000610a83610ded565b90508181602a01819055505050565b610a9a610d52565b6000610aa4610ded565b905086816004018960ff16600b8110610ac057610abf611b30565b5b6003020160000160006101000a81548160ff02191690831515021790555085816004018960ff16600b8110610af857610af7611b30565b5b600302016001018190555084816004018960ff16600b8110610b1d57610b1c611b30565b5b6003020160020160006101000a81548162ffffff021916908362ffffff16021790555083816004018960ff16600b8110610b5a57610b59611b30565b5b6003020160020160036101000a81548161ffff021916908361ffff16021790555082816004018960ff16600b8110610b9557610b94611b30565b5b6003020160020160056101000a81548162ffffff021916908362ffffff16021790555081816004018960ff16600b8110610bd257610bd1611b30565b5b6003020160020160086101000a81548162ffffff021916908362ffffff1602179055505050505050505050565b610c07610d52565b6000610c11610ded565b9050848160010160000160006101000a81548162ffffff021916908362ffffff160217905550838160010160010181905550828160010160020160006101000a81548161ffff021916908361ffff160217905550818160010160020160026101000a81548160ff0219169083151502179055505050505050565b610c93610d52565b6000610c9d610ded565b905080600001604051610caf90611aba565b908152602001604051809103902060009054906101000a900473ffffffffffffffffffffffffffffffffffffffff1673ffffffffffffffffffffffffffffffffffffffff166319eff0ab8585856040518463ffffffff1660e01b8152600401610d1a93929190611b6e565b600060405180830381600087803b158015610d3457600080fd5b505af1158015610d48573d6000803e3d6000fd5b5050505050505050565b610d5a610df2565b60040160009054906101000a900473ffffffffffffffffffffffffffffffffffffffff1673ffffffffffffffffffffffffffffffffffffffff163373ffffffffffffffffffffffffffffffffffffffff1614610deb576040517f08c379a0000000000000000000000000000000000000000000000000000000008152600401610de290611c1e565b60405180910390fd5b565b600090565b6000807fc8fcad8db84d3cc18b4c41d551ea0ee66dd599cde068d998e57d5e09332c131c90508091505090565b6000604051905090565b600080fd5b600080fd5b6000819050919050565b610e4681610e33565b8114610e5157600080fd5b50565b600081359050610e6381610e3d565b92915050565b600060ff82169050919050565b610e7f81610e69565b8114610e8a57600080fd5b50565b600081359050610e9c81610e76565b92915050565b600080fd5b600080fd5b6000601f19601f8301169050919050565b7f4e487b7100000000000000000000000000000000000000000000000000000000600052604160045260246000fd5b610ef582610eac565b810181811067ffffffffffffffff82111715610f1457610f13610ebd565b5b80604052505050565b6000610f27610e1f565b9050610f338282610eec565b919050565b600067ffffffffffffffff821115610f5357610f52610ebd565b5b610f5c82610eac565b9050602081019050919050565b82818337600083830152505050565b6000610f8b610f8684610f38565b610f1d565b905082815260208101848484011115610fa757610fa6610ea7565b5b610fb2848285610f69565b509392505050565b600082601f830112610fcf57610fce610ea2565b5b8135610fdf848260208601610f78565b91505092915050565b60008060006060848603121561100157611000610e29565b5b600061100f86828701610e54565b935050602061102086828701610e8d565b925050604084013567ffffffffffffffff81111561104157611040610e2e565b5b61104d86828701610fba565b9150509250925092565b600062ffffff82169050919050565b61106f81611057565b811461107a57600080fd5b50565b60008135905061108c81611066565b92915050565b6000806000606084860312156110ab576110aa610e29565b5b60006110b986828701610e54565b935050602084013567ffffffffffffffff8111156110da576110d9610e2e565b5b6110e686828701610fba565b92505060406110f78682870161107d565b9150509250925092565b61110a81611057565b82525050565b600060a0820190506111256000830188611101565b6111326020830187611101565b61113f6040830186611101565b61114c6060830185611101565b6111596080830184611101565b9695505050505050565b61116c81610e33565b82525050565b600061ffff82169050919050565b61118981611172565b82525050565b60008115159050919050565b6111a48161118f565b82525050565b60006080820190506111bf6000830187611101565b6111cc6020830186611163565b6111d96040830185611180565b6111e6606083018461119b565b95945050505050565b60006020828403121561120557611204610e29565b5b600061121384828501610e54565b91505092915050565b600081519050919050565b600082825260208201905092915050565b60005b8381101561125657808201518184015260208101905061123b565b60008484015250505050565b600061126d8261121c565b6112778185611227565b9350611287818560208601611238565b61129081610eac565b840191505092915050565b600060408201905081810360008301526112b58185611262565b90506112c46020830184611101565b9392505050565b60006020820190506112e06000830184611163565b92915050565b6112ef8161118f565b81146112fa57600080fd5b50565b60008135905061130c816112e6565b92915050565b60008060008060008060c0878903121561132f5761132e610e29565b5b600061133d89828a01610e54565b965050602061134e89828a01610e54565b955050604061135f89828a01610e54565b945050606061137089828a01610e54565b935050608061138189828a01610e54565b92505060a061139289828a016112fd565b9150509295509295509295565b6000602082840312156113b5576113b4610e29565b5b60006113c384828501610e8d565b91505092915050565b600060c0820190506113e1600083018961119b565b6113ee6020830188611163565b6113fb6040830187611101565b6114086060830186611180565b6114156080830185611101565b61142260a0830184611101565b979650505050505050565b600080600080600060a0868803121561144957611448610e29565b5b60006114578882890161107d565b95505060206114688882890161107d565b94505060406114798882890161107d565b935050606061148a8882890161107d565b925050608061149b8882890161107d565b9150509295509295909350565b6000602082840312156114be576114bd610e29565b5b60006114cc848285016112fd565b91505092915050565b6114de81611172565b81146114e957600080fd5b50565b6000813590506114fb816114d5565b92915050565b600080600080600080600060e0888a0312156115205761151f610e29565b5b600061152e8a828b01610e8d565b975050602061153f8a828b016112fd565b96505060406115508a828b01610e54565b95505060606115618a828b0161107d565b94505060806115728a828b016114ec565b93505060a06115838a828b0161107d565b92505060c06115948a828b0161107d565b91505092959891949750929550565b600080600080608085870312156115bd576115bc610e29565b5b60006115cb8782880161107d565b94505060206115dc87828801610e54565b93505060406115ed878288016114ec565b92505060606115fe878288016112fd565b91505092959194509250565b600073ffffffffffffffffffffffffffffffffffffffff82169050919050565b60006116358261160a565b9050919050565b6116458161162a565b811461165057600080fd5b50565b6000813590506116628161163c565b92915050565b60008060006060848603121561168157611680610e29565b5b600061168f86828701611653565b93505060206116a0868287016112fd565b925050604084013567ffffffffffffffff8111156116c1576116c0610e2e565b5b6116cd86828701610fba565b9150509250925092565b7f4e487b7100000000000000000000000000000000000000000000000000000000600052602260045260246000fd5b6000600282049050600182168061171e57607f821691505b602082108103611731576117306116d7565b5b50919050565b60008190508160005260206000209050919050565b60006020601f8301049050919050565b600082821b905092915050565b6000600883026117997fffffffffffffffffffffffffffffffffffffffffffffffffffffffffffffffff8261175c565b6117a3868361175c565b95508019841693508086168417925050509392505050565b6000819050919050565b60006117e06117db6117d684610e33565b6117bb565b610e33565b9050919050565b6000819050919050565b6117fa836117c5565b61180e611806826117e7565b848454611769565b825550505050565b600090565b611823611816565b61182e8184846117f1565b505050565b5b818110156118525761184760008261181b565b600181019050611834565b5050565b601f8211156118975761186881611737565b6118718461174c565b81016020851015611880578190505b61189461188c8561174c565b830182611833565b50505b505050565b600082821c905092915050565b60006118ba6000198460080261189c565b1980831691505092915050565b60006118d383836118a9565b9150826002028217905092915050565b6118ec8261121c565b67ffffffffffffffff81111561190557611904610ebd565b5b61190f8254611706565b61191a828285611856565b600060209050601f83116001811461194d576000841561193b578287015190505b61194585826118c7565b8655506119ad565b601f19841661195b86611737565b60005b828110156119835784890151825560018201915060208501945060208101905061195e565b868310156119a0578489015161199c601f8916826118a9565b8355505b6001600288020188555050505b505050505050565b600081905092915050565b7f6462000000000000000000000000000000000000000000000000000000000000600082015250565b60006119f66002836119b5565b9150611a01826119c0565b600282019050919050565b6000611a17826119e9565b9150819050919050565b611a2a81610e69565b82525050565b6000606082019050611a456000830186611163565b611a526020830185611a21565b8181036040830152611a648184611262565b9050949350505050565b7f7032000000000000000000000000000000000000000000000000000000000000600082015250565b6000611aa46002836119b5565b9150611aaf82611a6e565b600282019050919050565b6000611ac582611a97565b9150819050919050565b600060c082019050611ae46000830189611163565b611af16020830188611163565b611afe6040830187611163565b611b0b6060830186611163565b611b186080830185611163565b611b2560a083018461119b565b979650505050505050565b7f4e487b7100000000000000000000000000000000000000000000000000000000600052603260045260246000fd5b611b688161162a565b82525050565b6000606082019050611b836000830186611b5f565b611b90602083018561119b565b8181036040830152611ba28184611262565b9050949350505050565b7f4c69624469616d6f6e643a204d75737420626520636f6e7472616374206f776e60008201527f6572000000000000000000000000000000000000000000000000000000000000602082015250565b6000611c08602283611227565b9150611c1382611bac565b604082019050919050565b60006020820190508181036000830152611c3781611bfb565b905091905056fea26469706673582212207576fbece3e7924c4efcb564de19d85c91077d9f6afc73b6c07d3f341cc65f4f64736f6c63430008160033",
  "devdoc": {
    "kind": "dev",
    "methods": {
      "admin_P2_layer_setting(uint256,uint256,uint256,uint256,uint256,bool)": {
        "details": "P2 Admin functions"
      },
      "admin_distribute_setStates(uint24,uint24,uint24,uint24,uint24)": {
        "details": "DistriBute Admin functions"
      },
      "admin_p0_setStates(uint24,uint256,uint16,bool)": {
        "details": "P0 Admin functions"
      },
      "admin_setAienMintFee(uint256)": {
        "details": "aien mint variables"
      }
    },
    "version": 1
  },
  "userdoc": {
    "kind": "user",
    "methods": {},
    "version": 1
  },
  "storageLayout": {
    "storage": [],
    "types": null
  }
}