{
  "address": "0x19712F2127A999a8d2236C96Cf3f3DBd24135421",
  "abi": [
    {
      "inputs": [
        {
          "internalType": "address",
          "name": "_user",
          "type": "address"
        },
        {
          "internalType": "bool",
          "name": "_isBlock",
          "type": "bool"
        },
        {
          "internalType": "string",
          "name": "_why",
          "type": "string"
        }
      ],
      "name": "admin_P2_blockUser",
      "outputs": [],
      "stateMutability": "nonpayable",
      "type": "function"
    },
    {
      "inputs": [
        {
          "internalType": "uint256",
          "name": "_layerNumber",
          "type": "uint256"
        },
        {
          "internalType": "uint256",
          "name": "_fromP2PerPercent",
          "type": "uint256"
        },
        {
          "internalType": "uint256",
          "name": "_fromP2UsdtPercent",
          "type": "uint256"
        },
        {
          "internalType": "uint256",
          "name": "_dailyReward_percent",
          "type": "uint256"
        },
        {
          "internalType": "uint256",
          "name": "_add_dailyReward_Percent",
          "type": "uint256"
        },
        {
          "internalType": "bool",
          "name": "_isOpen",
          "type": "bool"
        }
      ],
      "name": "admin_P2_layer_setting",
      "outputs": [],
      "stateMutability": "nonpayable",
      "type": "function"
    },
    {
      "inputs": [
        {
          "internalType": "uint256",
          "name": "_maxLimit",
          "type": "uint256"
        }
      ],
      "name": "admin_P2_setMaxLimit",
      "outputs": [],
      "stateMutability": "nonpayable",
      "type": "function"
    },
    {
      "inputs": [],
      "name": "admin_distribute_estimate",
      "outputs": [
        {
          "internalType": "bool",
          "name": "",
          "type": "bool"
        },
        {
          "internalType": "uint256",
          "name": "",
          "type": "uint256"
        },
        {
          "internalType": "uint256",
          "name": "",
          "type": "uint256"
        }
      ],
      "stateMutability": "view",
      "type": "function"
    },
    {
      "inputs": [],
      "name": "admin_distribute_getBeforAmounts",
      "outputs": [
        {
          "internalType": "uint256",
          "name": "",
          "type": "uint256"
        },
        {
          "internalType": "uint256",
          "name": "",
          "type": "uint256"
        },
        {
          "internalType": "uint256",
          "name": "",
          "type": "uint256"
        }
      ],
      "stateMutability": "view",
      "type": "function"
    },
    {
      "inputs": [],
      "name": "admin_distribute_getStates",
      "outputs": [
        {
          "internalType": "uint24",
          "name": "",
          "type": "uint24"
        },
        {
          "internalType": "uint24",
          "name": "",
          "type": "uint24"
        },
        {
          "internalType": "uint24",
          "name": "",
          "type": "uint24"
        },
        {
          "internalType": "uint24",
          "name": "",
          "type": "uint24"
        },
        {
          "internalType": "uint24",
          "name": "",
          "type": "uint24"
        },
        {
          "internalType": "uint256",
          "name": "",
          "type": "uint256"
        },
        {
          "internalType": "uint256",
          "name": "",
          "type": "uint256"
        }
      ],
      "stateMutability": "view",
      "type": "function"
    },
    {
      "inputs": [
        {
          "internalType": "uint256",
          "name": "_limit",
          "type": "uint256"
        }
      ],
      "name": "admin_distribute_ksSwapLimit",
      "outputs": [],
      "stateMutability": "nonpayable",
      "type": "function"
    },
    {
      "inputs": [
        {
          "internalType": "bool",
          "name": "_isAuto",
          "type": "bool"
        }
      ],
      "name": "admin_distribute_setAuto",
      "outputs": [],
      "stateMutability": "nonpayable",
      "type": "function"
    },
    {
      "inputs": [
        {
          "internalType": "uint24",
          "name": "_p1Ratio",
          "type": "uint24"
        },
        {
          "internalType": "uint24",
          "name": "_p2PerRatio",
          "type": "uint24"
        },
        {
          "internalType": "uint24",
          "name": "_p2UsdtRatio",
          "type": "uint24"
        },
        {
          "internalType": "uint24",
          "name": "_burnRatio",
          "type": "uint24"
        },
        {
          "internalType": "uint24",
          "name": "_teamUsdtRatio",
          "type": "uint24"
        }
      ],
      "name": "admin_distribute_setStates",
      "outputs": [],
      "stateMutability": "nonpayable",
      "type": "function"
    },
    {
      "inputs": [],
      "name": "admin_distribute_swap",
      "outputs": [],
      "stateMutability": "nonpayable",
      "type": "function"
    },
    {
      "inputs": [
        {
          "internalType": "uint256",
          "name": "_agencyIncomePercent",
          "type": "uint256"
        },
        {
          "internalType": "uint256",
          "name": "_influencerIncomePercent",
          "type": "uint256"
        }
      ],
      "name": "admin_distribute_userStates",
      "outputs": [],
      "stateMutability": "nonpayable",
      "type": "function"
    },
    {
      "inputs": [
        {
          "internalType": "uint8",
          "name": "_gradeIndex",
          "type": "uint8"
        }
      ],
      "name": "admin_p0_getGradeInfos",
      "outputs": [
        {
          "internalType": "bool",
          "name": "",
          "type": "bool"
        },
        {
          "internalType": "uint256",
          "name": "",
          "type": "uint256"
        },
        {
          "internalType": "uint24",
          "name": "",
          "type": "uint24"
        },
        {
          "internalType": "uint16",
          "name": "",
          "type": "uint16"
        },
        {
          "internalType": "uint24",
          "name": "",
          "type": "uint24"
        },
        {
          "internalType": "uint24",
          "name": "",
          "type": "uint24"
        }
      ],
      "stateMutability": "view",
      "type": "function"
    },
    {
      "inputs": [
        {
          "internalType": "uint8",
          "name": "_grade",
          "type": "uint8"
        }
      ],
      "name": "admin_p0_getMetadataMargin",
      "outputs": [
        {
          "internalType": "uint256",
          "name": "",
          "type": "uint256"
        },
        {
          "internalType": "uint256",
          "name": "",
          "type": "uint256"
        },
        {
          "internalType": "uint256",
          "name": "",
          "type": "uint256"
        }
      ],
      "stateMutability": "view",
      "type": "function"
    },
    {
      "inputs": [
        {
          "internalType": "uint256",
          "name": "_grade",
          "type": "uint256"
        }
      ],
      "name": "admin_p0_getPerFriendsProb",
      "outputs": [
        {
          "internalType": "string",
          "name": "",
          "type": "string"
        },
        {
          "internalType": "uint24",
          "name": "",
          "type": "uint24"
        }
      ],
      "stateMutability": "view",
      "type": "function"
    },
    {
      "inputs": [],
      "name": "admin_p0_getStates",
      "outputs": [
        {
          "internalType": "uint24",
          "name": "",
          "type": "uint24"
        },
        {
          "internalType": "uint256",
          "name": "",
          "type": "uint256"
        },
        {
          "internalType": "uint16",
          "name": "",
          "type": "uint16"
        },
        {
          "internalType": "bool",
          "name": "",
          "type": "bool"
        }
      ],
      "stateMutability": "view",
      "type": "function"
    },
    {
      "inputs": [
        {
          "internalType": "uint8",
          "name": "_gradeIndex",
          "type": "uint8"
        },
        {
          "internalType": "bool",
          "name": "_isOpen",
          "type": "bool"
        },
        {
          "internalType": "uint256",
          "name": "_mixFee",
          "type": "uint256"
        },
        {
          "internalType": "uint24",
          "name": "_initBaseProb",
          "type": "uint24"
        },
        {
          "internalType": "uint16",
          "name": "_mixExp",
          "type": "uint16"
        },
        {
          "internalType": "uint24",
          "name": "_failedAddProbMin",
          "type": "uint24"
        },
        {
          "internalType": "uint24",
          "name": "_failedAddProbMax",
          "type": "uint24"
        }
      ],
      "name": "admin_p0_setGradeInfos",
      "outputs": [],
      "stateMutability": "nonpayable",
      "type": "function"
    },
    {
      "inputs": [
        {
          "internalType": "uint8",
          "name": "_grade",
          "type": "uint8"
        },
        {
          "internalType": "string",
          "name": "_gradeName",
          "type": "string"
        },
        {
          "internalType": "uint256",
          "name": "_mergeFee",
          "type": "uint256"
        },
        {
          "internalType": "uint256",
          "name": "_mergeUseItemAmount",
          "type": "uint256"
        },
        {
          "internalType": "uint256",
          "name": "_latestId",
          "type": "uint256"
        },
        {
          "internalType": "bool",
          "name": "_isOpen",
          "type": "bool"
        }
      ],
      "name": "admin_p0_setMergeGradesInfo",
      "outputs": [],
      "stateMutability": "nonpayable",
      "type": "function"
    },
    {
      "inputs": [
        {
          "internalType": "uint256",
          "name": "_pfId",
          "type": "uint256"
        },
        {
          "internalType": "uint8",
          "name": "_grade",
          "type": "uint8"
        },
        {
          "internalType": "string",
          "name": "_seedHash",
          "type": "string"
        }
      ],
      "name": "admin_p0_setMetaData",
      "outputs": [],
      "stateMutability": "nonpayable",
      "type": "function"
    },
    {
      "inputs": [
        {
          "internalType": "uint256",
          "name": "_grade",
          "type": "uint256"
        },
        {
          "internalType": "string",
          "name": "_pfGrade",
          "type": "string"
        },
        {
          "internalType": "uint24",
          "name": "_gradeProb",
          "type": "uint24"
        }
      ],
      "name": "admin_p0_setPerFriendsProb",
      "outputs": [],
      "stateMutability": "nonpayable",
      "type": "function"
    },
    {
      "inputs": [
        {
          "internalType": "uint24",
          "name": "_maxProb",
          "type": "uint24"
        },
        {
          "internalType": "uint256",
          "name": "_addProbFee",
          "type": "uint256"
        },
        {
          "internalType": "uint16",
          "name": "_addProbExp",
          "type": "uint16"
        },
        {
          "internalType": "bool",
          "name": "_isVRF",
          "type": "bool"
        }
      ],
      "name": "admin_p0_setStates",
      "outputs": [],
      "stateMutability": "nonpayable",
      "type": "function"
    },
    {
      "inputs": [
        {
          "internalType": "uint256",
          "name": "_mintFee",
          "type": "uint256"
        }
      ],
      "name": "admin_setAienMintFee",
      "outputs": [],
      "stateMutability": "nonpayable",
      "type": "function"
    }
  ],
  "transactionHash": "0x2c7a1ce4615a930a60a59d7b5c7ae9da3253c84703447e1e43b4376997670c40",
  "args": [],
  "numDeployments": 7,
  "solcInputHash": "908bdd5afdddef1466a963359109b883",
  "bytecode": "0x608060405234801561001057600080fd5b5061309b806100206000396000f3fe608060405234801561001057600080fd5b50600436106101375760003560e01c80639b0988f1116100b8578063be5de2fb1161007c578063be5de2fb14610339578063c7809e2f14610343578063cc6d37d61461035f578063ced1c9871461037b578063ef404fa214610397578063f6f00563146103b357610137565b80639b0988f114610290578063a4517553146102c5578063b545c43f146102e1578063b5643cdb146102fd578063b75670e01461031957610137565b806345d08ac6116100ff57806345d08ac6146101eb5780635c53ddae1461020757806374e35d19146102235780637fe5cca1146102435780639a6d98871461027457610137565b8063025aa16c1461013c5780631ad1d5dc146101585780631b907b2c1461017457806324eb911e146101a65780633a8e18de146101ca575b600080fd5b61015660048036038101906101519190611c59565b6103cf565b005b610172600480360381019061016d9190611d03565b6104dc565b005b61018e60048036038101906101899190611d72565b610551565b60405161019d93929190611dae565b60405180910390f35b6101ae6105f5565b6040516101c19796959493929190611df4565b60405180910390f35b6101d26106a6565b6040516101e29493929190611e9b565b60405180910390f35b61020560048036038101906102009190611ee0565b610711565b005b610221600480360381019061021c9190611ee0565b6107d2565b005b61022b6107f3565b60405161023a93929190611dae565b60405180910390f35b61025d60048036038101906102589190611ee0565b610827565b60405161026b929190611f8c565b60405180910390f35b61028e60048036038101906102899190611fe8565b61090c565b005b6102aa60048036038101906102a59190611d72565b6109dc565b6040516102bc96959493929190612075565b60405180910390f35b6102df60048036038101906102da91906120d6565b610b15565b005b6102fb60048036038101906102f69190612151565b610be5565b005b61031760048036038101906103129190611ee0565b610c19565b005b610321610c3a565b6040516103309392919061217e565b60405180910390f35b610341610c52565b005b61035d600480360381019061035891906121e1565b610c64565b005b61037960048036038101906103749190612283565b610dd1565b005b610395600480360381019061039091906122c3565b610e02565b005b6103b160048036038101906103ac919061236c565b610f21565b005b6103cd60048036038101906103c89190612431565b610fad565b005b6103d7611074565b60006103e161110f565b90508181602e016000868152602001908152602001600020908161040591906126ac565b508381602d0160008560ff1660ff1681526020019081526020016000206005018190555080600001604051610439906127d5565b908152602001604051809103902060009054906101000a900473ffffffffffffffffffffffffffffffffffffffff1673ffffffffffffffffffffffffffffffffffffffff16636ff7d6c58585856040518463ffffffff1660e01b81526004016104a4939291906127f9565b600060405180830381600087803b1580156104be57600080fd5b505af11580156104d2573d6000803e3d6000fd5b5050505050505050565b6104e4611074565b60006104ee61110f565b905082816025016000868152602001908152602001600020600001908161051591906126ac565b508181602501600086815260200190815260200160002060010160006101000a81548162ffffff021916908362ffffff16021790555050505050565b60008060008061055f61110f565b905080602d0160008660ff1660ff1681526020019081526020016000206004015481602d0160008760ff1660ff1681526020019081526020016000206005015482602d0160008860ff1660ff1681526020019081526020016000206004015483602d0160008960ff1660ff168152602001908152602001600020600501546105e79190612866565b935093509350509193909250565b60008060008060008060008061060961110f565b90508060260160030160009054906101000a900462ffffff168160260160030160039054906101000a900462ffffff168260260160030160069054906101000a900462ffffff168360260160030160099054906101000a900462ffffff1684602601600301600c9054906101000a900462ffffff1685602f016000015486602f016001015497509750975097509750975097505090919293949596565b60008060008060006106b661110f565b90508060010160000160009054906101000a900462ffffff1681600101600101548260010160020160009054906101000a900461ffff168360010160020160029054906101000a900460ff1694509450945094505090919293565b610719611074565b600061072361110f565b905080600001604051610735906128e6565b908152602001604051809103902060009054906101000a900473ffffffffffffffffffffffffffffffffffffffff1673ffffffffffffffffffffffffffffffffffffffff166328e52aae836040518263ffffffff1660e01b815260040161079c91906128fb565b600060405180830381600087803b1580156107b657600080fd5b505af11580156107ca573d6000803e3d6000fd5b505050505050565b6107da611074565b60006107e461110f565b90508181602b01819055505050565b60008060008061080161110f565b905080602601600001548160260160020154826026016001015493509350935050909192565b606060008061083461110f565b905080602501600085815260200190815260200160002060000181602501600086815260200190815260200160002060010160009054906101000a900462ffffff16818054610882906124cf565b80601f01602080910402602001604051908101604052809291908181526020018280546108ae906124cf565b80156108fb5780601f106108d0576101008083540402835291602001916108fb565b820191906000526020600020905b8154815290600101906020018083116108de57829003601f168201915b505050505091509250925050915091565b610914611074565b600061091e61110f565b905080600001604051610930906128e6565b908152602001604051809103902060009054906101000a900473ffffffffffffffffffffffffffffffffffffffff1673ffffffffffffffffffffffffffffffffffffffff1663d78d3ce88888888888886040518763ffffffff1660e01b81526004016109a196959493929190612916565b600060405180830381600087803b1580156109bb57600080fd5b505af11580156109cf573d6000803e3d6000fd5b5050505050505050505050565b60008060008060008060006109ef61110f565b9050806004018860ff16600b8110610a0a57610a09612977565b5b6003020160000160009054906101000a900460ff16816004018960ff16600b8110610a3857610a37612977565b5b6003020160010154826004018a60ff16600b8110610a5957610a58612977565b5b6003020160020160009054906101000a900462ffffff16836004018b60ff16600b8110610a8957610a88612977565b5b6003020160020160039054906101000a900461ffff16846004018c60ff16600b8110610ab857610ab7612977565b5b6003020160020160059054906101000a900462ffffff16856004018d60ff16600b8110610ae857610ae7612977565b5b6003020160020160089054906101000a900462ffffff169650965096509650965096505091939550919395565b610b1d611074565b6000610b2761110f565b9050858160260160030160006101000a81548162ffffff021916908362ffffff160217905550848160260160030160036101000a81548162ffffff021916908362ffffff160217905550838160260160030160066101000a81548162ffffff021916908362ffffff160217905550828160260160030160096101000a81548162ffffff021916908362ffffff1602179055508181602601600301600c6101000a81548162ffffff021916908362ffffff160217905550505050505050565b610bed611074565b6000610bf761110f565b90508181602c0160006101000a81548160ff0219169083151502179055505050565b610c21611074565b6000610c2b61110f565b90508181602a01819055505050565b6000806000610c47611114565b925092509250909192565b610c5a611074565b610c62611375565b565b610c6c611074565b6000610c7661110f565b905086816004018960ff16600b8110610c9257610c91612977565b5b6003020160000160006101000a81548160ff02191690831515021790555085816004018960ff16600b8110610cca57610cc9612977565b5b600302016001018190555084816004018960ff16600b8110610cef57610cee612977565b5b6003020160020160006101000a81548162ffffff021916908362ffffff16021790555083816004018960ff16600b8110610d2c57610d2b612977565b5b6003020160020160036101000a81548161ffff021916908361ffff16021790555082816004018960ff16600b8110610d6757610d66612977565b5b6003020160020160056101000a81548162ffffff021916908362ffffff16021790555081816004018960ff16600b8110610da457610da3612977565b5b6003020160020160086101000a81548162ffffff021916908362ffffff1602179055505050505050505050565b610dd9611074565b6000610de361110f565b90508281602f01600001819055508181602f0160010181905550505050565b610e0a611074565b6000610e1461110f565b90508681602d0160008960ff1660ff16815260200190815260200160002060000160006101000a81548160ff021916908360ff1602179055508581602d0160008960ff1660ff1681526020019081526020016000206001019081610e7891906126ac565b508481602d0160008960ff1660ff168152602001908152602001600020600201819055508381602d0160008960ff1660ff168152602001908152602001600020600301819055508281602d0160008960ff1660ff168152602001908152602001600020600401819055508181602d0160008960ff1660ff16815260200190815260200160002060060160006101000a81548160ff02191690831515021790555050505050505050565b610f29611074565b6000610f3361110f565b9050848160010160000160006101000a81548162ffffff021916908362ffffff160217905550838160010160010181905550828160010160020160006101000a81548161ffff021916908361ffff160217905550818160010160020160026101000a81548160ff0219169083151502179055505050505050565b610fb5611074565b6000610fbf61110f565b905080600001604051610fd1906128e6565b908152602001604051809103902060009054906101000a900473ffffffffffffffffffffffffffffffffffffffff1673ffffffffffffffffffffffffffffffffffffffff166319eff0ab8585856040518463ffffffff1660e01b815260040161103c939291906129b5565b600060405180830381600087803b15801561105657600080fd5b505af115801561106a573d6000803e3d6000fd5b5050505050505050565b61107c611617565b60040160009054906101000a900473ffffffffffffffffffffffffffffffffffffffff1673ffffffffffffffffffffffffffffffffffffffff163373ffffffffffffffffffffffffffffffffffffffff161461110d576040517f08c379a000000000000000000000000000000000000000000000000000000000815260040161110490612a65565b60405180910390fd5b565b600090565b60008060008061112261110f565b9050606060008260000160405161113890612ad1565b908152602001604051809103902060009054906101000a900473ffffffffffffffffffffffffffffffffffffffff1673ffffffffffffffffffffffffffffffffffffffff166370a08231306040518263ffffffff1660e01b815260040161119f9190612ae6565b602060405180830381865afa1580156111bc573d6000803e3d6000fd5b505050506040513d601f19601f820116820180604052508101906111e09190612b16565b90506000836000016040516111f490612b8f565b908152602001604051809103902060009054906101000a900473ffffffffffffffffffffffffffffffffffffffff1673ffffffffffffffffffffffffffffffffffffffff1663692ca7a08560000160405161124e90612ad1565b908152602001604051809103902060009054906101000a900473ffffffffffffffffffffffffffffffffffffffff168660000160405161128d90612bf0565b908152602001604051809103902060009054906101000a900473ffffffffffffffffffffffffffffffffffffffff1685876040518563ffffffff1660e01b81526004016112dd9493929190612cc3565b602060405180830381865afa1580156112fa573d6000803e3d6000fd5b505050506040513d601f19601f8201168201806040525081019061131e9190612b16565b905083602b01548111801561134857506001151584602c0160009054906101000a900460ff161515145b15611360576001828296509650965050505050611370565b6000806000965096509650505050505b909192565b6000806000611382611114565b92509250925060011515831515146113cf576040517f08c379a00000000000000000000000000000000000000000000000000000000081526004016113c690612d81565b60405180910390fd5b60006113d961110f565b90506060816000016040516113ed90612ad1565b908152602001604051809103902060009054906101000a900473ffffffffffffffffffffffffffffffffffffffff1673ffffffffffffffffffffffffffffffffffffffff1663095ea7b38360000160405161144790612ded565b908152602001604051809103902060009054906101000a900473ffffffffffffffffffffffffffffffffffffffff16866040518363ffffffff1660e01b8152600401611494929190612e02565b6020604051808303816000875af11580156114b3573d6000803e3d6000fd5b505050506040513d601f19601f820116820180604052508101906114d79190612e40565b50816000016040516114e890612ded565b908152602001604051809103902060009054906101000a900473ffffffffffffffffffffffffffffffffffffffff1673ffffffffffffffffffffffffffffffffffffffff166352f28c178360000160405161154290612ad1565b908152602001604051809103902060009054906101000a900473ffffffffffffffffffffffffffffffffffffffff16868560000160405161158290612bf0565b908152602001604051809103902060009054906101000a900473ffffffffffffffffffffffffffffffffffffffff1687866040518663ffffffff1660e01b81526004016115d3959493929190612e6d565b600060405180830381600087803b1580156115ed57600080fd5b505af1158015611601573d6000803e3d6000fd5b5050505061160d611644565b5050505050505050565b6000807fc8fcad8db84d3cc18b4c41d551ea0ee66dd599cde068d998e57d5e09332c131c90508091505090565b60008060008061165261110f565b905060008160000160405161166690612bf0565b908152602001604051809103902060009054906101000a900473ffffffffffffffffffffffffffffffffffffffff1673ffffffffffffffffffffffffffffffffffffffff166370a08231306040518263ffffffff1660e01b81526004016116cd9190612ae6565b602060405180830381865afa1580156116ea573d6000803e3d6000fd5b505050506040513d601f19601f8201168201806040525081019061170e9190612b16565b9050600082602601600301600c9054906101000a900462ffffff168360260160030160069054906101000a900462ffffff1661174a9190612ec7565b62ffffff1690506000818460260160030160069054906101000a900462ffffff1662ffffff168461177b9190612efe565b6117859190612f6f565b905060008285602601600301600c9054906101000a900462ffffff1662ffffff16856117b19190612efe565b6117bb9190612f6f565b9050846000016040516117cd90612bf0565b908152602001604051809103902060009054906101000a900473ffffffffffffffffffffffffffffffffffffffff1673ffffffffffffffffffffffffffffffffffffffff1663a9059cbb86600001604051611827906128e6565b908152602001604051809103902060009054906101000a900473ffffffffffffffffffffffffffffffffffffffff16846040518363ffffffff1660e01b8152600401611874929190612e02565b6020604051808303816000875af1158015611893573d6000803e3d6000fd5b505050506040513d601f19601f820116820180604052508101906118b79190612e40565b50846000016040516118c890612bf0565b908152602001604051809103902060009054906101000a900473ffffffffffffffffffffffffffffffffffffffff1673ffffffffffffffffffffffffffffffffffffffff1663a9059cbb8660000160405161192290612fec565b908152602001604051809103902060009054906101000a900473ffffffffffffffffffffffffffffffffffffffff16836040518363ffffffff1660e01b815260040161196f929190612e02565b6020604051808303816000875af115801561198e573d6000803e3d6000fd5b505050506040513d601f19601f820116820180604052508101906119b29190612e40565b50846000016040516119c3906128e6565b908152602001604051809103902060009054906101000a900473ffffffffffffffffffffffffffffffffffffffff1673ffffffffffffffffffffffffffffffffffffffff1663b81d9a348360006040518363ffffffff1660e01b8152600401611a2d92919061303c565b600060405180830381600087803b158015611a4757600080fd5b505af1158015611a5b573d6000803e3d6000fd5b505050506000856026016001018190555060008560260160000181905550600085602601600201819055505050505050909192565b6000604051905090565b600080fd5b600080fd5b6000819050919050565b611ab781611aa4565b8114611ac257600080fd5b50565b600081359050611ad481611aae565b92915050565b600060ff82169050919050565b611af081611ada565b8114611afb57600080fd5b50565b600081359050611b0d81611ae7565b92915050565b600080fd5b600080fd5b6000601f19601f8301169050919050565b7f4e487b7100000000000000000000000000000000000000000000000000000000600052604160045260246000fd5b611b6682611b1d565b810181811067ffffffffffffffff82111715611b8557611b84611b2e565b5b80604052505050565b6000611b98611a90565b9050611ba48282611b5d565b919050565b600067ffffffffffffffff821115611bc457611bc3611b2e565b5b611bcd82611b1d565b9050602081019050919050565b82818337600083830152505050565b6000611bfc611bf784611ba9565b611b8e565b905082815260208101848484011115611c1857611c17611b18565b5b611c23848285611bda565b509392505050565b600082601f830112611c4057611c3f611b13565b5b8135611c50848260208601611be9565b91505092915050565b600080600060608486031215611c7257611c71611a9a565b5b6000611c8086828701611ac5565b9350506020611c9186828701611afe565b925050604084013567ffffffffffffffff811115611cb257611cb1611a9f565b5b611cbe86828701611c2b565b9150509250925092565b600062ffffff82169050919050565b611ce081611cc8565b8114611ceb57600080fd5b50565b600081359050611cfd81611cd7565b92915050565b600080600060608486031215611d1c57611d1b611a9a565b5b6000611d2a86828701611ac5565b935050602084013567ffffffffffffffff811115611d4b57611d4a611a9f565b5b611d5786828701611c2b565b9250506040611d6886828701611cee565b9150509250925092565b600060208284031215611d8857611d87611a9a565b5b6000611d9684828501611afe565b91505092915050565b611da881611aa4565b82525050565b6000606082019050611dc36000830186611d9f565b611dd06020830185611d9f565b611ddd6040830184611d9f565b949350505050565b611dee81611cc8565b82525050565b600060e082019050611e09600083018a611de5565b611e166020830189611de5565b611e236040830188611de5565b611e306060830187611de5565b611e3d6080830186611de5565b611e4a60a0830185611d9f565b611e5760c0830184611d9f565b98975050505050505050565b600061ffff82169050919050565b611e7a81611e63565b82525050565b60008115159050919050565b611e9581611e80565b82525050565b6000608082019050611eb06000830187611de5565b611ebd6020830186611d9f565b611eca6040830185611e71565b611ed76060830184611e8c565b95945050505050565b600060208284031215611ef657611ef5611a9a565b5b6000611f0484828501611ac5565b91505092915050565b600081519050919050565b600082825260208201905092915050565b60005b83811015611f47578082015181840152602081019050611f2c565b60008484015250505050565b6000611f5e82611f0d565b611f688185611f18565b9350611f78818560208601611f29565b611f8181611b1d565b840191505092915050565b60006040820190508181036000830152611fa68185611f53565b9050611fb56020830184611de5565b9392505050565b611fc581611e80565b8114611fd057600080fd5b50565b600081359050611fe281611fbc565b92915050565b60008060008060008060c0878903121561200557612004611a9a565b5b600061201389828a01611ac5565b965050602061202489828a01611ac5565b955050604061203589828a01611ac5565b945050606061204689828a01611ac5565b935050608061205789828a01611ac5565b92505060a061206889828a01611fd3565b9150509295509295509295565b600060c08201905061208a6000830189611e8c565b6120976020830188611d9f565b6120a46040830187611de5565b6120b16060830186611e71565b6120be6080830185611de5565b6120cb60a0830184611de5565b979650505050505050565b600080600080600060a086880312156120f2576120f1611a9a565b5b600061210088828901611cee565b955050602061211188828901611cee565b945050604061212288828901611cee565b935050606061213388828901611cee565b925050608061214488828901611cee565b9150509295509295909350565b60006020828403121561216757612166611a9a565b5b600061217584828501611fd3565b91505092915050565b60006060820190506121936000830186611e8c565b6121a06020830185611d9f565b6121ad6040830184611d9f565b949350505050565b6121be81611e63565b81146121c957600080fd5b50565b6000813590506121db816121b5565b92915050565b600080600080600080600060e0888a031215612200576121ff611a9a565b5b600061220e8a828b01611afe565b975050602061221f8a828b01611fd3565b96505060406122308a828b01611ac5565b95505060606122418a828b01611cee565b94505060806122528a828b016121cc565b93505060a06122638a828b01611cee565b92505060c06122748a828b01611cee565b91505092959891949750929550565b6000806040838503121561229a57612299611a9a565b5b60006122a885828601611ac5565b92505060206122b985828601611ac5565b9150509250929050565b60008060008060008060c087890312156122e0576122df611a9a565b5b60006122ee89828a01611afe565b965050602087013567ffffffffffffffff81111561230f5761230e611a9f565b5b61231b89828a01611c2b565b955050604061232c89828a01611ac5565b945050606061233d89828a01611ac5565b935050608061234e89828a01611ac5565b92505060a061235f89828a01611fd3565b9150509295509295509295565b6000806000806080858703121561238657612385611a9a565b5b600061239487828801611cee565b94505060206123a587828801611ac5565b93505060406123b6878288016121cc565b92505060606123c787828801611fd3565b91505092959194509250565b600073ffffffffffffffffffffffffffffffffffffffff82169050919050565b60006123fe826123d3565b9050919050565b61240e816123f3565b811461241957600080fd5b50565b60008135905061242b81612405565b92915050565b60008060006060848603121561244a57612449611a9a565b5b60006124588682870161241c565b935050602061246986828701611fd3565b925050604084013567ffffffffffffffff81111561248a57612489611a9f565b5b61249686828701611c2b565b9150509250925092565b7f4e487b7100000000000000000000000000000000000000000000000000000000600052602260045260246000fd5b600060028204905060018216806124e757607f821691505b6020821081036124fa576124f96124a0565b5b50919050565b60008190508160005260206000209050919050565b60006020601f8301049050919050565b600082821b905092915050565b6000600883026125627fffffffffffffffffffffffffffffffffffffffffffffffffffffffffffffffff82612525565b61256c8683612525565b95508019841693508086168417925050509392505050565b6000819050919050565b60006125a96125a461259f84611aa4565b612584565b611aa4565b9050919050565b6000819050919050565b6125c38361258e565b6125d76125cf826125b0565b848454612532565b825550505050565b600090565b6125ec6125df565b6125f78184846125ba565b505050565b5b8181101561261b576126106000826125e4565b6001810190506125fd565b5050565b601f8211156126605761263181612500565b61263a84612515565b81016020851015612649578190505b61265d61265585612515565b8301826125fc565b50505b505050565b600082821c905092915050565b600061268360001984600802612665565b1980831691505092915050565b600061269c8383612672565b9150826002028217905092915050565b6126b582611f0d565b67ffffffffffffffff8111156126ce576126cd611b2e565b5b6126d882546124cf565b6126e382828561261f565b600060209050601f8311600181146127165760008415612704578287015190505b61270e8582612690565b865550612776565b601f19841661272486612500565b60005b8281101561274c57848901518255600182019150602085019450602081019050612727565b868310156127695784890151612765601f891682612672565b8355505b6001600288020188555050505b505050505050565b600081905092915050565b7f6462000000000000000000000000000000000000000000000000000000000000600082015250565b60006127bf60028361277e565b91506127ca82612789565b600282019050919050565b60006127e0826127b2565b9150819050919050565b6127f381611ada565b82525050565b600060608201905061280e6000830186611d9f565b61281b60208301856127ea565b818103604083015261282d8184611f53565b9050949350505050565b7f4e487b7100000000000000000000000000000000000000000000000000000000600052601160045260246000fd5b600061287182611aa4565b915061287c83611aa4565b925082820390508181111561289457612893612837565b5b92915050565b7f7032000000000000000000000000000000000000000000000000000000000000600082015250565b60006128d060028361277e565b91506128db8261289a565b600282019050919050565b60006128f1826128c3565b9150819050919050565b60006020820190506129106000830184611d9f565b92915050565b600060c08201905061292b6000830189611d9f565b6129386020830188611d9f565b6129456040830187611d9f565b6129526060830186611d9f565b61295f6080830185611d9f565b61296c60a0830184611e8c565b979650505050505050565b7f4e487b7100000000000000000000000000000000000000000000000000000000600052603260045260246000fd5b6129af816123f3565b82525050565b60006060820190506129ca60008301866129a6565b6129d76020830185611e8c565b81810360408301526129e98184611f53565b9050949350505050565b7f4c69624469616d6f6e643a204d75737420626520636f6e7472616374206f776e60008201527f6572000000000000000000000000000000000000000000000000000000000000602082015250565b6000612a4f602283611f18565b9150612a5a826129f3565b604082019050919050565b60006020820190508181036000830152612a7e81612a42565b9050919050565b7f7065720000000000000000000000000000000000000000000000000000000000600082015250565b6000612abb60038361277e565b9150612ac682612a85565b600382019050919050565b6000612adc82612aae565b9150819050919050565b6000602082019050612afb60008301846129a6565b92915050565b600081519050612b1081611aae565b92915050565b600060208284031215612b2c57612b2b611a9a565b5b6000612b3a84828501612b01565b91505092915050565b7f6b6c6179737761707574696c0000000000000000000000000000000000000000600082015250565b6000612b79600c8361277e565b9150612b8482612b43565b600c82019050919050565b6000612b9a82612b6c565b9150819050919050565b7f7573647400000000000000000000000000000000000000000000000000000000600082015250565b6000612bda60048361277e565b9150612be582612ba4565b600482019050919050565b6000612bfb82612bcd565b9150819050919050565b600081519050919050565b600082825260208201905092915050565b6000819050602082019050919050565b612c3a816123f3565b82525050565b6000612c4c8383612c31565b60208301905092915050565b6000602082019050919050565b6000612c7082612c05565b612c7a8185612c10565b9350612c8583612c21565b8060005b83811015612cb6578151612c9d8882612c40565b9750612ca883612c58565b925050600181019050612c89565b5085935050505092915050565b6000608082019050612cd860008301876129a6565b612ce560208301866129a6565b612cf26040830185611d9f565b8181036060830152612d048184612c65565b905095945050505050565b7f73776170546f446973747269627574653a2073776170206973206e6f74206e6560008201527f6564656400000000000000000000000000000000000000000000000000000000602082015250565b6000612d6b602483611f18565b9150612d7682612d0f565b604082019050919050565b60006020820190508181036000830152612d9a81612d5e565b9050919050565b7f6b6c617973776170000000000000000000000000000000000000000000000000600082015250565b6000612dd760088361277e565b9150612de282612da1565b600882019050919050565b6000612df882612dca565b9150819050919050565b6000604082019050612e1760008301856129a6565b612e246020830184611d9f565b9392505050565b600081519050612e3a81611fbc565b92915050565b600060208284031215612e5657612e55611a9a565b5b6000612e6484828501612e2b565b91505092915050565b600060a082019050612e8260008301886129a6565b612e8f6020830187611d9f565b612e9c60408301866129a6565b612ea96060830185611d9f565b8181036080830152612ebb8184612c65565b90509695505050505050565b6000612ed282611cc8565b9150612edd83611cc8565b9250828201905062ffffff811115612ef857612ef7612837565b5b92915050565b6000612f0982611aa4565b9150612f1483611aa4565b9250828202612f2281611aa4565b91508282048414831517612f3957612f38612837565b5b5092915050565b7f4e487b7100000000000000000000000000000000000000000000000000000000600052601260045260246000fd5b6000612f7a82611aa4565b9150612f8583611aa4565b925082612f9557612f94612f40565b5b828204905092915050565b7f7465616d00000000000000000000000000000000000000000000000000000000600082015250565b6000612fd660048361277e565b9150612fe182612fa0565b600482019050919050565b6000612ff782612fc9565b9150819050919050565b6000819050919050565b600061302661302161301c84613001565b612584565b611aa4565b9050919050565b6130368161300b565b82525050565b60006040820190506130516000830185611d9f565b61305e602083018461302d565b939250505056fea2646970667358221220d670695e9b8b9a745958e061b785e6722681c53839a89819dec621330ac7fa0b64736f6c63430008160033",
  "devdoc": {
    "kind": "dev",
    "methods": {
      "admin_P2_layer_setting(uint256,uint256,uint256,uint256,uint256,bool)": {
        "details": "P2 Admin functions"
      },
      "admin_distribute_setStates(uint24,uint24,uint24,uint24,uint24)": {
        "details": "DistriBute Admin functions"
      },
      "admin_p0_setStates(uint24,uint256,uint16,bool)": {
        "details": "P0 Admin functions"
      },
      "admin_setAienMintFee(uint256)": {
        "details": "aien mint variables"
      }
    },
    "version": 1
  },
  "userdoc": {
    "kind": "user",
    "methods": {},
    "version": 1
  },
  "storageLayout": {
    "storage": [],
    "types": null
  }
}