{
  "address": "0xe6dCfA3a5DBdBD09018B04A32250Fd45fE155185",
  "abi": [
    {
      "anonymous": false,
      "inputs": [
        {
          "indexed": true,
          "internalType": "address",
          "name": "to",
          "type": "address"
        },
        {
          "indexed": true,
          "internalType": "uint256",
          "name": "aienId",
          "type": "uint256"
        },
        {
          "indexed": true,
          "internalType": "uint256",
          "name": "payment",
          "type": "uint256"
        }
      ],
      "name": "Aien_AiMint_Event",
      "type": "event"
    },
    {
      "anonymous": false,
      "inputs": [
        {
          "indexed": true,
          "internalType": "address",
          "name": "to",
          "type": "address"
        },
        {
          "indexed": true,
          "internalType": "uint256",
          "name": "aienId",
          "type": "uint256"
        },
        {
          "indexed": true,
          "internalType": "uint256",
          "name": "payment",
          "type": "uint256"
        }
      ],
      "name": "Aien_AiSetImage_Event",
      "type": "event"
    },
    {
      "anonymous": false,
      "inputs": [
        {
          "indexed": true,
          "internalType": "address",
          "name": "to",
          "type": "address"
        },
        {
          "indexed": true,
          "internalType": "uint256",
          "name": "aienId",
          "type": "uint256"
        }
      ],
      "name": "Aien_DefaultMint_Event",
      "type": "event"
    },
    {
      "anonymous": false,
      "inputs": [
        {
          "indexed": true,
          "internalType": "address",
          "name": "to",
          "type": "address"
        },
        {
          "indexed": true,
          "internalType": "uint256",
          "name": "aienId",
          "type": "uint256"
        }
      ],
      "name": "Aien_DefaultSetImage_Event",
      "type": "event"
    },
    {
      "anonymous": false,
      "inputs": [
        {
          "indexed": true,
          "internalType": "address",
          "name": "to",
          "type": "address"
        },
        {
          "indexed": true,
          "internalType": "uint256",
          "name": "aienId",
          "type": "uint256"
        },
        {
          "indexed": true,
          "internalType": "uint256",
          "name": "perfId",
          "type": "uint256"
        }
      ],
      "name": "Aien_PfMint_Event",
      "type": "event"
    },
    {
      "anonymous": false,
      "inputs": [
        {
          "indexed": true,
          "internalType": "address",
          "name": "to",
          "type": "address"
        },
        {
          "indexed": true,
          "internalType": "uint256",
          "name": "aienId",
          "type": "uint256"
        },
        {
          "indexed": true,
          "internalType": "uint256",
          "name": "perfId",
          "type": "uint256"
        }
      ],
      "name": "Aien_PfSetImage_Event",
      "type": "event"
    },
    {
      "inputs": [],
      "name": "aiMint",
      "outputs": [],
      "stateMutability": "nonpayable",
      "type": "function"
    },
    {
      "inputs": [
        {
          "internalType": "uint256",
          "name": "_aienId",
          "type": "uint256"
        }
      ],
      "name": "aiSetImage",
      "outputs": [],
      "stateMutability": "nonpayable",
      "type": "function"
    },
    {
      "inputs": [],
      "name": "defaultMint",
      "outputs": [],
      "stateMutability": "nonpayable",
      "type": "function"
    },
    {
      "inputs": [
        {
          "internalType": "uint256",
          "name": "_aienId",
          "type": "uint256"
        }
      ],
      "name": "defaultSetImage",
      "outputs": [],
      "stateMutability": "nonpayable",
      "type": "function"
    },
    {
      "inputs": [
        {
          "internalType": "uint256",
          "name": "_pfId",
          "type": "uint256"
        }
      ],
      "name": "pfMint",
      "outputs": [],
      "stateMutability": "nonpayable",
      "type": "function"
    },
    {
      "inputs": [
        {
          "internalType": "uint256",
          "name": "_aienId",
          "type": "uint256"
        },
        {
          "internalType": "uint256",
          "name": "_pfId",
          "type": "uint256"
        }
      ],
      "name": "pfSetImage",
      "outputs": [],
      "stateMutability": "nonpayable",
      "type": "function"
    }
  ],
  "transactionHash": "0xb44560b8a2829a4b1763fe24636283ac09b9e46a8e08279903b9907074f42e8f",
  "args": [],
  "numDeployments": 9,
  "solcInputHash": "9ba6ee134eba60eed5db854ce7bf03e6",
  "bytecode": "0x608060405234801561001057600080fd5b50611330806100206000396000f3fe608060405234801561001057600080fd5b50600436106100625760003560e01c806343744fd714610067578063635e0d10146100715780636e3e74c814610084578063783e74d61461008c578063b8107ac21461009f578063dde343dd146100b2575b600080fd5b61006f6100c5565b005b61006f61007f3660046111eb565b6100de565b61006f6100f9565b61006f61009a3660046111eb565b61010e565b61006f6100ad366004611204565b610124565b61006f6100c03660046111eb565b61013b565b60006100cf610151565b90506100da816101ad565b5050565b60006100e8610151565b90506100f4818361042d565b505050565b6000610103610151565b90506100da816108b4565b6000610118610151565b90506100da8183610c05565b600061012e610151565b90506100f4818484610cff565b6000610145610151565b90506100da8183611017565b60003033036101a757600080368080601f0160208091040260200160405190810160405280939291908181526020018383808284376000920191909152505050503601516001600160a01b031691506101aa9050565b50335b90565b600080806000016040516101c090611226565b908152604051908190036020019020546001600160a01b03166370a082316101e6610151565b6040516001600160e01b031960e084901b1681526001600160a01b039091166004820152602401602060405180830381865afa15801561022a573d6000803e3d6000fd5b505050506040513d601f19601f8201168201806040525081019061024e9190611236565b156102745760405162461bcd60e51b815260040161026b9061124f565b60405180910390fd5b6000808160000160405161028790611226565b908152604080516020928190038301812054631d5e528f60e21b825291516001600160a01b03909216926375794a3c926004808401938290030181865afa1580156102d6573d6000803e3d6000fd5b505050506040513d601f19601f820116820180604052508101906102fa9190611236565b90508160000160405161030c90611226565b90815260405190819003602001812054630c0e55d560e01b82526001600160a01b0387811660048401521690630c0e55d590602401600060405180830381600087803b15801561035b57600080fd5b505af115801561036f573d6000803e3d6000fd5b50506040518492506103819150611277565b9081526040519081900360200181205463157e5e2360e11b82526001600160a01b031690632afcbc46906103bd90849060040190815260200190565b600060405180830381600087803b1580156103d757600080fd5b505af11580156103eb573d6000803e3d6000fd5b50506040518392506001600160a01b03881691507f88423ffc50fb24ab17d27b09d236ad2a0e05182e9286e93859ff68cc586f03c890600090a3949350505050565b6000808060000160405161044090611226565b908152604051908190036020019020546001600160a01b03166370a08231610466610151565b6040516001600160e01b031960e084901b1681526001600160a01b039091166004820152602401602060405180830381865afa1580156104aa573d6000803e3d6000fd5b505050506040513d601f19601f820116820180604052508101906104ce9190611236565b156104eb5760405162461bcd60e51b815260040161026b9061124f565b6040805169706572667269656e647360b01b81526000600a8201819052915190819003602a018120546331a9108f60e11b8252600482018690526001600160a01b0387811692911690636352211e90602401602060405180830381865afa15801561055a573d6000803e3d6000fd5b505050506040513d601f19601f8201168201806040525081019061057e9190611285565b6001600160a01b0316146105a45760405162461bcd60e51b815260040161026b906112b5565b6004816000016040516105b690611277565b908152604051908190036020018120546324d2676160e01b82526001600160a01b0316906324d26761906105f290889060040190815260200190565b602060405180830381865afa15801561060f573d6000803e3d6000fd5b505050506040513d601f19601f820116820180604052508101906106339190611236565b116106765760405162461bcd60e51b81526020600482015260136024820152726174206c65617374205046206772616465203560681b604482015260640161026b565b60008160000160405161068890611226565b908152604080516020928190038301812054631d5e528f60e21b825291516001600160a01b03909216926375794a3c926004808401938290030181865afa1580156106d7573d6000803e3d6000fd5b505050506040513d601f19601f820116820180604052508101906106fb9190611236565b90508160000160405161070d90611277565b9081526040519081900360200181205463157e5e2360e11b82526001600160a01b031690632afcbc469061074990849060040190815260200190565b600060405180830381600087803b15801561076357600080fd5b505af1158015610777573d6000803e3d6000fd5b50506040518492506107899150611277565b90815260405190819003602001812054637bf3519560e01b82526001600160a01b031690637bf35195906107cc9084908990600401918252602082015260400190565b600060405180830381600087803b1580156107e657600080fd5b505af11580156107fa573d6000803e3d6000fd5b505060405184925061080c9150611226565b90815260405190819003602001812054630c0e55d560e01b82526001600160a01b0388811660048401521690630c0e55d590602401600060405180830381600087803b15801561085b57600080fd5b505af115801561086f573d6000803e3d6000fd5b505050508481876001600160a01b03167f1b92595453af778c64ceef0740027129d2b54d9c00790188e3c7328e6fbe10ad60405160405180910390a495945050505050565b600080806000016040516108c790611226565b908152604051908190036020019020546001600160a01b03166370a082316108ed610151565b6040516001600160e01b031960e084901b1681526001600160a01b039091166004820152602401602060405180830381865afa158015610931573d6000803e3d6000fd5b505050506040513d601f19601f820116820180604052508101906109559190611236565b156109725760405162461bcd60e51b815260040161026b9061124f565b6000808160000160405161098590611226565b908152604080516020928190038301812054631d5e528f60e21b825291516001600160a01b03909216926375794a3c926004808401938290030181865afa1580156109d4573d6000803e3d6000fd5b505050506040513d601f19601f820116820180604052508101906109f89190611236565b604051623832b960e91b81529091508290600301908152604051908190036020018120546001600160a01b0316906323b872dd9087908590610a4490637465616d60e01b815260040190565b90815260405190819003602001812054602a8701546001600160e01b031960e086901b1683526001600160a01b0393841660048401529216602482015260448101919091526064016020604051808303816000875af1158015610aab573d6000803e3d6000fd5b505050506040513d601f19601f82011682018060405250810190610acf91906112d8565b506040518290610ade90611226565b90815260405190819003602001812054630c0e55d560e01b82526001600160a01b0387811660048401521690630c0e55d590602401600060405180830381600087803b158015610b2d57600080fd5b505af1158015610b41573d6000803e3d6000fd5b5050604051849250610b539150611277565b9081526040519081900360200181205463157e5e2360e11b82526001600160a01b031690632afcbc4690610b8f90849060040190815260200190565b600060405180830381600087803b158015610ba957600080fd5b505af1158015610bbd573d6000803e3d6000fd5b5050505081602a015481866001600160a01b03167f08adfa11554b38781c149cae1012954447a95f3ec20d04b215cfa9adef15bfbe60405160405180910390a4949350505050565b6000826001600160a01b031681600001604051610c2190611226565b908152604051908190036020018120546331a9108f60e11b82526001600160a01b031690636352211e90610c5d90869060040190815260200190565b602060405180830381865afa158015610c7a573d6000803e3d6000fd5b505050506040513d601f19601f82011682018060405250810190610c9e9190611285565b6001600160a01b031614610cc45760405162461bcd60e51b815260040161026b906112b5565b60405182906001600160a01b038516907f700335a7325302599dc612a8583c24b1d56fd8822dd0622f4301069250cded2e90600090a3505050565b6000836001600160a01b031681600001604051610d1b90611226565b908152604051908190036020018120546331a9108f60e11b82526001600160a01b031690636352211e90610d5790879060040190815260200190565b602060405180830381865afa158015610d74573d6000803e3d6000fd5b505050506040513d601f19601f82011682018060405250810190610d989190611285565b6001600160a01b031614610dbe5760405162461bcd60e51b815260040161026b906112b5565b60405169706572667269656e647360b01b81526001600160a01b038516908290600a01908152604051908190036020018120546331a9108f60e11b82526001600160a01b031690636352211e90610e1d90869060040190815260200190565b602060405180830381865afa158015610e3a573d6000803e3d6000fd5b505050506040513d601f19601f82011682018060405250810190610e5e9190611285565b6001600160a01b031614610e845760405162461bcd60e51b815260040161026b906112b5565b600481600001604051610e9690611277565b908152604051908190036020018120546324d2676160e01b82526001600160a01b0316906324d2676190610ed290869060040190815260200190565b602060405180830381865afa158015610eef573d6000803e3d6000fd5b505050506040513d601f19601f82011682018060405250810190610f139190611236565b11610f565760405162461bcd60e51b81526020600482015260136024820152726174206c65617374205046206772616465203560681b604482015260640161026b565b6040518190610f6490611277565b90815260405190819003602001812054637bf3519560e01b82526001600160a01b031690637bf3519590610fa79086908690600401918252602082015260400190565b600060405180830381600087803b158015610fc157600080fd5b505af1158015610fd5573d6000803e3d6000fd5b505050508183856001600160a01b03167f46bc0332351dc9f346de239a5b580849ab69fcefe8b9168129aee3dc7f2651ac60405160405180910390a450505050565b6000826001600160a01b03168160000160405161103390611226565b908152604051908190036020018120546331a9108f60e11b82526001600160a01b031690636352211e9061106f90869060040190815260200190565b602060405180830381865afa15801561108c573d6000803e3d6000fd5b505050506040513d601f19601f820116820180604052508101906110b09190611285565b6001600160a01b0316146110d65760405162461bcd60e51b815260040161026b906112b5565b604051623832b960e91b81528190600301908152604051908190036020018120546001600160a01b0316906323b872dd908590849061111f90637465616d60e01b815260040190565b90815260405190819003602001812054602a8601546001600160e01b031960e086901b1683526001600160a01b0393841660048401529216602482015260448101919091526064016020604051808303816000875af1158015611186573d6000803e3d6000fd5b505050506040513d601f19601f820116820180604052508101906111aa91906112d8565b50602a81015460405183906001600160a01b038616907fa7beba20503d0bbc00bdc905cb33ca60cb3eddeeaba4358eb51a9db12aaa643190600090a4505050565b6000602082840312156111fd57600080fd5b5035919050565b6000806040838503121561121757600080fd5b50508035926020909101359150565b6330b4b2b760e11b815260040190565b60006020828403121561124857600080fd5b5051919050565b6020808252600e908201526d185b1c9958591e481b5a5b9d195960921b604082015260600190565b61323160f11b815260020190565b60006020828403121561129757600080fd5b81516001600160a01b03811681146112ae57600080fd5b9392505050565b6020808252600990820152683737ba1037bbb732b960b91b604082015260600190565b6000602082840312156112ea57600080fd5b815180151581146112ae57600080fdfea264697066735822122065d2aa3a08fed396c1776fec1f1bca6ad6dd3c4bb166da6617db673b9fac258764736f6c63430008160033",
  "devdoc": {
    "details": "Aien Mint Facet Contract",
    "kind": "dev",
    "methods": {},
    "version": 1
  },
  "userdoc": {
    "kind": "user",
    "methods": {},
    "version": 1
  },
  "storageLayout": {
    "storage": [],
    "types": null
  }
}