{
  "address": "0xbD3fF4d6674678bCB246a7F9D528448A1Ae336E9",
  "abi": [
    {
      "inputs": [
        {
          "internalType": "string",
          "name": "_name",
          "type": "string"
        }
      ],
      "name": "getContract",
      "outputs": [
        {
          "internalType": "address",
          "name": "",
          "type": "address"
        }
      ],
      "stateMutability": "view",
      "type": "function"
    },
    {
      "inputs": [
        {
          "internalType": "string",
          "name": "_name",
          "type": "string"
        },
        {
          "internalType": "address",
          "name": "_addr",
          "type": "address"
        }
      ],
      "name": "setContract",
      "outputs": [],
      "stateMutability": "nonpayable",
      "type": "function"
    }
  ],
  "args": [],
  "numDeployments": 5,
  "solcInputHash": "b2abfe018e4e65f9a2cd24d6bb39faca",
  "bytecode": "0x608060405234801561001057600080fd5b5061060a806100206000396000f3fe608060405234801561001057600080fd5b50600436106100365760003560e01c8063358177731461003b5780633f0ed0df1461006b575b600080fd5b6100556004803603810190610050919061037c565b610087565b6040516100629190610406565b60405180910390f35b6100856004803603810190610080919061044d565b6100dd565b005b600080610092610155565b905080600001836040516100a6919061051a565b908152602001604051809103902060009054906101000a900473ffffffffffffffffffffffffffffffffffffffff16915050919050565b6100e561015a565b60006100ef610155565b9050818160000184604051610104919061051a565b908152602001604051809103902060006101000a81548173ffffffffffffffffffffffffffffffffffffffff021916908373ffffffffffffffffffffffffffffffffffffffff160217905550505050565b600090565b6101626101f5565b60040160009054906101000a900473ffffffffffffffffffffffffffffffffffffffff1673ffffffffffffffffffffffffffffffffffffffff163373ffffffffffffffffffffffffffffffffffffffff16146101f3576040517f08c379a00000000000000000000000000000000000000000000000000000000081526004016101ea906105b4565b60405180910390fd5b565b6000807fc8fcad8db84d3cc18b4c41d551ea0ee66dd599cde068d998e57d5e09332c131c90508091505090565b6000604051905090565b600080fd5b600080fd5b600080fd5b600080fd5b6000601f19601f8301169050919050565b7f4e487b7100000000000000000000000000000000000000000000000000000000600052604160045260246000fd5b61028982610240565b810181811067ffffffffffffffff821117156102a8576102a7610251565b5b80604052505050565b60006102bb610222565b90506102c78282610280565b919050565b600067ffffffffffffffff8211156102e7576102e6610251565b5b6102f082610240565b9050602081019050919050565b82818337600083830152505050565b600061031f61031a846102cc565b6102b1565b90508281526020810184848401111561033b5761033a61023b565b5b6103468482856102fd565b509392505050565b600082601f83011261036357610362610236565b5b813561037384826020860161030c565b91505092915050565b6000602082840312156103925761039161022c565b5b600082013567ffffffffffffffff8111156103b0576103af610231565b5b6103bc8482850161034e565b91505092915050565b600073ffffffffffffffffffffffffffffffffffffffff82169050919050565b60006103f0826103c5565b9050919050565b610400816103e5565b82525050565b600060208201905061041b60008301846103f7565b92915050565b61042a816103e5565b811461043557600080fd5b50565b60008135905061044781610421565b92915050565b600080604083850312156104645761046361022c565b5b600083013567ffffffffffffffff81111561048257610481610231565b5b61048e8582860161034e565b925050602061049f85828601610438565b9150509250929050565b600081519050919050565b600081905092915050565b60005b838110156104dd5780820151818401526020810190506104c2565b60008484015250505050565b60006104f4826104a9565b6104fe81856104b4565b935061050e8185602086016104bf565b80840191505092915050565b600061052682846104e9565b915081905092915050565b600082825260208201905092915050565b7f4c69624469616d6f6e643a204d75737420626520636f6e7472616374206f776e60008201527f6572000000000000000000000000000000000000000000000000000000000000602082015250565b600061059e602283610531565b91506105a982610542565b604082019050919050565b600060208201905081810360008301526105cd81610591565b905091905056fea26469706673582212206aa9dcd435bb3b696ab681d5f1f70a8451688ebdb10d9f1e8a3e9fd38ffd581864736f6c63430008160033",
  "devdoc": {
    "kind": "dev",
    "methods": {},
    "version": 1
  },
  "userdoc": {
    "kind": "user",
    "methods": {},
    "version": 1
  },
  "storageLayout": {
    "storage": [],
    "types": null
  }
}