{
  "address": "0xa2487f36ADf20E2Ae6C57Acf5c63Cad0F224c36b",
  "abi": [
    {
      "inputs": [
        {
          "internalType": "address",
          "name": "_facet",
          "type": "address"
        },
        {
          "internalType": "address",
          "name": "_tokenAddr",
          "type": "address"
        },
        {
          "internalType": "uint256",
          "name": "_amount",
          "type": "uint256"
        }
      ],
      "name": "Distribute_Transfer_Balance",
      "outputs": [],
      "stateMutability": "nonpayable",
      "type": "function"
    },
    {
      "inputs": [
        {
          "internalType": "address",
          "name": "_agency",
          "type": "address"
        },
        {
          "internalType": "uint256",
          "name": "_agencyAmount",
          "type": "uint256"
        },
        {
          "internalType": "address",
          "name": "_influencer",
          "type": "address"
        },
        {
          "internalType": "uint256",
          "name": "_influencerAmount",
          "type": "uint256"
        },
        {
          "internalType": "uint256",
          "name": "_totalAmount",
          "type": "uint256"
        }
      ],
      "name": "Distribute_p0LvUpDistribute",
      "outputs": [],
      "stateMutability": "nonpayable",
      "type": "function"
    }
  ],
  "transactionHash": "0xa475539cc72be51e482baa40a2a4b1a51b1b272f5f90ef2dd9f916c05034babf",
  "args": [],
  "numDeployments": 8,
  "solcInputHash": "9ba6ee134eba60eed5db854ce7bf03e6",
  "bytecode": "0x608060405234801561001057600080fd5b50610dc3806100206000396000f3fe608060405234801561001057600080fd5b50600436106100365760003560e01c806361dd1e581461003b57806372dc907a14610050575b600080fd5b61004e610049366004610c5f565b610063565b005b61004e61005e366004610c9b565b6100f5565b61006b610109565b600080610076610197565b60405163a9059cbb60e01b81526001600160a01b038083166004830152602482018690529192509085169063a9059cbb906044016020604051808303816000875af11580156100c9573d6000803e3d6000fd5b505050506040513d601f19601f820116820180604052508101906100ed9190610ce9565b505050505050565b61010285858585856101f3565b5050505050565b7fc8fcad8db84d3cc18b4c41d551ea0ee66dd599cde068d998e57d5e09332c131c600401546001600160a01b031633146101955760405162461bcd60e51b815260206004820152602260248201527f4c69624469616d6f6e643a204d75737420626520636f6e7472616374206f776e60448201526132b960f11b60648201526084015b60405180910390fd5b565b60003033036101ed57600080368080601f0160208091040260200160405190810160405280939291908181526020018383808284376000920191909152505050503601516001600160a01b031691506101f09050565b50335b90565b6000808060008060006102058761065b565b9450945094509450945060008660000160405161022b90623832b960e91b815260030190565b9081526040519081900360200181205463a9059cbb60e01b82526001600160a01b038e81166004840152602483018e9052169150819063a9059cbb906044016020604051808303816000875af1158015610289573d6000803e3d6000fd5b505050506040513d601f19601f820116820180604052508101906102ad9190610ce9565b5060405163a9059cbb60e01b81526001600160a01b038b81166004830152602482018b905282169063a9059cbb906044016020604051808303816000875af11580156102fd573d6000803e3d6000fd5b505050506040513d601f19601f820116820180604052508101906103219190610ce9565b5060405161703160f01b81526001600160a01b0382169063a9059cbb908990600201908152604051908190036020018120546001600160e01b031960e084901b1682526001600160a01b03166004820152602481018990526044016020604051808303816000875af115801561039b573d6000803e3d6000fd5b505050506040513d601f19601f820116820180604052508101906103bf9190610ce9565b5060405168703262616c616e636560b81b81526001600160a01b0382169063a9059cbb908990600901908152604051908190036020019020546001600160a01b031661040b8789610d28565b6040516001600160e01b031960e085901b1681526001600160a01b03909216600483015260248201526044016020604051808303816000875af1158015610456573d6000803e3d6000fd5b505050506040513d601f19601f8201168201806040525081019061047a9190610ce9565b5060405163313ab93760e11b81526001600160a01b0382169063a9059cbb908990600401908152604051908190036020018120546001600160e01b031960e084901b1682526001600160a01b03166004820152602481018690526044016020604051808303816000875af11580156104f6573d6000803e3d6000fd5b505050506040513d601f19601f8201168201806040525081019061051a9190610ce9565b50604051637465616d60e01b81526001600160a01b0382169063a9059cbb908990600401908152604051908190036020018120546001600160e01b031960e084901b1682526001600160a01b03166004820152602481018590526044016020604051808303816000875af1158015610596573d6000803e3d6000fd5b505050506040513d601f19601f820116820180604052508101906105ba9190610ce9565b506105c685600061075f565b6105cf846107a4565b60405161703160f01b81528790600201908152604051908190036020018120546345e17d1d60e11b82526001600160a01b031690638bc2fa3a9061061b90899060040190815260200190565b600060405180830381600087803b15801561063557600080fd5b505af1158015610649573d6000803e3d6000fd5b50505050505050505050505050505050565b600080808080808060298101549091506000906064906106809062ffffff168a610d41565b61068a9190610d58565b60298301549091506000906064906106ae906301000000900462ffffff168b610d41565b6106b89190610d58565b60298401549091506000906064906106df906601000000000000900462ffffff168c610d41565b6106e99190610d58565b6029850154909150600090606490610713906901000000000000000000900462ffffff168d610d41565b61071d9190610d58565b602986015490915060009060649061074190600160601b900462ffffff168e610d41565b61074b9190610d58565b949c939b5091995097509195509350505050565b6000828160320160008282546107759190610d28565b92505081905550818160330160008282546107909190610d28565b9091555061079e90506107cd565b50505050565b6000818160330160008282546107ba9190610d28565b909155506107c890506107cd565b505050565b603154600090819060ff166108185760405162461bcd60e51b8152602060048201526011602482015270140c8e88140c881a5cc81cdd1bdc1c1959607a1b604482015260640161018c565b60004381603501540361082d57439250505090565b806038015481603501546108419190610d28565b431115610bf5576000805b826038015483603501546108609190610d28565b431115610bf257826038015483603501600082825461087f9190610d28565b925050819055506000806108a0856032015486603301548760340154610bfd565b909250905060015b600b8160ff161015610bb55760ff808216600090815260438801602052604090206013015416610a185760ff8116600090815260438701602052604081208181556001810191909155600a015460398701546109049085610d58565b61090e9190610d41565b60ff8216600090815260438801602052604081206002018054909190610935908490610d28565b909155505060ff811660009081526043870160205260409020600b015460398701546109619084610d58565b61096b9190610d41565b60ff8216600090815260438801602052604081206003018054909190610992908490610d28565b909155505060ff811660009081526043870160205260409020600a015460398701546109be9085610d58565b6109c89190610d41565b6109d29086610d28565b60ff821660009081526043880160205260409020600b01546039880154919650906109fd9084610d58565b610a079190610d41565b610a119085610d28565b9350610bad565b60ff81166000908152604387016020526040812060028101546003820154600d909201548392610a489291610bfd565b60ff8516600090815260438b0160205260409020600a015460398b01549294509092508391610a779088610d58565b610a819190610d41565b610a8b9190610d28565b60ff8416600090815260438a0160205260409020908155600b01546039890154829190610ab89087610d58565b610ac29190610d41565b610acc9190610d28565b60ff8416600090815260438a0160205260408120600181019290925560029091018054849290610afd908490610d7a565b909155505060ff8316600090815260438901602052604081206003018054839290610b29908490610d7a565b909155505060ff831660009081526043890160205260409020600a01546039890154610b559087610d58565b610b5f9190610d41565b610b699088610d28565b60ff8416600090815260438a0160205260409020600b015460398a015491985090610b949086610d58565b610b9e9190610d41565b610ba89087610d28565b955050505b6001016108a8565b5083856032016000828254610bca9190610d7a565b9250508190555082856033016000828254610be59190610d7a565b9091555061084c92505050565b50505b439250505090565b60008080620186a0610c0f8588610d41565b610c199190610d58565b90506000620186a0610c2b8688610d41565b610c359190610d58565b919791965090945050505050565b80356001600160a01b0381168114610c5a57600080fd5b919050565b600080600060608486031215610c7457600080fd5b610c7d84610c43565b9250610c8b60208501610c43565b9150604084013590509250925092565b600080600080600060a08688031215610cb357600080fd5b610cbc86610c43565b945060208601359350610cd160408701610c43565b94979396509394606081013594506080013592915050565b600060208284031215610cfb57600080fd5b81518015158114610d0b57600080fd5b9392505050565b634e487b7160e01b600052601160045260246000fd5b80820180821115610d3b57610d3b610d12565b92915050565b8082028115828204841417610d3b57610d3b610d12565b600082610d7557634e487b7160e01b600052601260045260246000fd5b500490565b81810381811115610d3b57610d3b610d1256fea2646970667358221220a6db7ac6030ac4894200dbe0463219618fd412ffaa431d613039be4c7bb92d0564736f6c63430008160033",
  "devdoc": {
    "kind": "dev",
    "methods": {},
    "version": 1
  },
  "userdoc": {
    "kind": "user",
    "methods": {},
    "version": 1
  },
  "storageLayout": {
    "storage": [],
    "types": null
  }
}