{
  "address": "0xAe6a9d48678755449CF77c456f2cE3fEe7ee1eAB",
  "abi": [
    {
      "inputs": [],
      "name": "Front_PfGrades",
      "outputs": [
        {
          "components": [
            {
              "internalType": "uint256",
              "name": "normal",
              "type": "uint256"
            },
            {
              "internalType": "uint256",
              "name": "uncommon",
              "type": "uint256"
            },
            {
              "internalType": "uint256",
              "name": "rare",
              "type": "uint256"
            },
            {
              "internalType": "uint256",
              "name": "unique",
              "type": "uint256"
            },
            {
              "internalType": "uint256",
              "name": "legendary",
              "type": "uint256"
            },
            {
              "internalType": "uint256",
              "name": "myth",
              "type": "uint256"
            },
            {
              "internalType": "uint256",
              "name": "ancient",
              "type": "uint256"
            }
          ],
          "internalType": "struct IDB.pfGrade",
          "name": "",
          "type": "tuple"
        }
      ],
      "stateMutability": "view",
      "type": "function"
    },
    {
      "inputs": [],
      "name": "Front_getAienGradeInfo",
      "outputs": [
        {
          "internalType": "uint256[]",
          "name": "",
          "type": "uint256[]"
        }
      ],
      "stateMutability": "view",
      "type": "function"
    },
    {
      "inputs": [
        {
          "internalType": "address",
          "name": "_user",
          "type": "address"
        }
      ],
      "name": "Front_isApprovedAsset",
      "outputs": [
        {
          "internalType": "bool",
          "name": "",
          "type": "bool"
        },
        {
          "internalType": "bool",
          "name": "",
          "type": "bool"
        },
        {
          "internalType": "bool",
          "name": "",
          "type": "bool"
        },
        {
          "internalType": "bool",
          "name": "",
          "type": "bool"
        }
      ],
      "stateMutability": "view",
      "type": "function"
    }
  ],
  "transactionHash": "0x95823f2c772e2ca33d62180b71c552a674571c84a8191bafbb2cd08499cc19c4",
  "args": [],
  "numDeployments": 7,
  "solcInputHash": "993bf155c2439d1e74127f2bb816b8b0",
  "bytecode": "0x608060405234801561001057600080fd5b5061080d806100206000396000f3fe608060405234801561001057600080fd5b50600436106100415760003560e01c8063551a629b146100465780638b44dbba1461006457806397de4b24146100a1575b600080fd5b61004e6100ff565b60405161005b91906105b7565b60405180910390f35b6100776100723660046105fb565b610198565b6040805194151585529215156020850152901515918301919091521515606082015260800161005b565b6100a96104f0565b60405161005b9190600060e082019050825182526020830151602083015260408301516040830152606083015160608301526080830151608083015260a083015160a083015260c083015160c083015292915050565b606060008060405161323160f11b815290915081906002019081526040805191829003602001822054630851adef60e21b835290516001600160a01b0390911691632146b7bc9160048083019260009291908290030181865afa15801561016a573d6000803e3d6000fd5b505050506040513d6000823e601f3d908101601f191682016040526101929190810190610672565b91505090565b60008080808080604051623832b960e91b81529091506000908290600301908152604051908190036020018120546001600160a01b03169063dd62ed3e90899085906101f19066191a585b5bdb9960ca1b815260070190565b908152604051908190036020018120546001600160e01b031960e085901b1682526001600160a01b039283166004830152919091166024820152604401602060405180830381865afa15801561024b573d6000803e3d6000fd5b505050506040513d601f19601f8201168201806040525081019061026f9190610718565b118160000160405161028b906330b4b2b760e11b815260040190565b908152604051908190036020018120546001600160a01b03169063e985e9c590899085906102c69066191a585b5bdb9960ca1b815260070190565b908152604051908190036020018120546001600160e01b031960e085901b1682526001600160a01b039283166004830152919091166024820152604401602060405180830381865afa158015610320573d6000803e3d6000fd5b505050506040513d601f19601f820116820180604052508101906103449190610731565b60405169706572667269656e647360b01b81528390600a01908152604051908190036020018120546001600160a01b03169063e985e9c5908a9086906103979066191a585b5bdb9960ca1b815260070190565b908152604051908190036020018120546001600160e01b031960e085901b1682526001600160a01b039283166004830152919091166024820152604401602060405180830381865afa1580156103f1573d6000803e3d6000fd5b505050506040513d601f19601f820116820180604052508101906104159190610731565b604051636974656d60e01b81528490600401908152604051908190036020018120546001600160a01b03169063e985e9c5908b9087906104629066191a585b5bdb9960ca1b815260070190565b908152604051908190036020018120546001600160e01b031960e085901b1682526001600160a01b039283166004830152919091166024820152604401602060405180830381865afa1580156104bc573d6000803e3d6000fd5b505050506040513d601f19601f820116820180604052508101906104e09190610731565b9450945094509450509193509193565b6105306040518060e00160405280600081526020016000815260200160008152602001600081526020016000815260200160008152602001600081525090565b6040805161323160f11b815260006002820181905282519182900360220182205463bf32e2f360e01b8352925190926001600160a01b03169163bf32e2f39160048083019260e09291908290030181865afa158015610593573d6000803e3d6000fd5b505050506040513d601f19601f820116820180604052508101906101929190610753565b6020808252825182820181905260009190848201906040850190845b818110156105ef578351835292840192918401916001016105d3565b50909695505050505050565b60006020828403121561060d57600080fd5b81356001600160a01b038116811461062457600080fd5b9392505050565b634e487b7160e01b600052604160045260246000fd5b604051601f8201601f1916810167ffffffffffffffff8111828210171561066a5761066a61062b565b604052919050565b6000602080838503121561068557600080fd5b825167ffffffffffffffff8082111561069d57600080fd5b818501915085601f8301126106b157600080fd5b8151818111156106c3576106c361062b565b8060051b91506106d4848301610641565b81815291830184019184810190888411156106ee57600080fd5b938501935b8385101561070c578451825293850193908501906106f3565b98975050505050505050565b60006020828403121561072a57600080fd5b5051919050565b60006020828403121561074357600080fd5b8151801515811461062457600080fd5b600060e0828403121561076557600080fd5b60405160e0810181811067ffffffffffffffff821117156107885761078861062b565b8060405250825181526020830151602082015260408301516040820152606083015160608201526080830151608082015260a083015160a082015260c083015160c0820152809150509291505056fea26469706673582212207d453b217077e217bd47f02abc07aa9f5d696a2a53df9b698d6c0d92b91e19af64736f6c63430008160033",
  "devdoc": {
    "details": "get load BlockChain datas before front component mount",
    "kind": "dev",
    "methods": {},
    "version": 1
  },
  "userdoc": {
    "kind": "user",
    "methods": {},
    "version": 1
  },
  "storageLayout": {
    "storage": [],
    "types": null
  }
}