{
  "address": "0xA986Ded8d4161DF8BA5f50440BC6458f03784A6a",
  "abi": [
    {
      "anonymous": false,
      "inputs": [
        {
          "indexed": true,
          "internalType": "address",
          "name": "to",
          "type": "address"
        },
        {
          "indexed": true,
          "internalType": "uint256",
          "name": "aienId",
          "type": "uint256"
        },
        {
          "indexed": true,
          "internalType": "uint256",
          "name": "payment",
          "type": "uint256"
        },
        {
          "indexed": false,
          "internalType": "uint256",
          "name": "addProb",
          "type": "uint256"
        },
        {
          "indexed": false,
          "internalType": "uint256[]",
          "name": "perfs",
          "type": "uint256[]"
        }
      ],
      "name": "P0_AddProb_Event",
      "type": "event"
    },
    {
      "anonymous": false,
      "inputs": [
        {
          "indexed": true,
          "internalType": "address",
          "name": "to",
          "type": "address"
        },
        {
          "indexed": true,
          "internalType": "uint256",
          "name": "aienId",
          "type": "uint256"
        },
        {
          "indexed": true,
          "internalType": "uint256",
          "name": "itemId",
          "type": "uint256"
        },
        {
          "indexed": false,
          "internalType": "uint256",
          "name": "itemAmount",
          "type": "uint256"
        },
        {
          "indexed": false,
          "internalType": "bool",
          "name": "isLevelUp",
          "type": "bool"
        },
        {
          "indexed": false,
          "internalType": "uint256",
          "name": "payment",
          "type": "uint256"
        }
      ],
      "name": "P0_BaseMix_Event",
      "type": "event"
    },
    {
      "anonymous": false,
      "inputs": [
        {
          "indexed": true,
          "internalType": "address",
          "name": "to",
          "type": "address"
        },
        {
          "indexed": true,
          "internalType": "uint256",
          "name": "perfId",
          "type": "uint256"
        },
        {
          "indexed": true,
          "internalType": "uint256",
          "name": "itemId",
          "type": "uint256"
        },
        {
          "indexed": false,
          "internalType": "uint256",
          "name": "itemAmount",
          "type": "uint256"
        },
        {
          "indexed": false,
          "internalType": "uint256",
          "name": "payment",
          "type": "uint256"
        },
        {
          "indexed": false,
          "internalType": "uint256",
          "name": "perfGrade",
          "type": "uint256"
        },
        {
          "indexed": false,
          "internalType": "bytes",
          "name": "perfURI",
          "type": "bytes"
        }
      ],
      "name": "P0_ItemMerge_Event",
      "type": "event"
    },
    {
      "anonymous": false,
      "inputs": [
        {
          "indexed": true,
          "internalType": "address",
          "name": "to",
          "type": "address"
        },
        {
          "indexed": true,
          "internalType": "uint256",
          "name": "aienId",
          "type": "uint256"
        },
        {
          "indexed": true,
          "internalType": "uint256",
          "name": "itemId",
          "type": "uint256"
        },
        {
          "indexed": false,
          "internalType": "uint256",
          "name": "itemAmount",
          "type": "uint256"
        },
        {
          "indexed": false,
          "internalType": "bool",
          "name": "isLevelUp",
          "type": "bool"
        },
        {
          "indexed": false,
          "internalType": "uint256",
          "name": "payment",
          "type": "uint256"
        },
        {
          "indexed": false,
          "internalType": "uint256",
          "name": "usePower",
          "type": "uint256"
        }
      ],
      "name": "P0_PremiumMix_Event",
      "type": "event"
    },
    {
      "inputs": [
        {
          "internalType": "uint256",
          "name": "_aienId",
          "type": "uint256"
        },
        {
          "internalType": "uint256[]",
          "name": "_pf_Ids",
          "type": "uint256[]"
        }
      ],
      "name": "P0_addProbCall",
      "outputs": [
        {
          "internalType": "bool",
          "name": "",
          "type": "bool"
        }
      ],
      "stateMutability": "nonpayable",
      "type": "function"
    },
    {
      "inputs": [
        {
          "internalType": "uint256",
          "name": "_id",
          "type": "uint256"
        },
        {
          "internalType": "uint256",
          "name": "_useItemId",
          "type": "uint256"
        }
      ],
      "name": "P0_baseMixCall",
      "outputs": [
        {
          "internalType": "bool",
          "name": "",
          "type": "bool"
        }
      ],
      "stateMutability": "nonpayable",
      "type": "function"
    },
    {
      "inputs": [],
      "name": "P0_basicMergeAmount",
      "outputs": [
        {
          "internalType": "uint256",
          "name": "",
          "type": "uint256"
        }
      ],
      "stateMutability": "view",
      "type": "function"
    },
    {
      "inputs": [],
      "name": "P0_getAddProbFee",
      "outputs": [
        {
          "internalType": "uint256",
          "name": "",
          "type": "uint256"
        }
      ],
      "stateMutability": "view",
      "type": "function"
    },
    {
      "inputs": [],
      "name": "P0_getCurrentMergeStates",
      "outputs": [
        {
          "components": [
            {
              "internalType": "uint8",
              "name": "grade",
              "type": "uint8"
            },
            {
              "internalType": "string",
              "name": "gradeName",
              "type": "string"
            },
            {
              "internalType": "uint256",
              "name": "mergeFee",
              "type": "uint256"
            },
            {
              "internalType": "uint256",
              "name": "mergeUseItemAmount",
              "type": "uint256"
            },
            {
              "internalType": "uint256",
              "name": "latestId",
              "type": "uint256"
            },
            {
              "internalType": "uint256",
              "name": "setMatadataId",
              "type": "uint256"
            },
            {
              "internalType": "bool",
              "name": "isOpen",
              "type": "bool"
            }
          ],
          "internalType": "struct P0_MergePfGrade[]",
          "name": "",
          "type": "tuple[]"
        }
      ],
      "stateMutability": "view",
      "type": "function"
    },
    {
      "inputs": [],
      "name": "P0_getMaxProb",
      "outputs": [
        {
          "internalType": "uint256",
          "name": "",
          "type": "uint256"
        }
      ],
      "stateMutability": "view",
      "type": "function"
    },
    {
      "inputs": [
        {
          "internalType": "uint256",
          "name": "_itemId",
          "type": "uint256"
        }
      ],
      "name": "P0_getMergeState",
      "outputs": [
        {
          "internalType": "uint256",
          "name": "",
          "type": "uint256"
        },
        {
          "internalType": "uint256",
          "name": "",
          "type": "uint256"
        }
      ],
      "stateMutability": "view",
      "type": "function"
    },
    {
      "inputs": [
        {
          "internalType": "uint8",
          "name": "_grade",
          "type": "uint8"
        }
      ],
      "name": "P0_getMergeStates",
      "outputs": [
        {
          "components": [
            {
              "internalType": "uint8",
              "name": "grade",
              "type": "uint8"
            },
            {
              "internalType": "string",
              "name": "gradeName",
              "type": "string"
            },
            {
              "internalType": "uint256",
              "name": "mergeFee",
              "type": "uint256"
            },
            {
              "internalType": "uint256",
              "name": "mergeUseItemAmount",
              "type": "uint256"
            },
            {
              "internalType": "uint256",
              "name": "latestId",
              "type": "uint256"
            },
            {
              "internalType": "uint256",
              "name": "setMatadataId",
              "type": "uint256"
            },
            {
              "internalType": "bool",
              "name": "isOpen",
              "type": "bool"
            }
          ],
          "internalType": "struct P0_MergePfGrade",
          "name": "",
          "type": "tuple"
        }
      ],
      "stateMutability": "view",
      "type": "function"
    },
    {
      "inputs": [],
      "name": "P0_getMetadataMargin",
      "outputs": [
        {
          "internalType": "uint256",
          "name": "",
          "type": "uint256"
        },
        {
          "internalType": "uint256",
          "name": "",
          "type": "uint256"
        },
        {
          "internalType": "uint256",
          "name": "",
          "type": "uint256"
        }
      ],
      "stateMutability": "view",
      "type": "function"
    },
    {
      "inputs": [
        {
          "internalType": "uint256",
          "name": "_layer",
          "type": "uint256"
        }
      ],
      "name": "P0_getMixFees",
      "outputs": [
        {
          "internalType": "uint256",
          "name": "",
          "type": "uint256"
        }
      ],
      "stateMutability": "view",
      "type": "function"
    },
    {
      "inputs": [],
      "name": "P0_influencerMergeAmount",
      "outputs": [
        {
          "internalType": "uint256",
          "name": "",
          "type": "uint256"
        }
      ],
      "stateMutability": "view",
      "type": "function"
    },
    {
      "inputs": [
        {
          "internalType": "uint256",
          "name": "_itemId",
          "type": "uint256"
        },
        {
          "internalType": "uint256",
          "name": "_itemAmount",
          "type": "uint256"
        },
        {
          "internalType": "uint8",
          "name": "_grade",
          "type": "uint8"
        }
      ],
      "name": "P0_itemGradeMerge",
      "outputs": [],
      "stateMutability": "nonpayable",
      "type": "function"
    },
    {
      "inputs": [
        {
          "internalType": "uint256",
          "name": "_itemId",
          "type": "uint256"
        },
        {
          "internalType": "uint256",
          "name": "_itemAmount",
          "type": "uint256"
        }
      ],
      "name": "P0_itemMerge",
      "outputs": [],
      "stateMutability": "nonpayable",
      "type": "function"
    },
    {
      "inputs": [
        {
          "internalType": "uint256",
          "name": "_level",
          "type": "uint256"
        }
      ],
      "name": "P0_mixPFInfos",
      "outputs": [
        {
          "internalType": "string",
          "name": "",
          "type": "string"
        },
        {
          "internalType": "uint256",
          "name": "",
          "type": "uint256"
        }
      ],
      "stateMutability": "view",
      "type": "function"
    },
    {
      "inputs": [
        {
          "internalType": "uint256",
          "name": "_id",
          "type": "uint256"
        },
        {
          "internalType": "uint256",
          "name": "_useItemId",
          "type": "uint256"
        }
      ],
      "name": "P0_premiumMixCall",
      "outputs": [
        {
          "internalType": "bool",
          "name": "",
          "type": "bool"
        }
      ],
      "stateMutability": "nonpayable",
      "type": "function"
    }
  ],
  "args": [],
  "numDeployments": 13,
  "solcInputHash": "2d8e23f81cc14a548a10c206d9c8447b",
  "bytecode": "0x608060405234801561001057600080fd5b5061424c806100206000396000f3fe608060405234801561001057600080fd5b50600436106100f55760003560e01c80637174e25811610097578063ddb2bedf11610066578063ddb2bedf146101fc578063e488a83a1461020f578063f3ebac5714610222578063f6afa8471461022f57600080fd5b80637174e258146101b8578063ce47adfa146101cb578063d2236a54146101ec578063d229a392146101f457600080fd5b806355f939d9116100d357806355f939d9146101585780635c0a8a3d1461016d5780636a60affb146101805780636d1d105e1461019557600080fd5b80630b0e517a146100fa5780632b2dc69e146101225780633576742f14610142575b600080fd5b610102610257565b604080519384526020840192909252908201526060015b60405180910390f35b61013561013036600461389f565b6102ef565b604051610119919061396c565b61014a610433565b604051908152602001610119565b6101606104bf565b604051610119919061397f565b61014a61017b3660046139e3565b6106eb565b61019361018e3660046139fc565b610711565b005b6101a86101a3366004613ac6565b61072f565b6040519015158152602001610119565b6101a86101c6366004613b78565b610751565b6101de6101d93660046139e3565b610774565b604051610119929190613b9a565b61014a61080e565b61014a61081d565b61019361020a366004613b78565b61087e565b6101a861021d366004613b78565b610896565b60015462ffffff1661014a565b61024261023d3660046139e3565b6108bb565b60408051928352602083019190915201610119565b60008080808060000160405161026c90613bbc565b9081526040805191829003602001822054637cedcc4b60e11b835290516001600160a01b039091169163f9db98969160048083019260609291908290030181865afa1580156102bf573d6000803e3d6000fd5b505050506040513d601f19601f820116820180604052508101906102e39190613bca565b93509350935050909192565b6103346040518060e00160405280600060ff16815260200160608152602001600081526020016000815260200160008152602001600081526020016000151581525090565b60ff8281166000908152602d60209081526040808320815160e081019092528054909416815260018401805493949193919284019161037290613bf8565b80601f016020809104026020016040519081016040528092919081815260200182805461039e90613bf8565b80156103eb5780601f106103c0576101008083540402835291602001916103eb565b820191906000526020600020905b8154815290600101906020018083116103ce57829003601f168201915b50505091835250506002820154602082015260038201546040820152600482015460608201526005820154608082015260069091015460ff16151560a0909101529392505050565b6000808060000160405161044690613bbc565b90815260408051602092819003830181205463340c2acd60e01b825291516001600160a01b039092169263340c2acd926004808401938290030181865afa158015610495573d6000803e3d6000fd5b505050506040513d601f19601f820116820180604052508101906104b99190613c32565b91505090565b606060008060015b600b8160ff1610156105055760ff8082166000908152602d85016020526040902060060154166104f757816104fc565b809150815b506001016104c7565b5060008160ff1667ffffffffffffffff81111561052457610524613a31565b60405190808252806020026020018201604052801561059a57816020015b6105876040518060e00160405280600060ff16815260200160608152602001600081526020016000815260200160008152602001600081526020016000151581525090565b8152602001906001900390816105425790505b50905060015b8260ff168160ff16116106e35760ff8082166000908152602d86016020908152604091829020825160e0810190935280549093168252600183018054929392918401916105ec90613bf8565b80601f016020809104026020016040519081016040528092919081815260200182805461061890613bf8565b80156106655780601f1061063a57610100808354040283529160200191610665565b820191906000526020600020905b81548152906001019060200180831161064857829003601f168201915b50505091835250506002820154602082015260038201546040820152600482015460608201526005820154608082015260069091015460ff16151560a090910152826106b2600184613c61565b60ff16815181106106c5576106c5613c7a565b602002602001018190525080806106db90613c90565b9150506105a0565b509392505050565b600080600483600b811061070157610701613c7a565b6003020160010154915050919050565b600061071b6108d0565b90506107298185858561092c565b50505050565b600080600061073c6108d0565b9050610749818686610d5f565b505092915050565b600080600061075e6108d0565b905061076b8186866113a1565b50505092915050565b6040805161070360f41b81526000600282018190529151908190036022018120546316dba26f60e01b8252600482018490526060929182916001600160a01b0316906316dba26f90602401600060405180830381865afa1580156107dc573d6000803e3d6000fd5b505050506040513d6000823e601f3d908101601f191682016040526108049190810190613d13565b9250925050915091565b6000610818611c3a565b905090565b6000808060000160405161083090613bbc565b90815260408051602092819003830181205462f6e5f560e81b825291516001600160a01b039092169263f6e5f500926004808401938290030181865afa158015610495573d6000803e3d6000fd5b6000806108896108d0565b9050610729818585611ca0565b60008060006108a36108d0565b90506108b08186866120d0565b925050505b92915050565b6000806108c783612819565b91509150915091565b600030330361092657600080368080601f0160208091040260200160405190810160405280939291908181526020018383808284376000920191909152505050503601516001600160a01b031691506109299050565b50335b90565b60ff81166000908152602d6020908152604080832060048101548452602e9092528220805483919061095d90613bf8565b80601f016020809104026020016040519081016040528092919081815260200182805461098990613bf8565b80156109d65780601f106109ab576101008083540402835291602001916109d6565b820191906000526020600020905b8154815290600101906020018083116109b957829003601f168201915b5050505060068401549192505060ff16610a375760405162461bcd60e51b815260206004820181905260248201527f5046204772616465204d657267652066756e6374696f6e206e6f74206f70656e60448201526064015b60405180910390fd5b600080600080600080610a4a8c8b6128bf565b95509550955095509550955088600001604051610a6690613bbc565b90815260405190819003602001812054634625a5a160e11b82526001600160a01b038581166004840152602483018590528781166044840152606483018790521690638c4b4b4290608401600060405180830381600087803b158015610acb57600080fd5b505af1158015610adf573d6000803e3d6000fd5b5050604051636974656d60e01b81528b92506004019050908152602001604051809103902060009054906101000a90046001600160a01b03166001600160a01b031663f5298aca8e8e846040518463ffffffff1660e01b8152600401610b4793929190613d5a565b600060405180830381600087803b158015610b6157600080fd5b505af1158015610b75573d6000803e3d6000fd5b50506040518b9250610b879150613d7b565b908152604051908190036020018120546001600160a01b0316906323b872dd908f908c90610bc590696469737472696275746560b01b8152600a0190565b908152604051908190036020018120546001600160e01b031960e085901b168252610c0192916001600160a01b03909116908b90600401613d8a565b6020604051808303816000875af1158015610c20573d6000803e3d6000fd5b505050506040513d601f19601f82011682018060405250810190610c449190613dbe565b50610c52838387878a612aa0565b6040518990610c6090613bbc565b908152602001604051809103902060009054906101000a90046001600160a01b03166001600160a01b031663562034cc8e8a600401548a8e6040518563ffffffff1660e01b8152600401610cb79493929190613dd9565b600060405180830381600087803b158015610cd157600080fd5b505af1158015610ce5573d6000803e3d6000fd5b505050508b88600401548e6001600160a01b03167f2b5c6da75471a32fa816831df06c6a172203625ece9bf5c72a71f67c6aabff81848a8f8d604051610d2e9493929190613e14565b60405180910390a46001886004016000828254610d4b9190613e46565b909155505050505050505050505050505050565b604080516330b4b2b760e11b815260006004808301829052925160249281900383018120546331a9108f60e11b825293810186905290926001600160a01b0387811693911691636352211e9101602060405180830381865afa158015610dc9573d6000803e3d6000fd5b505050506040513d601f19601f82011682018060405250810190610ded9190613e70565b6001600160a01b031614610e2f5760405162461bcd60e51b81526020600482015260096024820152683737ba1037bbb732b960b91b6044820152606401610a2e565b610e3882612efe565b15610e775760405162461bcd60e51b815260206004820152600f60248201526e191d5c1b1a58d85d19481c19881a59608a1b6044820152606401610a2e565b610e818483612f8d565b1515600114610ed25760405162461bcd60e51b815260206004820152601760248201527f6e6f74206f776e6572206f6620706572667269656e64730000000000000000006044820152606401610a2e565b6000610edd83613088565b905081600001604051610eef90613d7b565b908152604051908190036020018120546001600160a01b0316906323b872dd9087908590610f2d90696469737472696275746560b01b8152600a0190565b90815260405190819003602001902054865160028701546001600160a01b0390921691610f5a9190613e8b565b6040518463ffffffff1660e01b8152600401610f7893929190613d8a565b6020604051808303816000875af1158015610f97573d6000803e3d6000fd5b505050506040513d601f19601f82011682018060405250810190610fbb9190613dbe565b5060005b83518110156111165760405169706572667269656e647360b01b81528390600a019081526040519081900360200190205484516001600160a01b03909116906342966c689086908490811061101657611016613c7a565b60200260200101516040518263ffffffff1660e01b815260040161103c91815260200190565b600060405180830381600087803b15801561105657600080fd5b505af115801561106a573d6000803e3d6000fd5b505060405185925061107c9150613bbc565b9081526040519081900360200190205484516001600160a01b039091169063c2a6a062908690849081106110b2576110b2613c7a565b60200260200101516040518263ffffffff1660e01b81526004016110d891815260200190565b600060405180830381600087803b1580156110f257600080fd5b505af1158015611106573d6000803e3d6000fd5b505060019092019150610fbf9050565b5060008260000160405161112990613bbc565b90815260405190819003602001812054631c4de8d760e01b82526001600160a01b031690631c4de8d79061116590889060040190815260200190565b61012060405180830381865afa158015611183573d6000803e3d6000fd5b505050506040513d601f19601f820116820180604052508101906111a79190613ea2565b9050826000016040516111b990613bbc565b9081526040805160209281900383019020549183015190830151865160038701546001600160a01b039094169363a02db9a0938a9390929091611200919061ffff16613e8b565b866060015161120f9190613e46565b86608001518760a0015160008960e001518b8b61010001516112319190613e46565b6040516001600160e01b031960e08c901b1681526004810199909952602489019790975260448801959095526064870193909352608486019190915260a485015260c484015260e483015261010482015261012401600060405180830381600087803b1580156112a057600080fd5b505af11580156112b4573d6000803e3d6000fd5b5050604051637465616d60e01b815261134d925085915060040190815260405190819003602001902054855160028601546001600160a01b0390921691600a916112fd91613e8b565b6113079190613f33565b604051637465616d60e01b8152869060040190815260405190819003602001902054875160028801546001600160a01b039092169160009161134891613e8b565b612aa0565b826001016001015485876001600160a01b03167f99cb040f26b9f8ab0196325428931da1473bc4b7e3f5477d08e93c1713bc05138588604051611391929190613f47565b60405180910390a4505050505050565b6000806000816000016040516113b690613bbc565b90815260405190819003602001812054631c4de8d760e01b82526001600160a01b031690631c4de8d7906113f290889060040190815260200190565b61012060405180830381865afa158015611410573d6000803e3d6000fd5b505050506040513d601f19601f820116820180604052508101906114349190613ea2565b9050806040015160000361147e5760405162461bcd60e51b81526020600482015260116024820152701b9bdd081c1c995b5a5d5b481b195d995b607a1b6044820152606401610a2e565b816004018160400151600b811061149757611497613c7a565b600302015460ff1615156001146114db5760405162461bcd60e51b81526020600482015260086024820152673737ba1037b832b760c11b6044820152606401610a2e565b600080600080856000016040516114f190613bbc565b908152602001604051809103902060009054906101000a90046001600160a01b03166001600160a01b0316637bcb71a689886004018860400151600b811061153b5761153b613c7a565b60030201600101546040518363ffffffff1660e01b8152600401611569929190918252602082015260400190565b6080604051808303816000875af1158015611588573d6000803e3d6000fd5b505050506040513d601f19601f820116820180604052508101906115ac9190613f97565b604051636974656d60e01b815293975091955093509150869060040190815260405190819003602001812054637a94c56560e11b82526001600160a01b03169063f5298aca90611605908d908c90600190600401613d5a565b600060405180830381600087803b15801561161f57600080fd5b505af1158015611633573d6000803e3d6000fd5b50506040518892506116459150613d7b565b908152604051908190036020018120546001600160a01b0316906323b872dd908c90899061168390696469737472696275746560b01b8152600a0190565b908152602001604051809103902060009054906101000a90046001600160a01b0316896004018960400151600b81106116be576116be613c7a565b60030201600101546040518463ffffffff1660e01b81526004016116e493929190613d8a565b6020604051808303816000875af1158015611703573d6000803e3d6000fd5b505050506040513d601f19601f820116820180604052508101906117279190613dbe565b50611755838286858a6004018a60400151600b811061174857611748613c7a565b6003020160010154612aa0565b60006117608b61317c565b600188015461010088015160a089015192935060009262ffffff909216916117889190613e46565b106117bc57600188015461010088015160a089015162ffffff909216916117af9190613e46565b6117b99190613fda565b90505b818761010001518860a001516117d29190613e46565b106119d457898b8d6001600160a01b03167f2204f6ff22d33db4677f6c4e555d9994ed7df4af0ae306770814a6e91d920c896001808d6004018d60400151600b811061182057611820613c7a565b60030201600101548760001461184657878e61010001516118419190613fda565b61184d565b8d61010001515b60408051948552921515602085015291830152606082015260800160405180910390a4604051889061187e90613bbc565b908152604080519182900360200190912054908801516001600160a01b039091169063eab96581908d906118b3906001613e46565b8b6004018b60400151600b81106118cc576118cc613c7a565b6003020160020160039054906101000a900461ffff1661ffff168b606001516118f59190613e46565b8c6004018c60400151600b811061190e5761190e613c7a565b6003020160020160039054906101000a900461ffff1661ffff168c608001516119379190613e46565b8d6004018d60400151600b811061195057611950613c7a565b600302016002015460405160e087901b6001600160e01b0319168152600481019590955260248501939093526044840191909152606483015262ffffff16608482015260a4810184905260c401600060405180830381600087803b1580156119b757600080fd5b505af11580156119cb573d6000803e3d6000fd5b50505050611c26565b898b8d6001600160a01b03167f2204f6ff22d33db4677f6c4e555d9994ed7df4af0ae306770814a6e91d920c89600160008d6004018d60400151600b8110611a1e57611a1e613c7a565b600302016001015487600014611a4457878e6101000151611a3f9190613fda565b611a4b565b8d61010001515b60408051948552921515602085015291830152606082015260800160405180910390a46000611ae38d8a6004018a60400151600b8110611a8d57611a8d613c7a565b6003020160020160089054906101000a900462ffffff1662ffffff168b6004018b60400151600b8110611ac257611ac2613c7a565b6003020160020160059054906101000a900462ffffff1662ffffff1661321b565b905088600001604051611af590613bbc565b908152602001604051809103902060009054906101000a90046001600160a01b03166001600160a01b031663588e8f858d8b6004018b60400151600b8110611b3f57611b3f613c7a565b6003020160020160039054906101000a900461ffff1661ffff168b60600151611b689190613e46565b8c6004018c60400151600b8110611b8157611b81613c7a565b6003020160020160039054906101000a900461ffff1661ffff168c60800151611baa9190613e46565b858d60a00151611bba9190613e46565b6040516001600160e01b031960e087901b16815260048101949094526024840192909252604483015260648201526084810185905260a401600060405180830381600087803b158015611c0c57600080fd5b505af1158015611c20573d6000803e3d6000fd5b50505050505b6001985050505050505050505b9392505050565b6000808060405161070360f41b81529091508190600201908152604080516020928190038301812054631ea8215d60e21b825291516001600160a01b0390921692637aa08574926004808401938290030181865afa158015610495573d6000803e3d6000fd5b6000808060008060008060328911611d51576040518790611cc090613bbc565b90815260405190819003602001812054637382589360e01b82526001600160a01b031690637382589390611cfc908c9060040190815260200190565b60c060405180830381865afa158015611d19573d6000803e3d6000fd5b505050506040513d601f19601f82011682018060405250810190611d3d9190613fed565b949a50929850909650945092509050611dec565b6040518790611d5f90613bbc565b90815260405190819003602001812054631abe24c560e11b82526001600160a01b03169063357c498a90611d9b908c9060040190815260200190565b60c060405180830381865afa158015611db8573d6000803e3d6000fd5b505050506040513d601f19601f82011682018060405250810190611ddc9190613fed565b949a509298509096509450925090505b808814611df857600080fd5b6040518790611e0690613bbc565b90815260405190819003602001812054634625a5a160e11b82526001600160a01b038581166004840152602483018590528781166044840152606483018790521690638c4b4b4290608401600060405180830381600087803b158015611e6b57600080fd5b505af1158015611e7f573d6000803e3d6000fd5b5050604051636974656d60e01b8152899250600401905090815260405190819003602001812054637a94c56560e11b82526001600160a01b03169063f5298aca90611ed2908d908d908d90600401613d5a565b600060405180830381600087803b158015611eec57600080fd5b505af1158015611f00573d6000803e3d6000fd5b5050604051899250611f129150613d7b565b908152604051908190036020018120546001600160a01b0316906323b872dd908c908a90611f5090696469737472696275746560b01b8152600a0190565b908152604051908190036020018120546001600160e01b031960e085901b168252611f8c92916001600160a01b03909116908b90600401613d8a565b6020604051808303816000875af1158015611fab573d6000803e3d6000fd5b505050506040513d601f19601f82011682018060405250810190611fcf9190613dbe565b50611fdd838387878a612aa0565b60008088600001604051611ff090613bbc565b90815260405190819003602001812054632b2e8efb60e01b82526001600160a01b031690632b2e8efb9061202d908f908f90600090600401613d5a565b6000604051808303816000875af115801561204c573d6000803e3d6000fd5b505050506040513d6000823e601f3d908101601f191682016040526120749190810190614045565b915091508a828d6001600160a01b03167f2b5c6da75471a32fa816831df06c6a172203625ece9bf5c72a71f67c6aabff818d8c6001876040516120ba949392919061408c565b60405180910390a4505050505050505050505050565b604080516330b4b2b760e11b815260006004808301829052925160249281900383018120546331a9108f60e11b8252938101869052909283926001600160a01b0388811693921691636352211e9101602060405180830381865afa15801561213c573d6000803e3d6000fd5b505050506040513d601f19601f820116820180604052508101906121609190613e70565b6001600160a01b0316146121a25760405162461bcd60e51b81526020600482015260096024820152683737ba1037bbb732b960b91b6044820152606401610a2e565b6000816000016040516121b490613bbc565b90815260405190819003602001812054631c4de8d760e01b82526001600160a01b031690631c4de8d7906121f090889060040190815260200190565b61012060405180830381865afa15801561220e573d6000803e3d6000fd5b505050506040513d601f19601f820116820180604052508101906122329190613ea2565b9050816004018160400151600b811061224d5761224d613c7a565b600302015460ff1615156001146122915760405162461bcd60e51b81526020600482015260086024820152673737ba1037b832b760c11b6044820152606401610a2e565b600080600080856000016040516122a790613bbc565b908152602001604051809103902060009054906101000a90046001600160a01b03166001600160a01b0316637bcb71a689886004018860400151600b81106122f1576122f1613c7a565b60030201600101546040518363ffffffff1660e01b815260040161231f929190918252602082015260400190565b6080604051808303816000875af115801561233e573d6000803e3d6000fd5b505050506040513d601f19601f820116820180604052508101906123629190613f97565b604051636974656d60e01b815293975091955093509150869060040190815260405190819003602001812054637a94c56560e11b82526001600160a01b03169063f5298aca906123bb908d908c90600190600401613d5a565b600060405180830381600087803b1580156123d557600080fd5b505af11580156123e9573d6000803e3d6000fd5b50506040518892506123fb9150613d7b565b908152604051908190036020018120546001600160a01b0316906323b872dd908c90899061243990696469737472696275746560b01b8152600a0190565b908152602001604051809103902060009054906101000a90046001600160a01b0316896004018960400151600b811061247457612474613c7a565b60030201600101546040518463ffffffff1660e01b815260040161249a93929190613d8a565b6020604051808303816000875af11580156124b9573d6000803e3d6000fd5b505050506040513d601f19601f820116820180604052508101906124dd9190613dbe565b506124fe838286858a6004018a60400151600b811061174857611748613c7a565b846040015160000361261057604051869061251890613bbc565b908152604080519182900360200182205490870151630e1c1b2b60e01b8352600483018c905260248301526001600160a01b031690630e1c1b2b90604401600060405180830381600087803b15801561257057600080fd5b505af1158015612584573d6000803e3d6000fd5b5050505087898b6001600160a01b03167f9c2d00f9bd857ba01e3db2db9ad693ac6ada7c0d12cf673bddac07e2f52f93cf6001808b6004018b60400151600b81106125d1576125d1613c7a565b60030201600101546040516125f9939291909283529015156020830152604082015260600190565b60405180910390a460019650505050505050611c33565b600061261b8b61317c565b90508560a0015181116126ab57604051879061263690613bbc565b908152604080519182900360200182205490880151630e1c1b2b60e01b8352600483018d905260248301526001600160a01b031690630e1c1b2b90604401600060405180830381600087803b15801561268e57600080fd5b505af11580156126a2573d6000803e3d6000fd5b50505050612788565b60006126ff8c896004018960400151600b81106126ca576126ca613c7a565b6003020160020160089054906101000a900462ffffff1662ffffff168a6004018a60400151600b8110611ac257611ac2613c7a565b90508760000160405161271190613bbc565b9081526040519081900360200181205463a76373c160e01b82526001600160a01b03169063a76373c190612754908e908590600401918252602082015260400190565b600060405180830381600087803b15801561276e57600080fd5b505af1158015612782573d6000803e3d6000fd5b50505050505b888a8c6001600160a01b03167f9c2d00f9bd857ba01e3db2db9ad693ac6ada7c0d12cf673bddac07e2f52f93cf60018a60a001518611158c6004018c60400151600b81106127d8576127d8613c7a565b6003020160010154604051612800939291909283529015156020830152604082015260600190565b60405180910390a45060019a9950505050505050505050565b600080806000808260000160405161283090613bbc565b90815260405190819003602001812054637382589360e01b82526001600160a01b03169063738258939061286c90899060040190815260200190565b60c060405180830381865afa158015612889573d6000803e3d6000fd5b505050506040513d601f19601f820116820180604052508101906128ad9190613fed565b949b949a509398505050505050505050565b604080518082018252602f5481526030546020820152905160009182918291829182918291829190829081906128f490613bbc565b9081526040519081900360200181205463295d6f7360e21b82526001600160a01b03169063a575bdcc90612930908e9060040190815260200190565b61016060405180830381865afa15801561294e573d6000803e3d6000fd5b505050506040513d601f19601f8201168201806040525081019061297291906140b1565b60ff8b166000908152602d8501602090815260408220908501516002820154939450909282918291620186a0916129a891613e8b565b6129b29190613f33565b90506000620186a0876000015186600201546129ce9190613e8b565b6129d89190613f33565b6101208701519091506001600160a01b0316156129fd57856101200151935083612a2c565b604051637465616d60e01b81528890600401908152604051908190036020019020546001600160a01b03169350835b5060408601516001600160a01b031615612a4a578560400151612a76565b604051637465616d60e01b81528890600401908152604051908190036020019020546001600160a01b03165b6002860154600390960154959e509c50909a50919850909650909450505050509295509295509295565b600080806000806000612ab2876132a7565b94509450945094509450600086600001604051612ace90613d7b565b9081526040519081900360200181205463a9059cbb60e01b82526001600160a01b038e81166004840152602483018e9052169150819063a9059cbb906044016020604051808303816000875af1158015612b2c573d6000803e3d6000fd5b505050506040513d601f19601f82011682018060405250810190612b509190613dbe565b5060405163a9059cbb60e01b81526001600160a01b038b81166004830152602482018b905282169063a9059cbb906044016020604051808303816000875af1158015612ba0573d6000803e3d6000fd5b505050506040513d601f19601f82011682018060405250810190612bc49190613dbe565b5060405161703160f01b81526001600160a01b0382169063a9059cbb908990600201908152604051908190036020018120546001600160e01b031960e084901b1682526001600160a01b03166004820152602481018990526044016020604051808303816000875af1158015612c3e573d6000803e3d6000fd5b505050506040513d601f19601f82011682018060405250810190612c629190613dbe565b5060405168703262616c616e636560b81b81526001600160a01b0382169063a9059cbb908990600901908152604051908190036020019020546001600160a01b0316612cae8789613e46565b6040516001600160e01b031960e085901b1681526001600160a01b03909216600483015260248201526044016020604051808303816000875af1158015612cf9573d6000803e3d6000fd5b505050506040513d601f19601f82011682018060405250810190612d1d9190613dbe565b5060405163313ab93760e11b81526001600160a01b0382169063a9059cbb908990600401908152604051908190036020018120546001600160e01b031960e084901b1682526001600160a01b03166004820152602481018690526044016020604051808303816000875af1158015612d99573d6000803e3d6000fd5b505050506040513d601f19601f82011682018060405250810190612dbd9190613dbe565b50604051637465616d60e01b81526001600160a01b0382169063a9059cbb908990600401908152604051908190036020018120546001600160e01b031960e084901b1682526001600160a01b03166004820152602481018590526044016020604051808303816000875af1158015612e39573d6000803e3d6000fd5b505050506040513d601f19601f82011682018060405250810190612e5d9190613dbe565b50612e698560006133ab565b612e72846133ea565b60405161703160f01b81528790600201908152604051908190036020018120546345e17d1d60e11b82526001600160a01b031690638bc2fa3a90612ebe90899060040190815260200190565b600060405180830381600087803b158015612ed857600080fd5b505af1158015612eec573d6000803e3d6000fd5b50505050505050505050505050505050565b6000805b60018351612f109190613fda565b811015612f84576000612f24826001613e46565b90505b8351811015612f7b57838181518110612f4257612f42613c7a565b6020026020010151848381518110612f5c57612f5c613c7a565b602002602001015103612f73575060019392505050565b600101612f27565b50600101612f02565b50600092915050565b60008060005b835181101561307d5760405169706572667269656e647360b01b81526001600160a01b038616908390600a019081526040519081900360200190205485516001600160a01b0390911690636352211e90879085908110612ff557612ff5613c7a565b60200260200101516040518263ffffffff1660e01b815260040161301b91815260200190565b602060405180830381865afa158015613038573d6000803e3d6000fd5b505050506040513d601f19601f8201168201806040525081019061305c9190613e70565b6001600160a01b031614613075576000925050506108b5565b600101612f93565b506001949350505050565b6000806000805b84518110156106e357826025016000846000016040516130ae90613bbc565b9081526040519081900360200190205487516001600160a01b03909116906342ab8805908990869081106130e4576130e4613c7a565b60200260200101516040518263ffffffff1660e01b815260040161310a91815260200190565b608060405180830381865afa158015613127573d6000803e3d6000fd5b505050506040513d601f19601f8201168201806040525081019061314b9190614156565b6020908101518252810191909152604001600020600101546131729062ffffff1683613e46565b915060010161308f565b60008060004284416040516020016131bd93929190928352606091821b6bffffffffffffffffffffffff199081166020850152911b16603482015260480190565b60408051601f19818403018152919052805160209091012060018301549091506131ee9060009062ffffff166141c3565b6131f99060016141e6565b6132089062ffffff1682614202565b613213906000613e46565b949350505050565b60008042854160405160200161325a93929190928352606091821b6bffffffffffffffffffffffff199081166020850152911b16603482015260480190565b60405160208183030381529060405280519060200120905082838561327f9190613fda565b61328a906001613e46565b6132949083614202565b61329e9190613e46565b95945050505050565b600080808080808060298101549091506000906064906132cc9062ffffff168a613e8b565b6132d69190613f33565b60298301549091506000906064906132fa906301000000900462ffffff168b613e8b565b6133049190613f33565b602984015490915060009060649061332b906601000000000000900462ffffff168c613e8b565b6133359190613f33565b602985015490915060009060649061335f906901000000000000000000900462ffffff168d613e8b565b6133699190613f33565b602986015490915060009060649061338d90600160601b900462ffffff168e613e8b565b6133979190613f33565b949c939b5091995097509195509350505050565b6000828160320160008282546133c19190613e46565b92505081905550818160330160008282546133dc9190613e46565b909155506107299050613413565b6000818160330160008282546134009190613e46565b9091555061340e9050613413565b505050565b603154600090819060ff1661345e5760405162461bcd60e51b8152602060048201526011602482015270140c8e88140c881a5cc81cdd1bdc1c1959607a1b6044820152606401610a2e565b60004381603501540361347357439250505090565b806038015481603501546134879190613e46565b43111561383b576000805b826038015483603501546134a69190613e46565b4311156138385782603801548360350160008282546134c59190613e46565b925050819055506000806134e6856032015486603301548760340154613843565b909250905060015b600b8160ff1610156137fb5760ff80821660009081526043880160205260409020601301541661365e5760ff8116600090815260438701602052604081208181556001810191909155600a0154603987015461354a9085613f33565b6135549190613e8b565b60ff821660009081526043880160205260408120600201805490919061357b908490613e46565b909155505060ff811660009081526043870160205260409020600b015460398701546135a79084613f33565b6135b19190613e8b565b60ff82166000908152604388016020526040812060030180549091906135d8908490613e46565b909155505060ff811660009081526043870160205260409020600a015460398701546136049085613f33565b61360e9190613e8b565b6136189086613e46565b60ff821660009081526043880160205260409020600b01546039880154919650906136439084613f33565b61364d9190613e8b565b6136579085613e46565b93506137f3565b60ff81166000908152604387016020526040812060028101546003820154600d90920154839261368e9291613843565b60ff8516600090815260438b0160205260409020600a015460398b015492945090925083916136bd9088613f33565b6136c79190613e8b565b6136d19190613e46565b60ff8416600090815260438a0160205260409020908155600b015460398901548291906136fe9087613f33565b6137089190613e8b565b6137129190613e46565b60ff8416600090815260438a0160205260408120600181019290925560029091018054849290613743908490613fda565b909155505060ff831660009081526043890160205260408120600301805483929061376f908490613fda565b909155505060ff831660009081526043890160205260409020600a0154603989015461379b9087613f33565b6137a59190613e8b565b6137af9088613e46565b60ff8416600090815260438a0160205260409020600b015460398a0154919850906137da9086613f33565b6137e49190613e8b565b6137ee9087613e46565b955050505b6001016134ee565b50838560320160008282546138109190613fda565b925050819055508285603301600082825461382b9190613fda565b9091555061349292505050565b50505b439250505090565b60008080620186a06138558588613e8b565b61385f9190613f33565b90506000620186a06138718688613e8b565b61387b9190613f33565b919791965090945050505050565b803560ff8116811461389a57600080fd5b919050565b6000602082840312156138b157600080fd5b611c3382613889565b60005b838110156138d55781810151838201526020016138bd565b50506000910152565b600081518084526138f68160208601602086016138ba565b601f01601f19169290920160200192915050565b60ff81511682526000602082015160e0602085015261392c60e08501826138de565b905060408301516040850152606083015160608501526080830151608085015260a083015160a085015260c0830151151560c08501528091505092915050565b602081526000611c33602083018461390a565b600060208083016020845280855180835260408601915060408160051b87010192506020870160005b828110156139d657603f198886030184526139c485835161390a565b945092850192908501906001016139a8565b5092979650505050505050565b6000602082840312156139f557600080fd5b5035919050565b600080600060608486031215613a1157600080fd5b8335925060208401359150613a2860408501613889565b90509250925092565b634e487b7160e01b600052604160045260246000fd5b604051610120810167ffffffffffffffff81118282101715613a6b57613a6b613a31565b60405290565b604051610160810167ffffffffffffffff81118282101715613a6b57613a6b613a31565b604051601f8201601f1916810167ffffffffffffffff81118282101715613abe57613abe613a31565b604052919050565b60008060408385031215613ad957600080fd5b8235915060208084013567ffffffffffffffff80821115613af957600080fd5b818601915086601f830112613b0d57600080fd5b813581811115613b1f57613b1f613a31565b8060051b9150613b30848301613a95565b8181529183018401918481019089841115613b4a57600080fd5b938501935b83851015613b6857843582529385019390850190613b4f565b8096505050505050509250929050565b60008060408385031215613b8b57600080fd5b50508035926020909101359150565b604081526000613bad60408301856138de565b90508260208301529392505050565b61323160f11b815260020190565b600080600060608486031215613bdf57600080fd5b8351925060208401519150604084015190509250925092565b600181811c90821680613c0c57607f821691505b602082108103613c2c57634e487b7160e01b600052602260045260246000fd5b50919050565b600060208284031215613c4457600080fd5b5051919050565b634e487b7160e01b600052601160045260246000fd5b60ff82811682821603908111156108b5576108b5613c4b565b634e487b7160e01b600052603260045260246000fd5b600060ff821660ff8103613ca657613ca6613c4b565b60010192915050565b600082601f830112613cc057600080fd5b815167ffffffffffffffff811115613cda57613cda613a31565b613ced601f8201601f1916602001613a95565b818152846020838601011115613d0257600080fd5b6132138260208301602087016138ba565b60008060408385031215613d2657600080fd5b825167ffffffffffffffff811115613d3d57600080fd5b613d4985828601613caf565b925050602083015190509250929050565b6001600160a01b039390931683526020830191909152604082015260600190565b623832b960e91b815260030190565b6001600160a01b039384168152919092166020820152604081019190915260600190565b8051801515811461389a57600080fd5b600060208284031215613dd057600080fd5b611c3382613dae565b60018060a01b0385168152836020820152608060408201526000613e0060808301856138de565b905060ff8316606083015295945050505050565b84815283602082015260ff83166040820152608060608201526000613e3c60808301846138de565b9695505050505050565b808201808211156108b5576108b5613c4b565b80516001600160a01b038116811461389a57600080fd5b600060208284031215613e8257600080fd5b611c3382613e59565b80820281158282048414176108b5576108b5613c4b565b60006101208284031215613eb557600080fd5b613ebd613a47565b825181526020830151602082015260408301516040820152606083015160608201526080830151608082015260a083015160a082015260c083015160c082015260e083015160e08201526101008084015181830152508091505092915050565b634e487b7160e01b600052601260045260246000fd5b600082613f4257613f42613f1d565b500490565b60006040820184835260206040602085015281855180845260608601915060208701935060005b81811015613f8a57845183529383019391830191600101613f6e565b5090979650505050505050565b60008060008060808587031215613fad57600080fd5b613fb685613e59565b9350613fc460208601613e59565b6040860151606090960151949790965092505050565b818103818111156108b5576108b5613c4b565b60008060008060008060c0878903121561400657600080fd5b8651955061401660208801613e59565b94506040870151935061402b60608801613e59565b92506080870151915060a087015190509295509295509295565b6000806040838503121561405857600080fd5b82519150602083015167ffffffffffffffff81111561407657600080fd5b61408285828601613caf565b9150509250929050565b848152836020820152826040820152608060608201526000613e3c60808301846138de565b600061016082840312156140c457600080fd5b6140cc613a71565b82518152602083015160208201526140e660408401613e59565b60408201526060830151606082015261410160808401613dae565b608082015260a083015160a082015260c083015160c082015260e083015160e082015261010080840151818301525061012061413e818501613e59565b90820152610140928301519281019290925250919050565b60006080828403121561416857600080fd5b6040516080810181811067ffffffffffffffff8211171561418b5761418b613a31565b806040525082518152602083015160208201526141aa60408401613dae565b6040820152606083015160608201528091505092915050565b62ffffff8281168282160390808211156141df576141df613c4b565b5092915050565b62ffffff8181168382160190808211156141df576141df613c4b565b60008261421157614211613f1d565b50069056fea2646970667358221220ddc686434e98b39b726c8b8f21dc2c2cd879eeda001bd0bf57e57bc3c9b0025a64736f6c63430008160033",
  "devdoc": {
    "details": "i-TEZ : P0 (Mix) Facet Contract",
    "kind": "dev",
    "methods": {},
    "version": 1
  },
  "userdoc": {
    "kind": "user",
    "methods": {
      "P0_getMaxProb()": {
        "notice": "P0 _ get functions"
      }
    },
    "version": 1
  },
  "storageLayout": {
    "storage": [],
    "types": null
  }
}