{
  "address": "0xD8253000e9CF227bfe1b74f374fd4118a3D9D20e",
  "abi": [
    {
      "anonymous": false,
      "inputs": [
        {
          "indexed": true,
          "internalType": "address",
          "name": "to",
          "type": "address"
        },
        {
          "indexed": true,
          "internalType": "uint256",
          "name": "aienId",
          "type": "uint256"
        },
        {
          "indexed": true,
          "internalType": "uint256",
          "name": "payment",
          "type": "uint256"
        },
        {
          "indexed": false,
          "internalType": "uint256",
          "name": "addProb",
          "type": "uint256"
        },
        {
          "indexed": false,
          "internalType": "uint256[]",
          "name": "perfs",
          "type": "uint256[]"
        }
      ],
      "name": "P0_AddProb_Event",
      "type": "event"
    },
    {
      "anonymous": false,
      "inputs": [
        {
          "indexed": true,
          "internalType": "address",
          "name": "to",
          "type": "address"
        },
        {
          "indexed": true,
          "internalType": "uint256",
          "name": "aienId",
          "type": "uint256"
        },
        {
          "indexed": true,
          "internalType": "uint256",
          "name": "itemId",
          "type": "uint256"
        },
        {
          "indexed": false,
          "internalType": "uint256",
          "name": "itemAmount",
          "type": "uint256"
        },
        {
          "indexed": false,
          "internalType": "bool",
          "name": "isLevelUp",
          "type": "bool"
        },
        {
          "indexed": false,
          "internalType": "uint256",
          "name": "payment",
          "type": "uint256"
        }
      ],
      "name": "P0_BaseMix_Event",
      "type": "event"
    },
    {
      "anonymous": false,
      "inputs": [
        {
          "indexed": true,
          "internalType": "address",
          "name": "to",
          "type": "address"
        },
        {
          "indexed": true,
          "internalType": "uint256",
          "name": "perfId",
          "type": "uint256"
        },
        {
          "indexed": true,
          "internalType": "uint256",
          "name": "itemId",
          "type": "uint256"
        },
        {
          "indexed": false,
          "internalType": "uint256",
          "name": "itemAmount",
          "type": "uint256"
        },
        {
          "indexed": false,
          "internalType": "uint256",
          "name": "payment",
          "type": "uint256"
        },
        {
          "indexed": false,
          "internalType": "uint256",
          "name": "perfGrade",
          "type": "uint256"
        },
        {
          "indexed": false,
          "internalType": "bytes",
          "name": "perfURI",
          "type": "bytes"
        }
      ],
      "name": "P0_ItemMerge_Event",
      "type": "event"
    },
    {
      "anonymous": false,
      "inputs": [
        {
          "indexed": true,
          "internalType": "address",
          "name": "to",
          "type": "address"
        },
        {
          "indexed": true,
          "internalType": "uint256",
          "name": "aienId",
          "type": "uint256"
        },
        {
          "indexed": true,
          "internalType": "uint256",
          "name": "itemId",
          "type": "uint256"
        },
        {
          "indexed": false,
          "internalType": "uint256",
          "name": "itemAmount",
          "type": "uint256"
        },
        {
          "indexed": false,
          "internalType": "bool",
          "name": "isLevelUp",
          "type": "bool"
        },
        {
          "indexed": false,
          "internalType": "uint256",
          "name": "payment",
          "type": "uint256"
        },
        {
          "indexed": false,
          "internalType": "uint256",
          "name": "usePower",
          "type": "uint256"
        }
      ],
      "name": "P0_PremiumMix_Event",
      "type": "event"
    },
    {
      "inputs": [
        {
          "internalType": "uint256",
          "name": "_aienId",
          "type": "uint256"
        },
        {
          "internalType": "uint256[]",
          "name": "_pf_Ids",
          "type": "uint256[]"
        }
      ],
      "name": "P0_addProbCall",
      "outputs": [
        {
          "internalType": "bool",
          "name": "",
          "type": "bool"
        }
      ],
      "stateMutability": "nonpayable",
      "type": "function"
    },
    {
      "inputs": [
        {
          "internalType": "uint256",
          "name": "_id",
          "type": "uint256"
        },
        {
          "internalType": "uint256",
          "name": "_useItemId",
          "type": "uint256"
        }
      ],
      "name": "P0_baseMixCall",
      "outputs": [
        {
          "internalType": "bool",
          "name": "",
          "type": "bool"
        }
      ],
      "stateMutability": "nonpayable",
      "type": "function"
    },
    {
      "inputs": [],
      "name": "P0_basicMergeAmount",
      "outputs": [
        {
          "internalType": "uint256",
          "name": "",
          "type": "uint256"
        }
      ],
      "stateMutability": "view",
      "type": "function"
    },
    {
      "inputs": [],
      "name": "P0_getAddProbFee",
      "outputs": [
        {
          "internalType": "uint256",
          "name": "",
          "type": "uint256"
        }
      ],
      "stateMutability": "view",
      "type": "function"
    },
    {
      "inputs": [],
      "name": "P0_getMaxProb",
      "outputs": [
        {
          "internalType": "uint256",
          "name": "",
          "type": "uint256"
        }
      ],
      "stateMutability": "view",
      "type": "function"
    },
    {
      "inputs": [
        {
          "internalType": "uint256",
          "name": "_itemId",
          "type": "uint256"
        }
      ],
      "name": "P0_getMergeState",
      "outputs": [
        {
          "internalType": "uint256",
          "name": "",
          "type": "uint256"
        },
        {
          "internalType": "uint256",
          "name": "",
          "type": "uint256"
        }
      ],
      "stateMutability": "view",
      "type": "function"
    },
    {
      "inputs": [
        {
          "internalType": "uint8",
          "name": "_grade",
          "type": "uint8"
        }
      ],
      "name": "P0_getMergeStates",
      "outputs": [
        {
          "components": [
            {
              "internalType": "uint8",
              "name": "grade",
              "type": "uint8"
            },
            {
              "internalType": "string",
              "name": "gradeName",
              "type": "string"
            },
            {
              "internalType": "uint256",
              "name": "mergeFee",
              "type": "uint256"
            },
            {
              "internalType": "uint256",
              "name": "mergeUseItemAmount",
              "type": "uint256"
            },
            {
              "internalType": "uint256",
              "name": "latestId",
              "type": "uint256"
            },
            {
              "internalType": "uint256",
              "name": "setMatadataId",
              "type": "uint256"
            },
            {
              "internalType": "bool",
              "name": "isOpen",
              "type": "bool"
            }
          ],
          "internalType": "struct P0_MergePfGrade",
          "name": "",
          "type": "tuple"
        }
      ],
      "stateMutability": "view",
      "type": "function"
    },
    {
      "inputs": [],
      "name": "P0_getMetadataMargin",
      "outputs": [
        {
          "internalType": "uint256",
          "name": "",
          "type": "uint256"
        },
        {
          "internalType": "uint256",
          "name": "",
          "type": "uint256"
        },
        {
          "internalType": "uint256",
          "name": "",
          "type": "uint256"
        }
      ],
      "stateMutability": "view",
      "type": "function"
    },
    {
      "inputs": [],
      "name": "P0_influencerMergeAmount",
      "outputs": [
        {
          "internalType": "uint256",
          "name": "",
          "type": "uint256"
        }
      ],
      "stateMutability": "view",
      "type": "function"
    },
    {
      "inputs": [
        {
          "internalType": "uint256",
          "name": "_itemId",
          "type": "uint256"
        },
        {
          "internalType": "uint256",
          "name": "_itemAmount",
          "type": "uint256"
        }
      ],
      "name": "P0_itemMerge",
      "outputs": [],
      "stateMutability": "nonpayable",
      "type": "function"
    },
    {
      "inputs": [
        {
          "internalType": "uint256",
          "name": "_level",
          "type": "uint256"
        }
      ],
      "name": "P0_mixPFInfos",
      "outputs": [
        {
          "internalType": "string",
          "name": "",
          "type": "string"
        },
        {
          "internalType": "uint256",
          "name": "",
          "type": "uint256"
        }
      ],
      "stateMutability": "view",
      "type": "function"
    },
    {
      "inputs": [
        {
          "internalType": "uint256",
          "name": "_id",
          "type": "uint256"
        },
        {
          "internalType": "uint256",
          "name": "_useItemId",
          "type": "uint256"
        }
      ],
      "name": "P0_premiumMixCall",
      "outputs": [
        {
          "internalType": "bool",
          "name": "",
          "type": "bool"
        }
      ],
      "stateMutability": "nonpayable",
      "type": "function"
    }
  ],
  "transactionHash": "0x67bc7d64d4dfbce4d2c7d13cc8295ccbe34f722c9869a1038dc204560a5bfb02",
  "args": [],
  "numDeployments": 7,
  "solcInputHash": "83c48f9e98596308d956b145de5a12ae",
  "bytecode": "0x608060405234801561001057600080fd5b50614f02806100206000396000f3fe608060405234801561001057600080fd5b50600436106100b45760003560e01c8063d2236a5411610071578063d2236a54146101b8578063d229a392146101d6578063ddb2bedf146101f4578063e488a83a14610210578063f3ebac5714610240578063f6afa8471461025e576100b4565b80630b0e517a146100b95780632b2dc69e146100d95780633576742f146101095780636d1d105e146101275780637174e25814610157578063ce47adfa14610187575b600080fd5b6100c161028f565b6040516100d0939291906134d3565b60405180910390f35b6100f360048036038101906100ee9190613557565b610358565b60405161010091906136e9565b60405180910390f35b61011161048c565b60405161011e919061370b565b60405180910390f35b610141600480360381019061013c919061389a565b61054c565b60405161014e9190613905565b60405180910390f35b610171600480360381019061016c9190613920565b610578565b60405161017e9190613905565b60405180910390f35b6101a1600480360381019061019c9190613960565b6105a5565b6040516101af9291906139d7565b60405180910390f35b6101c061067b565b6040516101cd919061370b565b60405180910390f35b6101de61068a565b6040516101eb919061370b565b60405180910390f35b61020e60048036038101906102099190613920565b61074a565b005b61022a60048036038101906102259190613920565b610773565b6040516102379190613905565b60405180910390f35b6102486107a1565b604051610255919061370b565b60405180910390f35b61027860048036038101906102739190613960565b6107d0565b604051610286929190613a07565b60405180910390f35b60008060008061029d6107e5565b9050806000016040516102af90613a87565b908152602001604051809103902060009054906101000a900473ffffffffffffffffffffffffffffffffffffffff1673ffffffffffffffffffffffffffffffffffffffff1663f9db98966040518163ffffffff1660e01b8152600401606060405180830381865afa158015610328573d6000803e3d6000fd5b505050506040513d601f19601f8201168201806040525081019061034c9190613ab1565b93509350935050909192565b610360613478565b600061036a6107e5565b905080602d0160008460ff1660ff1681526020019081526020016000206040518060e00160405290816000820160009054906101000a900460ff1660ff1660ff1681526020016001820180546103bf90613b33565b80601f01602080910402602001604051908101604052809291908181526020018280546103eb90613b33565b80156104385780601f1061040d57610100808354040283529160200191610438565b820191906000526020600020905b81548152906001019060200180831161041b57829003601f168201915b50505050508152602001600282015481526020016003820154815260200160048201548152602001600582015481526020016006820160009054906101000a900460ff161515151581525050915050919050565b6000806104976107e5565b9050806000016040516104a990613a87565b908152602001604051809103902060009054906101000a900473ffffffffffffffffffffffffffffffffffffffff1673ffffffffffffffffffffffffffffffffffffffff1663340c2acd6040518163ffffffff1660e01b8152600401602060405180830381865afa158015610522573d6000803e3d6000fd5b505050506040513d601f19601f820116820180604052508101906105469190613b64565b91505090565b6000806105576107e5565b905060006105636107ea565b905061057081868661089a565b505092915050565b6000806105836107e5565b9050600061058f6107ea565b905061059c818686611013565b50505092915050565b60606000806105b26107e5565b9050806000016040516105c490613bdd565b908152602001604051809103902060009054906101000a900473ffffffffffffffffffffffffffffffffffffffff1673ffffffffffffffffffffffffffffffffffffffff166316dba26f856040518263ffffffff1660e01b815260040161062b919061370b565b600060405180830381865afa158015610648573d6000803e3d6000fd5b505050506040513d6000823e3d601f19601f820116820180604052508101906106719190613c98565b9250925050915091565b60006106856119a3565b905090565b6000806106956107e5565b9050806000016040516106a790613a87565b908152602001604051809103902060009054906101000a900473ffffffffffffffffffffffffffffffffffffffff1673ffffffffffffffffffffffffffffffffffffffff1663f6e5f5006040518163ffffffff1660e01b8152600401602060405180830381865afa158015610720573d6000803e3d6000fd5b505050506040513d601f19601f820116820180604052508101906107449190613b64565b91505090565b60006107546107e5565b905060006107606107ea565b905061076d818585611a63565b50505050565b60008061077e6107e5565b9050600061078a6107ea565b9050610797818686611fc8565b9250505092915050565b6000806107ac6107e5565b90508060010160000160009054906101000a900462ffffff1662ffffff1691505090565b6000806107dc836128d3565b91509150915091565b600090565b60003073ffffffffffffffffffffffffffffffffffffffff163373ffffffffffffffffffffffffffffffffffffffff160361089357600080368080601f016020809104026020016040519081016040528093929190818152602001838380828437600081840152601f19601f820116905080830192505050505050509050600080369050905073ffffffffffffffffffffffffffffffffffffffff818301511692505050610897565b3390505b90565b60006108a46107e5565b90508373ffffffffffffffffffffffffffffffffffffffff16816000016040516108cd90613d40565b908152602001604051809103902060009054906101000a900473ffffffffffffffffffffffffffffffffffffffff1673ffffffffffffffffffffffffffffffffffffffff16636352211e856040518263ffffffff1660e01b8152600401610934919061370b565b602060405180830381865afa158015610951573d6000803e3d6000fd5b505050506040513d601f19601f820116820180604052508101906109759190613db3565b73ffffffffffffffffffffffffffffffffffffffff16146109cb576040517f08c379a00000000000000000000000000000000000000000000000000000000081526004016109c290613e2c565b60405180910390fd5b600015156109d8836129b3565b151514610a1a576040517f08c379a0000000000000000000000000000000000000000000000000000000008152600401610a1190613e98565b60405180910390fd5b60011515610a288584612a57565b151514610a6a576040517f08c379a0000000000000000000000000000000000000000000000000000000008152600401610a6190613f04565b60405180910390fd5b6000610a7583612b99565b905081600001604051610a8790613f70565b908152602001604051809103902060009054906101000a900473ffffffffffffffffffffffffffffffffffffffff1673ffffffffffffffffffffffffffffffffffffffff166323b872dd8684600001604051610ae290613fd1565b908152602001604051809103902060009054906101000a900473ffffffffffffffffffffffffffffffffffffffff1686518660010160010154610b259190614015565b6040518463ffffffff1660e01b8152600401610b4393929190614066565b6020604051808303816000875af1158015610b62573d6000803e3d6000fd5b505050506040513d601f19601f82011682018060405250810190610b8691906140c9565b5060005b8351811015610d265782600001604051610ba390614142565b908152602001604051809103902060009054906101000a900473ffffffffffffffffffffffffffffffffffffffff1673ffffffffffffffffffffffffffffffffffffffff166342966c68858381518110610c0057610bff614157565b5b60200260200101516040518263ffffffff1660e01b8152600401610c24919061370b565b600060405180830381600087803b158015610c3e57600080fd5b505af1158015610c52573d6000803e3d6000fd5b5050505082600001604051610c6690613a87565b908152602001604051809103902060009054906101000a900473ffffffffffffffffffffffffffffffffffffffff1673ffffffffffffffffffffffffffffffffffffffff1663c2a6a062858381518110610cc357610cc2614157565b5b60200260200101516040518263ffffffff1660e01b8152600401610ce7919061370b565b600060405180830381600087803b158015610d0157600080fd5b505af1158015610d15573d6000803e3d6000fd5b505050508080600101915050610b8a565b50600082600001604051610d3990613a87565b908152602001604051809103902060009054906101000a900473ffffffffffffffffffffffffffffffffffffffff1673ffffffffffffffffffffffffffffffffffffffff16631c4de8d7866040518263ffffffff1660e01b8152600401610da0919061370b565b61012060405180830381865afa158015610dbe573d6000803e3d6000fd5b505050506040513d601f19601f82011682018060405250810190610de2919061426b565b905082600001604051610df490613a87565b908152602001604051809103902060009054906101000a900473ffffffffffffffffffffffffffffffffffffffff1673ffffffffffffffffffffffffffffffffffffffff1663a02db9a0868360200151846040015188518860010160020160009054906101000a900461ffff1661ffff16610e6f9190614015565b8660600151610e7e9190614299565b86608001518760a0015160008960e001518b8b6101000151610ea09190614299565b6040518a63ffffffff1660e01b8152600401610ec499989796959493929190614312565b600060405180830381600087803b158015610ede57600080fd5b505af1158015610ef2573d6000803e3d6000fd5b50505050610fb283600001604051610f09906143eb565b908152602001604051809103902060009054906101000a900473ffffffffffffffffffffffffffffffffffffffff16600a86518660010160010154610f4e9190614015565b610f58919061442f565b85600001604051610f68906143eb565b908152602001604051809103902060009054906101000a900473ffffffffffffffffffffffffffffffffffffffff16600088518860010160010154610fad9190614015565b612cda565b8260010160010154858773ffffffffffffffffffffffffffffffffffffffff167f99cb040f26b9f8ab0196325428931da1473bc4b7e3f5477d08e93c1713bc0513858860405161100392919061450f565b60405180910390a4505050505050565b60008061101e6107e5565b905060008160000160405161103290613a87565b908152602001604051809103902060009054906101000a900473ffffffffffffffffffffffffffffffffffffffff1673ffffffffffffffffffffffffffffffffffffffff16631c4de8d7866040518263ffffffff1660e01b8152600401611099919061370b565b61012060405180830381865afa1580156110b7573d6000803e3d6000fd5b505050506040513d601f19601f820116820180604052508101906110db919061426b565b90506000816040015103611124576040517f08c379a000000000000000000000000000000000000000000000000000000000815260040161111b9061458b565b60405180910390fd5b60011515826004018260400151600b811061114257611141614157565b5b6003020160000160009054906101000a900460ff16151514611199576040517f08c379a0000000000000000000000000000000000000000000000000000000008152600401611190906145f7565b60405180910390fd5b600080600080856000016040516111af90613a87565b908152602001604051809103902060009054906101000a900473ffffffffffffffffffffffffffffffffffffffff1673ffffffffffffffffffffffffffffffffffffffff16637bcb71a689886004018860400151600b811061121457611213614157565b5b60030201600101546040518363ffffffff1660e01b8152600401611239929190613a07565b6080604051808303816000875af1158015611258573d6000803e3d6000fd5b505050506040513d601f19601f8201168201806040525081019061127c9190614617565b935093509350935085600001604051611294906146ca565b908152602001604051809103902060009054906101000a900473ffffffffffffffffffffffffffffffffffffffff1673ffffffffffffffffffffffffffffffffffffffff1663f5298aca8b8a60016040518463ffffffff1660e01b81526004016113009392919061471a565b600060405180830381600087803b15801561131a57600080fd5b505af115801561132e573d6000803e3d6000fd5b505050508560000160405161134290613f70565b908152602001604051809103902060009054906101000a900473ffffffffffffffffffffffffffffffffffffffff1673ffffffffffffffffffffffffffffffffffffffff166323b872dd8b8860000160405161139d90613fd1565b908152602001604051809103902060009054906101000a900473ffffffffffffffffffffffffffffffffffffffff16896004018960400151600b81106113e6576113e5614157565b5b60030201600101546040518463ffffffff1660e01b815260040161140c93929190614066565b6020604051808303816000875af115801561142b573d6000803e3d6000fd5b505050506040513d601f19601f8201168201806040525081019061144f91906140c9565b5061147e838286858a6004018a60400151600b811061147157611470614157565b5b6003020160010154612cda565b60006114898b613236565b905060008760010160000160009054906101000a900462ffffff1662ffffff168761010001518860a001516114be9190614299565b10611501578760010160000160009054906101000a900462ffffff1662ffffff168761010001518860a001516114f49190614299565b6114fe9190614751565b90505b818761010001518860a001516115179190614299565b1061173457898b8d73ffffffffffffffffffffffffffffffffffffffff167f2204f6ff22d33db4677f6c4e555d9994ed7df4af0ae306770814a6e91d920c896001808d6004018d60400151600b811061157357611572614157565b5b60030201600101546000881461159957878e61010001516115949190614751565b6115a0565b8d61010001515b6040516115b09493929190614785565b60405180910390a4876000016040516115c890613a87565b908152602001604051809103902060009054906101000a900473ffffffffffffffffffffffffffffffffffffffff1673ffffffffffffffffffffffffffffffffffffffff1663eab965818c60018a604001516116249190614299565b8b6004018b60400151600b811061163e5761163d614157565b5b6003020160020160039054906101000a900461ffff1661ffff168b606001516116679190614299565b8c6004018c60400151600b811061168157611680614157565b5b6003020160020160039054906101000a900461ffff1661ffff168c608001516116aa9190614299565b8d6004018d60400151600b81106116c4576116c3614157565b5b6003020160020160009054906101000a900462ffffff16876040518763ffffffff1660e01b81526004016116fd9695949392919061480a565b600060405180830381600087803b15801561171757600080fd5b505af115801561172b573d6000803e3d6000fd5b50505050611990565b898b8d73ffffffffffffffffffffffffffffffffffffffff167f2204f6ff22d33db4677f6c4e555d9994ed7df4af0ae306770814a6e91d920c89600160008d6004018d60400151600b811061178c5761178b614157565b5b6003020160010154600088146117b257878e61010001516117ad9190614751565b6117b9565b8d61010001515b6040516117c99493929190614785565b60405180910390a460006118488d8a6004018a60400151600b81106117f1576117f0614157565b5b6003020160020160089054906101000a900462ffffff1662ffffff168b6004018b60400151600b811061182757611826614157565b5b6003020160020160059054906101000a900462ffffff1662ffffff166132c9565b90508860000160405161185a90613a87565b908152602001604051809103902060009054906101000a900473ffffffffffffffffffffffffffffffffffffffff1673ffffffffffffffffffffffffffffffffffffffff1663588e8f858d8b6004018b60400151600b81106118bf576118be614157565b5b6003020160020160039054906101000a900461ffff1661ffff168b606001516118e89190614299565b8c6004018c60400151600b811061190257611901614157565b5b6003020160020160039054906101000a900461ffff1661ffff168c6080015161192b9190614299565b858d60a0015161193b9190614299565b876040518663ffffffff1660e01b815260040161195c95949392919061486b565b600060405180830381600087803b15801561197657600080fd5b505af115801561198a573d6000803e3d6000fd5b50505050505b6001985050505050505050509392505050565b6000806119ae6107e5565b9050806000016040516119c090613bdd565b908152602001604051809103902060009054906101000a900473ffffffffffffffffffffffffffffffffffffffff1673ffffffffffffffffffffffffffffffffffffffff16637aa085746040518163ffffffff1660e01b8152600401602060405180830381865afa158015611a39573d6000803e3d6000fd5b505050506040513d601f19601f82011682018060405250810190611a5d9190613b64565b91505090565b6000611a6d6107e5565b905060008060008060008060328911611b555786600001604051611a9090613a87565b908152602001604051809103902060009054906101000a900473ffffffffffffffffffffffffffffffffffffffff1673ffffffffffffffffffffffffffffffffffffffff1663738258938a6040518263ffffffff1660e01b8152600401611af7919061370b565b60c060405180830381865afa158015611b14573d6000803e3d6000fd5b505050506040513d601f19601f82011682018060405250810190611b3891906148be565b809650819750829850839950849a50859b50505050505050611c26565b86600001604051611b6590613a87565b908152602001604051809103902060009054906101000a900473ffffffffffffffffffffffffffffffffffffffff1673ffffffffffffffffffffffffffffffffffffffff1663357c498a8a6040518263ffffffff1660e01b8152600401611bcc919061370b565b60c060405180830381865afa158015611be9573d6000803e3d6000fd5b505050506040513d601f19601f82011682018060405250810190611c0d91906148be565b809650819750829850839950849a50859b505050505050505b808814611c3257600080fd5b86600001604051611c4290613a87565b908152602001604051809103902060009054906101000a900473ffffffffffffffffffffffffffffffffffffffff1673ffffffffffffffffffffffffffffffffffffffff16638c4b4b42848488886040518563ffffffff1660e01b8152600401611caf949392919061494b565b600060405180830381600087803b158015611cc957600080fd5b505af1158015611cdd573d6000803e3d6000fd5b5050505086600001604051611cf1906146ca565b908152602001604051809103902060009054906101000a900473ffffffffffffffffffffffffffffffffffffffff1673ffffffffffffffffffffffffffffffffffffffff1663f5298aca8b8b8b6040518463ffffffff1660e01b8152600401611d5c93929190614990565b600060405180830381600087803b158015611d7657600080fd5b505af1158015611d8a573d6000803e3d6000fd5b5050505086600001604051611d9e90613f70565b908152602001604051809103902060009054906101000a900473ffffffffffffffffffffffffffffffffffffffff1673ffffffffffffffffffffffffffffffffffffffff166323b872dd8b89600001604051611df990613fd1565b908152602001604051809103902060009054906101000a900473ffffffffffffffffffffffffffffffffffffffff16896040518463ffffffff1660e01b8152600401611e4793929190614066565b6020604051808303816000875af1158015611e66573d6000803e3d6000fd5b505050506040513d601f19601f82011682018060405250810190611e8a91906140c9565b50611e98838387878a612cda565b60008088600001604051611eab90613a87565b908152602001604051809103902060009054906101000a900473ffffffffffffffffffffffffffffffffffffffff1673ffffffffffffffffffffffffffffffffffffffff16632b2e8efb8d8d60006040518463ffffffff1660e01b8152600401611f17939291906149c7565b6000604051808303816000875af1158015611f36573d6000803e3d6000fd5b505050506040513d6000823e3d601f19601f82011682018060405250810190611f5f91906149fe565b915091508a828d73ffffffffffffffffffffffffffffffffffffffff167f2b5c6da75471a32fa816831df06c6a172203625ece9bf5c72a71f67c6aabff818d8c600187604051611fb29493929190614aaf565b60405180910390a4505050505050505050505050565b600080611fd36107e5565b90508473ffffffffffffffffffffffffffffffffffffffff1681600001604051611ffc90613d40565b908152602001604051809103902060009054906101000a900473ffffffffffffffffffffffffffffffffffffffff1673ffffffffffffffffffffffffffffffffffffffff16636352211e866040518263ffffffff1660e01b8152600401612063919061370b565b602060405180830381865afa158015612080573d6000803e3d6000fd5b505050506040513d601f19601f820116820180604052508101906120a49190613db3565b73ffffffffffffffffffffffffffffffffffffffff16146120fa576040517f08c379a00000000000000000000000000000000000000000000000000000000081526004016120f190613e2c565b60405180910390fd5b60008160000160405161210c90613a87565b908152602001604051809103902060009054906101000a900473ffffffffffffffffffffffffffffffffffffffff1673ffffffffffffffffffffffffffffffffffffffff16631c4de8d7866040518263ffffffff1660e01b8152600401612173919061370b565b61012060405180830381865afa158015612191573d6000803e3d6000fd5b505050506040513d601f19601f820116820180604052508101906121b5919061426b565b905060011515826004018260400151600b81106121d5576121d4614157565b5b6003020160000160009054906101000a900460ff1615151461222c576040517f08c379a0000000000000000000000000000000000000000000000000000000008152600401612223906145f7565b60405180910390fd5b6000806000808560000160405161224290613a87565b908152602001604051809103902060009054906101000a900473ffffffffffffffffffffffffffffffffffffffff1673ffffffffffffffffffffffffffffffffffffffff16637bcb71a689886004018860400151600b81106122a7576122a6614157565b5b60030201600101546040518363ffffffff1660e01b81526004016122cc929190613a07565b6080604051808303816000875af11580156122eb573d6000803e3d6000fd5b505050506040513d601f19601f8201168201806040525081019061230f9190614617565b935093509350935085600001604051612327906146ca565b908152602001604051809103902060009054906101000a900473ffffffffffffffffffffffffffffffffffffffff1673ffffffffffffffffffffffffffffffffffffffff1663f5298aca8b8a60016040518463ffffffff1660e01b81526004016123939392919061471a565b600060405180830381600087803b1580156123ad57600080fd5b505af11580156123c1573d6000803e3d6000fd5b50505050856000016040516123d590613f70565b908152602001604051809103902060009054906101000a900473ffffffffffffffffffffffffffffffffffffffff1673ffffffffffffffffffffffffffffffffffffffff166323b872dd8b8860000160405161243090613fd1565b908152602001604051809103902060009054906101000a900473ffffffffffffffffffffffffffffffffffffffff16896004018960400151600b811061247957612478614157565b5b60030201600101546040518463ffffffff1660e01b815260040161249f93929190614066565b6020604051808303816000875af11580156124be573d6000803e3d6000fd5b505050506040513d601f19601f820116820180604052508101906124e291906140c9565b50612511838286858a6004018a60400151600b811061250457612503614157565b5b6003020160010154612cda565b6000856040015103612651578560000160405161252d90613a87565b908152602001604051809103902060009054906101000a900473ffffffffffffffffffffffffffffffffffffffff1673ffffffffffffffffffffffffffffffffffffffff16630e1c1b2b8a87604001516040518363ffffffff1660e01b815260040161259a929190613a07565b600060405180830381600087803b1580156125b457600080fd5b505af11580156125c8573d6000803e3d6000fd5b5050505087898b73ffffffffffffffffffffffffffffffffffffffff167f9c2d00f9bd857ba01e3db2db9ad693ac6ada7c0d12cf673bddac07e2f52f93cf6001808b6004018b60400151600b811061262357612622614157565b5b600302016001015460405161263a93929190614afb565b60405180910390a4600196505050505050506128cc565b600061265c8b613236565b90508560a00151811161271d578660000160405161267990613a87565b908152602001604051809103902060009054906101000a900473ffffffffffffffffffffffffffffffffffffffff1673ffffffffffffffffffffffffffffffffffffffff16630e1c1b2b8b88604001516040518363ffffffff1660e01b81526004016126e6929190613a07565b600060405180830381600087803b15801561270057600080fd5b505af1158015612714573d6000803e3d6000fd5b50505050612843565b60006127948c896004018960400151600b811061273d5761273c614157565b5b6003020160020160089054906101000a900462ffffff1662ffffff168a6004018a60400151600b811061277357612772614157565b5b6003020160020160059054906101000a900462ffffff1662ffffff166132c9565b9050876000016040516127a690613a87565b908152602001604051809103902060009054906101000a900473ffffffffffffffffffffffffffffffffffffffff1673ffffffffffffffffffffffffffffffffffffffff1663a76373c18c836040518363ffffffff1660e01b815260040161280f929190613a07565b600060405180830381600087803b15801561282957600080fd5b505af115801561283d573d6000803e3d6000fd5b50505050505b888a8c73ffffffffffffffffffffffffffffffffffffffff167f9c2d00f9bd857ba01e3db2db9ad693ac6ada7c0d12cf673bddac07e2f52f93cf60018a60a001518611158c6004018c60400151600b81106128a1576128a0614157565b5b60030201600101546040516128b893929190614afb565b60405180910390a460019750505050505050505b9392505050565b60008060006128e06107e5565b9050600080826000016040516128f590613a87565b908152602001604051809103902060009054906101000a900473ffffffffffffffffffffffffffffffffffffffff1673ffffffffffffffffffffffffffffffffffffffff166373825893876040518263ffffffff1660e01b815260040161295c919061370b565b60c060405180830381865afa158015612979573d6000803e3d6000fd5b505050506040513d601f19601f8201168201806040525081019061299d91906148be565b9550505050509150818194509450505050915091565b600080600090505b600183516129c99190614751565b811015612a4c5760006001826129df9190614299565b90505b8351811015612a3e578381815181106129fe576129fd614157565b5b6020026020010151848381518110612a1957612a18614157565b5b602002602001015103612a3157600192505050612a52565b80806001019150506129e2565b5080806001019150506129bb565b50600090505b919050565b600080612a626107e5565b905060005b8351811015612b8c578473ffffffffffffffffffffffffffffffffffffffff1682600001604051612a9790614142565b908152602001604051809103902060009054906101000a900473ffffffffffffffffffffffffffffffffffffffff1673ffffffffffffffffffffffffffffffffffffffff16636352211e868481518110612af457612af3614157565b5b60200260200101516040518263ffffffff1660e01b8152600401612b18919061370b565b602060405180830381865afa158015612b35573d6000803e3d6000fd5b505050506040513d601f19601f82011682018060405250810190612b599190613db3565b73ffffffffffffffffffffffffffffffffffffffff1614612b7f57600092505050612b93565b8080600101915050612a67565b5060019150505b92915050565b600080612ba46107e5565b90506000805b8451811015612ccf5782602501600084600001604051612bc990613a87565b908152602001604051809103902060009054906101000a900473ffffffffffffffffffffffffffffffffffffffff1673ffffffffffffffffffffffffffffffffffffffff166342ab8805888581518110612c2657612c25614157565b5b60200260200101516040518263ffffffff1660e01b8152600401612c4a919061370b565b608060405180830381865afa158015612c67573d6000803e3d6000fd5b505050506040513d601f19601f82011682018060405250810190612c8b9190614baa565b60200151815260200190815260200160002060010160009054906101000a900462ffffff1662ffffff1682612cc09190614299565b91508080600101915050612baa565b508092505050919050565b6000612ce46107e5565b90506000806000806000612cf787613334565b94509450945094509450600086600001604051612d1390613f70565b908152602001604051809103902060009054906101000a900473ffffffffffffffffffffffffffffffffffffffff1690508073ffffffffffffffffffffffffffffffffffffffff1663a9059cbb8d8d6040518363ffffffff1660e01b8152600401612d7f929190614bd7565b6020604051808303816000875af1158015612d9e573d6000803e3d6000fd5b505050506040513d601f19601f82011682018060405250810190612dc291906140c9565b508073ffffffffffffffffffffffffffffffffffffffff1663a9059cbb8b8b6040518363ffffffff1660e01b8152600401612dfe929190614bd7565b6020604051808303816000875af1158015612e1d573d6000803e3d6000fd5b505050506040513d601f19601f82011682018060405250810190612e4191906140c9565b508073ffffffffffffffffffffffffffffffffffffffff1663a9059cbb88600001604051612e6e90614c4c565b908152602001604051809103902060009054906101000a900473ffffffffffffffffffffffffffffffffffffffff16866040518363ffffffff1660e01b8152600401612ebb929190614bd7565b6020604051808303816000875af1158015612eda573d6000803e3d6000fd5b505050506040513d601f19601f82011682018060405250810190612efe91906140c9565b508073ffffffffffffffffffffffffffffffffffffffff1663a9059cbb88600001604051612f2b90614cad565b908152602001604051809103902060009054906101000a900473ffffffffffffffffffffffffffffffffffffffff16876040518363ffffffff1660e01b8152600401612f78929190614bd7565b6020604051808303816000875af1158015612f97573d6000803e3d6000fd5b505050506040513d601f19601f82011682018060405250810190612fbb91906140c9565b508073ffffffffffffffffffffffffffffffffffffffff1663a9059cbb88600001604051612fe890614d0e565b908152602001604051809103902060009054906101000a900473ffffffffffffffffffffffffffffffffffffffff16886040518363ffffffff1660e01b8152600401613035929190614bd7565b6020604051808303816000875af1158015613054573d6000803e3d6000fd5b505050506040513d601f19601f8201168201806040525081019061307891906140c9565b508660000160405161308990614cad565b908152602001604051809103902060009054906101000a900473ffffffffffffffffffffffffffffffffffffffff1673ffffffffffffffffffffffffffffffffffffffff1663b81d9a346000876040518363ffffffff1660e01b81526004016130f3929190614d23565b600060405180830381600087803b15801561310d57600080fd5b505af1158015613121573d6000803e3d6000fd5b505050508660000160405161313590614d0e565b908152602001604051809103902060009054906101000a900473ffffffffffffffffffffffffffffffffffffffff1673ffffffffffffffffffffffffffffffffffffffff16638bc2fa3a876040518263ffffffff1660e01b815260040161319c919061370b565b600060405180830381600087803b1580156131b657600080fd5b505af11580156131ca573d6000803e3d6000fd5b50505050848760260160010160008282546131e59190614299565b92505081905550818760260160000160008282546132039190614299565b92505081905550828760260160020160008282546132219190614299565b92505081905550505050505050505050505050565b6000806132416107e5565b9050600042844160405160200161325a93929190614df0565b6040516020818303038152906040528051906020012090506000600160008460010160000160009054906101000a900462ffffff166132999190614e2d565b6132a39190614e64565b62ffffff168260001c6132b69190614e9b565b6132c09190614299565b92505050919050565b6000804285416040516020016132e193929190614df0565b60405160208183030381529060405280519060200120905082600184866133089190614751565b6133129190614299565b8260001c6133209190614e9b565b61332a9190614299565b9150509392505050565b6000806000806000806133456107e5565b9050600060648260260160030160009054906101000a900462ffffff1662ffffff16896133729190614015565b61337c919061442f565b9050600060648360260160030160039054906101000a900462ffffff1662ffffff168a6133a99190614015565b6133b3919061442f565b9050600060648460260160030160099054906101000a900462ffffff1662ffffff168b6133e09190614015565b6133ea919061442f565b90506000606485602601600301600c9054906101000a900462ffffff1662ffffff168c6134179190614015565b613421919061442f565b9050600060648660260160030160069054906101000a900462ffffff1662ffffff168d61344e9190614015565b613458919061442f565b905084848484849a509a509a509a509a5050505050505091939590929450565b6040518060e00160405280600060ff16815260200160608152602001600081526020016000815260200160008152602001600081526020016000151581525090565b6000819050919050565b6134cd816134ba565b82525050565b60006060820190506134e860008301866134c4565b6134f560208301856134c4565b61350260408301846134c4565b949350505050565b6000604051905090565b600080fd5b600080fd5b600060ff82169050919050565b6135348161351e565b811461353f57600080fd5b50565b6000813590506135518161352b565b92915050565b60006020828403121561356d5761356c613514565b5b600061357b84828501613542565b91505092915050565b61358d8161351e565b82525050565b600081519050919050565b600082825260208201905092915050565b60005b838110156135cd5780820151818401526020810190506135b2565b60008484015250505050565b6000601f19601f8301169050919050565b60006135f582613593565b6135ff818561359e565b935061360f8185602086016135af565b613618816135d9565b840191505092915050565b61362c816134ba565b82525050565b60008115159050919050565b61364781613632565b82525050565b600060e0830160008301516136656000860182613584565b506020830151848203602086015261367d82826135ea565b91505060408301516136926040860182613623565b5060608301516136a56060860182613623565b5060808301516136b86080860182613623565b5060a08301516136cb60a0860182613623565b5060c08301516136de60c086018261363e565b508091505092915050565b60006020820190508181036000830152613703818461364d565b905092915050565b600060208201905061372060008301846134c4565b92915050565b61372f816134ba565b811461373a57600080fd5b50565b60008135905061374c81613726565b92915050565b600080fd5b7f4e487b7100000000000000000000000000000000000000000000000000000000600052604160045260246000fd5b61378f826135d9565b810181811067ffffffffffffffff821117156137ae576137ad613757565b5b80604052505050565b60006137c161350a565b90506137cd8282613786565b919050565b600067ffffffffffffffff8211156137ed576137ec613757565b5b602082029050602081019050919050565b600080fd5b6000613816613811846137d2565b6137b7565b90508083825260208201905060208402830185811115613839576138386137fe565b5b835b81811015613862578061384e888261373d565b84526020840193505060208101905061383b565b5050509392505050565b600082601f83011261388157613880613752565b5b8135613891848260208601613803565b91505092915050565b600080604083850312156138b1576138b0613514565b5b60006138bf8582860161373d565b925050602083013567ffffffffffffffff8111156138e0576138df613519565b5b6138ec8582860161386c565b9150509250929050565b6138ff81613632565b82525050565b600060208201905061391a60008301846138f6565b92915050565b6000806040838503121561393757613936613514565b5b60006139458582860161373d565b92505060206139568582860161373d565b9150509250929050565b60006020828403121561397657613975613514565b5b60006139848482850161373d565b91505092915050565b600082825260208201905092915050565b60006139a982613593565b6139b3818561398d565b93506139c38185602086016135af565b6139cc816135d9565b840191505092915050565b600060408201905081810360008301526139f1818561399e565b9050613a0060208301846134c4565b9392505050565b6000604082019050613a1c60008301856134c4565b613a2960208301846134c4565b9392505050565b600081905092915050565b7f6462000000000000000000000000000000000000000000000000000000000000600082015250565b6000613a71600283613a30565b9150613a7c82613a3b565b600282019050919050565b6000613a9282613a64565b9150819050919050565b600081519050613aab81613726565b92915050565b600080600060608486031215613aca57613ac9613514565b5b6000613ad886828701613a9c565b9350506020613ae986828701613a9c565b9250506040613afa86828701613a9c565b9150509250925092565b7f4e487b7100000000000000000000000000000000000000000000000000000000600052602260045260246000fd5b60006002820490506001821680613b4b57607f821691505b602082108103613b5e57613b5d613b04565b5b50919050565b600060208284031215613b7a57613b79613514565b5b6000613b8884828501613a9c565b91505092915050565b7f7030000000000000000000000000000000000000000000000000000000000000600082015250565b6000613bc7600283613a30565b9150613bd282613b91565b600282019050919050565b6000613be882613bba565b9150819050919050565b600080fd5b600067ffffffffffffffff821115613c1257613c11613757565b5b613c1b826135d9565b9050602081019050919050565b6000613c3b613c3684613bf7565b6137b7565b905082815260208101848484011115613c5757613c56613bf2565b5b613c628482856135af565b509392505050565b600082601f830112613c7f57613c7e613752565b5b8151613c8f848260208601613c28565b91505092915050565b60008060408385031215613caf57613cae613514565b5b600083015167ffffffffffffffff811115613ccd57613ccc613519565b5b613cd985828601613c6a565b9250506020613cea85828601613a9c565b9150509250929050565b7f6169656e00000000000000000000000000000000000000000000000000000000600082015250565b6000613d2a600483613a30565b9150613d3582613cf4565b600482019050919050565b6000613d4b82613d1d565b9150819050919050565b600073ffffffffffffffffffffffffffffffffffffffff82169050919050565b6000613d8082613d55565b9050919050565b613d9081613d75565b8114613d9b57600080fd5b50565b600081519050613dad81613d87565b92915050565b600060208284031215613dc957613dc8613514565b5b6000613dd784828501613d9e565b91505092915050565b7f6e6f74206f776e65720000000000000000000000000000000000000000000000600082015250565b6000613e1660098361398d565b9150613e2182613de0565b602082019050919050565b60006020820190508181036000830152613e4581613e09565b9050919050565b7f6475706c69636174652070662069640000000000000000000000000000000000600082015250565b6000613e82600f8361398d565b9150613e8d82613e4c565b602082019050919050565b60006020820190508181036000830152613eb181613e75565b9050919050565b7f6e6f74206f776e6572206f6620706572667269656e6473000000000000000000600082015250565b6000613eee60178361398d565b9150613ef982613eb8565b602082019050919050565b60006020820190508181036000830152613f1d81613ee1565b9050919050565b7f7065720000000000000000000000000000000000000000000000000000000000600082015250565b6000613f5a600383613a30565b9150613f6582613f24565b600382019050919050565b6000613f7b82613f4d565b9150819050919050565b7f6469737472696275746500000000000000000000000000000000000000000000600082015250565b6000613fbb600a83613a30565b9150613fc682613f85565b600a82019050919050565b6000613fdc82613fae565b9150819050919050565b7f4e487b7100000000000000000000000000000000000000000000000000000000600052601160045260246000fd5b6000614020826134ba565b915061402b836134ba565b9250828202614039816134ba565b915082820484148315176140505761404f613fe6565b5b5092915050565b61406081613d75565b82525050565b600060608201905061407b6000830186614057565b6140886020830185614057565b61409560408301846134c4565b949350505050565b6140a681613632565b81146140b157600080fd5b50565b6000815190506140c38161409d565b92915050565b6000602082840312156140df576140de613514565b5b60006140ed848285016140b4565b91505092915050565b7f706572667269656e647300000000000000000000000000000000000000000000600082015250565b600061412c600a83613a30565b9150614137826140f6565b600a82019050919050565b600061414d8261411f565b9150819050919050565b7f4e487b7100000000000000000000000000000000000000000000000000000000600052603260045260246000fd5b600080fd5b600061012082840312156141a2576141a1614186565b5b6141ad6101206137b7565b905060006141bd84828501613a9c565b60008301525060206141d184828501613a9c565b60208301525060406141e584828501613a9c565b60408301525060606141f984828501613a9c565b606083015250608061420d84828501613a9c565b60808301525060a061422184828501613a9c565b60a08301525060c061423584828501613a9c565b60c08301525060e061424984828501613a9c565b60e08301525061010061425e84828501613a9c565b6101008301525092915050565b6000610120828403121561428257614281613514565b5b60006142908482850161418b565b91505092915050565b60006142a4826134ba565b91506142af836134ba565b92508282019050808211156142c7576142c6613fe6565b5b92915050565b6000819050919050565b6000819050919050565b60006142fc6142f76142f2846142cd565b6142d7565b6134ba565b9050919050565b61430c816142e1565b82525050565b600061012082019050614328600083018c6134c4565b614335602083018b6134c4565b614342604083018a6134c4565b61434f60608301896134c4565b61435c60808301886134c4565b61436960a08301876134c4565b61437660c0830186614303565b61438360e08301856134c4565b6143916101008301846134c4565b9a9950505050505050505050565b7f7465616d00000000000000000000000000000000000000000000000000000000600082015250565b60006143d5600483613a30565b91506143e08261439f565b600482019050919050565b60006143f6826143c8565b9150819050919050565b7f4e487b7100000000000000000000000000000000000000000000000000000000600052601260045260246000fd5b600061443a826134ba565b9150614445836134ba565b92508261445557614454614400565b5b828204905092915050565b600081519050919050565b600082825260208201905092915050565b6000819050602082019050919050565b60006144988383613623565b60208301905092915050565b6000602082019050919050565b60006144bc82614460565b6144c6818561446b565b93506144d18361447c565b8060005b838110156145025781516144e9888261448c565b97506144f4836144a4565b9250506001810190506144d5565b5085935050505092915050565b600060408201905061452460008301856134c4565b818103602083015261453681846144b1565b90509392505050565b7f6e6f74207072656d69756d206c6576656c000000000000000000000000000000600082015250565b600061457560118361398d565b91506145808261453f565b602082019050919050565b600060208201905081810360008301526145a481614568565b9050919050565b7f6e6f74206f70656e000000000000000000000000000000000000000000000000600082015250565b60006145e160088361398d565b91506145ec826145ab565b602082019050919050565b60006020820190508181036000830152614610816145d4565b9050919050565b6000806000806080858703121561463157614630613514565b5b600061463f87828801613d9e565b945050602061465087828801613d9e565b935050604061466187828801613a9c565b925050606061467287828801613a9c565b91505092959194509250565b7f6974656d00000000000000000000000000000000000000000000000000000000600082015250565b60006146b4600483613a30565b91506146bf8261467e565b600482019050919050565b60006146d5826146a7565b9150819050919050565b6000819050919050565b60006147046146ff6146fa846146df565b6142d7565b6134ba565b9050919050565b614714816146e9565b82525050565b600060608201905061472f6000830186614057565b61473c60208301856134c4565b614749604083018461470b565b949350505050565b600061475c826134ba565b9150614767836134ba565b925082820390508181111561477f5761477e613fe6565b5b92915050565b600060808201905061479a600083018761470b565b6147a760208301866138f6565b6147b460408301856134c4565b6147c160608301846134c4565b95945050505050565b600062ffffff82169050919050565b60006147f46147ef6147ea846147ca565b6142d7565b6134ba565b9050919050565b614804816147d9565b82525050565b600060c08201905061481f60008301896134c4565b61482c60208301886134c4565b61483960408301876134c4565b61484660608301866134c4565b61485360808301856147fb565b61486060a08301846134c4565b979650505050505050565b600060a08201905061488060008301886134c4565b61488d60208301876134c4565b61489a60408301866134c4565b6148a760608301856134c4565b6148b460808301846134c4565b9695505050505050565b60008060008060008060c087890312156148db576148da613514565b5b60006148e989828a01613a9c565b96505060206148fa89828a01613d9e565b955050604061490b89828a01613a9c565b945050606061491c89828a01613d9e565b935050608061492d89828a01613a9c565b92505060a061493e89828a01613a9c565b9150509295509295509295565b60006080820190506149606000830187614057565b61496d60208301866134c4565b61497a6040830185614057565b61498760608301846134c4565b95945050505050565b60006060820190506149a56000830186614057565b6149b260208301856134c4565b6149bf60408301846134c4565b949350505050565b60006060820190506149dc6000830186614057565b6149e960208301856134c4565b6149f66040830184614303565b949350505050565b60008060408385031215614a1557614a14613514565b5b6000614a2385828601613a9c565b925050602083015167ffffffffffffffff811115614a4457614a43613519565b5b614a5085828601613c6a565b9150509250929050565b600081519050919050565b600082825260208201905092915050565b6000614a8182614a5a565b614a8b8185614a65565b9350614a9b8185602086016135af565b614aa4816135d9565b840191505092915050565b6000608082019050614ac460008301876134c4565b614ad160208301866134c4565b614ade604083018561470b565b8181036060830152614af08184614a76565b905095945050505050565b6000606082019050614b10600083018661470b565b614b1d60208301856138f6565b614b2a60408301846134c4565b949350505050565b600060808284031215614b4857614b47614186565b5b614b5260806137b7565b90506000614b6284828501613a9c565b6000830152506020614b7684828501613a9c565b6020830152506040614b8a848285016140b4565b6040830152506060614b9e84828501613a9c565b60608301525092915050565b600060808284031215614bc057614bbf613514565b5b6000614bce84828501614b32565b91505092915050565b6000604082019050614bec6000830185614057565b614bf960208301846134c4565b9392505050565b7f6275726e00000000000000000000000000000000000000000000000000000000600082015250565b6000614c36600483613a30565b9150614c4182614c00565b600482019050919050565b6000614c5782614c29565b9150819050919050565b7f7032000000000000000000000000000000000000000000000000000000000000600082015250565b6000614c97600283613a30565b9150614ca282614c61565b600282019050919050565b6000614cb882614c8a565b9150819050919050565b7f7031000000000000000000000000000000000000000000000000000000000000600082015250565b6000614cf8600283613a30565b9150614d0382614cc2565b600282019050919050565b6000614d1982614ceb565b9150819050919050565b6000604082019050614d386000830185614303565b614d4560208301846134c4565b9392505050565b6000819050919050565b614d67614d62826134ba565b614d4c565b82525050565b60008160601b9050919050565b6000614d8582614d6d565b9050919050565b6000614d9782614d7a565b9050919050565b614daf614daa82613d75565b614d8c565b82525050565b6000614dc082613d55565b9050919050565b6000614dd282614d7a565b9050919050565b614dea614de582614db5565b614dc7565b82525050565b6000614dfc8286614d56565b602082019150614e0c8285614d9e565b601482019150614e1c8284614dd9565b601482019150819050949350505050565b6000614e38826147ca565b9150614e43836147ca565b9250828203905062ffffff811115614e5e57614e5d613fe6565b5b92915050565b6000614e6f826147ca565b9150614e7a836147ca565b9250828201905062ffffff811115614e9557614e94613fe6565b5b92915050565b6000614ea6826134ba565b9150614eb1836134ba565b925082614ec157614ec0614400565b5b82820690509291505056fea2646970667358221220375424689e7f9f012923136301bb11facc66c90cf4b4d5ef876b9f84f798d34c64736f6c63430008160033",
  "devdoc": {
    "details": "i-TEZ : P0 (Mix) Facet Contract",
    "kind": "dev",
    "methods": {},
    "version": 1
  },
  "userdoc": {
    "kind": "user",
    "methods": {
      "P0_getMaxProb()": {
        "notice": "P0 _ get functions"
      }
    },
    "version": 1
  },
  "storageLayout": {
    "storage": [],
    "types": null
  }
}