{
  "address": "0x4cE4F6daD1e072bd9dabA0aF38AC4aFdc43E86f4",
  "abi": [
    {
      "anonymous": false,
      "inputs": [
        {
          "indexed": true,
          "internalType": "address",
          "name": "to",
          "type": "address"
        },
        {
          "indexed": true,
          "internalType": "uint256",
          "name": "usePower",
          "type": "uint256"
        }
      ],
      "name": "P1_AddPower_Event",
      "type": "event"
    },
    {
      "anonymous": false,
      "inputs": [
        {
          "indexed": true,
          "internalType": "address",
          "name": "to",
          "type": "address"
        },
        {
          "indexed": true,
          "internalType": "uint256",
          "name": "rewardAmount",
          "type": "uint256"
        }
      ],
      "name": "P1_Harvest_Event",
      "type": "event"
    },
    {
      "anonymous": false,
      "inputs": [
        {
          "indexed": true,
          "internalType": "address",
          "name": "to",
          "type": "address"
        },
        {
          "indexed": true,
          "internalType": "uint256",
          "name": "stakeAmount",
          "type": "uint256"
        }
      ],
      "name": "P1_RewardStaking_Event",
      "type": "event"
    },
    {
      "anonymous": false,
      "inputs": [
        {
          "indexed": true,
          "internalType": "address",
          "name": "to",
          "type": "address"
        },
        {
          "indexed": true,
          "internalType": "uint256",
          "name": "stakeAmount",
          "type": "uint256"
        }
      ],
      "name": "P1_Staking_Event",
      "type": "event"
    },
    {
      "anonymous": false,
      "inputs": [
        {
          "indexed": true,
          "internalType": "address",
          "name": "to",
          "type": "address"
        },
        {
          "indexed": true,
          "internalType": "uint256",
          "name": "unStakeAmount",
          "type": "uint256"
        },
        {
          "indexed": true,
          "internalType": "uint256",
          "name": "pendingId",
          "type": "uint256"
        },
        {
          "indexed": false,
          "internalType": "uint256",
          "name": "burnPower",
          "type": "uint256"
        }
      ],
      "name": "P1_UnStaking_Event",
      "type": "event"
    },
    {
      "anonymous": false,
      "inputs": [
        {
          "indexed": true,
          "internalType": "address",
          "name": "to",
          "type": "address"
        },
        {
          "indexed": true,
          "internalType": "uint256",
          "name": "unStakeAmount",
          "type": "uint256"
        },
        {
          "indexed": true,
          "internalType": "uint256",
          "name": "pendingId",
          "type": "uint256"
        }
      ],
      "name": "P1_UnstakingCancelConfirm_Event",
      "type": "event"
    },
    {
      "anonymous": false,
      "inputs": [
        {
          "indexed": true,
          "internalType": "address",
          "name": "to",
          "type": "address"
        },
        {
          "indexed": true,
          "internalType": "uint256",
          "name": "unStakeAmount",
          "type": "uint256"
        },
        {
          "indexed": true,
          "internalType": "uint256",
          "name": "pendingId",
          "type": "uint256"
        }
      ],
      "name": "P1_UnstakingCancel_Event",
      "type": "event"
    },
    {
      "anonymous": false,
      "inputs": [
        {
          "indexed": true,
          "internalType": "address",
          "name": "to",
          "type": "address"
        },
        {
          "indexed": true,
          "internalType": "uint256",
          "name": "unStakeAmount",
          "type": "uint256"
        },
        {
          "indexed": true,
          "internalType": "uint256",
          "name": "pendingId",
          "type": "uint256"
        }
      ],
      "name": "P1_UnstakingConfirm_Event",
      "type": "event"
    },
    {
      "inputs": [
        {
          "internalType": "uint256",
          "name": "_aienId",
          "type": "uint256"
        },
        {
          "internalType": "uint256",
          "name": "_usePower",
          "type": "uint256"
        }
      ],
      "name": "P1_addPower",
      "outputs": [],
      "stateMutability": "nonpayable",
      "type": "function"
    },
    {
      "inputs": [],
      "name": "P1_getPoolData",
      "outputs": [
        {
          "internalType": "uint256",
          "name": "",
          "type": "uint256"
        },
        {
          "internalType": "uint256",
          "name": "",
          "type": "uint256"
        },
        {
          "internalType": "uint256",
          "name": "",
          "type": "uint256"
        }
      ],
      "stateMutability": "view",
      "type": "function"
    },
    {
      "inputs": [],
      "name": "P1_getTimeLockInfo",
      "outputs": [
        {
          "internalType": "uint16",
          "name": "",
          "type": "uint16"
        },
        {
          "internalType": "uint16",
          "name": "",
          "type": "uint16"
        }
      ],
      "stateMutability": "view",
      "type": "function"
    },
    {
      "inputs": [],
      "name": "P1_getUnstakeData",
      "outputs": [
        {
          "components": [
            {
              "internalType": "address",
              "name": "user",
              "type": "address"
            },
            {
              "internalType": "uint8",
              "name": "pendingType",
              "type": "uint8"
            },
            {
              "internalType": "uint256",
              "name": "startTime",
              "type": "uint256"
            },
            {
              "internalType": "uint256",
              "name": "endTime",
              "type": "uint256"
            },
            {
              "internalType": "uint256",
              "name": "amount",
              "type": "uint256"
            },
            {
              "internalType": "uint256",
              "name": "pendingId",
              "type": "uint256"
            }
          ],
          "internalType": "struct IP1.PendingInfo[]",
          "name": "",
          "type": "tuple[]"
        }
      ],
      "stateMutability": "view",
      "type": "function"
    },
    {
      "inputs": [
        {
          "internalType": "address",
          "name": "_addr",
          "type": "address"
        }
      ],
      "name": "P1_getUnstakeData_user",
      "outputs": [
        {
          "components": [
            {
              "internalType": "address",
              "name": "user",
              "type": "address"
            },
            {
              "internalType": "uint8",
              "name": "pendingType",
              "type": "uint8"
            },
            {
              "internalType": "uint256",
              "name": "startTime",
              "type": "uint256"
            },
            {
              "internalType": "uint256",
              "name": "endTime",
              "type": "uint256"
            },
            {
              "internalType": "uint256",
              "name": "amount",
              "type": "uint256"
            },
            {
              "internalType": "uint256",
              "name": "pendingId",
              "type": "uint256"
            }
          ],
          "internalType": "struct IP1.PendingInfo[]",
          "name": "",
          "type": "tuple[]"
        }
      ],
      "stateMutability": "view",
      "type": "function"
    },
    {
      "inputs": [],
      "name": "P1_getUserData",
      "outputs": [
        {
          "internalType": "uint256",
          "name": "",
          "type": "uint256"
        },
        {
          "internalType": "uint256",
          "name": "",
          "type": "uint256"
        },
        {
          "internalType": "uint256",
          "name": "",
          "type": "uint256"
        },
        {
          "internalType": "uint256",
          "name": "",
          "type": "uint256"
        },
        {
          "internalType": "uint256",
          "name": "",
          "type": "uint256"
        }
      ],
      "stateMutability": "view",
      "type": "function"
    },
    {
      "inputs": [],
      "name": "P1_harvest",
      "outputs": [],
      "stateMutability": "nonpayable",
      "type": "function"
    },
    {
      "inputs": [
        {
          "internalType": "address",
          "name": "_user",
          "type": "address"
        },
        {
          "internalType": "uint256",
          "name": "_withdrawBlock",
          "type": "uint256"
        }
      ],
      "name": "P1_pendingReward",
      "outputs": [
        {
          "internalType": "uint256",
          "name": "",
          "type": "uint256"
        }
      ],
      "stateMutability": "view",
      "type": "function"
    },
    {
      "inputs": [],
      "name": "P1_rewardStaking",
      "outputs": [],
      "stateMutability": "nonpayable",
      "type": "function"
    },
    {
      "inputs": [
        {
          "internalType": "uint256",
          "name": "_amount",
          "type": "uint256"
        }
      ],
      "name": "P1_staking",
      "outputs": [],
      "stateMutability": "nonpayable",
      "type": "function"
    },
    {
      "inputs": [
        {
          "internalType": "uint256",
          "name": "_amount",
          "type": "uint256"
        }
      ],
      "name": "P1_unstaking",
      "outputs": [],
      "stateMutability": "nonpayable",
      "type": "function"
    },
    {
      "inputs": [
        {
          "internalType": "uint256",
          "name": "_pendingId",
          "type": "uint256"
        }
      ],
      "name": "P1_unstakingCancel",
      "outputs": [],
      "stateMutability": "nonpayable",
      "type": "function"
    },
    {
      "inputs": [
        {
          "internalType": "uint256",
          "name": "_pendingId",
          "type": "uint256"
        }
      ],
      "name": "P1_unstakingCancelConfirm",
      "outputs": [],
      "stateMutability": "nonpayable",
      "type": "function"
    },
    {
      "inputs": [
        {
          "internalType": "uint256",
          "name": "_pendingId",
          "type": "uint256"
        }
      ],
      "name": "P1_unstakingConfirm",
      "outputs": [],
      "stateMutability": "nonpayable",
      "type": "function"
    }
  ],
  "transactionHash": "0xea7449e61ba9d2024b9d9ba7bdbf1ff97e4087fee52bad6d47f44ccd4b0f0fc8",
  "args": [],
  "numDeployments": 8,
  "solcInputHash": "615b38fc219230d616e8fc896a4bef9f",
  "bytecode": "0x608060405234801561001057600080fd5b50611359806100206000396000f3fe608060405234801561001057600080fd5b50600436106100ea5760003560e01c80637bf9f3991161008c578063abc5643111610066578063abc56431146101e6578063b10656c2146101ee578063c5ec9ca214610201578063deb378051461022457600080fd5b80637bf9f399146101a857806382c2e9e0146101bb57806388ee42fc146101c357600080fd5b80634b6b29ca116100c85780634b6b29ca1461014c578063529291d4146101545780635f01087914610167578063704b4ad21461018857600080fd5b806326a28a2a146100ef57806342f8f3301461012457806348baa7f414610139575b600080fd5b6100f7610237565b604080519586526020860194909452928401919091526060830152608082015260a0015b60405180910390f35b610137610132366004610f89565b6102e2565b005b610137610147366004610f89565b6103c3565b6101376104a4565b610137610162366004610f89565b610607565b61017a610175366004610fba565b6106f5565b60405190815260200161011b565b61019b610196366004610fe6565b61078d565b60405161011b9190611003565b6101376101b6366004610f89565b610822565b61019b610903565b6101cb6109a3565b6040805161ffff93841681529290911660208301520161011b565b610137610ab4565b6101376101fc366004610f89565b610c17565b610209610db5565b6040805193845260208401929092529082015260600161011b565b610137610232366004611087565b610e4d565b600080808080806000610248610f2d565b90508160000160405161025a906110a9565b90815260405190819003602001812054626b8fdd60e51b82526001600160a01b0383811660048401521690630d71fba09060240160a060405180830381865afa1580156102ab573d6000803e3d6000fd5b505050506040513d601f19601f820116820180604052508101906102cf91906110b7565b9650965096509650965050509091929394565b6000806102ed610f2d565b905060008083600001604051610302906110a9565b908152604051908190036020018120546327e450d360e01b82526001600160a01b0385811660048401526024830188905216906327e450d39060440160408051808303816000875af115801561035c573d6000803e3d6000fd5b505050506040513d601f19601f8201168201806040525081019061038091906110f7565b915091508082846001600160a01b03167fdce307ad8cc45c1b96ed14c0f9253faf6ef7238a708602298f240009e78405fe60405160405180910390a45050505050565b6000806103ce610f2d565b9050600080836000016040516103e3906110a9565b9081526040519081900360200181205463224463a160e21b82526001600160a01b0385811660048401526024830188905216906389118e849060440160408051808303816000875af115801561043d573d6000803e3d6000fd5b505050506040513d601f19601f8201168201806040525081019061046191906110f7565b915091508082846001600160a01b03167fc18e31d64f580a9420255733fba92e8302f3fd5322b812b344cddb995b7743ff60405160405180910390a45050505050565b6000806104af610f2d565b9050816000016040516104c1906110a9565b90815260405190819003602001812054632fb8694160e01b82526001600160a01b0383811660048401521690632fb86941906024016020604051808303816000875af1158015610515573d6000803e3d6000fd5b505050506040513d601f19601f82011682018060405250810190610539919061111b565b5060008260000160405161054c906110a9565b90815260405190819003602001812054638b487f3560e01b82526001600160a01b038481166004840152600060248401521690638b487f3590604401602060405180830381865afa1580156105a5573d6000803e3d6000fd5b505050506040513d601f19601f820116820180604052508101906105c9919061111b565b905080826001600160a01b03167fadc3fc4e0ed830a47bee2a00666364c20153e3f2786206bb495cdb2a89e67ea860405160405180910390a3505050565b600080610612610f2d565b905060008083600001604051610627906110a9565b90815260405190819003602001812054630f7cb96360e21b82526001600160a01b038581166004840152602483018890521690633df2e58c9060440160408051808303816000875af1158015610681573d6000803e3d6000fd5b505050506040513d601f19601f820116820180604052508101906106a591906110f7565b915091508085846001600160a01b03167ff1acbf9c0276d0b403a7585bc324500bc225245ea229a54faafe08dddae9c517856040516106e691815260200190565b60405180910390a45050505050565b60008080600001604051610708906110a9565b90815260405190819003602001812054638b487f3560e01b82526001600160a01b038681166004840152602483018690521690638b487f3590604401602060405180830381865afa158015610761573d6000803e3d6000fd5b505050506040513d601f19601f82011682018060405250810190610785919061111b565b949350505050565b60606000806000016040516107a1906110a9565b90815260405190819003602001812054639f2508f160e01b82526001600160a01b0385811660048401521690639f2508f190602401600060405180830381865afa1580156107f3573d6000803e3d6000fd5b505050506040513d6000823e601f3d908101601f1916820160405261081b91908101906111a4565b9392505050565b60008061082d610f2d565b905060008083600001604051610842906110a9565b9081526040519081900360200181205463a179c05560e01b82526001600160a01b03858116600484015260248301889052169063a179c0559060440160408051808303816000875af115801561089c573d6000803e3d6000fd5b505050506040513d601f19601f820116820180604052508101906108c091906110f7565b915091508082846001600160a01b03167f01caf0a99616b02736ceaea6a35a4297b9522184b82e2ddb6b7f4a6916b25caf60405160405180910390a45050505050565b6060600080610910610f2d565b905081600001604051610922906110a9565b90815260405190819003602001812054639f2508f160e01b82526001600160a01b0383811660048401521690639f2508f190602401600060405180830381865afa158015610974573d6000803e3d6000fd5b505050506040513d6000823e601f3d908101601f1916820160405261099c91908101906111a4565b9250505090565b60008080806000016040516109b7906110a9565b908152604080516020928190038301812054633be9ce0960e11b825291516001600160a01b03909216926377d39c12926004808401938290030181865afa158015610a06573d6000803e3d6000fd5b505050506040513d601f19601f82011682018060405250810190610a2a91906112af565b6040518290610a38906110a9565b90815260408051602092819003830181205463614ff36f60e11b825291516001600160a01b039092169263c29fe6de926004808401938290030181865afa158015610a87573d6000803e3d6000fd5b505050506040513d601f19601f82011682018060405250810190610aab91906112af565b92509250509091565b600080610abf610f2d565b905081600001604051610ad1906110a9565b908152604051908190036020018120546303a25aa760e01b82526001600160a01b03838116600484015216906303a25aa7906024016020604051808303816000875af1158015610b25573d6000803e3d6000fd5b505050506040513d601f19601f82011682018060405250810190610b49919061111b565b50600082600001604051610b5c906110a9565b90815260405190819003602001812054638b487f3560e01b82526001600160a01b038481166004840152600060248401521690638b487f3590604401602060405180830381865afa158015610bb5573d6000803e3d6000fd5b505050506040513d601f19601f82011682018060405250810190610bd9919061111b565b905080826001600160a01b03167f60629895e8faede9a3cf62b422082caab9bb9c908a25b13a8ea72fb20e65f22260405160405180910390a3505050565b600080610c22610f2d565b905081600001604051610c34906110a9565b90815260405190819003602001812054636053f9bb60e01b82526001600160a01b038381166004840152602483018690521690636053f9bb906044016020604051808303816000875af1158015610c8f573d6000803e3d6000fd5b505050506040513d601f19601f82011682018060405250810190610cb3919061111b565b50604051623832b960e91b81528290600301908152604051908190036020018120546001600160a01b0316906323b872dd9083908590610cf2906110a9565b908152604051908190036020018120546001600160e01b031960e085901b1682526001600160a01b039283166004830152919091166024820152604481018690526064016020604051808303816000875af1158015610d55573d6000803e3d6000fd5b505050506040513d601f19601f82011682018060405250810190610d7991906112d3565b5060405183906001600160a01b038316907fb2327801cab7c0b01aabdca29d7fb0969cb6c244660ed4e2df0a0afb1d2f23f890600090a3505050565b600080808080600001604051610dca906110a9565b908152604080519182900360200182205463415b80ab60e01b835290516001600160a01b039091169163415b80ab9160048083019260609291908290030181865afa158015610e1d573d6000803e3d6000fd5b505050506040513d601f19601f82011682018060405250810190610e4191906112f5565b93509350935050909192565b600080610e58610f2d565b905081600001604051610e6a906110a9565b90815260405190819003602001812054630c5eabd360e31b82526001600160a01b038381166004840152602483018790526044830186905216906362f55e98906064016020604051808303816000875af1158015610ecc573d6000803e3d6000fd5b505050506040513d601f19601f82011682018060405250810190610ef0919061111b565b5060405183906001600160a01b038316907f3f00fb14be48f6552027de5d877386835c7acd20bd0e63e5f6ef95c86d5b2f7890600090a350505050565b6000303303610f8357600080368080601f0160208091040260200160405190810160405280939291908181526020018383808284376000920191909152505050503601516001600160a01b03169150610f869050565b50335b90565b600060208284031215610f9b57600080fd5b5035919050565b6001600160a01b0381168114610fb757600080fd5b50565b60008060408385031215610fcd57600080fd5b8235610fd881610fa2565b946020939093013593505050565b600060208284031215610ff857600080fd5b813561081b81610fa2565b602080825282518282018190526000919060409081850190868401855b8281101561107a57815180516001600160a01b031685528681015160ff16878601528581015186860152606080820151908601526080808201519086015260a0908101519085015260c09093019290850190600101611020565b5091979650505050505050565b6000806040838503121561109a57600080fd5b50508035926020909101359150565b61703160f01b815260020190565b600080600080600060a086880312156110cf57600080fd5b5050835160208501516040860151606087015160809097015192989197509594509092509050565b6000806040838503121561110a57600080fd5b505080516020909101519092909150565b60006020828403121561112d57600080fd5b5051919050565b634e487b7160e01b600052604160045260246000fd5b60405160c0810167ffffffffffffffff8111828210171561116d5761116d611134565b60405290565b604051601f8201601f1916810167ffffffffffffffff8111828210171561119c5761119c611134565b604052919050565b600060208083850312156111b757600080fd5b825167ffffffffffffffff808211156111cf57600080fd5b818501915085601f8301126111e357600080fd5b8151818111156111f5576111f5611134565b611203848260051b01611173565b818152848101925060c091820284018501918883111561122257600080fd5b938501935b828510156112a35780858a03121561123f5760008081fd5b61124761114a565b855161125281610fa2565b81528587015160ff811681146112685760008081fd5b8188015260408681015190820152606080870151908201526080808701519082015260a0808701519082015284529384019392850192611227565b50979650505050505050565b6000602082840312156112c157600080fd5b815161ffff8116811461081b57600080fd5b6000602082840312156112e557600080fd5b8151801515811461081b57600080fd5b60008060006060848603121561130a57600080fd5b835192506020840151915060408401519050925092509256fea264697066735822122011013dab9df9d7fd736ff2549c3a2801604b1644b2286e29570bfbdae605b0f964736f6c63430008160033",
  "devdoc": {
    "kind": "dev",
    "methods": {},
    "version": 1
  },
  "userdoc": {
    "kind": "user",
    "methods": {
      "P1_getPoolData()": {
        "notice": "P1 _ get functions"
      }
    },
    "version": 1
  },
  "storageLayout": {
    "storage": [],
    "types": null
  }
}