{
  "address": "0xa311e31c3056cA4BB74eC7408572bC614d457D42",
  "abi": [
    {
      "anonymous": false,
      "inputs": [
        {
          "indexed": true,
          "internalType": "address",
          "name": "to",
          "type": "address"
        },
        {
          "indexed": true,
          "internalType": "uint256",
          "name": "usePower",
          "type": "uint256"
        }
      ],
      "name": "P1_AddPower_Event",
      "type": "event"
    },
    {
      "anonymous": false,
      "inputs": [
        {
          "indexed": true,
          "internalType": "address",
          "name": "to",
          "type": "address"
        },
        {
          "indexed": true,
          "internalType": "uint256",
          "name": "rewardAmount",
          "type": "uint256"
        }
      ],
      "name": "P1_Harvest_Event",
      "type": "event"
    },
    {
      "anonymous": false,
      "inputs": [
        {
          "indexed": true,
          "internalType": "address",
          "name": "to",
          "type": "address"
        },
        {
          "indexed": true,
          "internalType": "uint256",
          "name": "stakeAmount",
          "type": "uint256"
        }
      ],
      "name": "P1_RewardStaking_Event",
      "type": "event"
    },
    {
      "anonymous": false,
      "inputs": [
        {
          "indexed": true,
          "internalType": "address",
          "name": "to",
          "type": "address"
        },
        {
          "indexed": true,
          "internalType": "uint256",
          "name": "stakeAmount",
          "type": "uint256"
        }
      ],
      "name": "P1_Staking_Event",
      "type": "event"
    },
    {
      "anonymous": false,
      "inputs": [
        {
          "indexed": true,
          "internalType": "address",
          "name": "to",
          "type": "address"
        },
        {
          "indexed": true,
          "internalType": "uint256",
          "name": "unStakeAmount",
          "type": "uint256"
        },
        {
          "indexed": true,
          "internalType": "uint256",
          "name": "pendingId",
          "type": "uint256"
        },
        {
          "indexed": false,
          "internalType": "uint256",
          "name": "burnPower",
          "type": "uint256"
        }
      ],
      "name": "P1_UnStaking_Event",
      "type": "event"
    },
    {
      "anonymous": false,
      "inputs": [
        {
          "indexed": true,
          "internalType": "address",
          "name": "to",
          "type": "address"
        },
        {
          "indexed": true,
          "internalType": "uint256",
          "name": "unStakeAmount",
          "type": "uint256"
        },
        {
          "indexed": true,
          "internalType": "uint256",
          "name": "pendingId",
          "type": "uint256"
        }
      ],
      "name": "P1_UnstakingCancelConfirm_Event",
      "type": "event"
    },
    {
      "anonymous": false,
      "inputs": [
        {
          "indexed": true,
          "internalType": "address",
          "name": "to",
          "type": "address"
        },
        {
          "indexed": true,
          "internalType": "uint256",
          "name": "unStakeAmount",
          "type": "uint256"
        },
        {
          "indexed": true,
          "internalType": "uint256",
          "name": "pendingId",
          "type": "uint256"
        }
      ],
      "name": "P1_UnstakingCancel_Event",
      "type": "event"
    },
    {
      "anonymous": false,
      "inputs": [
        {
          "indexed": true,
          "internalType": "address",
          "name": "to",
          "type": "address"
        },
        {
          "indexed": true,
          "internalType": "uint256",
          "name": "unStakeAmount",
          "type": "uint256"
        },
        {
          "indexed": true,
          "internalType": "uint256",
          "name": "pendingId",
          "type": "uint256"
        }
      ],
      "name": "P1_UnstakingConfirm_Event",
      "type": "event"
    },
    {
      "inputs": [
        {
          "internalType": "uint256",
          "name": "_aienId",
          "type": "uint256"
        },
        {
          "internalType": "uint256",
          "name": "_usePower",
          "type": "uint256"
        }
      ],
      "name": "P1_addPower",
      "outputs": [],
      "stateMutability": "nonpayable",
      "type": "function"
    },
    {
      "inputs": [],
      "name": "P1_getPoolData",
      "outputs": [
        {
          "internalType": "uint256",
          "name": "",
          "type": "uint256"
        },
        {
          "internalType": "uint256",
          "name": "",
          "type": "uint256"
        },
        {
          "internalType": "uint256",
          "name": "",
          "type": "uint256"
        }
      ],
      "stateMutability": "view",
      "type": "function"
    },
    {
      "inputs": [],
      "name": "P1_getTimeLockInfo",
      "outputs": [
        {
          "internalType": "uint16",
          "name": "",
          "type": "uint16"
        },
        {
          "internalType": "uint16",
          "name": "",
          "type": "uint16"
        }
      ],
      "stateMutability": "view",
      "type": "function"
    },
    {
      "inputs": [],
      "name": "P1_getUnstakeData",
      "outputs": [
        {
          "components": [
            {
              "internalType": "address",
              "name": "user",
              "type": "address"
            },
            {
              "internalType": "uint8",
              "name": "pendingType",
              "type": "uint8"
            },
            {
              "internalType": "uint256",
              "name": "startTime",
              "type": "uint256"
            },
            {
              "internalType": "uint256",
              "name": "endTime",
              "type": "uint256"
            },
            {
              "internalType": "uint256",
              "name": "amount",
              "type": "uint256"
            },
            {
              "internalType": "uint256",
              "name": "pendingId",
              "type": "uint256"
            }
          ],
          "internalType": "struct IP1.PendingInfo[]",
          "name": "",
          "type": "tuple[]"
        }
      ],
      "stateMutability": "view",
      "type": "function"
    },
    {
      "inputs": [],
      "name": "P1_getUserData",
      "outputs": [
        {
          "internalType": "uint256",
          "name": "",
          "type": "uint256"
        },
        {
          "internalType": "uint256",
          "name": "",
          "type": "uint256"
        },
        {
          "internalType": "uint256",
          "name": "",
          "type": "uint256"
        },
        {
          "internalType": "uint256",
          "name": "",
          "type": "uint256"
        },
        {
          "internalType": "uint256",
          "name": "",
          "type": "uint256"
        }
      ],
      "stateMutability": "view",
      "type": "function"
    },
    {
      "inputs": [],
      "name": "P1_harvest",
      "outputs": [],
      "stateMutability": "nonpayable",
      "type": "function"
    },
    {
      "inputs": [
        {
          "internalType": "address",
          "name": "_user",
          "type": "address"
        },
        {
          "internalType": "uint256",
          "name": "_withdrawBlock",
          "type": "uint256"
        }
      ],
      "name": "P1_pendingReward",
      "outputs": [
        {
          "internalType": "uint256",
          "name": "",
          "type": "uint256"
        }
      ],
      "stateMutability": "view",
      "type": "function"
    },
    {
      "inputs": [],
      "name": "P1_rewardStaking",
      "outputs": [],
      "stateMutability": "nonpayable",
      "type": "function"
    },
    {
      "inputs": [
        {
          "internalType": "uint256",
          "name": "_amount",
          "type": "uint256"
        }
      ],
      "name": "P1_staking",
      "outputs": [],
      "stateMutability": "nonpayable",
      "type": "function"
    },
    {
      "inputs": [
        {
          "internalType": "uint256",
          "name": "_amount",
          "type": "uint256"
        }
      ],
      "name": "P1_unstaking",
      "outputs": [],
      "stateMutability": "nonpayable",
      "type": "function"
    },
    {
      "inputs": [
        {
          "internalType": "uint256",
          "name": "_pendingId",
          "type": "uint256"
        }
      ],
      "name": "P1_unstakingCancel",
      "outputs": [],
      "stateMutability": "nonpayable",
      "type": "function"
    },
    {
      "inputs": [
        {
          "internalType": "uint256",
          "name": "_pendingId",
          "type": "uint256"
        }
      ],
      "name": "P1_unstakingCancelConfirm",
      "outputs": [],
      "stateMutability": "nonpayable",
      "type": "function"
    },
    {
      "inputs": [
        {
          "internalType": "uint256",
          "name": "_pendingId",
          "type": "uint256"
        }
      ],
      "name": "P1_unstakingConfirm",
      "outputs": [],
      "stateMutability": "nonpayable",
      "type": "function"
    }
  ],
  "transactionHash": "0xb33ab42fdb62ecda65db0650553f949fb5cac968d6095575110c7c965a20cdd1",
  "args": [],
  "numDeployments": 2,
  "solcInputHash": "4f929f09ae59e44da443ccddb3da9401",
  "bytecode": "0x608060405234801561001057600080fd5b50611df9806100206000396000f3fe608060405234801561001057600080fd5b50600436106100cf5760003560e01c80637bf9f3991161008c578063abc5643111610066578063abc56431146101dd578063b10656c2146101e7578063c5ec9ca214610203578063deb3780514610223576100cf565b80637bf9f3991461018457806382c2e9e0146101a057806388ee42fc146101be576100cf565b806326a28a2a146100d457806342f8f330146100f657806348baa7f4146101125780634b6b29ca1461012e578063529291d4146101385780635f01087914610154575b600080fd5b6100dc61023f565b6040516100ed959493929190611375565b60405180910390f35b610110600480360381019061010b9190611408565b610329565b005b61012c60048036038101906101279190611408565b61044f565b005b610136610575565b005b610152600480360381019061014d9190611408565b610750565b005b61016e60048036038101906101699190611493565b610881565b60405161017b91906114d3565b60405180910390f35b61019e60048036038101906101999190611408565b610951565b005b6101a8610a77565b6040516101b59190611652565b60405180910390f35b6101c6610b55565b6040516101d4929190611691565b60405180910390f35b6101e5610cc7565b005b61020160048036038101906101fc9190611408565b610ea2565b005b61020b6110bd565b60405161021a939291906116ba565b60405180910390f35b61023d600480360381019061023891906116f1565b611186565b005b6000806000806000806102506112a7565b9050600061025c6112ac565b90508160000160405161026e90611788565b908152602001604051809103902060009054906101000a900473ffffffffffffffffffffffffffffffffffffffff1673ffffffffffffffffffffffffffffffffffffffff16630d71fba0826040518263ffffffff1660e01b81526004016102d591906117ac565b60a060405180830381865afa1580156102f2573d6000803e3d6000fd5b505050506040513d601f19601f8201168201806040525081019061031691906117dc565b9650965096509650965050509091929394565b60006103336112a7565b9050600061033f6112ac565b90506000808360000160405161035490611788565b908152602001604051809103902060009054906101000a900473ffffffffffffffffffffffffffffffffffffffff1673ffffffffffffffffffffffffffffffffffffffff166327e450d384876040518363ffffffff1660e01b81526004016103bd929190611857565b60408051808303816000875af11580156103db573d6000803e3d6000fd5b505050506040513d601f19601f820116820180604052508101906103ff9190611880565b9150915080828473ffffffffffffffffffffffffffffffffffffffff167fdce307ad8cc45c1b96ed14c0f9253faf6ef7238a708602298f240009e78405fe60405160405180910390a45050505050565b60006104596112a7565b905060006104656112ac565b90506000808360000160405161047a90611788565b908152602001604051809103902060009054906101000a900473ffffffffffffffffffffffffffffffffffffffff1673ffffffffffffffffffffffffffffffffffffffff166389118e8484876040518363ffffffff1660e01b81526004016104e3929190611857565b60408051808303816000875af1158015610501573d6000803e3d6000fd5b505050506040513d601f19601f820116820180604052508101906105259190611880565b9150915080828473ffffffffffffffffffffffffffffffffffffffff167fc18e31d64f580a9420255733fba92e8302f3fd5322b812b344cddb995b7743ff60405160405180910390a45050505050565b600061057f6112a7565b9050600061058b6112ac565b90508160000160405161059d90611788565b908152602001604051809103902060009054906101000a900473ffffffffffffffffffffffffffffffffffffffff1673ffffffffffffffffffffffffffffffffffffffff16632fb86941826040518263ffffffff1660e01b815260040161060491906117ac565b6020604051808303816000875af1158015610623573d6000803e3d6000fd5b505050506040513d601f19601f8201168201806040525081019061064791906118c0565b5060008260000160405161065a90611788565b908152602001604051809103902060009054906101000a900473ffffffffffffffffffffffffffffffffffffffff1673ffffffffffffffffffffffffffffffffffffffff16638b487f358360006040518363ffffffff1660e01b81526004016106c4929190611932565b602060405180830381865afa1580156106e1573d6000803e3d6000fd5b505050506040513d601f19601f8201168201806040525081019061070591906118c0565b9050808273ffffffffffffffffffffffffffffffffffffffff167fadc3fc4e0ed830a47bee2a00666364c20153e3f2786206bb495cdb2a89e67ea860405160405180910390a3505050565b600061075a6112a7565b905060006107666112ac565b90506000808360000160405161077b90611788565b908152602001604051809103902060009054906101000a900473ffffffffffffffffffffffffffffffffffffffff1673ffffffffffffffffffffffffffffffffffffffff16633df2e58c84876040518363ffffffff1660e01b81526004016107e4929190611857565b60408051808303816000875af1158015610802573d6000803e3d6000fd5b505050506040513d601f19601f820116820180604052508101906108269190611880565b9150915080858473ffffffffffffffffffffffffffffffffffffffff167ff1acbf9c0276d0b403a7585bc324500bc225245ea229a54faafe08dddae9c5178560405161087291906114d3565b60405180910390a45050505050565b60008061088c6112a7565b90508060000160405161089e90611788565b908152602001604051809103902060009054906101000a900473ffffffffffffffffffffffffffffffffffffffff1673ffffffffffffffffffffffffffffffffffffffff16638b487f3585856040518363ffffffff1660e01b8152600401610907929190611857565b602060405180830381865afa158015610924573d6000803e3d6000fd5b505050506040513d601f19601f8201168201806040525081019061094891906118c0565b91505092915050565b600061095b6112a7565b905060006109676112ac565b90506000808360000160405161097c90611788565b908152602001604051809103902060009054906101000a900473ffffffffffffffffffffffffffffffffffffffff1673ffffffffffffffffffffffffffffffffffffffff1663a179c05584876040518363ffffffff1660e01b81526004016109e5929190611857565b60408051808303816000875af1158015610a03573d6000803e3d6000fd5b505050506040513d601f19601f82011682018060405250810190610a279190611880565b9150915080828473ffffffffffffffffffffffffffffffffffffffff167f01caf0a99616b02736ceaea6a35a4297b9522184b82e2ddb6b7f4a6916b25caf60405160405180910390a45050505050565b60606000610a836112a7565b90506000610a8f6112ac565b905081600001604051610aa190611788565b908152602001604051809103902060009054906101000a900473ffffffffffffffffffffffffffffffffffffffff1673ffffffffffffffffffffffffffffffffffffffff16639f2508f1826040518263ffffffff1660e01b8152600401610b0891906117ac565b600060405180830381865afa158015610b25573d6000803e3d6000fd5b505050506040513d6000823e3d601f19601f82011682018060405250810190610b4e9190611b9a565b9250505090565b6000806000610b626112a7565b905080600001604051610b7490611788565b908152602001604051809103902060009054906101000a900473ffffffffffffffffffffffffffffffffffffffff1673ffffffffffffffffffffffffffffffffffffffff166377d39c126040518163ffffffff1660e01b8152600401602060405180830381865afa158015610bed573d6000803e3d6000fd5b505050506040513d601f19601f82011682018060405250810190610c119190611c0f565b81600001604051610c2190611788565b908152602001604051809103902060009054906101000a900473ffffffffffffffffffffffffffffffffffffffff1673ffffffffffffffffffffffffffffffffffffffff1663c29fe6de6040518163ffffffff1660e01b8152600401602060405180830381865afa158015610c9a573d6000803e3d6000fd5b505050506040513d601f19601f82011682018060405250810190610cbe9190611c0f565b92509250509091565b6000610cd16112a7565b90506000610cdd6112ac565b905081600001604051610cef90611788565b908152602001604051809103902060009054906101000a900473ffffffffffffffffffffffffffffffffffffffff1673ffffffffffffffffffffffffffffffffffffffff166303a25aa7826040518263ffffffff1660e01b8152600401610d5691906117ac565b6020604051808303816000875af1158015610d75573d6000803e3d6000fd5b505050506040513d601f19601f82011682018060405250810190610d9991906118c0565b50600082600001604051610dac90611788565b908152602001604051809103902060009054906101000a900473ffffffffffffffffffffffffffffffffffffffff1673ffffffffffffffffffffffffffffffffffffffff16638b487f358360006040518363ffffffff1660e01b8152600401610e16929190611932565b602060405180830381865afa158015610e33573d6000803e3d6000fd5b505050506040513d601f19601f82011682018060405250810190610e5791906118c0565b9050808273ffffffffffffffffffffffffffffffffffffffff167f60629895e8faede9a3cf62b422082caab9bb9c908a25b13a8ea72fb20e65f22260405160405180910390a3505050565b6000610eac6112a7565b90506000610eb86112ac565b905081600001604051610eca90611788565b908152602001604051809103902060009054906101000a900473ffffffffffffffffffffffffffffffffffffffff1673ffffffffffffffffffffffffffffffffffffffff16636053f9bb82856040518363ffffffff1660e01b8152600401610f33929190611857565b6020604051808303816000875af1158015610f52573d6000803e3d6000fd5b505050506040513d601f19601f82011682018060405250810190610f7691906118c0565b5081600001604051610f8790611c88565b908152602001604051809103902060009054906101000a900473ffffffffffffffffffffffffffffffffffffffff1673ffffffffffffffffffffffffffffffffffffffff166323b872dd8284600001604051610fe290611788565b908152602001604051809103902060009054906101000a900473ffffffffffffffffffffffffffffffffffffffff16866040518463ffffffff1660e01b815260040161103093929190611c9d565b6020604051808303816000875af115801561104f573d6000803e3d6000fd5b505050506040513d601f19601f820116820180604052508101906110739190611d0c565b50828173ffffffffffffffffffffffffffffffffffffffff167fb2327801cab7c0b01aabdca29d7fb0969cb6c244660ed4e2df0a0afb1d2f23f860405160405180910390a3505050565b6000806000806110cb6112a7565b9050806000016040516110dd90611788565b908152602001604051809103902060009054906101000a900473ffffffffffffffffffffffffffffffffffffffff1673ffffffffffffffffffffffffffffffffffffffff1663415b80ab6040518163ffffffff1660e01b8152600401606060405180830381865afa158015611156573d6000803e3d6000fd5b505050506040513d601f19601f8201168201806040525081019061117a9190611d39565b93509350935050909192565b60006111906112a7565b9050600061119c6112ac565b9050816000016040516111ae90611788565b908152602001604051809103902060009054906101000a900473ffffffffffffffffffffffffffffffffffffffff1673ffffffffffffffffffffffffffffffffffffffff166362f55e988286866040518463ffffffff1660e01b815260040161121993929190611d8c565b6020604051808303816000875af1158015611238573d6000803e3d6000fd5b505050506040513d601f19601f8201168201806040525081019061125c91906118c0565b50828173ffffffffffffffffffffffffffffffffffffffff167f3f00fb14be48f6552027de5d877386835c7acd20bd0e63e5f6ef95c86d5b2f7860405160405180910390a350505050565b600090565b60003073ffffffffffffffffffffffffffffffffffffffff163373ffffffffffffffffffffffffffffffffffffffff160361135557600080368080601f016020809104026020016040519081016040528093929190818152602001838380828437600081840152601f19601f820116905080830192505050505050509050600080369050905073ffffffffffffffffffffffffffffffffffffffff818301511692505050611359565b3390505b90565b6000819050919050565b61136f8161135c565b82525050565b600060a08201905061138a6000830188611366565b6113976020830187611366565b6113a46040830186611366565b6113b16060830185611366565b6113be6080830184611366565b9695505050505050565b6000604051905090565b600080fd5b600080fd5b6113e58161135c565b81146113f057600080fd5b50565b600081359050611402816113dc565b92915050565b60006020828403121561141e5761141d6113d2565b5b600061142c848285016113f3565b91505092915050565b600073ffffffffffffffffffffffffffffffffffffffff82169050919050565b600061146082611435565b9050919050565b61147081611455565b811461147b57600080fd5b50565b60008135905061148d81611467565b92915050565b600080604083850312156114aa576114a96113d2565b5b60006114b88582860161147e565b92505060206114c9858286016113f3565b9150509250929050565b60006020820190506114e86000830184611366565b92915050565b600081519050919050565b600082825260208201905092915050565b6000819050602082019050919050565b61152381611455565b82525050565b600060ff82169050919050565b61153f81611529565b82525050565b61154e8161135c565b82525050565b60c08201600082015161156a600085018261151a565b50602082015161157d6020850182611536565b5060408201516115906040850182611545565b5060608201516115a36060850182611545565b5060808201516115b66080850182611545565b5060a08201516115c960a0850182611545565b50505050565b60006115db8383611554565b60c08301905092915050565b6000602082019050919050565b60006115ff826114ee565b61160981856114f9565b93506116148361150a565b8060005b8381101561164557815161162c88826115cf565b9750611637836115e7565b925050600181019050611618565b5085935050505092915050565b6000602082019050818103600083015261166c81846115f4565b905092915050565b600061ffff82169050919050565b61168b81611674565b82525050565b60006040820190506116a66000830185611682565b6116b36020830184611682565b9392505050565b60006060820190506116cf6000830186611366565b6116dc6020830185611366565b6116e96040830184611366565b949350505050565b60008060408385031215611708576117076113d2565b5b6000611716858286016113f3565b9250506020611727858286016113f3565b9150509250929050565b600081905092915050565b7f7031000000000000000000000000000000000000000000000000000000000000600082015250565b6000611772600283611731565b915061177d8261173c565b600282019050919050565b600061179382611765565b9150819050919050565b6117a681611455565b82525050565b60006020820190506117c1600083018461179d565b92915050565b6000815190506117d6816113dc565b92915050565b600080600080600060a086880312156117f8576117f76113d2565b5b6000611806888289016117c7565b9550506020611817888289016117c7565b9450506040611828888289016117c7565b9350506060611839888289016117c7565b925050608061184a888289016117c7565b9150509295509295909350565b600060408201905061186c600083018561179d565b6118796020830184611366565b9392505050565b60008060408385031215611897576118966113d2565b5b60006118a5858286016117c7565b92505060206118b6858286016117c7565b9150509250929050565b6000602082840312156118d6576118d56113d2565b5b60006118e4848285016117c7565b91505092915050565b6000819050919050565b6000819050919050565b600061191c611917611912846118ed565b6118f7565b61135c565b9050919050565b61192c81611901565b82525050565b6000604082019050611947600083018561179d565b6119546020830184611923565b9392505050565b600080fd5b6000601f19601f8301169050919050565b7f4e487b7100000000000000000000000000000000000000000000000000000000600052604160045260246000fd5b6119a982611960565b810181811067ffffffffffffffff821117156119c8576119c7611971565b5b80604052505050565b60006119db6113c8565b90506119e782826119a0565b919050565b600067ffffffffffffffff821115611a0757611a06611971565b5b602082029050602081019050919050565b600080fd5b600080fd5b600081519050611a3181611467565b92915050565b611a4081611529565b8114611a4b57600080fd5b50565b600081519050611a5d81611a37565b92915050565b600060c08284031215611a7957611a78611a1d565b5b611a8360c06119d1565b90506000611a9384828501611a22565b6000830152506020611aa784828501611a4e565b6020830152506040611abb848285016117c7565b6040830152506060611acf848285016117c7565b6060830152506080611ae3848285016117c7565b60808301525060a0611af7848285016117c7565b60a08301525092915050565b6000611b16611b11846119ec565b6119d1565b90508083825260208201905060c08402830185811115611b3957611b38611a18565b5b835b81811015611b625780611b4e8882611a63565b84526020840193505060c081019050611b3b565b5050509392505050565b600082601f830112611b8157611b8061195b565b5b8151611b91848260208601611b03565b91505092915050565b600060208284031215611bb057611baf6113d2565b5b600082015167ffffffffffffffff811115611bce57611bcd6113d7565b5b611bda84828501611b6c565b91505092915050565b611bec81611674565b8114611bf757600080fd5b50565b600081519050611c0981611be3565b92915050565b600060208284031215611c2557611c246113d2565b5b6000611c3384828501611bfa565b91505092915050565b7f7065720000000000000000000000000000000000000000000000000000000000600082015250565b6000611c72600383611731565b9150611c7d82611c3c565b600382019050919050565b6000611c9382611c65565b9150819050919050565b6000606082019050611cb2600083018661179d565b611cbf602083018561179d565b611ccc6040830184611366565b949350505050565b60008115159050919050565b611ce981611cd4565b8114611cf457600080fd5b50565b600081519050611d0681611ce0565b92915050565b600060208284031215611d2257611d216113d2565b5b6000611d3084828501611cf7565b91505092915050565b600080600060608486031215611d5257611d516113d2565b5b6000611d60868287016117c7565b9350506020611d71868287016117c7565b9250506040611d82868287016117c7565b9150509250925092565b6000606082019050611da1600083018661179d565b611dae6020830185611366565b611dbb6040830184611366565b94935050505056fea264697066735822122055927d4d743e99346b523b3f622d5fc424c1008098ec0262dd7a3c5ed7b05ffb64736f6c63430008160033",
  "devdoc": {
    "kind": "dev",
    "methods": {},
    "version": 1
  },
  "userdoc": {
    "kind": "user",
    "methods": {
      "P1_getPoolData()": {
        "notice": "P1 _ get functions"
      }
    },
    "version": 1
  },
  "storageLayout": {
    "storage": [],
    "types": null
  }
}